{
  "contractName": "Pouch",
  "abi": [
    {
      "constant": true,
      "inputs": [],
      "name": "totalDaiDeposits",
      "outputs": [
        {
          "name": "",
          "type": "uint256"
        }
      ],
      "payable": false,
      "stateMutability": "view",
      "type": "function"
    },
    {
      "constant": true,
      "inputs": [],
      "name": "checkDaiAllowance",
      "outputs": [
        {
          "name": "",
          "type": "uint256"
        }
      ],
      "payable": false,
      "stateMutability": "view",
      "type": "function"
    },
    {
      "constant": true,
      "inputs": [],
      "name": "userBalance",
      "outputs": [
        {
          "name": "",
          "type": "uint256"
        }
      ],
      "payable": false,
      "stateMutability": "view",
      "type": "function"
    },
    {
      "constant": false,
      "inputs": [
        {
          "name": "sender",
          "type": "address"
        },
        {
          "name": "amount",
          "type": "uint256"
        }
      ],
      "name": "deposit",
      "outputs": [],
      "payable": false,
      "stateMutability": "nonpayable",
      "type": "function"
    },
    {
      "constant": false,
      "inputs": [
        {
          "name": "recipient",
          "type": "address"
        },
        {
          "name": "amount",
          "type": "uint256"
        }
      ],
      "name": "transact",
      "outputs": [],
      "payable": false,
      "stateMutability": "nonpayable",
      "type": "function"
    },
    {
      "constant": false,
      "inputs": [
        {
          "name": "amount",
          "type": "uint256"
        }
      ],
      "name": "withdraw",
      "outputs": [],
      "payable": false,
      "stateMutability": "nonpayable",
      "type": "function"
    },
    {
      "constant": true,
      "inputs": [],
      "name": "contractBalance",
      "outputs": [
        {
          "name": "",
          "type": "uint256"
        }
      ],
      "payable": false,
      "stateMutability": "view",
      "type": "function"
    }
  ],
  "bytecode": "0x6080604052734f96fe3b7a6cf9725f59d353f723c1bdb64ca6aa600360006101000a81548173ffffffffffffffffffffffffffffffffffffffff021916908373ffffffffffffffffffffffffffffffffffffffff16021790555073e7bc397dbd069fc7d0109c0636d06888bb50668c600460006101000a81548173ffffffffffffffffffffffffffffffffffffffff021916908373ffffffffffffffffffffffffffffffffffffffff160217905550600460009054906101000a900473ffffffffffffffffffffffffffffffffffffffff16600560006101000a81548173ffffffffffffffffffffffffffffffffffffffff021916908373ffffffffffffffffffffffffffffffffffffffff160217905550600360009054906101000a900473ffffffffffffffffffffffffffffffffffffffff16600660006101000a81548173ffffffffffffffffffffffffffffffffffffffff021916908373ffffffffffffffffffffffffffffffffffffffff16021790555034801561018057600080fd5b50610d76806101906000396000f3fe608060405260043610610083576000357c0100000000000000000000000000000000000000000000000000000000900463ffffffff1680631de09fb8146100885780632e1a7d4d146100b357806347e7ef24146100ee5780634f1ed5aa146101495780638b7afe2e14610174578063bf1527651461019f578063f77ac668146101ca575b600080fd5b34801561009457600080fd5b5061009d610225565b6040518082815260200191505060405180910390f35b3480156100bf57600080fd5b506100ec600480360360208110156100d657600080fd5b810190808035906020019092919050505061022b565b005b3480156100fa57600080fd5b506101476004803603604081101561011157600080fd5b81019080803573ffffffffffffffffffffffffffffffffffffffff16906020019092919080359060200190929190505050610500565b005b34801561015557600080fd5b5061015e6108b8565b6040518082815260200191505060405180910390f35b34801561018057600080fd5b506101896109e9565b6040518082815260200191505060405180910390f35b3480156101ab57600080fd5b506101b4610ae6565b6040518082815260200191505060405180910390f35b3480156101d657600080fd5b50610223600480360360408110156101ed57600080fd5b81019080803573ffffffffffffffffffffffffffffffffffffffff16906020019092919080359060200190929190505050610b2d565b005b60005481565b600260003373ffffffffffffffffffffffffffffffffffffffff1673ffffffffffffffffffffffffffffffffffffffff1681526020019081526020016000205481111515156102e2576040517f08c379a00000000000000000000000000000000000000000000000000000000081526004018080602001828103825260128152602001807f496e73756666696369656e742046756e6473000000000000000000000000000081525060200191505060405180910390fd5b600560009054906101000a900473ffffffffffffffffffffffffffffffffffffffff1673ffffffffffffffffffffffffffffffffffffffff1663852a12e3826040518263ffffffff167c010000000000000000000000000000000000000000000000000000000002815260040180828152602001915050602060405180830381600087803b15801561037357600080fd5b505af1158015610387573d6000803e3d6000fd5b505050506040513d602081101561039d57600080fd5b810190808051906020019092919050505050600660009054906101000a900473ffffffffffffffffffffffffffffffffffffffff1673ffffffffffffffffffffffffffffffffffffffff1663a9059cbb33836040518363ffffffff167c0100000000000000000000000000000000000000000000000000000000028152600401808373ffffffffffffffffffffffffffffffffffffffff1673ffffffffffffffffffffffffffffffffffffffff16815260200182815260200192505050602060405180830381600087803b15801561047457600080fd5b505af1158015610488573d6000803e3d6000fd5b505050506040513d602081101561049e57600080fd5b81019080805190602001909291905050505080600260003373ffffffffffffffffffffffffffffffffffffffff1673ffffffffffffffffffffffffffffffffffffffff1681526020019081526020016000206000828254039250508190555050565b600660009054906101000a900473ffffffffffffffffffffffffffffffffffffffff1673ffffffffffffffffffffffffffffffffffffffff166323b872dd8330846040518463ffffffff167c0100000000000000000000000000000000000000000000000000000000028152600401808473ffffffffffffffffffffffffffffffffffffffff1673ffffffffffffffffffffffffffffffffffffffff1681526020018373ffffffffffffffffffffffffffffffffffffffff1673ffffffffffffffffffffffffffffffffffffffff1681526020018281526020019350505050602060405180830381600087803b1580156105f957600080fd5b505af115801561060d573d6000803e3d6000fd5b505050506040513d602081101561062357600080fd5b810190808051906020019092919050505050806000808282540192505081905550600660009054906101000a900473ffffffffffffffffffffffffffffffffffffffff1673ffffffffffffffffffffffffffffffffffffffff1663095ea7b3600460009054906101000a900473ffffffffffffffffffffffffffffffffffffffff16836040518363ffffffff167c0100000000000000000000000000000000000000000000000000000000028152600401808373ffffffffffffffffffffffffffffffffffffffff1673ffffffffffffffffffffffffffffffffffffffff16815260200182815260200192505050600060405180830381600087803b15801561072b57600080fd5b505af115801561073f573d6000803e3d6000fd5b50505050600560009054906101000a900473ffffffffffffffffffffffffffffffffffffffff1673ffffffffffffffffffffffffffffffffffffffff1663a0712d68826040518263ffffffff167c010000000000000000000000000000000000000000000000000000000002815260040180828152602001915050602060405180830381600087803b1580156107d457600080fd5b505af11580156107e8573d6000803e3d6000fd5b505050506040513d60208110156107fe57600080fd5b81019080805190602001909291905050505080600260008473ffffffffffffffffffffffffffffffffffffffff1673ffffffffffffffffffffffffffffffffffffffff1681526020019081526020016000206000828254019250508190555060018060008473ffffffffffffffffffffffffffffffffffffffff1673ffffffffffffffffffffffffffffffffffffffff16815260200190815260200160002060006101000a81548160ff0219169083151502179055505050565b6000600660009054906101000a900473ffffffffffffffffffffffffffffffffffffffff1673ffffffffffffffffffffffffffffffffffffffff1663dd62ed3e33306040518363ffffffff167c0100000000000000000000000000000000000000000000000000000000028152600401808373ffffffffffffffffffffffffffffffffffffffff1673ffffffffffffffffffffffffffffffffffffffff1681526020018273ffffffffffffffffffffffffffffffffffffffff1673ffffffffffffffffffffffffffffffffffffffff1681526020019250505060206040518083038186803b1580156109a957600080fd5b505afa1580156109bd573d6000803e3d6000fd5b505050506040513d60208110156109d357600080fd5b8101908080519060200190929190505050905090565b6000600560009054906101000a900473ffffffffffffffffffffffffffffffffffffffff1673ffffffffffffffffffffffffffffffffffffffff166370a08231306040518263ffffffff167c0100000000000000000000000000000000000000000000000000000000028152600401808273ffffffffffffffffffffffffffffffffffffffff1673ffffffffffffffffffffffffffffffffffffffff16815260200191505060206040518083038186803b158015610aa657600080fd5b505afa158015610aba573d6000803e3d6000fd5b505050506040513d6020811015610ad057600080fd5b8101908080519060200190929190505050905090565b6000600260003373ffffffffffffffffffffffffffffffffffffffff1673ffffffffffffffffffffffffffffffffffffffff16815260200190815260200160002054905090565b60011515600160003373ffffffffffffffffffffffffffffffffffffffff1673ffffffffffffffffffffffffffffffffffffffff16815260200190815260200160002060009054906101000a900460ff161515141515610bf5576040517f08c379a00000000000000000000000000000000000000000000000000000000081526004018080602001828103825260158152602001807f53656e646572206e6f742072656769737465726564000000000000000000000081525060200191505060405180910390fd5b600260003373ffffffffffffffffffffffffffffffffffffffff1673ffffffffffffffffffffffffffffffffffffffff168152602001908152602001600020548111151515610cac576040517f08c379a00000000000000000000000000000000000000000000000000000000081526004018080602001828103825260128152602001807f496e73756666696369656e742046756e6473000000000000000000000000000081525060200191505060405180910390fd5b80600260003373ffffffffffffffffffffffffffffffffffffffff1673ffffffffffffffffffffffffffffffffffffffff1681526020019081526020016000206000828254039250508190555080600260008473ffffffffffffffffffffffffffffffffffffffff1673ffffffffffffffffffffffffffffffffffffffff16815260200190815260200160002060008282540192505081905550505056fea165627a7a723058200babc66f6cf5388d9adecf1acb1b345646d280eb65f74a709e7eb176630df1b00029",
  "source": "pragma solidity >=0.5.0;\n\ninterface MintInterface {\n    function mint(uint256) external returns (uint256);\n    function redeemUnderlying(uint256 redeemAmount) external returns (uint256);\n    function balanceOf(address owner) external view returns (uint256);\n}\n\ncontract TokenInterface {\n    mapping(address => uint256) public nonces;\n    function allowance(address, address) external view returns (uint256);\n    function approve(address, uint256) external;\n    function transfer(address, uint256) external returns (bool);\n    function transferFrom(address, address, uint256) external returns (bool);\n    function permit(\n        address,\n        address,\n        uint256,\n        uint256,\n        bool,\n        uint8,\n        bytes32,\n        bytes32\n    ) external;\n}\n\ncontract Pouch {\n    uint256 public totalDaiDeposits;\n    mapping(address => bool) registeredUser;\n    mapping(address => uint256) balances;\n\n    address daiAddress = 0x4F96Fe3b7A6Cf9725f59d353F723c1bDb64CA6Aa;\n    address cDaiAddress = 0xe7bc397DBd069fC7d0109C0636d06888bb50668c;\n\n    MintInterface cDai = MintInterface(cDaiAddress);\n    TokenInterface dai = TokenInterface(daiAddress);\n\n    function checkDaiAllowance() external view returns (uint256) {\n        return dai.allowance(msg.sender, address(this));\n    }\n\n    function userBalance() external view returns (uint256) {\n        return balances[msg.sender];\n    }\n\n    function deposit(address sender, uint256 amount) external {\n        dai.transferFrom(sender, address(this), amount);\n        totalDaiDeposits += amount;\n        dai.approve(cDaiAddress, amount);\n        cDai.mint(amount);\n        balances[sender] += amount;\n        registeredUser[sender] = true;\n    }\n\n    function transact(address recipient, uint256 amount) external {\n        require(registeredUser[msg.sender] == true, \"Sender not registered\");\n        require(amount <= balances[msg.sender], \"Insufficient Funds\");\n        balances[msg.sender] -= amount;\n        balances[recipient] += amount;\n    }\n\n    function withdraw(uint256 amount) external {\n        require(amount <= balances[msg.sender], \"Insufficient Funds\");\n        cDai.redeemUnderlying(amount);\n        dai.transfer(msg.sender, amount);\n        balances[msg.sender] -= amount;\n    }\n\n    function contractBalance() external view returns (uint256) {\n        return cDai.balanceOf(address(this));\n    }\n}\n",
  "sourcePath": "/home/roheat/blockchain/projects/biconomy/boundless/contracts/Boundless.sol",
  "compiler": {
    "name": "solc",
    "version": "0.5.0+commit.1d4f565a.Emscripten.clang"
  },
  "schemaVersion": "3.0.1",
  "updatedAt": "2020-02-07T18:45:33.640Z",
  "devdoc": {
    "methods": {}
  },
  "userdoc": {
    "methods": {}
  }
}