{
  "contractName": "PouchDelegate",
  "abi": [
    {
      "constant": true,
      "inputs": [],
      "name": "name",
      "outputs": [
        {
          "name": "",
          "type": "string"
        }
      ],
      "payable": false,
      "stateMutability": "view",
      "type": "function",
      "signature": "0x06fdde03"
    },
    {
      "constant": false,
      "inputs": [
        {
          "name": "_spender",
          "type": "address"
        },
        {
          "name": "_value",
          "type": "uint256"
        }
      ],
      "name": "approve",
      "outputs": [
        {
          "name": "success",
          "type": "bool"
        }
      ],
      "payable": false,
      "stateMutability": "nonpayable",
      "type": "function",
      "signature": "0x095ea7b3"
    },
    {
      "constant": true,
      "inputs": [],
      "name": "totalSupply",
      "outputs": [
        {
          "name": "",
          "type": "uint256"
        }
      ],
      "payable": false,
      "stateMutability": "view",
      "type": "function",
      "signature": "0x18160ddd"
    },
    {
      "constant": false,
      "inputs": [
        {
          "name": "_from",
          "type": "address"
        },
        {
          "name": "_to",
          "type": "address"
        },
        {
          "name": "_value",
          "type": "uint256"
        }
      ],
      "name": "transferFrom",
      "outputs": [
        {
          "name": "success",
          "type": "bool"
        }
      ],
      "payable": false,
      "stateMutability": "nonpayable",
      "type": "function",
      "signature": "0x23b872dd"
    },
    {
      "constant": true,
      "inputs": [
        {
          "name": "",
          "type": "address"
        }
      ],
      "name": "balances",
      "outputs": [
        {
          "name": "",
          "type": "uint256"
        }
      ],
      "payable": false,
      "stateMutability": "view",
      "type": "function",
      "signature": "0x27e235e3"
    },
    {
      "constant": true,
      "inputs": [],
      "name": "PERMIT_TYPEHASH",
      "outputs": [
        {
          "name": "",
          "type": "bytes32"
        }
      ],
      "payable": false,
      "stateMutability": "view",
      "type": "function",
      "signature": "0x30adf81f"
    },
    {
      "constant": true,
      "inputs": [],
      "name": "decimals",
      "outputs": [
        {
          "name": "",
          "type": "uint8"
        }
      ],
      "payable": false,
      "stateMutability": "view",
      "type": "function",
      "signature": "0x313ce567"
    },
    {
      "constant": true,
      "inputs": [],
      "name": "DOMAIN_SEPARATOR",
      "outputs": [
        {
          "name": "",
          "type": "bytes32"
        }
      ],
      "payable": false,
      "stateMutability": "view",
      "type": "function",
      "signature": "0x3644e515"
    },
    {
      "constant": true,
      "inputs": [],
      "name": "DEPOSIT_TYPEHASH",
      "outputs": [
        {
          "name": "",
          "type": "bytes32"
        }
      ],
      "payable": false,
      "stateMutability": "view",
      "type": "function",
      "signature": "0x48825e94"
    },
    {
      "constant": true,
      "inputs": [],
      "name": "supplyOf",
      "outputs": [
        {
          "name": "balance",
          "type": "uint256"
        }
      ],
      "payable": false,
      "stateMutability": "view",
      "type": "function",
      "signature": "0x523a50d0"
    },
    {
      "constant": true,
      "inputs": [],
      "name": "version",
      "outputs": [
        {
          "name": "",
          "type": "string"
        }
      ],
      "payable": false,
      "stateMutability": "view",
      "type": "function",
      "signature": "0x54fd4d50"
    },
    {
      "constant": true,
      "inputs": [
        {
          "name": "",
          "type": "address"
        },
        {
          "name": "",
          "type": "address"
        }
      ],
      "name": "allowed",
      "outputs": [
        {
          "name": "",
          "type": "uint256"
        }
      ],
      "payable": false,
      "stateMutability": "view",
      "type": "function",
      "signature": "0x5c658165"
    },
    {
      "constant": true,
      "inputs": [
        {
          "name": "_owner",
          "type": "address"
        }
      ],
      "name": "balanceOf",
      "outputs": [
        {
          "name": "balance",
          "type": "uint256"
        }
      ],
      "payable": false,
      "stateMutability": "view",
      "type": "function",
      "signature": "0x70a08231"
    },
    {
      "constant": true,
      "inputs": [
        {
          "name": "",
          "type": "address"
        }
      ],
      "name": "nonces",
      "outputs": [
        {
          "name": "",
          "type": "uint256"
        }
      ],
      "payable": false,
      "stateMutability": "view",
      "type": "function",
      "signature": "0x7ecebe00"
    },
    {
      "constant": false,
      "inputs": [
        {
          "name": "holder",
          "type": "address"
        },
        {
          "name": "spender",
          "type": "address"
        },
        {
          "name": "nonce",
          "type": "uint256"
        },
        {
          "name": "expiry",
          "type": "uint256"
        },
        {
          "name": "isAllowed",
          "type": "bool"
        },
        {
          "name": "v",
          "type": "uint8"
        },
        {
          "name": "r",
          "type": "bytes32"
        },
        {
          "name": "s",
          "type": "bytes32"
        }
      ],
      "name": "permitted",
      "outputs": [],
      "payable": false,
      "stateMutability": "nonpayable",
      "type": "function",
      "signature": "0x97fb16cc"
    },
    {
      "constant": false,
      "inputs": [
        {
          "name": "_to",
          "type": "address"
        },
        {
          "name": "_value",
          "type": "uint256"
        }
      ],
      "name": "transfer",
      "outputs": [
        {
          "name": "success",
          "type": "bool"
        }
      ],
      "payable": false,
      "stateMutability": "nonpayable",
      "type": "function",
      "signature": "0xa9059cbb"
    },
    {
      "constant": true,
      "inputs": [
        {
          "name": "_owner",
          "type": "address"
        },
        {
          "name": "_spender",
          "type": "address"
        }
      ],
      "name": "allowance",
      "outputs": [
        {
          "name": "remaining",
          "type": "uint256"
        }
      ],
      "payable": false,
      "stateMutability": "view",
      "type": "function",
      "signature": "0xdd62ed3e"
    },
    {
      "constant": true,
      "inputs": [],
      "name": "ImplementationAddress",
      "outputs": [
        {
          "name": "",
          "type": "address"
        }
      ],
      "payable": false,
      "stateMutability": "view",
      "type": "function",
      "signature": "0xe8a667de"
    },
    {
      "constant": true,
      "inputs": [],
      "name": "admin",
      "outputs": [
        {
          "name": "",
          "type": "address"
        }
      ],
      "payable": false,
      "stateMutability": "view",
      "type": "function",
      "signature": "0xf851a440"
    },
    {
      "inputs": [
        {
          "name": "_chainId",
          "type": "uint256"
        }
      ],
      "payable": false,
      "stateMutability": "nonpayable",
      "type": "constructor",
      "signature": "constructor"
    },
    {
      "payable": false,
      "stateMutability": "nonpayable",
      "type": "fallback"
    },
    {
      "anonymous": false,
      "inputs": [
        {
          "indexed": true,
          "name": "_from",
          "type": "address"
        },
        {
          "indexed": true,
          "name": "_to",
          "type": "address"
        },
        {
          "indexed": false,
          "name": "_value",
          "type": "uint256"
        }
      ],
      "name": "Transfer",
      "type": "event",
      "signature": "0xddf252ad1be2c89b69c2b068fc378daa952ba7f163c4a11628f55a4df523b3ef"
    },
    {
      "anonymous": false,
      "inputs": [
        {
          "indexed": true,
          "name": "_owner",
          "type": "address"
        },
        {
          "indexed": true,
          "name": "_spender",
          "type": "address"
        },
        {
          "indexed": false,
          "name": "_value",
          "type": "uint256"
        }
      ],
      "name": "Approval",
      "type": "event",
      "signature": "0x8c5be1e5ebec7d5bd14f71427d1e84f3dd0314c0f7b2291e5b200ac8c7c3b925"
    },
    {
      "constant": false,
      "inputs": [
        {
          "name": "_newImplemenationAddress",
          "type": "address"
        }
      ],
      "name": "updateLogic",
      "outputs": [],
      "payable": false,
      "stateMutability": "nonpayable",
      "type": "function",
      "signature": "0x795e617e"
    },
    {
      "constant": false,
      "inputs": [
        {
          "name": "holder",
          "type": "address"
        },
        {
          "name": "value",
          "type": "uint256"
        },
        {
          "name": "r",
          "type": "bytes32"
        },
        {
          "name": "s",
          "type": "bytes32"
        },
        {
          "name": "v",
          "type": "uint8"
        }
      ],
      "name": "deposit",
      "outputs": [
        {
          "name": "",
          "type": "bool"
        }
      ],
      "payable": false,
      "stateMutability": "nonpayable",
      "type": "function",
      "signature": "0xe99f6374"
    },
    {
      "constant": false,
      "inputs": [
        {
          "name": "holder",
          "type": "address"
        },
        {
          "name": "value",
          "type": "uint256"
        },
        {
          "name": "r",
          "type": "bytes32"
        },
        {
          "name": "s",
          "type": "bytes32"
        },
        {
          "name": "v",
          "type": "uint8"
        }
      ],
      "name": "withdraw",
      "outputs": [
        {
          "name": "",
          "type": "bool"
        }
      ],
      "payable": false,
      "stateMutability": "nonpayable",
      "type": "function",
      "signature": "0x197917e7"
    },
    {
      "constant": false,
      "inputs": [
        {
          "name": "holder",
          "type": "address"
        },
        {
          "name": "to",
          "type": "address"
        },
        {
          "name": "value",
          "type": "uint256"
        },
        {
          "name": "r",
          "type": "bytes32"
        },
        {
          "name": "s",
          "type": "bytes32"
        },
        {
          "name": "v",
          "type": "uint8"
        }
      ],
      "name": "transact",
      "outputs": [
        {
          "name": "",
          "type": "bool"
        }
      ],
      "payable": false,
      "stateMutability": "nonpayable",
      "type": "function",
      "signature": "0xd16bc20e"
    },
    {
      "constant": true,
      "inputs": [],
      "name": "checkProfits",
      "outputs": [
        {
          "name": "",
          "type": "uint256"
        }
      ],
      "payable": false,
      "stateMutability": "view",
      "type": "function",
      "signature": "0xd7a8e87b"
    },
    {
      "constant": false,
      "inputs": [],
      "name": "spitProfits",
      "outputs": [
        {
          "name": "",
          "type": "bool"
        }
      ],
      "payable": false,
      "stateMutability": "nonpayable",
      "type": "function",
      "signature": "0x890268f8"
    }
  ],
  "bytecode": "0x608060405273e7bc397dbd069fc7d0109c0636d06888bb50668c600560006101000a81548173ffffffffffffffffffffffffffffffffffffffff021916908373ffffffffffffffffffffffffffffffffffffffff160217905550600560009054906101000a900473ffffffffffffffffffffffffffffffffffffffff16600660006101000a81548173ffffffffffffffffffffffffffffffffffffffff021916908373ffffffffffffffffffffffffffffffffffffffff160217905550734f96fe3b7a6cf9725f59d353f723c1bdb64ca6aa600760006101000a81548173ffffffffffffffffffffffffffffffffffffffff021916908373ffffffffffffffffffffffffffffffffffffffff160217905550600760009054906101000a900473ffffffffffffffffffffffffffffffffffffffff16600860006101000a81548173ffffffffffffffffffffffffffffffffffffffff021916908373ffffffffffffffffffffffffffffffffffffffff1602179055503480156200018157600080fd5b50604051602080620032058339810180604052620001a3919081019062000331565b60405180807f454950373132446f6d61696e28737472696e67206e616d652c737472696e672081526020017f76657273696f6e2c75696e7432353620636861696e49642c616464726573732081526020017f766572696679696e67436f6e7472616374290000000000000000000000000000815250605201905060405180910390206040805190810160405280600b81526020017f506f75636820546f6b656e000000000000000000000000000000000000000000815250805190602001206040805190810160405280600181526020017f3100000000000000000000000000000000000000000000000000000000000000815250805190602001208330604051602001620002b795949392919062000390565b6040516020818303038152906040528051906020012060038190555033600460006101000a81548173ffffffffffffffffffffffffffffffffffffffff021916908373ffffffffffffffffffffffffffffffffffffffff160217905550506200043f565b600062000329825162000435565b905092915050565b6000602082840312156200034457600080fd5b600062000354848285016200031b565b91505092915050565b6200036881620003ed565b82525050565b620003798162000401565b82525050565b6200038a816200042b565b82525050565b600060a082019050620003a760008301886200036e565b620003b660208301876200036e565b620003c560408301866200036e565b620003d460608301856200037f565b620003e360808301846200035d565b9695505050505050565b6000620003fa826200040b565b9050919050565b6000819050919050565b600073ffffffffffffffffffffffffffffffffffffffff82169050919050565b6000819050919050565b6000819050919050565b612db6806200044f6000396000f3fe608060405260043610610149576000357c0100000000000000000000000000000000000000000000000000000000900463ffffffff16806306fdde03146101fc578063095ea7b31461022757806318160ddd14610264578063197917e71461028f57806323b872dd146102cc57806327e235e31461030957806330adf81f14610346578063313ce567146103715780633644e5151461039c57806348825e94146103c7578063523a50d0146103f257806354fd4d501461041d5780635c6581651461044857806370a0823114610485578063795e617e146104c25780637ecebe00146104eb578063890268f81461052857806397fb16cc14610553578063a9059cbb1461057c578063d16bc20e146105b9578063d7a8e87b146105f6578063dd62ed3e14610621578063e8a667de1461065e578063e99f637414610689578063f851a440146106c6575b34801561015557600080fd5b506000600a60009054906101000a900473ffffffffffffffffffffffffffffffffffffffff1673ffffffffffffffffffffffffffffffffffffffff16600036604051808383808284378083019250505092505050600060405180830381855af49150503d80600081146101e4576040519150601f19603f3d011682016040523d82523d6000602084013e6101e9565b606091505b505090508015156101f957600080fd5b50005b34801561020857600080fd5b506102116106f1565b60405161021e9190612b17565b60405180910390f35b34801561023357600080fd5b5061024e600480360361024991908101906125a5565b61072a565b60405161025b9190612a49565b60405180910390f35b34801561027057600080fd5b5061027961081c565b6040516102869190612c59565b60405180910390f35b34801561029b57600080fd5b506102b660048036036102b191908101906125e1565b610822565b6040516102c39190612a49565b60405180910390f35b3480156102d857600080fd5b506102f360048036036102ee919081019061241b565b610899565b6040516103009190612a49565b60405180910390f35b34801561031557600080fd5b50610330600480360361032b91908101906123b6565b610b33565b60405161033d9190612c59565b60405180910390f35b34801561035257600080fd5b5061035b610b4b565b6040516103689190612a64565b60405180910390f35b34801561037d57600080fd5b50610386610bd0565b6040516103939190612c74565b60405180910390f35b3480156103a857600080fd5b506103b1610bd5565b6040516103be9190612a64565b60405180910390f35b3480156103d357600080fd5b506103dc610bdb565b6040516103e99190612a64565b60405180910390f35b3480156103fe57600080fd5b50610407610c3a565b6040516104149190612c59565b60405180910390f35b34801561042957600080fd5b50610432610c43565b60405161043f9190612b17565b60405180910390f35b34801561045457600080fd5b5061046f600480360361046a91908101906123df565b610c7c565b60405161047c9190612c59565b60405180910390f35b34801561049157600080fd5b506104ac60048036036104a791908101906123b6565b610ca1565b6040516104b99190612c59565b60405180910390f35b3480156104ce57600080fd5b506104e960048036036104e491908101906123b6565b610cea565b005b3480156104f757600080fd5b50610512600480360361050d91908101906123b6565b610e52565b60405161051f9190612c59565b60405180910390f35b34801561053457600080fd5b5061053d610e6a565b60405161054a9190612a49565b60405180910390f35b34801561055f57600080fd5b5061057a600480360361057591908101906124f3565b61109a565b005b34801561058857600080fd5b506105a3600480360361059e91908101906125a5565b6114f5565b6040516105b09190612a49565b60405180910390f35b3480156105c557600080fd5b506105e060048036036105db919081019061246a565b61164e565b6040516105ed9190612a49565b60405180910390f35b34801561060257600080fd5b5061060b61182d565b6040516106189190612c59565b60405180910390f35b34801561062d57600080fd5b50610648600480360361064391908101906123df565b611a5d565b6040516106559190612c59565b60405180910390f35b34801561066a57600080fd5b50610673611ae4565b604051610680919061291a565b60405180910390f35b34801561069557600080fd5b506106b060048036036106ab91908101906125e1565b611b0a565b6040516106bd9190612a49565b60405180910390f35b3480156106d257600080fd5b506106db61217b565b6040516106e8919061291a565b60405180910390f35b6040805190810160405280600b81526020017f506f75636820546f6b656e00000000000000000000000000000000000000000081525081565b600081600260003373ffffffffffffffffffffffffffffffffffffffff1673ffffffffffffffffffffffffffffffffffffffff16815260200190815260200160002060008573ffffffffffffffffffffffffffffffffffffffff1673ffffffffffffffffffffffffffffffffffffffff168152602001908152602001600020819055508273ffffffffffffffffffffffffffffffffffffffff163373ffffffffffffffffffffffffffffffffffffffff167f8c5be1e5ebec7d5bd14f71427d1e84f3dd0314c0f7b2291e5b200ac8c7c3b9258460405161080a9190612c59565b60405180910390a36001905092915050565b60005481565b600061088e8686868686606060405190810160405280602e81526020017f776974686472617728616464726573732c75696e743235362c6279746573333281526020017f2c627974657333322c75696e74380000000000000000000000000000000000008152506121a1565b905095945050505050565b600080600260008673ffffffffffffffffffffffffffffffffffffffff1673ffffffffffffffffffffffffffffffffffffffff16815260200190815260200160002060003373ffffffffffffffffffffffffffffffffffffffff1673ffffffffffffffffffffffffffffffffffffffff16815260200190815260200160002054905082600160008773ffffffffffffffffffffffffffffffffffffffff1673ffffffffffffffffffffffffffffffffffffffff168152602001908152602001600020541015801561096a5750828110155b151561097557600080fd5b82600160008673ffffffffffffffffffffffffffffffffffffffff1673ffffffffffffffffffffffffffffffffffffffff1681526020019081526020016000206000828254019250508190555082600160008773ffffffffffffffffffffffffffffffffffffffff1673ffffffffffffffffffffffffffffffffffffffff168152602001908152602001600020600082825403925050819055507fffffffffffffffffffffffffffffffffffffffffffffffffffffffffffffffff811015610ac25782600260008773ffffffffffffffffffffffffffffffffffffffff1673ffffffffffffffffffffffffffffffffffffffff16815260200190815260200160002060003373ffffffffffffffffffffffffffffffffffffffff1673ffffffffffffffffffffffffffffffffffffffff168152602001908152602001600020600082825403925050819055505b8373ffffffffffffffffffffffffffffffffffffffff168573ffffffffffffffffffffffffffffffffffffffff167fddf252ad1be2c89b69c2b068fc378daa952ba7f163c4a11628f55a4df523b3ef85604051610b1f9190612c59565b60405180910390a360019150509392505050565b60016020528060005260406000206000915090505481565b60405180807f5065726d6974286164647265737320686f6c6465722c6164647265737320737081526020017f656e6465722c75696e74323536206e6f6e63652c75696e74323536206578706981526020017f72792c626f6f6c206973416c6c6f7765642900000000000000000000000000008152506052019050604051809103902081565b601281565b60035481565b60405180807f4465706f736974286164647265737320686f6c6465722c75696e74323536207681526020017f616c7565290000000000000000000000000000000000000000000000000000008152506025019050604051809103902081565b60008054905090565b6040805190810160405280600181526020017f310000000000000000000000000000000000000000000000000000000000000081525081565b6002602052816000526040600020602052806000526040600020600091509150505481565b6000600160008373ffffffffffffffffffffffffffffffffffffffff1673ffffffffffffffffffffffffffffffffffffffff168152602001908152602001600020549050919050565b600460009054906101000a900473ffffffffffffffffffffffffffffffffffffffff1673ffffffffffffffffffffffffffffffffffffffff163373ffffffffffffffffffffffffffffffffffffffff16141515610d7c576040517f08c379a0000000000000000000000000000000000000000000000000000000008152600401610d7390612b59565b60405180910390fd5b600460009054906101000a900473ffffffffffffffffffffffffffffffffffffffff1673ffffffffffffffffffffffffffffffffffffffff163373ffffffffffffffffffffffffffffffffffffffff16141515610e0e576040517f08c379a0000000000000000000000000000000000000000000000000000000008152600401610e0590612bb9565b60405180910390fd5b80600a60006101000a81548173ffffffffffffffffffffffffffffffffffffffff021916908373ffffffffffffffffffffffffffffffffffffffff16021790555050565b60096020528060005260406000206000915090505481565b6000600460009054906101000a900473ffffffffffffffffffffffffffffffffffffffff1673ffffffffffffffffffffffffffffffffffffffff163373ffffffffffffffffffffffffffffffffffffffff16141515610efe576040517f08c379a0000000000000000000000000000000000000000000000000000000008152600401610ef590612b59565b60405180910390fd5b60006060600a60009054906101000a900473ffffffffffffffffffffffffffffffffffffffff1673ffffffffffffffffffffffffffffffffffffffff1660405180807f5f7370697450726f666974732829000000000000000000000000000000000000815250600e0190506040518091039020604051602401604051602081830303815290604052907bffffffffffffffffffffffffffffffffffffffffffffffffffffffff19166020820180517bffffffffffffffffffffffffffffffffffffffffffffffffffffffff83818316178352505050506040518082805190602001908083835b6020831015156110095780518252602082019150602081019050602083039250610fe4565b6001836020036101000a038019825116818451168082178552505050505050905001915050600060405180830381855af49150503d8060008114611069576040519150601f19603f3d011682016040523d82523d6000602084013e61106e565b606091505b509150915081151561107f57600080fd5b808060200190516110939190810190612658565b9250505090565b600060035460405180807f5065726d6974286164647265737320686f6c6465722c6164647265737320737081526020017f656e6465722c75696e74323536206e6f6e63652c75696e74323536206578706981526020017f72792c626f6f6c206973416c6c6f776564290000000000000000000000000000815250605201905060405180910390208a8a8a8a8a60405160200161113b96959493929190612a7f565b6040516020818303038152906040528051906020012060405160200180807f190100000000000000000000000000000000000000000000000000000000000081525060020183815260200182815260200192505050604051602081830303815290604052805190602001209050600073ffffffffffffffffffffffffffffffffffffffff168973ffffffffffffffffffffffffffffffffffffffff161415151561121a576040517f08c379a000000000000000000000000000000000000000000000000000000000815260040161121190612bd9565b60405180910390fd5b60018185858560405160008152602001604052604051808581526020018460ff1660ff1681526020018381526020018281526020019450505050506020604051602081039080840390855afa158015611277573d6000803e3d6000fd5b5050506020604051035173ffffffffffffffffffffffffffffffffffffffff168973ffffffffffffffffffffffffffffffffffffffff161415156112f0576040517f08c379a00000000000000000000000000000000000000000000000000000000081526004016112e790612c39565b60405180910390fd5b60008614806112ff5750854211155b1515611340576040517f08c379a000000000000000000000000000000000000000000000000000000000815260040161133790612b39565b60405180910390fd5b600960008a73ffffffffffffffffffffffffffffffffffffffff1673ffffffffffffffffffffffffffffffffffffffff168152602001908152602001600020600081548092919060010191905055871415156113d1576040517f08c379a00000000000000000000000000000000000000000000000000000000081526004016113c890612b99565b60405180910390fd5b6000856113df576000611401565b7fffffffffffffffffffffffffffffffffffffffffffffffffffffffffffffffff5b905080600260008c73ffffffffffffffffffffffffffffffffffffffff1673ffffffffffffffffffffffffffffffffffffffff16815260200190815260200160002060008b73ffffffffffffffffffffffffffffffffffffffff1673ffffffffffffffffffffffffffffffffffffffff168152602001908152602001600020819055508873ffffffffffffffffffffffffffffffffffffffff168a73ffffffffffffffffffffffffffffffffffffffff167f8c5be1e5ebec7d5bd14f71427d1e84f3dd0314c0f7b2291e5b200ac8c7c3b925836040516114e19190612c59565b60405180910390a350505050505050505050565b600081600160003373ffffffffffffffffffffffffffffffffffffffff1673ffffffffffffffffffffffffffffffffffffffff168152602001908152602001600020541015151561154557600080fd5b81600160003373ffffffffffffffffffffffffffffffffffffffff1673ffffffffffffffffffffffffffffffffffffffff1681526020019081526020016000206000828254039250508190555081600160008573ffffffffffffffffffffffffffffffffffffffff1673ffffffffffffffffffffffffffffffffffffffff168152602001908152602001600020600082825401925050819055508273ffffffffffffffffffffffffffffffffffffffff163373ffffffffffffffffffffffffffffffffffffffff167fddf252ad1be2c89b69c2b068fc378daa952ba7f163c4a11628f55a4df523b3ef8460405161163c9190612c59565b60405180910390a36001905092915050565b6000806060600a60009054906101000a900473ffffffffffffffffffffffffffffffffffffffff1673ffffffffffffffffffffffffffffffffffffffff1660405180807f7472616e7361637428616464726573732c616464726573732c75696e7432353681526020017f2c627974657333322c627974657333322c75696e743829000000000000000000815250603701905060405180910390208a8a8a8a8a8a6040516024016117039695949392919061296c565b604051602081830303815290604052907bffffffffffffffffffffffffffffffffffffffffffffffffffffffff19166020820180517bffffffffffffffffffffffffffffffffffffffffffffffffffffffff83818316178352505050506040518082805190602001908083835b6020831015156117955780518252602082019150602081019050602083039250611770565b6001836020036101000a038019825116818451168082178552505050505050905001915050600060405180830381855af49150503d80600081146117f5576040519150601f19603f3d011682016040523d82523d6000602084013e6117fa565b606091505b509150915081151561180b57600080fd5b8080602001905161181f9190810190612658565b925050509695505050505050565b6000600460009054906101000a900473ffffffffffffffffffffffffffffffffffffffff1673ffffffffffffffffffffffffffffffffffffffff163373ffffffffffffffffffffffffffffffffffffffff161415156118c1576040517f08c379a00000000000000000000000000000000000000000000000000000000081526004016118b890612b59565b60405180910390fd5b60006060600a60009054906101000a900473ffffffffffffffffffffffffffffffffffffffff1673ffffffffffffffffffffffffffffffffffffffff1660405180807f5f636865636b50726f6669747328290000000000000000000000000000000000815250600f0190506040518091039020604051602401604051602081830303815290604052907bffffffffffffffffffffffffffffffffffffffffffffffffffffffff19166020820180517bffffffffffffffffffffffffffffffffffffffffffffffffffffffff83818316178352505050506040518082805190602001908083835b6020831015156119cc57805182526020820191506020810190506020830392506119a7565b6001836020036101000a038019825116818451168082178552505050505050905001915050600060405180830381855afa9150503d8060008114611a2c576040519150601f19603f3d011682016040523d82523d6000602084013e611a31565b606091505b5091509150811515611a4257600080fd5b80806020019051611a569190810190612681565b9250505090565b6000600260008473ffffffffffffffffffffffffffffffffffffffff1673ffffffffffffffffffffffffffffffffffffffff16815260200190815260200160002060008373ffffffffffffffffffffffffffffffffffffffff1673ffffffffffffffffffffffffffffffffffffffff16815260200190815260200160002054905092915050565b600a60009054906101000a900473ffffffffffffffffffffffffffffffffffffffff1681565b60008060035460405180807f4465706f736974286164647265737320686f6c6465722c75696e74323536207681526020017f616c756529000000000000000000000000000000000000000000000000000000815250602501905060405180910390208888604051602001611b8093929190612ae0565b6040516020818303038152906040528051906020012060405160200180807f190100000000000000000000000000000000000000000000000000000000000081525060020183815260200182815260200192505050604051602081830303815290604052805190602001209050600073ffffffffffffffffffffffffffffffffffffffff168773ffffffffffffffffffffffffffffffffffffffff1614151515611c5f576040517f08c379a0000000000000000000000000000000000000000000000000000000008152600401611c5690612bf9565b60405180910390fd5b60018184878760405160008152602001604052604051808581526020018460ff1660ff1681526020018381526020018281526020019450505050506020604051602081039080840390855afa158015611cbc573d6000803e3d6000fd5b5050506020604051035173ffffffffffffffffffffffffffffffffffffffff168773ffffffffffffffffffffffffffffffffffffffff16141515611d35576040517f08c379a0000000000000000000000000000000000000000000000000000000008152600401611d2c90612c19565b60405180910390fd5b6000600860009054906101000a900473ffffffffffffffffffffffffffffffffffffffff1673ffffffffffffffffffffffffffffffffffffffff166370a08231896040518263ffffffff167c0100000000000000000000000000000000000000000000000000000000028152600401611dae919061291a565b60206040518083038186803b158015611dc657600080fd5b505afa158015611dda573d6000803e3d6000fd5b505050506040513d601f19601f82011682018060405250611dfe9190810190612681565b9050868110151515611e45576040517f08c379a0000000000000000000000000000000000000000000000000000000008152600401611e3c90612b79565b60405180910390fd5b600860009054906101000a900473ffffffffffffffffffffffffffffffffffffffff1673ffffffffffffffffffffffffffffffffffffffff166323b872dd89308a6040518463ffffffff167c0100000000000000000000000000000000000000000000000000000000028152600401611ec093929190612935565b602060405180830381600087803b158015611eda57600080fd5b505af1158015611eee573d6000803e3d6000fd5b505050506040513d601f19601f82011682018060405250611f129190810190612658565b5086600160008a73ffffffffffffffffffffffffffffffffffffffff1673ffffffffffffffffffffffffffffffffffffffff168152602001908152602001600020600082825401925050819055508660008082825401925050819055508773ffffffffffffffffffffffffffffffffffffffff16600073ffffffffffffffffffffffffffffffffffffffff167fddf252ad1be2c89b69c2b068fc378daa952ba7f163c4a11628f55a4df523b3ef89604051611fcd9190612c59565b60405180910390a3600860009054906101000a900473ffffffffffffffffffffffffffffffffffffffff1673ffffffffffffffffffffffffffffffffffffffff1663095ea7b3600560009054906101000a900473ffffffffffffffffffffffffffffffffffffffff16896040518363ffffffff167c01000000000000000000000000000000000000000000000000000000000281526004016120709291906129cd565b600060405180830381600087803b15801561208a57600080fd5b505af115801561209e573d6000803e3d6000fd5b50505050600660009054906101000a900473ffffffffffffffffffffffffffffffffffffffff1673ffffffffffffffffffffffffffffffffffffffff1663a0712d68886040518263ffffffff167c01000000000000000000000000000000000000000000000000000000000281526004016121199190612c59565b602060405180830381600087803b15801561213357600080fd5b505af1158015612147573d6000803e3d6000fd5b505050506040513d601f19601f8201168201806040525061216b9190810190612681565b5060019250505095945050505050565b600460009054906101000a900473ffffffffffffffffffffffffffffffffffffffff1681565b6000806060600a60009054906101000a900473ffffffffffffffffffffffffffffffffffffffff1673ffffffffffffffffffffffffffffffffffffffff1684805190602001208a8a8a8a8a6040516024016122009594939291906129f6565b604051602081830303815290604052907bffffffffffffffffffffffffffffffffffffffffffffffffffffffff19166020820180517bffffffffffffffffffffffffffffffffffffffffffffffffffffffff83818316178352505050506040518082805190602001908083835b602083101515612292578051825260208201915060208101905060208303925061226d565b6001836020036101000a038019825116818451168082178552505050505050905001915050600060405180830381855af49150503d80600081146122f2576040519150601f19603f3d011682016040523d82523d6000602084013e6122f7565b606091505b509150915081151561230857600080fd5b8080602001905161231c9190810190612658565b925050509695505050505050565b60006123368235612cf9565b905092915050565b600061234a8235612d0b565b905092915050565b600061235e8251612d0b565b905092915050565b60006123728235612d17565b905092915050565b60006123868235612d21565b905092915050565b600061239a8251612d21565b905092915050565b60006123ae8235612d2b565b905092915050565b6000602082840312156123c857600080fd5b60006123d68482850161232a565b91505092915050565b600080604083850312156123f257600080fd5b60006124008582860161232a565b92505060206124118582860161232a565b9150509250929050565b60008060006060848603121561243057600080fd5b600061243e8682870161232a565b935050602061244f8682870161232a565b92505060406124608682870161237a565b9150509250925092565b60008060008060008060c0878903121561248357600080fd5b600061249189828a0161232a565b96505060206124a289828a0161232a565b95505060406124b389828a0161237a565b94505060606124c489828a01612366565b93505060806124d589828a01612366565b92505060a06124e689828a016123a2565b9150509295509295509295565b600080600080600080600080610100898b03121561251057600080fd5b600061251e8b828c0161232a565b985050602061252f8b828c0161232a565b97505060406125408b828c0161237a565b96505060606125518b828c0161237a565b95505060806125628b828c0161233e565b94505060a06125738b828c016123a2565b93505060c06125848b828c01612366565b92505060e06125958b828c01612366565b9150509295985092959890939650565b600080604083850312156125b857600080fd5b60006125c68582860161232a565b92505060206125d78582860161237a565b9150509250929050565b600080600080600060a086880312156125f957600080fd5b60006126078882890161232a565b95505060206126188882890161237a565b945050604061262988828901612366565b935050606061263a88828901612366565b925050608061264b888289016123a2565b9150509295509295909350565b60006020828403121561266a57600080fd5b600061267884828501612352565b91505092915050565b60006020828403121561269357600080fd5b60006126a18482850161238e565b91505092915050565b6126b381612c9a565b82525050565b6126c281612cac565b82525050565b6126d181612cb8565b82525050565b60006126e282612c8f565b8084526126f6816020860160208601612d38565b6126ff81612d6b565b602085010191505092915050565b6000601282527f4461692f7065726d69742d6578706972656400000000000000000000000000006020830152604082019050919050565b6000601f82527f526573747269637465642041636365737320746f2041646d696e204f6e6c79006020830152604082019050919050565b6000601282527f496e73756666696369656e742046756e647300000000000000000000000000006020830152604082019050919050565b6000601182527f4461692f696e76616c69642d6e6f6e63650000000000000000000000000000006020830152604082019050919050565b6000600a82527f41646d696e204f6e6c79000000000000000000000000000000000000000000006020830152604082019050919050565b6000601582527f4461692f696e76616c69642d616464726573732d3000000000000000000000006020830152604082019050919050565b6000601782527f506f7563682f696e76616c69642d616464726573732d300000000000000000006020830152604082019050919050565b6000601482527f506f7563682f696e76616c69642d7065726d69740000000000000000000000006020830152604082019050919050565b6000601282527f4461692f696e76616c69642d7065726d697400000000000000000000000000006020830152604082019050919050565b61290581612ce2565b82525050565b61291481612cec565b82525050565b600060208201905061292f60008301846126aa565b92915050565b600060608201905061294a60008301866126aa565b61295760208301856126aa565b61296460408301846128fc565b949350505050565b600060c08201905061298160008301896126aa565b61298e60208301886126aa565b61299b60408301876128fc565b6129a860608301866126c8565b6129b560808301856126c8565b6129c260a083018461290b565b979650505050505050565b60006040820190506129e260008301856126aa565b6129ef60208301846128fc565b9392505050565b600060a082019050612a0b60008301886126aa565b612a1860208301876128fc565b612a2560408301866126c8565b612a3260608301856126c8565b612a3f608083018461290b565b9695505050505050565b6000602082019050612a5e60008301846126b9565b92915050565b6000602082019050612a7960008301846126c8565b92915050565b600060c082019050612a9460008301896126c8565b612aa160208301886126aa565b612aae60408301876126aa565b612abb60608301866128fc565b612ac860808301856128fc565b612ad560a08301846126b9565b979650505050505050565b6000606082019050612af560008301866126c8565b612b0260208301856126aa565b612b0f60408301846128fc565b949350505050565b60006020820190508181036000830152612b3181846126d7565b905092915050565b60006020820190508181036000830152612b528161270d565b9050919050565b60006020820190508181036000830152612b7281612744565b9050919050565b60006020820190508181036000830152612b928161277b565b9050919050565b60006020820190508181036000830152612bb2816127b2565b9050919050565b60006020820190508181036000830152612bd2816127e9565b9050919050565b60006020820190508181036000830152612bf281612820565b9050919050565b60006020820190508181036000830152612c1281612857565b9050919050565b60006020820190508181036000830152612c328161288e565b9050919050565b60006020820190508181036000830152612c52816128c5565b9050919050565b6000602082019050612c6e60008301846128fc565b92915050565b6000602082019050612c89600083018461290b565b92915050565b600081519050919050565b6000612ca582612cc2565b9050919050565b60008115159050919050565b6000819050919050565b600073ffffffffffffffffffffffffffffffffffffffff82169050919050565b6000819050919050565b600060ff82169050919050565b6000612d0482612cc2565b9050919050565b60008115159050919050565b6000819050919050565b6000819050919050565b600060ff82169050919050565b60005b83811015612d56578082015181840152602081019050612d3b565b83811115612d65576000848401525b50505050565b6000601f19601f830116905091905056fea265627a7a7230582030037cf8b5690190710fa2d7386f80b769ee7244a497715cde1a45b86266359c6c6578706572696d656e74616cf50037",
  "source": "pragma solidity >=0.5.0;\npragma experimental ABIEncoderV2;\n\nimport \"./interfaces/TokenInterface.sol\";\nimport \"./interfaces/cTokenInterface.sol\";\nimport \"./interfaces/PTokenInterface.sol\";\n\ncontract PouchToken is PTokenInterface {\n    uint256 public totalSupply;\n    mapping(address => uint256) public balances;\n    mapping(address => mapping(address => uint256)) public allowed;\n    bytes32 public DOMAIN_SEPARATOR;\n    address public admin;\n    address cDaiAddress = 0xe7bc397DBd069fC7d0109C0636d06888bb50668c;\n    cTokenInterface cDai = cTokenInterface(cDaiAddress);\n    address daiAddress = 0x4F96Fe3b7A6Cf9725f59d353F723c1bDb64CA6Aa;\n    TokenInterface daiToken = TokenInterface(daiAddress);\n    bytes32 public constant DEPOSIT_TYPEHASH = keccak256(\n        \"Deposit(address holder,uint256 value)\"\n    );\n\n    mapping(address => uint256) public nonces;\n    bytes32 public constant PERMIT_TYPEHASH = keccak256(\n        \"Permit(address holder,address spender,uint256 nonce,uint256 expiry,bool isAllowed)\"\n    );\n    address public ImplementationAddress;\n    uint256 private constant MAX_UINT256 = uint256(-1);\n\n    // --- ERC20 Data ---\n    string public constant name = \"Pouch Token\";\n    string public constant version = \"1\";\n    uint8 public constant decimals = 18;\n\n    // ** ERC-20 Standard Functions **\n\n    function transfer(address _to, uint256 _value)\n        external\n        returns (bool success)\n    {\n        require(balances[msg.sender] >= _value);\n        balances[msg.sender] -= _value;\n        balances[_to] += _value;\n        emit Transfer(msg.sender, _to, _value);\n        return true;\n    }\n\n    function transferFrom(address _from, address _to, uint256 _value)\n        external\n        returns (bool success)\n    {\n        uint256 allowance = allowed[_from][msg.sender];\n        require(balances[_from] >= _value && allowance >= _value);\n        balances[_to] += _value;\n        balances[_from] -= _value;\n        if (allowance < MAX_UINT256) {\n            allowed[_from][msg.sender] -= _value;\n        }\n        emit Transfer(_from, _to, _value);\n        return true;\n    }\n\n    function balanceOf(address _owner) external view returns (uint256 balance) {\n        return balances[_owner];\n    }\n\n    function approve(address _spender, uint256 _value)\n        external\n        returns (bool success)\n    {\n        allowed[msg.sender][_spender] = _value;\n        emit Approval(msg.sender, _spender, _value);\n        return true;\n    }\n\n    function allowance(address _owner, address _spender)\n        external\n        view\n        returns (uint256 remaining)\n    {\n        return allowed[_owner][_spender];\n    }\n\n    // --- Approve by signature ---\n    function permitted(\n        address holder,\n        address spender,\n        uint256 nonce,\n        uint256 expiry,\n        bool isAllowed,\n        uint8 v,\n        bytes32 r,\n        bytes32 s\n    ) public {\n        bytes32 digest = keccak256(\n            abi.encodePacked(\n                \"\\x19\\x01\",\n                DOMAIN_SEPARATOR,\n                keccak256(\n                    abi.encode(\n                        PERMIT_TYPEHASH,\n                        holder,\n                        spender,\n                        nonce,\n                        expiry,\n                        isAllowed\n                    )\n                )\n            )\n        );\n\n        require(holder != address(0), \"Dai/invalid-address-0\");\n        require(holder == ecrecover(digest, v, r, s), \"Dai/invalid-permit\");\n        require(expiry == 0 || now <= expiry, \"Dai/permit-expired\");\n        require(nonce == nonces[holder]++, \"Dai/invalid-nonce\");\n        uint256 wad = isAllowed ? uint256(-1) : 0;\n        allowed[holder][spender] = wad;\n        emit Approval(holder, spender, wad);\n    }\n\n    function supplyOf() external view returns (uint256 balance) {\n        return totalSupply;\n    }\n\n}\n\n//  ** Inheritance of Pouch Token to Make Delegate Calls to implementation Contract. **\n\ncontract PouchDelegate is PouchToken {\n    constructor(uint256 _chainId) public {\n        DOMAIN_SEPARATOR = keccak256(\n            abi.encode(\n                keccak256(\n                    \"EIP712Domain(string name,string version,uint256 chainId,address verifyingContract)\"\n                ),\n                keccak256(bytes(name)),\n                keccak256(bytes(version)),\n                _chainId,\n                address(this)\n            )\n        );\n\n        admin = msg.sender;\n    }\n\n    // ** Internal Functions **\n\n    modifier adminOnly() {\n        require(msg.sender == admin, \"Restricted Access to Admin Only\");\n        _;\n    }\n\n    // ** Update Implementation Address **\n    function updateLogic(address _newImplemenationAddress) external adminOnly {\n        require(msg.sender == admin, \"Admin Only\");\n        ImplementationAddress = _newImplemenationAddress;\n    }\n\n    // ** Delegate Calls **\n\n    // Internal Delegate Function **\n    function _ImplementDelegationCore(\n        address _holder,\n        uint256 _value,\n        bytes32 _r,\n        bytes32 _s,\n        uint8 _v,\n        bytes memory logic\n    ) internal returns (bool) {\n        (bool status, bytes memory returnedData) = ImplementationAddress\n            .delegatecall(\n            abi.encodeWithSelector(\n                bytes4(keccak256(logic)),\n                _holder,\n                _value,\n                _r,\n                _s,\n                _v\n            )\n        );\n        require(status);\n        return abi.decode(returnedData, (bool));\n    }\n\n    // function deposit(address holder,\n    //         uint256 value,\n    //         bytes32 r,\n    //         bytes32 s,\n    //         uint8 v) public returns (bool){\n    //           return _ImplementDelegationCore(holder,value,r,s,v, \"deposit(address,uint256,bytes32,bytes32,uint8\");\n    //     }\n\n    function deposit(\n        address holder,\n        uint256 value,\n        bytes32 r,\n        bytes32 s,\n        uint8 v\n    ) public returns (bool) {\n        bytes32 digest = keccak256(\n            abi.encodePacked(\n                \"\\x19\\x01\",\n                DOMAIN_SEPARATOR,\n                keccak256(abi.encode(DEPOSIT_TYPEHASH, holder, value))\n            )\n        );\n\n        require(holder != address(0), \"Pouch/invalid-address-0\");\n        require(holder == ecrecover(digest, v, r, s), \"Pouch/invalid-permit\");\n\n        // ** Check for sufficient Funds **\n        uint256 userBalance = daiToken.balanceOf(holder);\n        require(userBalance >= value, \"Insufficient Funds\");\n\n        daiToken.transferFrom(holder, address(this), value); // **Transfer User's DAI**\n        balances[holder] += value;\n        totalSupply += value;\n        emit Transfer(address(0), holder, value); // **Mint PCH tokens for the User**\n        daiToken.approve(cDaiAddress, value);\n        cDai.mint(value); // **Mint cDai  **\n        return true;\n    }\n\n    // function deposit(\n    // // address holder,\n    //         uint256 value\n    //         // bytes32 r,\n    //         // bytes32 s,\n    //         // uint8 v\n    //         ) public returns (bool){\n    //           (bool status, bytes memory returnedData) = ImplementationAddress.delegatecall(abi.encodeWithSelector(bytes4(keccak256(\"deposit(uint256)\")) ,value));\n    //         require(status);\n    //         return abi.decode(returnedData,(bool));\n    //     }\n\n    function withdraw(\n        address holder,\n        uint256 value,\n        bytes32 r,\n        bytes32 s,\n        uint8 v\n    ) public returns (bool) {\n        return\n            _ImplementDelegationCore(\n                holder,\n                value,\n                r,\n                s,\n                v,\n                \"withdraw(address,uint256,bytes32,bytes32,uint8\"\n            );\n    }\n\n    function transact(\n        address holder,\n        address to,\n        uint256 value,\n        bytes32 r,\n        bytes32 s,\n        uint8 v\n    ) public returns (bool) {\n        (bool status, bytes memory returnedData) = ImplementationAddress\n            .delegatecall(\n            abi.encodeWithSelector(\n                bytes4(\n                    keccak256(\n                        \"transact(address,address,uint256,bytes32,bytes32,uint8)\"\n                    )\n                ),\n                holder,\n                to,\n                value,\n                r,\n                s,\n                v\n            )\n        );\n        require(status);\n        return abi.decode(returnedData, (bool));\n    }\n\n    function checkProfits() public view adminOnly returns (uint256) {\n        (bool status, bytes memory returnedData) = ImplementationAddress\n            .staticcall(\n            abi.encodeWithSelector(bytes4(keccak256(\"_checkProfits()\")))\n        );\n        require(status);\n        return abi.decode(returnedData, (uint256));\n    }\n\n    function spitProfits() public adminOnly returns (bool) {\n        (bool status, bytes memory returnedData) = ImplementationAddress\n            .delegatecall(\n            abi.encodeWithSelector(bytes4(keccak256(\"_spitProfits()\")))\n        );\n        require(status);\n        return abi.decode(returnedData, (bool));\n    }\n\n    /**\n     * @notice Delegates execution to an implementation contract\n     * @dev It returns to the external caller whatever the implementation returns or forwards reverts\n     */\n    function() external {\n        // delegate all other functions to current implementation\n        (bool status, ) = ImplementationAddress.delegatecall(msg.data);\n        require(status);\n\n    }\n\n}\n",
  "sourcePath": "/home/roheat/blockchain/projects/biconomy/boundless/contracts/PouchSingle.sol",
  "compiler": {
    "name": "solc",
    "version": "0.5.0+commit.1d4f565a.Emscripten.clang"
  },
  "schemaVersion": "3.0.1",
  "updatedAt": "2020-02-18T16:14:25.075Z",
  "devdoc": {
    "methods": {}
  },
  "userdoc": {
    "methods": {}
  }
}