{
  "contractName": "Pouch",
  "abi": [
    {
      "constant": true,
      "inputs": [
        {
          "name": "",
          "type": "address"
        }
      ],
      "name": "rewards",
      "outputs": [
        {
          "name": "",
          "type": "uint256"
        }
      ],
      "payable": false,
      "stateMutability": "view",
      "type": "function",
      "signature": "0x0700037d"
    },
    {
      "constant": true,
      "inputs": [],
      "name": "TRANSACT_TYPEHASH",
      "outputs": [
        {
          "name": "",
          "type": "bytes32"
        }
      ],
      "payable": false,
      "stateMutability": "view",
      "type": "function",
      "signature": "0x0df73116"
    },
    {
      "constant": true,
      "inputs": [],
      "name": "totalSupply",
      "outputs": [
        {
          "name": "",
          "type": "uint256"
        }
      ],
      "payable": false,
      "stateMutability": "view",
      "type": "function",
      "signature": "0x18160ddd"
    },
    {
      "constant": true,
      "inputs": [
        {
          "name": "",
          "type": "address"
        }
      ],
      "name": "balances",
      "outputs": [
        {
          "name": "",
          "type": "uint256"
        }
      ],
      "payable": false,
      "stateMutability": "view",
      "type": "function",
      "signature": "0x27e235e3"
    },
    {
      "constant": true,
      "inputs": [],
      "name": "DOMAIN_SEPARATOR",
      "outputs": [
        {
          "name": "",
          "type": "bytes32"
        }
      ],
      "payable": false,
      "stateMutability": "view",
      "type": "function",
      "signature": "0x3644e515"
    },
    {
      "constant": true,
      "inputs": [],
      "name": "DEPOSIT_TYPEHASH",
      "outputs": [
        {
          "name": "",
          "type": "bytes32"
        }
      ],
      "payable": false,
      "stateMutability": "view",
      "type": "function",
      "signature": "0x48825e94"
    },
    {
      "constant": true,
      "inputs": [
        {
          "name": "",
          "type": "address"
        },
        {
          "name": "",
          "type": "address"
        }
      ],
      "name": "allowed",
      "outputs": [
        {
          "name": "",
          "type": "uint256"
        }
      ],
      "payable": false,
      "stateMutability": "view",
      "type": "function",
      "signature": "0x5c658165"
    },
    {
      "constant": true,
      "inputs": [],
      "name": "WITHDRAW_TYPEHASH",
      "outputs": [
        {
          "name": "",
          "type": "bytes32"
        }
      ],
      "payable": false,
      "stateMutability": "view",
      "type": "function",
      "signature": "0x76c5d758"
    },
    {
      "constant": true,
      "inputs": [
        {
          "name": "",
          "type": "address"
        }
      ],
      "name": "nonces",
      "outputs": [
        {
          "name": "",
          "type": "uint256"
        }
      ],
      "payable": false,
      "stateMutability": "view",
      "type": "function",
      "signature": "0x7ecebe00"
    },
    {
      "constant": true,
      "inputs": [],
      "name": "ImplementationAddress",
      "outputs": [
        {
          "name": "",
          "type": "address"
        }
      ],
      "payable": false,
      "stateMutability": "view",
      "type": "function",
      "signature": "0xe8a667de"
    },
    {
      "constant": true,
      "inputs": [],
      "name": "admin",
      "outputs": [
        {
          "name": "",
          "type": "address"
        }
      ],
      "payable": false,
      "stateMutability": "view",
      "type": "function",
      "signature": "0xf851a440"
    },
    {
      "inputs": [
        {
          "name": "delegateAddress",
          "type": "address"
        }
      ],
      "payable": false,
      "stateMutability": "nonpayable",
      "type": "constructor",
      "signature": "constructor"
    },
    {
      "anonymous": false,
      "inputs": [
        {
          "indexed": true,
          "name": "_from",
          "type": "address"
        },
        {
          "indexed": true,
          "name": "_to",
          "type": "address"
        },
        {
          "indexed": false,
          "name": "_value",
          "type": "uint256"
        }
      ],
      "name": "Transfer",
      "type": "event",
      "signature": "0xddf252ad1be2c89b69c2b068fc378daa952ba7f163c4a11628f55a4df523b3ef"
    },
    {
      "anonymous": false,
      "inputs": [
        {
          "indexed": true,
          "name": "_owner",
          "type": "address"
        },
        {
          "indexed": true,
          "name": "_spender",
          "type": "address"
        },
        {
          "indexed": false,
          "name": "_value",
          "type": "uint256"
        }
      ],
      "name": "Approval",
      "type": "event",
      "signature": "0x8c5be1e5ebec7d5bd14f71427d1e84f3dd0314c0f7b2291e5b200ac8c7c3b925"
    },
    {
      "anonymous": false,
      "inputs": [
        {
          "indexed": true,
          "name": "_from",
          "type": "address"
        },
        {
          "indexed": true,
          "name": "_to",
          "type": "address"
        },
        {
          "indexed": false,
          "name": "_value",
          "type": "uint256"
        }
      ],
      "name": "Reward",
      "type": "event",
      "signature": "0x6b053894d8fdbdcc936dd753e21291f0c48e68ef12306eb39a63a374147ba4bd"
    },
    {
      "constant": false,
      "inputs": [
        {
          "name": "holder",
          "type": "address"
        },
        {
          "name": "value",
          "type": "uint256"
        },
        {
          "name": "nonce",
          "type": "uint256"
        },
        {
          "name": "r",
          "type": "bytes32"
        },
        {
          "name": "s",
          "type": "bytes32"
        },
        {
          "name": "v",
          "type": "uint8"
        }
      ],
      "name": "deposit",
      "outputs": [
        {
          "name": "",
          "type": "bool"
        }
      ],
      "payable": false,
      "stateMutability": "nonpayable",
      "type": "function",
      "signature": "0xcfefd241"
    },
    {
      "constant": false,
      "inputs": [
        {
          "name": "holder",
          "type": "address"
        },
        {
          "name": "value",
          "type": "uint256"
        },
        {
          "name": "nonce",
          "type": "uint256"
        },
        {
          "name": "r",
          "type": "bytes32"
        },
        {
          "name": "s",
          "type": "bytes32"
        },
        {
          "name": "v",
          "type": "uint8"
        }
      ],
      "name": "withdraw",
      "outputs": [
        {
          "name": "",
          "type": "bool"
        }
      ],
      "payable": false,
      "stateMutability": "nonpayable",
      "type": "function",
      "signature": "0xcbb40dae"
    },
    {
      "constant": false,
      "inputs": [
        {
          "name": "holder",
          "type": "address"
        },
        {
          "name": "to",
          "type": "address"
        },
        {
          "name": "value",
          "type": "uint256"
        },
        {
          "name": "nonce",
          "type": "uint256"
        },
        {
          "name": "r",
          "type": "bytes32"
        },
        {
          "name": "s",
          "type": "bytes32"
        },
        {
          "name": "v",
          "type": "uint8"
        }
      ],
      "name": "transact",
      "outputs": [
        {
          "name": "",
          "type": "bool"
        }
      ],
      "payable": false,
      "stateMutability": "nonpayable",
      "type": "function",
      "signature": "0x12c6abb8"
    },
    {
      "constant": false,
      "inputs": [
        {
          "name": "holder",
          "type": "address"
        },
        {
          "name": "to",
          "type": "address"
        },
        {
          "name": "value",
          "type": "uint256"
        },
        {
          "name": "nonce",
          "type": "uint256"
        },
        {
          "name": "r",
          "type": "bytes32"
        },
        {
          "name": "s",
          "type": "bytes32"
        },
        {
          "name": "v",
          "type": "uint8"
        }
      ],
      "name": "transactTest",
      "outputs": [
        {
          "name": "",
          "type": "bool"
        }
      ],
      "payable": false,
      "stateMutability": "nonpayable",
      "type": "function",
      "signature": "0xc883ed89"
    },
    {
      "constant": true,
      "inputs": [],
      "name": "checkProfits",
      "outputs": [
        {
          "name": "",
          "type": "uint256"
        }
      ],
      "payable": false,
      "stateMutability": "view",
      "type": "function",
      "signature": "0xd7a8e87b"
    },
    {
      "constant": false,
      "inputs": [],
      "name": "spitProfits",
      "outputs": [
        {
          "name": "",
          "type": "bool"
        }
      ],
      "payable": false,
      "stateMutability": "nonpayable",
      "type": "function",
      "signature": "0x890268f8"
    },
    {
      "constant": true,
      "inputs": [],
      "name": "getExchangeRate",
      "outputs": [
        {
          "name": "",
          "type": "uint256"
        }
      ],
      "payable": false,
      "stateMutability": "view",
      "type": "function",
      "signature": "0xe6aa216c"
    },
    {
      "constant": true,
      "inputs": [],
      "name": "getMySupply",
      "outputs": [
        {
          "name": "",
          "type": "uint256"
        }
      ],
      "payable": false,
      "stateMutability": "view",
      "type": "function",
      "signature": "0x61f0cbab"
    },
    {
      "constant": true,
      "inputs": [],
      "name": "checkContractBalance",
      "outputs": [
        {
          "name": "",
          "type": "uint256"
        }
      ],
      "payable": false,
      "stateMutability": "view",
      "type": "function",
      "signature": "0x50312c9e"
    }
  ],
  "bytecode": "0x608060405273e7bc397dbd069fc7d0109c0636d06888bb50668c600460006101000a81548173ffffffffffffffffffffffffffffffffffffffff021916908373ffffffffffffffffffffffffffffffffffffffff160217905550600460009054906101000a900473ffffffffffffffffffffffffffffffffffffffff16600560006101000a81548173ffffffffffffffffffffffffffffffffffffffff021916908373ffffffffffffffffffffffffffffffffffffffff160217905550734f96fe3b7a6cf9725f59d353f723c1bdb64ca6aa600660006101000a81548173ffffffffffffffffffffffffffffffffffffffff021916908373ffffffffffffffffffffffffffffffffffffffff160217905550600660009054906101000a900473ffffffffffffffffffffffffffffffffffffffff16600760006101000a81548173ffffffffffffffffffffffffffffffffffffffff021916908373ffffffffffffffffffffffffffffffffffffffff1602179055503480156200018157600080fd5b50604051602080620030c68339810180604052620001a3919081019062000324565b60405180807f454950373132446f6d61696e28737472696e67206e616d652c737472696e672081526020017f76657273696f6e2c75696e7432353620636861696e49642c616464726573732081526020017f766572696679696e67436f6e74726163742900000000000000000000000000008152506052019050604051809103902060405180807f506f7563680000000000000000000000000000000000000000000000000000008152506005019050604051809103902060405180807f310000000000000000000000000000000000000000000000000000000000000081525060010190506040518091039020602a84604051602001620002aa95949392919062000383565b6040516020818303038152906040528051906020012060098190555080600360006101000a81548173ffffffffffffffffffffffffffffffffffffffff021916908373ffffffffffffffffffffffffffffffffffffffff1602179055505062000453565b60006200031c82516200042b565b905092915050565b6000602082840312156200033757600080fd5b600062000347848285016200030e565b91505092915050565b6200035b81620003e0565b82525050565b6200036c81620003f4565b82525050565b6200037d816200043f565b82525050565b600060a0820190506200039a600083018862000361565b620003a9602083018762000361565b620003b8604083018662000361565b620003c7606083018562000372565b620003d6608083018462000350565b9695505050505050565b6000620003ed82620003fe565b9050919050565b6000819050919050565b600073ffffffffffffffffffffffffffffffffffffffff82169050919050565b600060ff82169050919050565b60006200043882620003fe565b9050919050565b60006200044c826200041e565b9050919050565b612c6380620004636000396000f3fe608060405260043610610112576000357c0100000000000000000000000000000000000000000000000000000000900463ffffffff1680630700037d146101175780630df731161461015457806312c6abb81461017f57806318160ddd146101bc57806327e235e3146101e75780633644e5151461022457806348825e941461024f57806350312c9e1461027a5780635c658165146102a557806361f0cbab146102e257806376c5d7581461030d5780637ecebe0014610338578063890268f814610375578063c883ed89146103a0578063cbb40dae146103dd578063cfefd2411461041a578063d7a8e87b14610457578063e6aa216c14610482578063e8a667de146104ad578063f851a440146104d8575b600080fd5b34801561012357600080fd5b5061013e600480360361013991908101906124cf565b610503565b60405161014b9190612ad4565b60405180910390f35b34801561016057600080fd5b5061016961051b565b6040516101769190612944565b60405180910390f35b34801561018b57600080fd5b506101a660048036036101a19190810190612534565b61057a565b6040516101b39190612929565b60405180910390f35b3480156101c857600080fd5b506101d1610916565b6040516101de9190612ad4565b60405180910390f35b3480156101f357600080fd5b5061020e600480360361020991908101906124cf565b61091c565b60405161021b9190612ad4565b60405180910390f35b34801561023057600080fd5b50610239610934565b6040516102469190612944565b60405180910390f35b34801561025b57600080fd5b5061026461093a565b6040516102719190612944565b60405180910390f35b34801561028657600080fd5b5061028f610999565b60405161029c9190612ad4565b60405180910390f35b3480156102b157600080fd5b506102cc60048036036102c791908101906124f8565b610a89565b6040516102d99190612ad4565b60405180910390f35b3480156102ee57600080fd5b506102f7610aae565b6040516103049190612ad4565b60405180910390f35b34801561031957600080fd5b50610322610b76565b60405161032f9190612944565b60405180910390f35b34801561034457600080fd5b5061035f600480360361035a91908101906124cf565b610bd5565b60405161036c9190612ad4565b60405180910390f35b34801561038157600080fd5b5061038a610bed565b6040516103979190612929565b60405180910390f35b3480156103ac57600080fd5b506103c760048036036103c29190810190612534565b610cc3565b6040516103d49190612929565b60405180910390f35b3480156103e957600080fd5b5061040460048036036103ff91908101906125d2565b611134565b6040516104119190612929565b60405180910390f35b34801561042657600080fd5b50610441600480360361043c91908101906125d2565b611637565b60405161044e9190612929565b60405180910390f35b34801561046357600080fd5b5061046c611d3c565b6040516104799190612ad4565b60405180910390f35b34801561048e57600080fd5b50610497611f56565b6040516104a49190612ad4565b60405180910390f35b3480156104b957600080fd5b506104c2612019565b6040516104cf9190612885565b60405180910390f35b3480156104e457600080fd5b506104ed61203f565b6040516104fa9190612885565b60405180910390f35b600b6020528060005260406000206000915090505481565b60405180807f5472616e73616374286164647265737320686f6c6465722c616464726573732081526020017f746f2c75696e743235362076616c75652c75696e74323536206e6f6e63652900815250603f019050604051809103902081565b60008060095460405180807f5472616e73616374286164647265737320686f6c6465722c616464726573732081526020017f746f2c75696e743235362076616c75652c75696e74323536206e6f6e63652900815250603f01905060405180910390208a8a8a8a6040516020016105f495949392919061295f565b6040516020818303038152906040528051906020012060405160200180807f190100000000000000000000000000000000000000000000000000000000000081525060020183815260200182815260200192505050604051602081830303815290604052805190602001209050600073ffffffffffffffffffffffffffffffffffffffff168973ffffffffffffffffffffffffffffffffffffffff16141515156106d3576040517f08c379a00000000000000000000000000000000000000000000000000000000081526004016106ca90612a74565b60405180910390fd5b60018184878760405160008152602001604052604051808581526020018460ff1660ff1681526020018381526020018281526020019450505050506020604051602081039080840390855afa158015610730573d6000803e3d6000fd5b5050506020604051035173ffffffffffffffffffffffffffffffffffffffff168973ffffffffffffffffffffffffffffffffffffffff161415156107a9576040517f08c379a00000000000000000000000000000000000000000000000000000000081526004016107a090612ab4565b60405180910390fd5b600160008a73ffffffffffffffffffffffffffffffffffffffff1673ffffffffffffffffffffffffffffffffffffffff16815260200190815260200160002054871115151561082d576040517f08c379a000000000000000000000000000000000000000000000000000000000815260040161082490612a54565b60405180910390fd5b600073ffffffffffffffffffffffffffffffffffffffff168873ffffffffffffffffffffffffffffffffffffffff161415151561086957600080fd5b600a60008a73ffffffffffffffffffffffffffffffffffffffff1673ffffffffffffffffffffffffffffffffffffffff168152602001908152602001600020600081548092919060010191905055861415156108fa576040517f08c379a00000000000000000000000000000000000000000000000000000000081526004016108f190612a34565b60405180910390fd5b610905898989612065565b506001915050979650505050505050565b60005481565b60016020528060005260406000206000915090505481565b60095481565b60405180807f4465706f736974286164647265737320686f6c6465722c75696e74323536207681526020017f616c75652c75696e74323536206e6f6e636529000000000000000000000000008152506033019050604051809103902081565b6000600560009054906101000a900473ffffffffffffffffffffffffffffffffffffffff1673ffffffffffffffffffffffffffffffffffffffff166370a08231600360009054906101000a900473ffffffffffffffffffffffffffffffffffffffff166040518263ffffffff167c0100000000000000000000000000000000000000000000000000000000028152600401610a349190612885565b60206040518083038186803b158015610a4c57600080fd5b505afa158015610a60573d6000803e3d6000fd5b505050506040513d601f19601f82011682018060405250610a849190810190612684565b905090565b6002602052816000526040600020602052806000526040600020600091509150505481565b600080600360009054906101000a900473ffffffffffffffffffffffffffffffffffffffff1690508073ffffffffffffffffffffffffffffffffffffffff166318160ddd6040518163ffffffff167c010000000000000000000000000000000000000000000000000000000002815260040160206040518083038186803b158015610b3857600080fd5b505afa158015610b4c573d6000803e3d6000fd5b505050506040513d601f19601f82011682018060405250610b709190810190612684565b91505090565b60405180807f5769746864726177286164647265737320686f6c6465722c75696e743235362081526020017f76616c75652c75696e74323536206e6f6e6365290000000000000000000000008152506034019050604051809103902081565b600a6020528060005260406000206000915090505481565b6000600560009054906101000a900473ffffffffffffffffffffffffffffffffffffffff1673ffffffffffffffffffffffffffffffffffffffff1663a9059cbb3360646040518363ffffffff167c0100000000000000000000000000000000000000000000000000000000028152600401610c699291906128a0565b602060405180830381600087803b158015610c8357600080fd5b505af1158015610c97573d6000803e3d6000fd5b505050506040513d601f19601f82011682018060405250610cbb919081019061265b565b506001905090565b60008060095460405180807f5472616e73616374286164647265737320686f6c6465722c616464726573732081526020017f746f2c75696e743235362076616c75652c75696e74323536206e6f6e63652900815250603f01905060405180910390208a8a8a8a604051602001610d3d95949392919061295f565b6040516020818303038152906040528051906020012060405160200180807f190100000000000000000000000000000000000000000000000000000000000081525060020183815260200182815260200192505050604051602081830303815290604052805190602001209050600073ffffffffffffffffffffffffffffffffffffffff168973ffffffffffffffffffffffffffffffffffffffff1614151515610e1c576040517f08c379a0000000000000000000000000000000000000000000000000000000008152600401610e1390612a74565b60405180910390fd5b60018184878760405160008152602001604052604051808581526020018460ff1660ff1681526020018381526020018281526020019450505050506020604051602081039080840390855afa158015610e79573d6000803e3d6000fd5b5050506020604051035173ffffffffffffffffffffffffffffffffffffffff168973ffffffffffffffffffffffffffffffffffffffff16141515610ef2576040517f08c379a0000000000000000000000000000000000000000000000000000000008152600401610ee990612ab4565b60405180910390fd5b600160008a73ffffffffffffffffffffffffffffffffffffffff1673ffffffffffffffffffffffffffffffffffffffff168152602001908152602001600020548711151515610f76576040517f08c379a0000000000000000000000000000000000000000000000000000000008152600401610f6d90612a54565b60405180910390fd5b600073ffffffffffffffffffffffffffffffffffffffff168873ffffffffffffffffffffffffffffffffffffffff1614151515610fb257600080fd5b600a60008a73ffffffffffffffffffffffffffffffffffffffff1673ffffffffffffffffffffffffffffffffffffffff16815260200190815260200160002060008154809291906001019190505586141515611043576040517f08c379a000000000000000000000000000000000000000000000000000000000815260040161103a90612a34565b60405180910390fd5b61104e898989612065565b5061106189670de0b6b3a76400006121bf565b508873ffffffffffffffffffffffffffffffffffffffff163073ffffffffffffffffffffffffffffffffffffffff167f6b053894d8fdbdcc936dd753e21291f0c48e68ef12306eb39a63a374147ba4bd670de0b6b3a76400006040516110c791906129f7565b60405180910390a3670de0b6b3a7640000600b60008b73ffffffffffffffffffffffffffffffffffffffff1673ffffffffffffffffffffffffffffffffffffffff168152602001908152602001600020600082825401925050819055506001915050979650505050505050565b60008060095460405180807f5769746864726177286164647265737320686f6c6465722c75696e743235362081526020017f76616c75652c75696e74323536206e6f6e636529000000000000000000000000815250603401905060405180910390208989896040516020016111ac94939291906129b2565b6040516020818303038152906040528051906020012060405160200180807f190100000000000000000000000000000000000000000000000000000000000081525060020183815260200182815260200192505050604051602081830303815290604052805190602001209050600073ffffffffffffffffffffffffffffffffffffffff168873ffffffffffffffffffffffffffffffffffffffff161415151561128b576040517f08c379a000000000000000000000000000000000000000000000000000000000815260040161128290612a74565b60405180910390fd5b60018184878760405160008152602001604052604051808581526020018460ff1660ff1681526020018381526020018281526020019450505050506020604051602081039080840390855afa1580156112e8573d6000803e3d6000fd5b5050506020604051035173ffffffffffffffffffffffffffffffffffffffff168873ffffffffffffffffffffffffffffffffffffffff16141515611361576040517f08c379a000000000000000000000000000000000000000000000000000000000815260040161135890612ab4565b60405180910390fd5b600160008973ffffffffffffffffffffffffffffffffffffffff1673ffffffffffffffffffffffffffffffffffffffff1681526020019081526020016000205487111515156113e5576040517f08c379a00000000000000000000000000000000000000000000000000000000081526004016113dc90612a54565b60405180910390fd5b600a60008973ffffffffffffffffffffffffffffffffffffffff1673ffffffffffffffffffffffffffffffffffffffff16815260200190815260200160002060008154809291906001019190505586141515611476576040517f08c379a000000000000000000000000000000000000000000000000000000000815260040161146d90612a34565b60405180910390fd5b61148288600089612065565b50866000808282540392505081905550600560009054906101000a900473ffffffffffffffffffffffffffffffffffffffff1673ffffffffffffffffffffffffffffffffffffffff1663852a12e3886040518263ffffffff167c01000000000000000000000000000000000000000000000000000000000281526004016115099190612ad4565b602060405180830381600087803b15801561152357600080fd5b505af1158015611537573d6000803e3d6000fd5b505050506040513d601f19601f8201168201806040525061155b9190810190612684565b50600760009054906101000a900473ffffffffffffffffffffffffffffffffffffffff1673ffffffffffffffffffffffffffffffffffffffff1663a9059cbb89896040518363ffffffff167c01000000000000000000000000000000000000000000000000000000000281526004016115d5929190612900565b602060405180830381600087803b1580156115ef57600080fd5b505af1158015611603573d6000803e3d6000fd5b505050506040513d601f19601f82011682018060405250611627919081019061265b565b5060019150509695505050505050565b60008060095460405180807f4465706f736974286164647265737320686f6c6465722c75696e74323536207681526020017f616c75652c75696e74323536206e6f6e63652900000000000000000000000000815250603301905060405180910390208989896040516020016116af94939291906129b2565b6040516020818303038152906040528051906020012060405160200180807f190100000000000000000000000000000000000000000000000000000000000081525060020183815260200182815260200192505050604051602081830303815290604052805190602001209050600073ffffffffffffffffffffffffffffffffffffffff168873ffffffffffffffffffffffffffffffffffffffff161415151561178e576040517f08c379a000000000000000000000000000000000000000000000000000000000815260040161178590612a74565b60405180910390fd5b60018184878760405160008152602001604052604051808581526020018460ff1660ff1681526020018381526020018281526020019450505050506020604051602081039080840390855afa1580156117eb573d6000803e3d6000fd5b5050506020604051035173ffffffffffffffffffffffffffffffffffffffff168873ffffffffffffffffffffffffffffffffffffffff16141515611864576040517f08c379a000000000000000000000000000000000000000000000000000000000815260040161185b90612ab4565b60405180910390fd5b600a60008973ffffffffffffffffffffffffffffffffffffffff1673ffffffffffffffffffffffffffffffffffffffff168152602001908152602001600020600081548092919060010191905055861415156118f5576040517f08c379a00000000000000000000000000000000000000000000000000000000081526004016118ec90612a34565b60405180910390fd5b6000600760009054906101000a900473ffffffffffffffffffffffffffffffffffffffff1673ffffffffffffffffffffffffffffffffffffffff166370a082318a6040518263ffffffff167c010000000000000000000000000000000000000000000000000000000002815260040161196e9190612885565b60206040518083038186803b15801561198657600080fd5b505afa15801561199a573d6000803e3d6000fd5b505050506040513d601f19601f820116820180604052506119be9190810190612684565b9050878110151515611a05576040517f08c379a00000000000000000000000000000000000000000000000000000000081526004016119fc90612a54565b60405180910390fd5b600760009054906101000a900473ffffffffffffffffffffffffffffffffffffffff1673ffffffffffffffffffffffffffffffffffffffff166323b872dd8a308b6040518463ffffffff167c0100000000000000000000000000000000000000000000000000000000028152600401611a80939291906128c9565b602060405180830381600087803b158015611a9a57600080fd5b505af1158015611aae573d6000803e3d6000fd5b505050506040513d601f19601f82011682018060405250611ad2919081019061265b565b5087600160008b73ffffffffffffffffffffffffffffffffffffffff1673ffffffffffffffffffffffffffffffffffffffff168152602001908152602001600020600082825401925050819055508760008082825401925050819055508873ffffffffffffffffffffffffffffffffffffffff16600073ffffffffffffffffffffffffffffffffffffffff167fddf252ad1be2c89b69c2b068fc378daa952ba7f163c4a11628f55a4df523b3ef8a604051611b8d9190612ad4565b60405180910390a3600760009054906101000a900473ffffffffffffffffffffffffffffffffffffffff1673ffffffffffffffffffffffffffffffffffffffff1663095ea7b3600460009054906101000a900473ffffffffffffffffffffffffffffffffffffffff168a6040518363ffffffff167c0100000000000000000000000000000000000000000000000000000000028152600401611c30929190612900565b600060405180830381600087803b158015611c4a57600080fd5b505af1158015611c5e573d6000803e3d6000fd5b50505050600560009054906101000a900473ffffffffffffffffffffffffffffffffffffffff1673ffffffffffffffffffffffffffffffffffffffff1663a0712d68896040518263ffffffff167c0100000000000000000000000000000000000000000000000000000000028152600401611cd99190612ad4565b602060405180830381600087803b158015611cf357600080fd5b505af1158015611d07573d6000803e3d6000fd5b505050506040513d601f19601f82011682018060405250611d2b9190810190612684565b506001925050509695505050505050565b600080611d5d6305f5e100611d4f610aae565b61228d90919063ffffffff16565b90506000600560009054906101000a900473ffffffffffffffffffffffffffffffffffffffff1673ffffffffffffffffffffffffffffffffffffffff166370a08231600360009054906101000a900473ffffffffffffffffffffffffffffffffffffffff166040518263ffffffff167c0100000000000000000000000000000000000000000000000000000000028152600401611dfa9190612885565b60206040518083038186803b158015611e1257600080fd5b505afa158015611e26573d6000803e3d6000fd5b505050506040513d601f19601f82011682018060405250611e4a9190810190612684565b90506000611f216402540be400600560009054906101000a900473ffffffffffffffffffffffffffffffffffffffff1673ffffffffffffffffffffffffffffffffffffffff1663182df0f56040518163ffffffff167c010000000000000000000000000000000000000000000000000000000002815260040160206040518083038186803b158015611edb57600080fd5b505afa158015611eef573d6000803e3d6000fd5b505050506040513d601f19601f82011682018060405250611f139190810190612684565b61230190919063ffffffff16565b90506000611f38828561230190919063ffffffff16565b9050611f4d818461234b90919063ffffffff16565b94505050505090565b6000600560009054906101000a900473ffffffffffffffffffffffffffffffffffffffff1673ffffffffffffffffffffffffffffffffffffffff1663182df0f56040518163ffffffff167c010000000000000000000000000000000000000000000000000000000002815260040160206040518083038186803b158015611fdc57600080fd5b505afa158015611ff0573d6000803e3d6000fd5b505050506040513d601f19601f820116820180604052506120149190810190612684565b905090565b600860009054906101000a900473ffffffffffffffffffffffffffffffffffffffff1681565b600360009054906101000a900473ffffffffffffffffffffffffffffffffffffffff1681565b600081600160008673ffffffffffffffffffffffffffffffffffffffff1673ffffffffffffffffffffffffffffffffffffffff16815260200190815260200160002054101515156120b557600080fd5b81600160008673ffffffffffffffffffffffffffffffffffffffff1673ffffffffffffffffffffffffffffffffffffffff1681526020019081526020016000206000828254039250508190555081600160008573ffffffffffffffffffffffffffffffffffffffff1673ffffffffffffffffffffffffffffffffffffffff168152602001908152602001600020600082825401925050819055508273ffffffffffffffffffffffffffffffffffffffff168473ffffffffffffffffffffffffffffffffffffffff167fddf252ad1be2c89b69c2b068fc378daa952ba7f163c4a11628f55a4df523b3ef846040516121ac9190612ad4565b60405180910390a3600190509392505050565b600081600160008573ffffffffffffffffffffffffffffffffffffffff1673ffffffffffffffffffffffffffffffffffffffff168152602001908152602001600020600082825401925050819055508160008082825401925050819055508273ffffffffffffffffffffffffffffffffffffffff16600073ffffffffffffffffffffffffffffffffffffffff167fddf252ad1be2c89b69c2b068fc378daa952ba7f163c4a11628f55a4df523b3ef8460405161227b9190612ad4565b60405180910390a36001905092915050565b6000808314156122a057600090506122fb565b600082840290508284828115156122b357fe5b041415156122f6576040517f08c379a00000000000000000000000000000000000000000000000000000000081526004016122ed90612a94565b60405180910390fd5b809150505b92915050565b600061234383836040805190810160405280601a81526020017f536166654d6174683a206469766973696f6e206279207a65726f000000000000815250612395565b905092915050565b600061238d83836040805190810160405280601e81526020017f536166654d6174683a207375627472616374696f6e206f766572666c6f7700008152506123fa565b905092915050565b6000808311829015156123de576040517f08c379a00000000000000000000000000000000000000000000000000000000081526004016123d59190612a12565b60405180910390fd5b50600083858115156123ec57fe5b049050809150509392505050565b60008383111582901515612444576040517f08c379a000000000000000000000000000000000000000000000000000000000815260040161243b9190612a12565b60405180910390fd5b5060008385039050809150509392505050565b60006124638235612b4c565b905092915050565b60006124778251612b5e565b905092915050565b600061248b8235612b6a565b905092915050565b600061249f8235612b74565b905092915050565b60006124b38251612b74565b905092915050565b60006124c78235612b7e565b905092915050565b6000602082840312156124e157600080fd5b60006124ef84828501612457565b91505092915050565b6000806040838503121561250b57600080fd5b600061251985828601612457565b925050602061252a85828601612457565b9150509250929050565b600080600080600080600060e0888a03121561254f57600080fd5b600061255d8a828b01612457565b975050602061256e8a828b01612457565b965050604061257f8a828b01612493565b95505060606125908a828b01612493565b94505060806125a18a828b0161247f565b93505060a06125b28a828b0161247f565b92505060c06125c38a828b016124bb565b91505092959891949750929550565b60008060008060008060c087890312156125eb57600080fd5b60006125f989828a01612457565b965050602061260a89828a01612493565b955050604061261b89828a01612493565b945050606061262c89828a0161247f565b935050608061263d89828a0161247f565b92505060a061264e89828a016124bb565b9150509295509295509295565b60006020828403121561266d57600080fd5b600061267b8482850161246b565b91505092915050565b60006020828403121561269657600080fd5b60006126a4848285016124a7565b91505092915050565b6126b681612b8b565b82525050565b6126c581612afa565b82525050565b6126d481612b0c565b82525050565b6126e381612b18565b82525050565b6126f281612b9d565b82525050565b61270181612baf565b82525050565b600061271282612aef565b808452612726816020860160208601612be5565b61272f81612c18565b602085010191505092915050565b6000601382527f506f7563682f696e76616c69642d6e6f6e6365000000000000000000000000006020830152604082019050919050565b6000601282527f496e73756666696369656e742046756e647300000000000000000000000000006020830152604082019050919050565b6000601782527f506f7563682f696e76616c69642d616464726573732d300000000000000000006020830152604082019050919050565b6000602182527f536166654d6174683a206d756c7469706c69636174696f6e206f766572666c6f60208301527f77000000000000000000000000000000000000000000000000000000000000006040830152606082019050919050565b6000601482527f506f7563682f696e76616c69642d7065726d69740000000000000000000000006020830152604082019050919050565b61287f81612b42565b82525050565b600060208201905061289a60008301846126bc565b92915050565b60006040820190506128b560008301856126ad565b6128c260208301846126f8565b9392505050565b60006060820190506128de60008301866126bc565b6128eb60208301856126bc565b6128f86040830184612876565b949350505050565b600060408201905061291560008301856126bc565b6129226020830184612876565b9392505050565b600060208201905061293e60008301846126cb565b92915050565b600060208201905061295960008301846126da565b92915050565b600060a08201905061297460008301886126da565b61298160208301876126bc565b61298e60408301866126bc565b61299b6060830185612876565b6129a86080830184612876565b9695505050505050565b60006080820190506129c760008301876126da565b6129d460208301866126bc565b6129e16040830185612876565b6129ee6060830184612876565b95945050505050565b6000602082019050612a0c60008301846126e9565b92915050565b60006020820190508181036000830152612a2c8184612707565b905092915050565b60006020820190508181036000830152612a4d8161273d565b9050919050565b60006020820190508181036000830152612a6d81612774565b9050919050565b60006020820190508181036000830152612a8d816127ab565b9050919050565b60006020820190508181036000830152612aad816127e2565b9050919050565b60006020820190508181036000830152612acd8161283f565b9050919050565b6000602082019050612ae96000830184612876565b92915050565b600081519050919050565b6000612b0582612b22565b9050919050565b60008115159050919050565b6000819050919050565b600073ffffffffffffffffffffffffffffffffffffffff82169050919050565b6000819050919050565b6000612b5782612b22565b9050919050565b60008115159050919050565b6000819050919050565b6000819050919050565b600060ff82169050919050565b6000612b9682612bc1565b9050919050565b6000612ba882612b42565b9050919050565b6000612bba82612b42565b9050919050565b6000612bcc82612bd3565b9050919050565b6000612bde82612b22565b9050919050565b60005b83811015612c03578082015181840152602081019050612be8565b83811115612c12576000848401525b50505050565b6000601f19601f830116905091905056fea265627a7a72305820aca2ae512085c6456f3fbf403d70b812401c08435a4b3181630068d6b7565d406c6578706572696d656e74616cf50037",
  "source": "pragma solidity >=0.5.0;\npragma experimental ABIEncoderV2;\n\nimport \"./interfaces/TokenInterface.sol\";\nimport \"./interfaces/cTokenInterface.sol\";\nimport \"./interfaces/PTokenInterface.sol\";\nimport \"./libraries/SafeMath.sol\";\nimport \"./PouchStorage.sol\";\n\ncontract Pouch is PTokenInterface, PouchStorage {\n    constructor(address delegateAddress) public {\n        DOMAIN_SEPARATOR = keccak256(\n            abi.encode(\n                keccak256(\n                    \"EIP712Domain(string name,string version,uint256 chainId,address verifyingContract)\"\n                ),\n                keccak256(\"Pouch\"),\n                keccak256(\"1\"),\n                42, // kovan chainId\n                delegateAddress\n            )\n        );\n        admin = delegateAddress;\n    }\n\n    using SafeMath for uint256;\n\n    function deposit(\n        address holder,\n        uint256 value,\n        uint256 nonce,\n        bytes32 r,\n        bytes32 s,\n        uint8 v\n    ) public returns (bool) {\n        bytes32 digest = keccak256(\n            abi.encodePacked(\n                \"\\x19\\x01\",\n                DOMAIN_SEPARATOR,\n                keccak256(abi.encode(DEPOSIT_TYPEHASH, holder, value, nonce))\n            )\n        );\n\n        require(holder != address(0), \"Pouch/invalid-address-0\");\n        require(holder == ecrecover(digest, v, r, s), \"Pouch/invalid-permit\");\n        require(nonce == nonces[holder]++, \"Pouch/invalid-nonce\");\n\n        // ** Check for sufficient Funds **\n        uint256 userBalance = daiToken.balanceOf(holder);\n        require(userBalance >= value, \"Insufficient Funds\");\n\n        daiToken.transferFrom(holder, address(this), value); // **Transfer User's DAI**\n        balances[holder] += value;\n        totalSupply += value;\n        emit Transfer(address(0), holder, value); // **Mint PCH tokens for the User**\n        daiToken.approve(cDaiAddress, value);\n        cDai.mint(value); // **Mint cDai  **\n        return true;\n    }\n\n    // ** Withdraw DAI**\n    function withdraw(\n        address holder,\n        uint256 value,\n        uint256 nonce,\n        bytes32 r,\n        bytes32 s,\n        uint8 v\n    ) public returns (bool) {\n        bytes32 digest = keccak256(\n            abi.encodePacked(\n                \"\\x19\\x01\",\n                DOMAIN_SEPARATOR,\n                keccak256(abi.encode(WITHDRAW_TYPEHASH, holder, value, nonce))\n            )\n        );\n\n        require(holder != address(0), \"Pouch/invalid-address-0\");\n        require(holder == ecrecover(digest, v, r, s), \"Pouch/invalid-permit\");\n        require(value <= balances[holder], \"Insufficient Funds\");\n        require(nonce == nonces[holder]++, \"Pouch/invalid-nonce\");\n\n        // ** Burn Pouch Token **\n        _transfer(holder, address(0), value);\n        totalSupply -= value;\n\n        // **  Redeem User's DAI from compound and transfer it to user.**\n        cDai.redeemUnderlying(value);\n        daiToken.transfer(holder, value);\n        return true;\n    }\n\n    function transact(\n        address holder,\n        address to,\n        uint256 value,\n        uint256 nonce,\n        bytes32 r,\n        bytes32 s,\n        uint8 v\n    ) public returns (bool) {\n        bytes32 digest = keccak256(\n            abi.encodePacked(\n                \"\\x19\\x01\",\n                DOMAIN_SEPARATOR,\n                keccak256(\n                    abi.encode(TRANSACT_TYPEHASH, holder, to, value, nonce)\n                )\n            )\n        );\n\n        require(holder != address(0), \"Pouch/invalid-address-0\");\n        require(holder == ecrecover(digest, v, r, s), \"Pouch/invalid-permit\");\n        require(value <= balances[holder], \"Insufficient Funds\");\n        require(to != address(0));\n        require(nonce == nonces[holder]++, \"Pouch/invalid-nonce\");\n\n        // ** Transfer Funds **\n        _transfer(holder, to, value);\n\n        // ** Transfer Rewards,if Any. **\n        // if (value >= 1e18){\n        //     uint profitInDai =  _checkProfits().mul(getExchangeRate());\n        //     uint checkProfitInDai = profitInDai.div(1e18);\n        //     if(checkProfitInDai >= 1e11){\n        //         uint myReward =  _randomReward();\n        //         cDai.redeemUnderlying(myReward);\n        //         daiToken.transfer(msg.sender, myReward);\n\n        //     return true;\n        //     }\n        // }\n        return true;\n    }\n\n    /* For Testing Purposes Only*/\n\n    function transactTest(\n        address holder,\n        address to,\n        uint256 value,\n        uint256 nonce,\n        bytes32 r,\n        bytes32 s,\n        uint8 v\n    ) public returns (bool) {\n        bytes32 digest = keccak256(\n            abi.encodePacked(\n                \"\\x19\\x01\",\n                DOMAIN_SEPARATOR,\n                keccak256(\n                    abi.encode(TRANSACT_TYPEHASH, holder, to, value, nonce)\n                )\n            )\n        );\n\n        require(holder != address(0), \"Pouch/invalid-address-0\");\n        require(holder == ecrecover(digest, v, r, s), \"Pouch/invalid-permit\");\n        require(value <= balances[holder], \"Insufficient Funds\");\n        require(to != address(0));\n        require(nonce == nonces[holder]++, \"Pouch/invalid-nonce\");\n\n        // ** Transfer Funds **\n        _transfer(holder, to, value);\n\n        // ** Transfer Rewards, 1 PCH token. **\n        _mint(holder, 1e18);\n        emit Reward(address(this), holder, 1e18);\n        rewards[holder] += 1e18;\n        // if (value >= 1e18) {\n        // uint256 profitInDai = checkProfits().mul(getExchangeRate());\n        // uint256 checkProfitInDai = profitInDai.div(1e18);\n        // if (checkProfitInDai >= 1e6) {\n        //     uint256 userRewarded = _randomReward();\n        //     cDai.redeemUnderlying(userRewarded);\n        //     daiToken.transfer(holder, userRewarded);\n        //     return true;\n        // }\n        // }\n        return true;\n    }\n\n    function checkProfits() public view returns (uint256) {\n        uint256 adjustedTotalSupply = (getMySupply()).mul(1e8);\n        uint256 ourContractBalance = cDai.balanceOf(admin);\n        uint256 cDaiExchangeRateDivided = (cDai.exchangeRateStored()).div(1e10);\n\n        uint256 currentPrice = adjustedTotalSupply.div(cDaiExchangeRateDivided);\n        return ourContractBalance.sub(currentPrice);\n    }\n\n    function spitProfits() public returns (bool) {\n        // uint256 profit = checkProfits();\n        // cDai.transfer(msg.sender, profit);\n        cDai.transfer(msg.sender, 100);\n        return true;\n    }\n    function getExchangeRate() public view returns (uint256) {\n        return cDai.exchangeRateStored();\n    }\n\n    function getMySupply() public view returns (uint256) {\n        TokenInterface pouch = TokenInterface(admin);\n        return pouch.totalSupply();\n    }\n\n    function checkContractBalance() public view returns (uint256) {\n        return cDai.balanceOf(admin);\n    }\n    // ** Internal Functions **\n\n    function _mint(address _to, uint256 _value)\n        internal\n        returns (bool success)\n    {\n        balances[_to] += _value;\n        totalSupply += _value;\n        emit Transfer(address(0), _to, _value);\n        return true;\n    }\n\n    function _transfer(address _from, address _to, uint256 _value)\n        internal\n        returns (bool success)\n    {\n        require(balances[_from] >= _value);\n        balances[_from] -= _value;\n        balances[_to] += _value;\n        emit Transfer(_from, _to, _value);\n        return true;\n    }\n    function _randomReward() internal view returns (uint256) {\n        uint256 randomnumber = uint256(\n            keccak256(abi.encodePacked(now, msg.sender, block.number))\n        ) %\n            2;\n        return randomnumber.mul(1e6);\n    }\n\n}\n",
  "sourcePath": "/home/roheat/blockchain/projects/biconomy/boundless/contracts/Pouch.sol",
  "compiler": {
    "name": "solc",
    "version": "0.5.0+commit.1d4f565a.Emscripten.clang"
  },
  "schemaVersion": "3.0.1",
  "updatedAt": "2020-02-28T11:10:41.430Z",
  "devdoc": {
    "methods": {}
  },
  "userdoc": {
    "methods": {}
  }
}