{
  "contractName": "PouchDelegate",
  "abi": [
    {
      "constant": true,
      "inputs": [],
      "name": "name",
      "outputs": [
        {
          "name": "",
          "type": "string"
        }
      ],
      "payable": false,
      "stateMutability": "view",
      "type": "function",
      "signature": "0x06fdde03"
    },
    {
      "constant": false,
      "inputs": [
        {
          "name": "_spender",
          "type": "address"
        },
        {
          "name": "_value",
          "type": "uint256"
        }
      ],
      "name": "approve",
      "outputs": [
        {
          "name": "success",
          "type": "bool"
        }
      ],
      "payable": false,
      "stateMutability": "nonpayable",
      "type": "function",
      "signature": "0x095ea7b3"
    },
    {
      "constant": true,
      "inputs": [],
      "name": "TRANSACT_TYPEHASH",
      "outputs": [
        {
          "name": "",
          "type": "bytes32"
        }
      ],
      "payable": false,
      "stateMutability": "view",
      "type": "function",
      "signature": "0x0df73116"
    },
    {
      "constant": true,
      "inputs": [],
      "name": "totalSupply",
      "outputs": [
        {
          "name": "",
          "type": "uint256"
        }
      ],
      "payable": false,
      "stateMutability": "view",
      "type": "function",
      "signature": "0x18160ddd"
    },
    {
      "constant": false,
      "inputs": [
        {
          "name": "_from",
          "type": "address"
        },
        {
          "name": "_to",
          "type": "address"
        },
        {
          "name": "_value",
          "type": "uint256"
        }
      ],
      "name": "transferFrom",
      "outputs": [
        {
          "name": "success",
          "type": "bool"
        }
      ],
      "payable": false,
      "stateMutability": "nonpayable",
      "type": "function",
      "signature": "0x23b872dd"
    },
    {
      "constant": true,
      "inputs": [
        {
          "name": "",
          "type": "address"
        }
      ],
      "name": "balances",
      "outputs": [
        {
          "name": "",
          "type": "uint256"
        }
      ],
      "payable": false,
      "stateMutability": "view",
      "type": "function",
      "signature": "0x27e235e3"
    },
    {
      "constant": true,
      "inputs": [],
      "name": "decimals",
      "outputs": [
        {
          "name": "",
          "type": "uint8"
        }
      ],
      "payable": false,
      "stateMutability": "view",
      "type": "function",
      "signature": "0x313ce567"
    },
    {
      "constant": true,
      "inputs": [],
      "name": "DOMAIN_SEPARATOR",
      "outputs": [
        {
          "name": "",
          "type": "bytes32"
        }
      ],
      "payable": false,
      "stateMutability": "view",
      "type": "function",
      "signature": "0x3644e515"
    },
    {
      "constant": true,
      "inputs": [],
      "name": "DEPOSIT_TYPEHASH",
      "outputs": [
        {
          "name": "",
          "type": "bytes32"
        }
      ],
      "payable": false,
      "stateMutability": "view",
      "type": "function",
      "signature": "0x48825e94"
    },
    {
      "constant": true,
      "inputs": [],
      "name": "supplyOf",
      "outputs": [
        {
          "name": "balance",
          "type": "uint256"
        }
      ],
      "payable": false,
      "stateMutability": "view",
      "type": "function",
      "signature": "0x523a50d0"
    },
    {
      "constant": true,
      "inputs": [],
      "name": "version",
      "outputs": [
        {
          "name": "",
          "type": "string"
        }
      ],
      "payable": false,
      "stateMutability": "view",
      "type": "function",
      "signature": "0x54fd4d50"
    },
    {
      "constant": true,
      "inputs": [
        {
          "name": "",
          "type": "address"
        },
        {
          "name": "",
          "type": "address"
        }
      ],
      "name": "allowed",
      "outputs": [
        {
          "name": "",
          "type": "uint256"
        }
      ],
      "payable": false,
      "stateMutability": "view",
      "type": "function",
      "signature": "0x5c658165"
    },
    {
      "constant": true,
      "inputs": [
        {
          "name": "_owner",
          "type": "address"
        }
      ],
      "name": "balanceOf",
      "outputs": [
        {
          "name": "balance",
          "type": "uint256"
        }
      ],
      "payable": false,
      "stateMutability": "view",
      "type": "function",
      "signature": "0x70a08231"
    },
    {
      "constant": true,
      "inputs": [],
      "name": "WITHDRAW_TYPEHASH",
      "outputs": [
        {
          "name": "",
          "type": "bytes32"
        }
      ],
      "payable": false,
      "stateMutability": "view",
      "type": "function",
      "signature": "0x76c5d758"
    },
    {
      "constant": false,
      "inputs": [
        {
          "name": "_to",
          "type": "address"
        },
        {
          "name": "_value",
          "type": "uint256"
        }
      ],
      "name": "transfer",
      "outputs": [
        {
          "name": "success",
          "type": "bool"
        }
      ],
      "payable": false,
      "stateMutability": "nonpayable",
      "type": "function",
      "signature": "0xa9059cbb"
    },
    {
      "constant": true,
      "inputs": [
        {
          "name": "_owner",
          "type": "address"
        },
        {
          "name": "_spender",
          "type": "address"
        }
      ],
      "name": "allowance",
      "outputs": [
        {
          "name": "remaining",
          "type": "uint256"
        }
      ],
      "payable": false,
      "stateMutability": "view",
      "type": "function",
      "signature": "0xdd62ed3e"
    },
    {
      "constant": true,
      "inputs": [],
      "name": "ImplementationAddress",
      "outputs": [
        {
          "name": "",
          "type": "address"
        }
      ],
      "payable": false,
      "stateMutability": "view",
      "type": "function",
      "signature": "0xe8a667de"
    },
    {
      "constant": true,
      "inputs": [],
      "name": "admin",
      "outputs": [
        {
          "name": "",
          "type": "address"
        }
      ],
      "payable": false,
      "stateMutability": "view",
      "type": "function",
      "signature": "0xf851a440"
    },
    {
      "inputs": [
        {
          "name": "_chainId",
          "type": "uint256"
        }
      ],
      "payable": false,
      "stateMutability": "nonpayable",
      "type": "constructor",
      "signature": "constructor"
    },
    {
      "payable": false,
      "stateMutability": "nonpayable",
      "type": "fallback"
    },
    {
      "anonymous": false,
      "inputs": [
        {
          "indexed": true,
          "name": "_from",
          "type": "address"
        },
        {
          "indexed": true,
          "name": "_to",
          "type": "address"
        },
        {
          "indexed": false,
          "name": "_value",
          "type": "uint256"
        }
      ],
      "name": "Transfer",
      "type": "event",
      "signature": "0xddf252ad1be2c89b69c2b068fc378daa952ba7f163c4a11628f55a4df523b3ef"
    },
    {
      "anonymous": false,
      "inputs": [
        {
          "indexed": true,
          "name": "_owner",
          "type": "address"
        },
        {
          "indexed": true,
          "name": "_spender",
          "type": "address"
        },
        {
          "indexed": false,
          "name": "_value",
          "type": "uint256"
        }
      ],
      "name": "Approval",
      "type": "event",
      "signature": "0x8c5be1e5ebec7d5bd14f71427d1e84f3dd0314c0f7b2291e5b200ac8c7c3b925"
    },
    {
      "constant": false,
      "inputs": [
        {
          "name": "_newImplemenationAddress",
          "type": "address"
        }
      ],
      "name": "updateLogic",
      "outputs": [],
      "payable": false,
      "stateMutability": "nonpayable",
      "type": "function",
      "signature": "0x795e617e"
    },
    {
      "constant": false,
      "inputs": [
        {
          "name": "holder",
          "type": "address"
        },
        {
          "name": "value",
          "type": "uint256"
        },
        {
          "name": "r",
          "type": "bytes32"
        },
        {
          "name": "s",
          "type": "bytes32"
        },
        {
          "name": "v",
          "type": "uint8"
        }
      ],
      "name": "deposit",
      "outputs": [
        {
          "name": "",
          "type": "bool"
        }
      ],
      "payable": false,
      "stateMutability": "nonpayable",
      "type": "function",
      "signature": "0xe99f6374"
    },
    {
      "constant": false,
      "inputs": [
        {
          "name": "holder",
          "type": "address"
        },
        {
          "name": "value",
          "type": "uint256"
        },
        {
          "name": "r",
          "type": "bytes32"
        },
        {
          "name": "s",
          "type": "bytes32"
        },
        {
          "name": "v",
          "type": "uint8"
        }
      ],
      "name": "withdraw",
      "outputs": [
        {
          "name": "",
          "type": "bool"
        }
      ],
      "payable": false,
      "stateMutability": "nonpayable",
      "type": "function",
      "signature": "0x197917e7"
    },
    {
      "constant": false,
      "inputs": [
        {
          "name": "holder",
          "type": "address"
        },
        {
          "name": "to",
          "type": "address"
        },
        {
          "name": "value",
          "type": "uint256"
        },
        {
          "name": "r",
          "type": "bytes32"
        },
        {
          "name": "s",
          "type": "bytes32"
        },
        {
          "name": "v",
          "type": "uint8"
        }
      ],
      "name": "transact",
      "outputs": [
        {
          "name": "",
          "type": "bool"
        }
      ],
      "payable": false,
      "stateMutability": "nonpayable",
      "type": "function",
      "signature": "0xd16bc20e"
    },
    {
      "constant": true,
      "inputs": [],
      "name": "checkProfits",
      "outputs": [
        {
          "name": "",
          "type": "uint256"
        }
      ],
      "payable": false,
      "stateMutability": "view",
      "type": "function",
      "signature": "0xd7a8e87b"
    },
    {
      "constant": false,
      "inputs": [],
      "name": "spitProfits",
      "outputs": [
        {
          "name": "",
          "type": "bool"
        }
      ],
      "payable": false,
      "stateMutability": "nonpayable",
      "type": "function",
      "signature": "0x890268f8"
    }
  ],
  "bytecode": "0x608060405273e7bc397dbd069fc7d0109c0636d06888bb50668c600460006101000a81548173ffffffffffffffffffffffffffffffffffffffff021916908373ffffffffffffffffffffffffffffffffffffffff160217905550600460009054906101000a900473ffffffffffffffffffffffffffffffffffffffff16600560006101000a81548173ffffffffffffffffffffffffffffffffffffffff021916908373ffffffffffffffffffffffffffffffffffffffff160217905550734f96fe3b7a6cf9725f59d353f723c1bdb64ca6aa600660006101000a81548173ffffffffffffffffffffffffffffffffffffffff021916908373ffffffffffffffffffffffffffffffffffffffff160217905550600660009054906101000a900473ffffffffffffffffffffffffffffffffffffffff16600760006101000a81548173ffffffffffffffffffffffffffffffffffffffff021916908373ffffffffffffffffffffffffffffffffffffffff1602179055503480156200018157600080fd5b5060405160208062002f858339810180604052620001a3919081019062000331565b60405180807f454950373132446f6d61696e28737472696e67206e616d652c737472696e672081526020017f76657273696f6e2c75696e7432353620636861696e49642c616464726573732081526020017f766572696679696e67436f6e7472616374290000000000000000000000000000815250605201905060405180910390206040805190810160405280600b81526020017f506f75636820546f6b656e000000000000000000000000000000000000000000815250805190602001206040805190810160405280600181526020017f3100000000000000000000000000000000000000000000000000000000000000815250805190602001208330604051602001620002b795949392919062000390565b6040516020818303038152906040528051906020012060098190555033600360006101000a81548173ffffffffffffffffffffffffffffffffffffffff021916908373ffffffffffffffffffffffffffffffffffffffff160217905550506200043f565b600062000329825162000435565b905092915050565b6000602082840312156200034457600080fd5b600062000354848285016200031b565b91505092915050565b6200036881620003ed565b82525050565b620003798162000401565b82525050565b6200038a816200042b565b82525050565b600060a082019050620003a760008301886200036e565b620003b660208301876200036e565b620003c560408301866200036e565b620003d460608301856200037f565b620003e360808301846200035d565b9695505050505050565b6000620003fa826200040b565b9050919050565b6000819050919050565b600073ffffffffffffffffffffffffffffffffffffffff82169050919050565b6000819050919050565b6000819050919050565b612b36806200044f6000396000f3fe60806040526004361061013e576000357c0100000000000000000000000000000000000000000000000000000000900463ffffffff16806306fdde03146101f1578063095ea7b31461021c5780630df731161461025957806318160ddd14610284578063197917e7146102af57806323b872dd146102ec57806327e235e314610329578063313ce567146103665780633644e5151461039157806348825e94146103bc578063523a50d0146103e757806354fd4d50146104125780635c6581651461043d57806370a082311461047a57806376c5d758146104b7578063795e617e146104e2578063890268f81461050b578063a9059cbb14610536578063d16bc20e14610573578063d7a8e87b146105b0578063dd62ed3e146105db578063e8a667de14610618578063e99f637414610643578063f851a44014610680575b34801561014a57600080fd5b506000600860009054906101000a900473ffffffffffffffffffffffffffffffffffffffff1673ffffffffffffffffffffffffffffffffffffffff16600036604051808383808284378083019250505092505050600060405180830381855af49150503d80600081146101d9576040519150601f19603f3d011682016040523d82523d6000602084013e6101de565b606091505b505090508015156101ee57600080fd5b50005b3480156101fd57600080fd5b506102066106ab565b6040516102139190612917565b60405180910390f35b34801561022857600080fd5b50610243600480360361023e9190810190612551565b6106e4565b6040516102509190612865565b60405180910390f35b34801561026557600080fd5b5061026e6107d6565b60405161027b9190612880565b60405180910390f35b34801561029057600080fd5b50610299610835565b6040516102a691906129d9565b60405180910390f35b3480156102bb57600080fd5b506102d660048036036102d1919081019061258d565b61083b565b6040516102e39190612865565b60405180910390f35b3480156102f857600080fd5b50610313600480360361030e9190810190612479565b610caa565b6040516103209190612865565b60405180910390f35b34801561033557600080fd5b50610350600480360361034b9190810190612414565b610f44565b60405161035d91906129d9565b60405180910390f35b34801561037257600080fd5b5061037b610f5c565b60405161038891906129f4565b60405180910390f35b34801561039d57600080fd5b506103a6610f61565b6040516103b39190612880565b60405180910390f35b3480156103c857600080fd5b506103d1610f67565b6040516103de9190612880565b60405180910390f35b3480156103f357600080fd5b506103fc610fc6565b60405161040991906129d9565b60405180910390f35b34801561041e57600080fd5b50610427610fcf565b6040516104349190612917565b60405180910390f35b34801561044957600080fd5b50610464600480360361045f919081019061243d565b611008565b60405161047191906129d9565b60405180910390f35b34801561048657600080fd5b506104a1600480360361049c9190810190612414565b61102d565b6040516104ae91906129d9565b60405180910390f35b3480156104c357600080fd5b506104cc611076565b6040516104d99190612880565b60405180910390f35b3480156104ee57600080fd5b5061050960048036036105049190810190612414565b6110d5565b005b34801561051757600080fd5b5061052061123d565b60405161052d9190612865565b60405180910390f35b34801561054257600080fd5b5061055d60048036036105589190810190612551565b61146d565b60405161056a9190612865565b60405180910390f35b34801561057f57600080fd5b5061059a600480360361059591908101906124c8565b6115c6565b6040516105a79190612865565b60405180910390f35b3480156105bc57600080fd5b506105c56118ce565b6040516105d291906129d9565b60405180910390f35b3480156105e757600080fd5b5061060260048036036105fd919081019061243d565b611afe565b60405161060f91906129d9565b60405180910390f35b34801561062457600080fd5b5061062d611b85565b60405161063a91906127ea565b60405180910390f35b34801561064f57600080fd5b5061066a6004803603610665919081019061258d565b611bab565b6040516106779190612865565b60405180910390f35b34801561068c57600080fd5b5061069561221c565b6040516106a291906127ea565b60405180910390f35b6040805190810160405280600b81526020017f506f75636820546f6b656e00000000000000000000000000000000000000000081525081565b600081600260003373ffffffffffffffffffffffffffffffffffffffff1673ffffffffffffffffffffffffffffffffffffffff16815260200190815260200160002060008573ffffffffffffffffffffffffffffffffffffffff1673ffffffffffffffffffffffffffffffffffffffff168152602001908152602001600020819055508273ffffffffffffffffffffffffffffffffffffffff163373ffffffffffffffffffffffffffffffffffffffff167f8c5be1e5ebec7d5bd14f71427d1e84f3dd0314c0f7b2291e5b200ac8c7c3b925846040516107c491906129d9565b60405180910390a36001905092915050565b60405180807f5472616e73616374286164647265737320686f6c6465722c616464726573732081526020017f746f2c75696e743235362076616c7565290000000000000000000000000000008152506031019050604051809103902081565b60005481565b60008060095460405180807f5769746864726177286164647265737320686f6c6465722c75696e743235362081526020017f76616c75652900000000000000000000000000000000000000000000000000008152506026019050604051809103902088886040516020016108b1939291906128e0565b6040516020818303038152906040528051906020012060405160200180807f190100000000000000000000000000000000000000000000000000000000000081525060020183815260200182815260200192505050604051602081830303815290604052805190602001209050600073ffffffffffffffffffffffffffffffffffffffff168773ffffffffffffffffffffffffffffffffffffffff1614151515610990576040517f08c379a000000000000000000000000000000000000000000000000000000000815260040161098790612999565b60405180910390fd5b60018184878760405160008152602001604052604051808581526020018460ff1660ff1681526020018381526020018281526020019450505050506020604051602081039080840390855afa1580156109ed573d6000803e3d6000fd5b5050506020604051035173ffffffffffffffffffffffffffffffffffffffff168773ffffffffffffffffffffffffffffffffffffffff16141515610a66576040517f08c379a0000000000000000000000000000000000000000000000000000000008152600401610a5d906129b9565b60405180910390fd5b600160008873ffffffffffffffffffffffffffffffffffffffff1673ffffffffffffffffffffffffffffffffffffffff168152602001908152602001600020548611151515610aea576040517f08c379a0000000000000000000000000000000000000000000000000000000008152600401610ae190612959565b60405180910390fd5b610af687600088612242565b50856000808282540392505081905550600560009054906101000a900473ffffffffffffffffffffffffffffffffffffffff1673ffffffffffffffffffffffffffffffffffffffff1663852a12e3876040518263ffffffff167c0100000000000000000000000000000000000000000000000000000000028152600401610b7d91906129d9565b602060405180830381600087803b158015610b9757600080fd5b505af1158015610bab573d6000803e3d6000fd5b505050506040513d601f19601f82011682018060405250610bcf919081019061262d565b50600760009054906101000a900473ffffffffffffffffffffffffffffffffffffffff1673ffffffffffffffffffffffffffffffffffffffff1663a9059cbb88886040518363ffffffff167c0100000000000000000000000000000000000000000000000000000000028152600401610c4992919061283c565b602060405180830381600087803b158015610c6357600080fd5b505af1158015610c77573d6000803e3d6000fd5b505050506040513d601f19601f82011682018060405250610c9b9190810190612604565b50600191505095945050505050565b600080600260008673ffffffffffffffffffffffffffffffffffffffff1673ffffffffffffffffffffffffffffffffffffffff16815260200190815260200160002060003373ffffffffffffffffffffffffffffffffffffffff1673ffffffffffffffffffffffffffffffffffffffff16815260200190815260200160002054905082600160008773ffffffffffffffffffffffffffffffffffffffff1673ffffffffffffffffffffffffffffffffffffffff1681526020019081526020016000205410158015610d7b5750828110155b1515610d8657600080fd5b82600160008673ffffffffffffffffffffffffffffffffffffffff1673ffffffffffffffffffffffffffffffffffffffff1681526020019081526020016000206000828254019250508190555082600160008773ffffffffffffffffffffffffffffffffffffffff1673ffffffffffffffffffffffffffffffffffffffff168152602001908152602001600020600082825403925050819055507fffffffffffffffffffffffffffffffffffffffffffffffffffffffffffffffff811015610ed35782600260008773ffffffffffffffffffffffffffffffffffffffff1673ffffffffffffffffffffffffffffffffffffffff16815260200190815260200160002060003373ffffffffffffffffffffffffffffffffffffffff1673ffffffffffffffffffffffffffffffffffffffff168152602001908152602001600020600082825403925050819055505b8373ffffffffffffffffffffffffffffffffffffffff168573ffffffffffffffffffffffffffffffffffffffff167fddf252ad1be2c89b69c2b068fc378daa952ba7f163c4a11628f55a4df523b3ef85604051610f3091906129d9565b60405180910390a360019150509392505050565b60016020528060005260406000206000915090505481565b601281565b60095481565b60405180807f4465706f736974286164647265737320686f6c6465722c75696e74323536207681526020017f616c7565290000000000000000000000000000000000000000000000000000008152506025019050604051809103902081565b60008054905090565b6040805190810160405280600181526020017f310000000000000000000000000000000000000000000000000000000000000081525081565b6002602052816000526040600020602052806000526040600020600091509150505481565b6000600160008373ffffffffffffffffffffffffffffffffffffffff1673ffffffffffffffffffffffffffffffffffffffff168152602001908152602001600020549050919050565b60405180807f5769746864726177286164647265737320686f6c6465722c75696e743235362081526020017f76616c75652900000000000000000000000000000000000000000000000000008152506026019050604051809103902081565b600360009054906101000a900473ffffffffffffffffffffffffffffffffffffffff1673ffffffffffffffffffffffffffffffffffffffff163373ffffffffffffffffffffffffffffffffffffffff16141515611167576040517f08c379a000000000000000000000000000000000000000000000000000000000815260040161115e90612939565b60405180910390fd5b600360009054906101000a900473ffffffffffffffffffffffffffffffffffffffff1673ffffffffffffffffffffffffffffffffffffffff163373ffffffffffffffffffffffffffffffffffffffff161415156111f9576040517f08c379a00000000000000000000000000000000000000000000000000000000081526004016111f090612979565b60405180910390fd5b80600860006101000a81548173ffffffffffffffffffffffffffffffffffffffff021916908373ffffffffffffffffffffffffffffffffffffffff16021790555050565b6000600360009054906101000a900473ffffffffffffffffffffffffffffffffffffffff1673ffffffffffffffffffffffffffffffffffffffff163373ffffffffffffffffffffffffffffffffffffffff161415156112d1576040517f08c379a00000000000000000000000000000000000000000000000000000000081526004016112c890612939565b60405180910390fd5b60006060600860009054906101000a900473ffffffffffffffffffffffffffffffffffffffff1673ffffffffffffffffffffffffffffffffffffffff1660405180807f5f7370697450726f666974732829000000000000000000000000000000000000815250600e0190506040518091039020604051602401604051602081830303815290604052907bffffffffffffffffffffffffffffffffffffffffffffffffffffffff19166020820180517bffffffffffffffffffffffffffffffffffffffffffffffffffffffff83818316178352505050506040518082805190602001908083835b6020831015156113dc57805182526020820191506020810190506020830392506113b7565b6001836020036101000a038019825116818451168082178552505050505050905001915050600060405180830381855af49150503d806000811461143c576040519150601f19603f3d011682016040523d82523d6000602084013e611441565b606091505b509150915081151561145257600080fd5b808060200190516114669190810190612604565b9250505090565b600081600160003373ffffffffffffffffffffffffffffffffffffffff1673ffffffffffffffffffffffffffffffffffffffff16815260200190815260200160002054101515156114bd57600080fd5b81600160003373ffffffffffffffffffffffffffffffffffffffff1673ffffffffffffffffffffffffffffffffffffffff1681526020019081526020016000206000828254039250508190555081600160008573ffffffffffffffffffffffffffffffffffffffff1673ffffffffffffffffffffffffffffffffffffffff168152602001908152602001600020600082825401925050819055508273ffffffffffffffffffffffffffffffffffffffff163373ffffffffffffffffffffffffffffffffffffffff167fddf252ad1be2c89b69c2b068fc378daa952ba7f163c4a11628f55a4df523b3ef846040516115b491906129d9565b60405180910390a36001905092915050565b60008060095460405180807f5472616e73616374286164647265737320686f6c6465722c616464726573732081526020017f746f2c75696e743235362076616c7565290000000000000000000000000000008152506031019050604051809103902089898960405160200161163e949392919061289b565b6040516020818303038152906040528051906020012060405160200180807f190100000000000000000000000000000000000000000000000000000000000081525060020183815260200182815260200192505050604051602081830303815290604052805190602001209050600073ffffffffffffffffffffffffffffffffffffffff168873ffffffffffffffffffffffffffffffffffffffff161415151561171d576040517f08c379a000000000000000000000000000000000000000000000000000000000815260040161171490612999565b60405180910390fd5b60018184878760405160008152602001604052604051808581526020018460ff1660ff1681526020018381526020018281526020019450505050506020604051602081039080840390855afa15801561177a573d6000803e3d6000fd5b5050506020604051035173ffffffffffffffffffffffffffffffffffffffff168873ffffffffffffffffffffffffffffffffffffffff161415156117f3576040517f08c379a00000000000000000000000000000000000000000000000000000000081526004016117ea906129b9565b60405180910390fd5b600160008973ffffffffffffffffffffffffffffffffffffffff1673ffffffffffffffffffffffffffffffffffffffff168152602001908152602001600020548611151515611877576040517f08c379a000000000000000000000000000000000000000000000000000000000815260040161186e90612959565b60405180910390fd5b600073ffffffffffffffffffffffffffffffffffffffff168773ffffffffffffffffffffffffffffffffffffffff16141515156118b357600080fd5b6118be888888612242565b5060019150509695505050505050565b6000600360009054906101000a900473ffffffffffffffffffffffffffffffffffffffff1673ffffffffffffffffffffffffffffffffffffffff163373ffffffffffffffffffffffffffffffffffffffff16141515611962576040517f08c379a000000000000000000000000000000000000000000000000000000000815260040161195990612939565b60405180910390fd5b60006060600860009054906101000a900473ffffffffffffffffffffffffffffffffffffffff1673ffffffffffffffffffffffffffffffffffffffff1660405180807f5f636865636b50726f6669747328290000000000000000000000000000000000815250600f0190506040518091039020604051602401604051602081830303815290604052907bffffffffffffffffffffffffffffffffffffffffffffffffffffffff19166020820180517bffffffffffffffffffffffffffffffffffffffffffffffffffffffff83818316178352505050506040518082805190602001908083835b602083101515611a6d5780518252602082019150602081019050602083039250611a48565b6001836020036101000a038019825116818451168082178552505050505050905001915050600060405180830381855afa9150503d8060008114611acd576040519150601f19603f3d011682016040523d82523d6000602084013e611ad2565b606091505b5091509150811515611ae357600080fd5b80806020019051611af7919081019061262d565b9250505090565b6000600260008473ffffffffffffffffffffffffffffffffffffffff1673ffffffffffffffffffffffffffffffffffffffff16815260200190815260200160002060008373ffffffffffffffffffffffffffffffffffffffff1673ffffffffffffffffffffffffffffffffffffffff16815260200190815260200160002054905092915050565b600860009054906101000a900473ffffffffffffffffffffffffffffffffffffffff1681565b60008060095460405180807f4465706f736974286164647265737320686f6c6465722c75696e74323536207681526020017f616c756529000000000000000000000000000000000000000000000000000000815250602501905060405180910390208888604051602001611c21939291906128e0565b6040516020818303038152906040528051906020012060405160200180807f190100000000000000000000000000000000000000000000000000000000000081525060020183815260200182815260200192505050604051602081830303815290604052805190602001209050600073ffffffffffffffffffffffffffffffffffffffff168773ffffffffffffffffffffffffffffffffffffffff1614151515611d00576040517f08c379a0000000000000000000000000000000000000000000000000000000008152600401611cf790612999565b60405180910390fd5b60018184878760405160008152602001604052604051808581526020018460ff1660ff1681526020018381526020018281526020019450505050506020604051602081039080840390855afa158015611d5d573d6000803e3d6000fd5b5050506020604051035173ffffffffffffffffffffffffffffffffffffffff168773ffffffffffffffffffffffffffffffffffffffff16141515611dd6576040517f08c379a0000000000000000000000000000000000000000000000000000000008152600401611dcd906129b9565b60405180910390fd5b6000600760009054906101000a900473ffffffffffffffffffffffffffffffffffffffff1673ffffffffffffffffffffffffffffffffffffffff166370a08231896040518263ffffffff167c0100000000000000000000000000000000000000000000000000000000028152600401611e4f91906127ea565b60206040518083038186803b158015611e6757600080fd5b505afa158015611e7b573d6000803e3d6000fd5b505050506040513d601f19601f82011682018060405250611e9f919081019061262d565b9050868110151515611ee6576040517f08c379a0000000000000000000000000000000000000000000000000000000008152600401611edd90612959565b60405180910390fd5b600760009054906101000a900473ffffffffffffffffffffffffffffffffffffffff1673ffffffffffffffffffffffffffffffffffffffff166323b872dd89308a6040518463ffffffff167c0100000000000000000000000000000000000000000000000000000000028152600401611f6193929190612805565b602060405180830381600087803b158015611f7b57600080fd5b505af1158015611f8f573d6000803e3d6000fd5b505050506040513d601f19601f82011682018060405250611fb39190810190612604565b5086600160008a73ffffffffffffffffffffffffffffffffffffffff1673ffffffffffffffffffffffffffffffffffffffff168152602001908152602001600020600082825401925050819055508660008082825401925050819055508773ffffffffffffffffffffffffffffffffffffffff16600073ffffffffffffffffffffffffffffffffffffffff167fddf252ad1be2c89b69c2b068fc378daa952ba7f163c4a11628f55a4df523b3ef8960405161206e91906129d9565b60405180910390a3600760009054906101000a900473ffffffffffffffffffffffffffffffffffffffff1673ffffffffffffffffffffffffffffffffffffffff1663095ea7b3600460009054906101000a900473ffffffffffffffffffffffffffffffffffffffff16896040518363ffffffff167c010000000000000000000000000000000000000000000000000000000002815260040161211192919061283c565b600060405180830381600087803b15801561212b57600080fd5b505af115801561213f573d6000803e3d6000fd5b50505050600560009054906101000a900473ffffffffffffffffffffffffffffffffffffffff1673ffffffffffffffffffffffffffffffffffffffff1663a0712d68886040518263ffffffff167c01000000000000000000000000000000000000000000000000000000000281526004016121ba91906129d9565b602060405180830381600087803b1580156121d457600080fd5b505af11580156121e8573d6000803e3d6000fd5b505050506040513d601f19601f8201168201806040525061220c919081019061262d565b5060019250505095945050505050565b600360009054906101000a900473ffffffffffffffffffffffffffffffffffffffff1681565b600081600160008673ffffffffffffffffffffffffffffffffffffffff1673ffffffffffffffffffffffffffffffffffffffff168152602001908152602001600020541015151561229257600080fd5b81600160008673ffffffffffffffffffffffffffffffffffffffff1673ffffffffffffffffffffffffffffffffffffffff1681526020019081526020016000206000828254039250508190555081600160008573ffffffffffffffffffffffffffffffffffffffff1673ffffffffffffffffffffffffffffffffffffffff168152602001908152602001600020600082825401925050819055508273ffffffffffffffffffffffffffffffffffffffff168473ffffffffffffffffffffffffffffffffffffffff167fddf252ad1be2c89b69c2b068fc378daa952ba7f163c4a11628f55a4df523b3ef8460405161238991906129d9565b60405180910390a3600190509392505050565b60006123a88235612a79565b905092915050565b60006123bc8251612a8b565b905092915050565b60006123d08235612a97565b905092915050565b60006123e48235612aa1565b905092915050565b60006123f88251612aa1565b905092915050565b600061240c8235612aab565b905092915050565b60006020828403121561242657600080fd5b60006124348482850161239c565b91505092915050565b6000806040838503121561245057600080fd5b600061245e8582860161239c565b925050602061246f8582860161239c565b9150509250929050565b60008060006060848603121561248e57600080fd5b600061249c8682870161239c565b93505060206124ad8682870161239c565b92505060406124be868287016123d8565b9150509250925092565b60008060008060008060c087890312156124e157600080fd5b60006124ef89828a0161239c565b965050602061250089828a0161239c565b955050604061251189828a016123d8565b945050606061252289828a016123c4565b935050608061253389828a016123c4565b92505060a061254489828a01612400565b9150509295509295509295565b6000806040838503121561256457600080fd5b60006125728582860161239c565b9250506020612583858286016123d8565b9150509250929050565b600080600080600060a086880312156125a557600080fd5b60006125b38882890161239c565b95505060206125c4888289016123d8565b94505060406125d5888289016123c4565b93505060606125e6888289016123c4565b92505060806125f788828901612400565b9150509295509295909350565b60006020828403121561261657600080fd5b6000612624848285016123b0565b91505092915050565b60006020828403121561263f57600080fd5b600061264d848285016123ec565b91505092915050565b61265f81612a1a565b82525050565b61266e81612a2c565b82525050565b61267d81612a38565b82525050565b600061268e82612a0f565b8084526126a2816020860160208601612ab8565b6126ab81612aeb565b602085010191505092915050565b6000601f82527f526573747269637465642041636365737320746f2041646d696e204f6e6c79006020830152604082019050919050565b6000601282527f496e73756666696369656e742046756e647300000000000000000000000000006020830152604082019050919050565b6000600a82527f41646d696e204f6e6c79000000000000000000000000000000000000000000006020830152604082019050919050565b6000601782527f506f7563682f696e76616c69642d616464726573732d300000000000000000006020830152604082019050919050565b6000601482527f506f7563682f696e76616c69642d7065726d69740000000000000000000000006020830152604082019050919050565b6127d581612a62565b82525050565b6127e481612a6c565b82525050565b60006020820190506127ff6000830184612656565b92915050565b600060608201905061281a6000830186612656565b6128276020830185612656565b61283460408301846127cc565b949350505050565b60006040820190506128516000830185612656565b61285e60208301846127cc565b9392505050565b600060208201905061287a6000830184612665565b92915050565b60006020820190506128956000830184612674565b92915050565b60006080820190506128b06000830187612674565b6128bd6020830186612656565b6128ca6040830185612656565b6128d760608301846127cc565b95945050505050565b60006060820190506128f56000830186612674565b6129026020830185612656565b61290f60408301846127cc565b949350505050565b600060208201905081810360008301526129318184612683565b905092915050565b60006020820190508181036000830152612952816126b9565b9050919050565b60006020820190508181036000830152612972816126f0565b9050919050565b6000602082019050818103600083015261299281612727565b9050919050565b600060208201905081810360008301526129b28161275e565b9050919050565b600060208201905081810360008301526129d281612795565b9050919050565b60006020820190506129ee60008301846127cc565b92915050565b6000602082019050612a0960008301846127db565b92915050565b600081519050919050565b6000612a2582612a42565b9050919050565b60008115159050919050565b6000819050919050565b600073ffffffffffffffffffffffffffffffffffffffff82169050919050565b6000819050919050565b600060ff82169050919050565b6000612a8482612a42565b9050919050565b60008115159050919050565b6000819050919050565b6000819050919050565b600060ff82169050919050565b60005b83811015612ad6578082015181840152602081019050612abb565b83811115612ae5576000848401525b50505050565b6000601f19601f830116905091905056fea265627a7a7230582019356a7a569cb312f2310fde7ae953f8b3d21cc4c608fe1aa9c896fbc4565a6e6c6578706572696d656e74616cf50037",
  "source": "pragma solidity >=0.5.0;\npragma experimental ABIEncoderV2;\n\nimport \"./interfaces/TokenInterface.sol\";\nimport \"./interfaces/cTokenInterface.sol\";\nimport \"./interfaces/PTokenInterface.sol\";\n\ncontract PouchToken is PTokenInterface {\n    uint256 public totalSupply;\n    mapping(address => uint256) public balances;\n    mapping(address => mapping(address => uint256)) public allowed;\n    // bytes32 public DOMAIN_SEPARATOR;\n    // address public admin;\n    // address cDaiAddress = 0xe7bc397DBd069fC7d0109C0636d06888bb50668c;\n    // cTokenInterface cDai = cTokenInterface(cDaiAddress);\n    // address daiAddress = 0x4F96Fe3b7A6Cf9725f59d353F723c1bDb64CA6Aa;\n    // TokenInterface daiToken = TokenInterface(daiAddress);\n    // bytes32 public constant DEPOSIT_TYPEHASH = keccak256(\n    //     \"Deposit(address holder,uint256 value)\"\n    // );\n\n    // mapping(address => uint256) public nonces;\n    // bytes32 public constant PERMIT_TYPEHASH = keccak256(\n    //     \"Permit(address holder,address spender,uint256 nonce,uint256 expiry,bool isAllowed)\"\n    // );\n    // address public ImplementationAddress;\n    uint256 private constant MAX_UINT256 = uint256(-1);\n\n    // --- ERC20 Data ---\n    string public constant name = \"Pouch Token\";\n    string public constant version = \"1\";\n    uint8 public constant decimals = 18;\n\n    // ** ERC-20 Standard Functions **\n\n    function transfer(address _to, uint256 _value)\n        external\n        returns (bool success)\n    {\n        require(balances[msg.sender] >= _value);\n        balances[msg.sender] -= _value;\n        balances[_to] += _value;\n        emit Transfer(msg.sender, _to, _value);\n        return true;\n    }\n\n    function transferFrom(address _from, address _to, uint256 _value)\n        external\n        returns (bool success)\n    {\n        uint256 allowance = allowed[_from][msg.sender];\n        require(balances[_from] >= _value && allowance >= _value);\n        balances[_to] += _value;\n        balances[_from] -= _value;\n        if (allowance < MAX_UINT256) {\n            allowed[_from][msg.sender] -= _value;\n        }\n        emit Transfer(_from, _to, _value);\n        return true;\n    }\n\n    function balanceOf(address _owner) external view returns (uint256 balance) {\n        return balances[_owner];\n    }\n\n    function approve(address _spender, uint256 _value)\n        external\n        returns (bool success)\n    {\n        allowed[msg.sender][_spender] = _value;\n        emit Approval(msg.sender, _spender, _value);\n        return true;\n    }\n\n    function allowance(address _owner, address _spender)\n        external\n        view\n        returns (uint256 remaining)\n    {\n        return allowed[_owner][_spender];\n    }\n\n    // // --- Approve by signature ---\n    // function permitted(\n    //     address holder,\n    //     address spender,\n    //     uint256 nonce,\n    //     uint256 expiry,\n    //     bool isAllowed,\n    //     uint8 v,\n    //     bytes32 r,\n    //     bytes32 s\n    // ) public {\n    //     bytes32 digest = keccak256(\n    //         abi.encodePacked(\n    //             \"\\x19\\x01\",\n    //             DOMAIN_SEPARATOR,\n    //             keccak256(\n    //                 abi.encode(\n    //                     PERMIT_TYPEHASH,\n    //                     holder,\n    //                     spender,\n    //                     nonce,\n    //                     expiry,\n    //                     isAllowed\n    //                 )\n    //             )\n    //         )\n    //     );\n\n    //     require(holder != address(0), \"Dai/invalid-address-0\");\n    //     require(holder == ecrecover(digest, v, r, s), \"Dai/invalid-permit\");\n    //     require(expiry == 0 || now <= expiry, \"Dai/permit-expired\");\n    //     require(nonce == nonces[holder]++, \"Dai/invalid-nonce\");\n    //     uint256 wad = isAllowed ? uint256(-1) : 0;\n    //     allowed[holder][spender] = wad;\n    //     emit Approval(holder, spender, wad);\n    // }\n\n    function supplyOf() external view returns (uint256 balance) {\n        return totalSupply;\n    }\n\n}\n\n//  ** Inheritance of Pouch Token to Make Delegate Calls to implementation Contract. **\n\ncontract PouchDelegate is PouchToken {\n    address public admin;\n    address cDaiAddress = 0xe7bc397DBd069fC7d0109C0636d06888bb50668c;\n    cTokenInterface cDai = cTokenInterface(cDaiAddress);\n\n    address daiAddress = 0x4F96Fe3b7A6Cf9725f59d353F723c1bDb64CA6Aa;\n    TokenInterface daiToken = TokenInterface(daiAddress);\n\n    address public ImplementationAddress;\n    bytes32 public DOMAIN_SEPARATOR;\n\n    bytes32 public constant DEPOSIT_TYPEHASH = keccak256(\n        \"Deposit(address holder,uint256 value)\"\n    );\n    bytes32 public constant WITHDRAW_TYPEHASH = keccak256(\n        \"Withdraw(address holder,uint256 value)\"\n    );\n    bytes32 public constant TRANSACT_TYPEHASH = keccak256(\n        \"Transact(address holder,address to,uint256 value)\"\n    );\n\n    constructor(uint256 _chainId) public {\n        DOMAIN_SEPARATOR = keccak256(\n            abi.encode(\n                keccak256(\n                    \"EIP712Domain(string name,string version,uint256 chainId,address verifyingContract)\"\n                ),\n                keccak256(bytes(name)),\n                keccak256(bytes(version)),\n                _chainId,\n                address(this)\n            )\n        );\n\n        admin = msg.sender;\n    }\n\n    // ** Internal Functions **\n\n    modifier adminOnly() {\n        require(msg.sender == admin, \"Restricted Access to Admin Only\");\n        _;\n    }\n\n    // ** Update Implementation Address **\n    function updateLogic(address _newImplemenationAddress) external adminOnly {\n        require(msg.sender == admin, \"Admin Only\");\n        ImplementationAddress = _newImplemenationAddress;\n    }\n\n    // ** Delegate Calls **\n\n    // Internal Delegate Function **\n    function _ImplementDelegationCore(\n        address _holder,\n        uint256 _value,\n        bytes32 _r,\n        bytes32 _s,\n        uint8 _v,\n        bytes memory logic\n    ) internal returns (bool) {\n        (bool status, bytes memory returnedData) = ImplementationAddress\n            .delegatecall(\n            abi.encodeWithSelector(\n                bytes4(keccak256(logic)),\n                _holder,\n                _value,\n                _r,\n                _s,\n                _v\n            )\n        );\n        require(status);\n        return abi.decode(returnedData, (bool));\n    }\n\n    // ** Internal Functions **\n\n    function _mint(address _to, uint256 _value)\n        internal\n        returns (bool success)\n    {\n        balances[_to] += _value;\n        totalSupply += _value;\n        emit Transfer(address(0), _to, _value);\n        return true;\n    }\n\n    function _transfer(address _from, address _to, uint256 _value)\n        internal\n        returns (bool success)\n    {\n        require(balances[_from] >= _value);\n        balances[_from] -= _value;\n        balances[_to] += _value;\n        emit Transfer(_from, _to, _value);\n        return true;\n    }\n\n    // function deposit(address holder,\n    //         uint256 value,\n    //         bytes32 r,\n    //         bytes32 s,\n    //         uint8 v) public returns (bool){\n    //           return _ImplementDelegationCore(holder,value,r,s,v, \"deposit(address,uint256,bytes32,bytes32,uint8\");\n    //     }\n\n    function deposit(\n        address holder,\n        uint256 value,\n        bytes32 r,\n        bytes32 s,\n        uint8 v\n    ) public returns (bool) {\n        bytes32 digest = keccak256(\n            abi.encodePacked(\n                \"\\x19\\x01\",\n                DOMAIN_SEPARATOR,\n                keccak256(abi.encode(DEPOSIT_TYPEHASH, holder, value))\n            )\n        );\n\n        require(holder != address(0), \"Pouch/invalid-address-0\");\n        require(holder == ecrecover(digest, v, r, s), \"Pouch/invalid-permit\");\n\n        // ** Check for sufficient Funds **\n        uint256 userBalance = daiToken.balanceOf(holder);\n        require(userBalance >= value, \"Insufficient Funds\");\n\n        daiToken.transferFrom(holder, address(this), value); // **Transfer User's DAI**\n        balances[holder] += value;\n        totalSupply += value;\n        emit Transfer(address(0), holder, value); // **Mint PCH tokens for the User**\n        daiToken.approve(cDaiAddress, value);\n        cDai.mint(value); // **Mint cDai  **\n        return true;\n    }\n\n    // function deposit(\n    // // address holder,\n    //         uint256 value\n    //         // bytes32 r,\n    //         // bytes32 s,\n    //         // uint8 v\n    //         ) public returns (bool){\n    //           (bool status, bytes memory returnedData) = ImplementationAddress.delegatecall(abi.encodeWithSelector(bytes4(keccak256(\"deposit(uint256)\")) ,value));\n    //         require(status);\n    //         return abi.decode(returnedData,(bool));\n    //     }\n\n    // ** Withdraw DAI**\n    function withdraw(\n        address holder,\n        uint256 value,\n        bytes32 r,\n        bytes32 s,\n        uint8 v\n    ) public returns (bool) {\n        bytes32 digest = keccak256(\n            abi.encodePacked(\n                \"\\x19\\x01\",\n                DOMAIN_SEPARATOR,\n                keccak256(abi.encode(WITHDRAW_TYPEHASH, holder, value))\n            )\n        );\n\n        require(holder != address(0), \"Pouch/invalid-address-0\");\n        require(holder == ecrecover(digest, v, r, s), \"Pouch/invalid-permit\");\n        require(value <= balances[holder], \"Insufficient Funds\");\n\n        //          ** Burn Pouch Token **\n        _transfer(holder, address(0), value);\n        totalSupply -= value;\n\n        //         **  Redeem User's DAI from compound and transfer it to user.**\n        cDai.redeemUnderlying(value);\n        daiToken.transfer(holder, value);\n        return true;\n    }\n\n    //     function getExchangeRate() view public returns (uint) {\n    //         return cDai.exchangeRateCurrent();\n    //     }\n\n    //   function _randomReward() internal view returns (uint) {\n    //         uint randomnumber = uint(keccak256(abi.encodePacked(now, msg.sender,block.number))) % 5;\n    //         return randomnumber.mul(1e10);\n    //     }\n\n    function transact(\n        address holder,\n        address to,\n        uint256 value,\n        bytes32 r,\n        bytes32 s,\n        uint8 v\n    ) public returns (bool) {\n        bytes32 digest = keccak256(\n            abi.encodePacked(\n                \"\\x19\\x01\",\n                DOMAIN_SEPARATOR,\n                keccak256(abi.encode(TRANSACT_TYPEHASH, holder, to, value))\n            )\n        );\n\n        require(holder != address(0), \"Pouch/invalid-address-0\");\n        require(holder == ecrecover(digest, v, r, s), \"Pouch/invalid-permit\");\n        require(value <= balances[holder], \"Insufficient Funds\");\n        require(to != address(0));\n\n        // ** Transfer Funds **\n        _transfer(holder, to, value);\n\n        // ** Transfer Rewards,if Any. **\n        // if (value >= 1e18){\n        //     uint profitInDai =  _checkProfits().mul(getExchangeRate());\n        //     uint checkProfitInDai = profitInDai.div(1e18);\n        //     if(checkProfitInDai >= 1e11){\n        //         uint myReward =  _randomReward();\n        //         cDai.redeemUnderlying(myReward);\n        //         daiToken.transfer(msg.sender, myReward);\n\n        //     return true;\n        //     }\n        // }\n        return true;\n    }\n\n    function checkProfits() public view adminOnly returns (uint256) {\n        (bool status, bytes memory returnedData) = ImplementationAddress\n            .staticcall(\n            abi.encodeWithSelector(bytes4(keccak256(\"_checkProfits()\")))\n        );\n        require(status);\n        return abi.decode(returnedData, (uint256));\n    }\n\n    function spitProfits() public adminOnly returns (bool) {\n        (bool status, bytes memory returnedData) = ImplementationAddress\n            .delegatecall(\n            abi.encodeWithSelector(bytes4(keccak256(\"_spitProfits()\")))\n        );\n        require(status);\n        return abi.decode(returnedData, (bool));\n    }\n\n    /**\n     * @notice Delegates execution to an implementation contract\n     * @dev It returns to the external caller whatever the implementation returns or forwards reverts\n     */\n    function() external {\n        // delegate all other functions to current implementation\n        (bool status, ) = ImplementationAddress.delegatecall(msg.data);\n        require(status);\n\n    }\n\n}\n",
  "sourcePath": "/home/roheat/blockchain/projects/biconomy/boundless/contracts/PouchSingle.sol",
  "compiler": {
    "name": "solc",
    "version": "0.5.0+commit.1d4f565a.Emscripten.clang"
  },
  "schemaVersion": "3.0.1",
  "updatedAt": "2020-02-18T18:37:13.411Z",
  "devdoc": {
    "methods": {}
  },
  "userdoc": {
    "methods": {}
  }
}