{
  "contractName": "PouchToken",
  "abi": [
    {
      "constant": true,
      "inputs": [],
      "name": "name",
      "outputs": [
        {
          "name": "",
          "type": "string"
        }
      ],
      "payable": false,
      "stateMutability": "view",
      "type": "function"
    },
    {
      "constant": true,
      "inputs": [],
      "name": "totalSupply",
      "outputs": [
        {
          "name": "",
          "type": "uint256"
        }
      ],
      "payable": false,
      "stateMutability": "view",
      "type": "function"
    },
    {
      "constant": true,
      "inputs": [
        {
          "name": "",
          "type": "address"
        }
      ],
      "name": "balances",
      "outputs": [
        {
          "name": "",
          "type": "uint256"
        }
      ],
      "payable": false,
      "stateMutability": "view",
      "type": "function"
    },
    {
      "constant": true,
      "inputs": [],
      "name": "PERMIT_TYPEHASH",
      "outputs": [
        {
          "name": "",
          "type": "bytes32"
        }
      ],
      "payable": false,
      "stateMutability": "view",
      "type": "function"
    },
    {
      "constant": true,
      "inputs": [],
      "name": "decimals",
      "outputs": [
        {
          "name": "",
          "type": "uint8"
        }
      ],
      "payable": false,
      "stateMutability": "view",
      "type": "function"
    },
    {
      "constant": true,
      "inputs": [],
      "name": "DOMAIN_SEPARATOR",
      "outputs": [
        {
          "name": "",
          "type": "bytes32"
        }
      ],
      "payable": false,
      "stateMutability": "view",
      "type": "function"
    },
    {
      "constant": true,
      "inputs": [],
      "name": "DEPOSIT_TYPEHASH",
      "outputs": [
        {
          "name": "",
          "type": "bytes32"
        }
      ],
      "payable": false,
      "stateMutability": "view",
      "type": "function"
    },
    {
      "constant": true,
      "inputs": [],
      "name": "version",
      "outputs": [
        {
          "name": "",
          "type": "string"
        }
      ],
      "payable": false,
      "stateMutability": "view",
      "type": "function"
    },
    {
      "constant": true,
      "inputs": [
        {
          "name": "",
          "type": "address"
        },
        {
          "name": "",
          "type": "address"
        }
      ],
      "name": "allowed",
      "outputs": [
        {
          "name": "",
          "type": "uint256"
        }
      ],
      "payable": false,
      "stateMutability": "view",
      "type": "function"
    },
    {
      "constant": true,
      "inputs": [],
      "name": "WITHDRAW_TYPEHASH",
      "outputs": [
        {
          "name": "",
          "type": "bytes32"
        }
      ],
      "payable": false,
      "stateMutability": "view",
      "type": "function"
    },
    {
      "constant": true,
      "inputs": [
        {
          "name": "",
          "type": "address"
        }
      ],
      "name": "nonces",
      "outputs": [
        {
          "name": "",
          "type": "uint256"
        }
      ],
      "payable": false,
      "stateMutability": "view",
      "type": "function"
    },
    {
      "constant": true,
      "inputs": [],
      "name": "symbol",
      "outputs": [
        {
          "name": "",
          "type": "string"
        }
      ],
      "payable": false,
      "stateMutability": "view",
      "type": "function"
    },
    {
      "constant": true,
      "inputs": [],
      "name": "ImplementationAddress",
      "outputs": [
        {
          "name": "",
          "type": "address"
        }
      ],
      "payable": false,
      "stateMutability": "view",
      "type": "function"
    },
    {
      "constant": true,
      "inputs": [],
      "name": "admin",
      "outputs": [
        {
          "name": "",
          "type": "address"
        }
      ],
      "payable": false,
      "stateMutability": "view",
      "type": "function"
    },
    {
      "inputs": [
        {
          "name": "_chainId",
          "type": "uint256"
        }
      ],
      "payable": false,
      "stateMutability": "nonpayable",
      "type": "constructor"
    },
    {
      "anonymous": false,
      "inputs": [
        {
          "indexed": true,
          "name": "_from",
          "type": "address"
        },
        {
          "indexed": true,
          "name": "_to",
          "type": "address"
        },
        {
          "indexed": false,
          "name": "_value",
          "type": "uint256"
        }
      ],
      "name": "Transfer",
      "type": "event"
    },
    {
      "anonymous": false,
      "inputs": [
        {
          "indexed": true,
          "name": "_owner",
          "type": "address"
        },
        {
          "indexed": true,
          "name": "_spender",
          "type": "address"
        },
        {
          "indexed": false,
          "name": "_value",
          "type": "uint256"
        }
      ],
      "name": "Approval",
      "type": "event"
    },
    {
      "constant": false,
      "inputs": [
        {
          "name": "_to",
          "type": "address"
        },
        {
          "name": "_value",
          "type": "uint256"
        }
      ],
      "name": "transfer",
      "outputs": [
        {
          "name": "success",
          "type": "bool"
        }
      ],
      "payable": false,
      "stateMutability": "nonpayable",
      "type": "function"
    },
    {
      "constant": false,
      "inputs": [
        {
          "name": "_from",
          "type": "address"
        },
        {
          "name": "_to",
          "type": "address"
        },
        {
          "name": "_value",
          "type": "uint256"
        }
      ],
      "name": "transferFrom",
      "outputs": [
        {
          "name": "success",
          "type": "bool"
        }
      ],
      "payable": false,
      "stateMutability": "nonpayable",
      "type": "function"
    },
    {
      "constant": true,
      "inputs": [
        {
          "name": "_owner",
          "type": "address"
        }
      ],
      "name": "balanceOf",
      "outputs": [
        {
          "name": "balance",
          "type": "uint256"
        }
      ],
      "payable": false,
      "stateMutability": "view",
      "type": "function"
    },
    {
      "constant": false,
      "inputs": [
        {
          "name": "_spender",
          "type": "address"
        },
        {
          "name": "_value",
          "type": "uint256"
        }
      ],
      "name": "approve",
      "outputs": [
        {
          "name": "success",
          "type": "bool"
        }
      ],
      "payable": false,
      "stateMutability": "nonpayable",
      "type": "function"
    },
    {
      "constant": true,
      "inputs": [
        {
          "name": "_owner",
          "type": "address"
        },
        {
          "name": "_spender",
          "type": "address"
        }
      ],
      "name": "allowance",
      "outputs": [
        {
          "name": "remaining",
          "type": "uint256"
        }
      ],
      "payable": false,
      "stateMutability": "view",
      "type": "function"
    },
    {
      "constant": false,
      "inputs": [
        {
          "name": "holder",
          "type": "address"
        },
        {
          "name": "spender",
          "type": "address"
        },
        {
          "name": "nonce",
          "type": "uint256"
        },
        {
          "name": "expiry",
          "type": "uint256"
        },
        {
          "name": "isAllowed",
          "type": "bool"
        },
        {
          "name": "v",
          "type": "uint8"
        },
        {
          "name": "r",
          "type": "bytes32"
        },
        {
          "name": "s",
          "type": "bytes32"
        }
      ],
      "name": "permitted",
      "outputs": [],
      "payable": false,
      "stateMutability": "nonpayable",
      "type": "function"
    },
    {
      "constant": false,
      "inputs": [
        {
          "name": "_newImplemenationAddress",
          "type": "address"
        }
      ],
      "name": "updateLogic",
      "outputs": [],
      "payable": false,
      "stateMutability": "nonpayable",
      "type": "function"
    },
    {
      "constant": false,
      "inputs": [
        {
          "name": "holder",
          "type": "address"
        },
        {
          "name": "value",
          "type": "uint256"
        },
        {
          "name": "r",
          "type": "bytes32"
        },
        {
          "name": "s",
          "type": "bytes32"
        },
        {
          "name": "v",
          "type": "uint8"
        }
      ],
      "name": "deposit",
      "outputs": [
        {
          "name": "",
          "type": "bool"
        }
      ],
      "payable": false,
      "stateMutability": "nonpayable",
      "type": "function"
    },
    {
      "constant": false,
      "inputs": [
        {
          "name": "holder",
          "type": "address"
        },
        {
          "name": "value",
          "type": "uint256"
        },
        {
          "name": "r",
          "type": "bytes32"
        },
        {
          "name": "s",
          "type": "bytes32"
        },
        {
          "name": "v",
          "type": "uint8"
        }
      ],
      "name": "withdraw",
      "outputs": [
        {
          "name": "",
          "type": "bool"
        }
      ],
      "payable": false,
      "stateMutability": "nonpayable",
      "type": "function"
    },
    {
      "constant": false,
      "inputs": [
        {
          "name": "holder",
          "type": "address"
        },
        {
          "name": "to",
          "type": "address"
        },
        {
          "name": "value",
          "type": "uint256"
        },
        {
          "name": "r",
          "type": "bytes32"
        },
        {
          "name": "s",
          "type": "bytes32"
        },
        {
          "name": "v",
          "type": "uint8"
        }
      ],
      "name": "transact",
      "outputs": [
        {
          "name": "",
          "type": "bool"
        }
      ],
      "payable": false,
      "stateMutability": "nonpayable",
      "type": "function"
    },
    {
      "constant": false,
      "inputs": [],
      "name": "checkProfits",
      "outputs": [
        {
          "name": "",
          "type": "uint256"
        }
      ],
      "payable": false,
      "stateMutability": "nonpayable",
      "type": "function"
    },
    {
      "constant": false,
      "inputs": [],
      "name": "spitProfits",
      "outputs": [
        {
          "name": "",
          "type": "bool"
        }
      ],
      "payable": false,
      "stateMutability": "nonpayable",
      "type": "function"
    }
  ],
  "bytecode": "0x6080604052734f96fe3b7a6cf9725f59d353f723c1bdb64ca6aa600960006101000a81548173ffffffffffffffffffffffffffffffffffffffff021916908373ffffffffffffffffffffffffffffffffffffffff16021790555073e7bc397dbd069fc7d0109c0636d06888bb50668c600a60006101000a81548173ffffffffffffffffffffffffffffffffffffffff021916908373ffffffffffffffffffffffffffffffffffffffff16021790555073b5cea18db04008a4d68444a298dbdd2d0e442e3d600b60006101000a81548173ffffffffffffffffffffffffffffffffffffffff021916908373ffffffffffffffffffffffffffffffffffffffff160217905550600960009054906101000a900473ffffffffffffffffffffffffffffffffffffffff16600c60006101000a81548173ffffffffffffffffffffffffffffffffffffffff021916908373ffffffffffffffffffffffffffffffffffffffff160217905550600a60009054906101000a900473ffffffffffffffffffffffffffffffffffffffff16600d60006101000a81548173ffffffffffffffffffffffffffffffffffffffff021916908373ffffffffffffffffffffffffffffffffffffffff160217905550600b60009054906101000a900473ffffffffffffffffffffffffffffffffffffffff16600e60006101000a81548173ffffffffffffffffffffffffffffffffffffffff021916908373ffffffffffffffffffffffffffffffffffffffff1602179055503480156200023957600080fd5b5060405160208062002a7083398101806040526200025b9190810190620003e9565b60405180807f454950373132446f6d61696e28737472696e67206e616d652c737472696e672081526020017f76657273696f6e2c75696e7432353620636861696e49642c616464726573732081526020017f766572696679696e67436f6e7472616374290000000000000000000000000000815250605201905060405180910390206040805190810160405280600b81526020017f506f75636820546f6b656e000000000000000000000000000000000000000000815250805190602001206040805190810160405280600181526020017f31000000000000000000000000000000000000000000000000000000000000008152508051906020012083306040516020016200036f95949392919062000448565b6040516020818303038152906040528051906020012060078190555033600660006101000a81548173ffffffffffffffffffffffffffffffffffffffff021916908373ffffffffffffffffffffffffffffffffffffffff16021790555050620004f7565b6000620003e18251620004ed565b905092915050565b600060208284031215620003fc57600080fd5b60006200040c84828501620003d3565b91505092915050565b6200042081620004a5565b82525050565b6200043181620004b9565b82525050565b6200044281620004e3565b82525050565b600060a0820190506200045f600083018862000426565b6200046e602083018762000426565b6200047d604083018662000426565b6200048c606083018562000437565b6200049b608083018462000415565b9695505050505050565b6000620004b282620004c3565b9050919050565b6000819050919050565b600073ffffffffffffffffffffffffffffffffffffffff82169050919050565b6000819050919050565b6000819050919050565b61256980620005076000396000f3fe608060405260043610610154576000357c0100000000000000000000000000000000000000000000000000000000900463ffffffff16806306fdde0314610159578063095ea7b31461018457806318160ddd146101c1578063197917e7146101ec57806323b872dd1461022957806327e235e31461026657806330adf81f146102a3578063313ce567146102ce5780633644e515146102f957806348825e941461032457806354fd4d501461034f5780635c6581651461037a57806370a08231146103b757806376c5d758146103f4578063795e617e1461041f5780637ecebe0014610448578063890268f81461048557806395d89b41146104b057806397fb16cc146104db578063a9059cbb14610504578063d16bc20e14610541578063d7a8e87b1461057e578063dd62ed3e146105a9578063e8a667de146105e6578063e99f637414610611578063f851a4401461064e575b600080fd5b34801561016557600080fd5b5061016e610679565b60405161017b919061234a565b60405180910390f35b34801561019057600080fd5b506101ab60048036036101a69190810190611f4b565b6106b2565b6040516101b891906122b3565b60405180910390f35b3480156101cd57600080fd5b506101d66107a4565b6040516101e3919061240c565b60405180910390f35b3480156101f857600080fd5b50610213600480360361020e9190810190611f87565b6107aa565b60405161022091906122b3565b60405180910390f35b34801561023557600080fd5b50610250600480360361024b9190810190611dc1565b610986565b60405161025d91906122b3565b60405180910390f35b34801561027257600080fd5b5061028d60048036036102889190810190611d5c565b610c20565b60405161029a919061240c565b60405180910390f35b3480156102af57600080fd5b506102b8610c38565b6040516102c591906122ce565b60405180910390f35b3480156102da57600080fd5b506102e3610cbd565b6040516102f09190612427565b60405180910390f35b34801561030557600080fd5b5061030e610cc2565b60405161031b91906122ce565b60405180910390f35b34801561033057600080fd5b50610339610cc8565b60405161034691906122ce565b60405180910390f35b34801561035b57600080fd5b50610364610d27565b604051610371919061234a565b60405180910390f35b34801561038657600080fd5b506103a1600480360361039c9190810190611d85565b610d60565b6040516103ae919061240c565b60405180910390f35b3480156103c357600080fd5b506103de60048036036103d99190810190611d5c565b610d85565b6040516103eb919061240c565b60405180910390f35b34801561040057600080fd5b50610409610dce565b60405161041691906122ce565b60405180910390f35b34801561042b57600080fd5b5061044660048036036104419190810190611d5c565b610e2d565b005b34801561045457600080fd5b5061046f600480360361046a9190810190611d5c565b610f03565b60405161047c919061240c565b60405180910390f35b34801561049157600080fd5b5061049a610f1b565b6040516104a791906122b3565b60405180910390f35b3480156104bc57600080fd5b506104c56110b8565b6040516104d2919061234a565b60405180910390f35b3480156104e757600080fd5b5061050260048036036104fd9190810190611e99565b6110f1565b005b34801561051057600080fd5b5061052b60048036036105269190810190611f4b565b61154c565b60405161053891906122b3565b60405180910390f35b34801561054d57600080fd5b5061056860048036036105639190810190611e10565b6116a5565b60405161057591906122b3565b60405180910390f35b34801561058a57600080fd5b50610593611884565b6040516105a0919061240c565b60405180910390f35b3480156105b557600080fd5b506105d060048036036105cb9190810190611d85565b611a21565b6040516105dd919061240c565b60405180910390f35b3480156105f257600080fd5b506105fb611aa8565b60405161060891906121e4565b60405180910390f35b34801561061d57600080fd5b5061063860048036036106339190810190611f87565b611ace565b60405161064591906122b3565b60405180910390f35b34801561065a57600080fd5b50610663611caa565b60405161067091906121e4565b60405180910390f35b6040805190810160405280600b81526020017f506f75636820546f6b656e00000000000000000000000000000000000000000081525081565b600081600460003373ffffffffffffffffffffffffffffffffffffffff1673ffffffffffffffffffffffffffffffffffffffff16815260200190815260200160002060008573ffffffffffffffffffffffffffffffffffffffff1673ffffffffffffffffffffffffffffffffffffffff168152602001908152602001600020819055508273ffffffffffffffffffffffffffffffffffffffff163373ffffffffffffffffffffffffffffffffffffffff167f8c5be1e5ebec7d5bd14f71427d1e84f3dd0314c0f7b2291e5b200ac8c7c3b92584604051610792919061240c565b60405180910390a36001905092915050565b60025481565b6000806060600560009054906101000a900473ffffffffffffffffffffffffffffffffffffffff1673ffffffffffffffffffffffffffffffffffffffff1660405180807f5f776974686472617728616464726573732c75696e743235362c62797465733381526020017f322c627974657333322c75696e7438290000000000000000000000000000000081525060300190506040518091039020898989898960405160240161085d959493929190612260565b604051602081830303815290604052907bffffffffffffffffffffffffffffffffffffffffffffffffffffffff19166020820180517bffffffffffffffffffffffffffffffffffffffffffffffffffffffff83818316178352505050506040518082805190602001908083835b6020831015156108ef57805182526020820191506020810190506020830392506108ca565b6001836020036101000a038019825116818451168082178552505050505050905001915050600060405180830381855af49150503d806000811461094f576040519150601f19603f3d011682016040523d82523d6000602084013e610954565b606091505b509150915081151561096557600080fd5b808060200190516109799190810190611ffe565b9250505095945050505050565b600080600460008673ffffffffffffffffffffffffffffffffffffffff1673ffffffffffffffffffffffffffffffffffffffff16815260200190815260200160002060003373ffffffffffffffffffffffffffffffffffffffff1673ffffffffffffffffffffffffffffffffffffffff16815260200190815260200160002054905082600360008773ffffffffffffffffffffffffffffffffffffffff1673ffffffffffffffffffffffffffffffffffffffff1681526020019081526020016000205410158015610a575750828110155b1515610a6257600080fd5b82600360008673ffffffffffffffffffffffffffffffffffffffff1673ffffffffffffffffffffffffffffffffffffffff1681526020019081526020016000206000828254019250508190555082600360008773ffffffffffffffffffffffffffffffffffffffff1673ffffffffffffffffffffffffffffffffffffffff168152602001908152602001600020600082825403925050819055507fffffffffffffffffffffffffffffffffffffffffffffffffffffffffffffffff811015610baf5782600460008773ffffffffffffffffffffffffffffffffffffffff1673ffffffffffffffffffffffffffffffffffffffff16815260200190815260200160002060003373ffffffffffffffffffffffffffffffffffffffff1673ffffffffffffffffffffffffffffffffffffffff168152602001908152602001600020600082825403925050819055505b8373ffffffffffffffffffffffffffffffffffffffff168573ffffffffffffffffffffffffffffffffffffffff167fddf252ad1be2c89b69c2b068fc378daa952ba7f163c4a11628f55a4df523b3ef85604051610c0c919061240c565b60405180910390a360019150509392505050565b60036020528060005260406000206000915090505481565b60405180807f5065726d6974286164647265737320686f6c6465722c6164647265737320737081526020017f656e6465722c75696e74323536206e6f6e63652c75696e74323536206578706981526020017f72792c626f6f6c206973416c6c6f7765642900000000000000000000000000008152506052019050604051809103902081565b601281565b60075481565b60405180807f4465706f736974286164647265737320686f6c6465722c75696e74323536207681526020017f616c7565290000000000000000000000000000000000000000000000000000008152506025019050604051809103902081565b6040805190810160405280600181526020017f310000000000000000000000000000000000000000000000000000000000000081525081565b6004602052816000526040600020602052806000526040600020600091509150505481565b6000600360008373ffffffffffffffffffffffffffffffffffffffff1673ffffffffffffffffffffffffffffffffffffffff168152602001908152602001600020549050919050565b60405180807f5769746864726177286164647265737320686f6c6465722c75696e743235362081526020017f76616c75652900000000000000000000000000000000000000000000000000008152506026019050604051809103902081565b600660009054906101000a900473ffffffffffffffffffffffffffffffffffffffff1673ffffffffffffffffffffffffffffffffffffffff163373ffffffffffffffffffffffffffffffffffffffff16141515610ebf576040517f08c379a0000000000000000000000000000000000000000000000000000000008152600401610eb6906123ac565b60405180910390fd5b80600560006101000a81548173ffffffffffffffffffffffffffffffffffffffff021916908373ffffffffffffffffffffffffffffffffffffffff16021790555050565b60086020528060005260406000206000915090505481565b6000806060600560009054906101000a900473ffffffffffffffffffffffffffffffffffffffff1673ffffffffffffffffffffffffffffffffffffffff1660405180807f5f7370697450726f666974732829000000000000000000000000000000000000815250600e0190506040518091039020604051602401604051602081830303815290604052907bffffffffffffffffffffffffffffffffffffffffffffffffffffffff19166020820180517bffffffffffffffffffffffffffffffffffffffffffffffffffffffff83818316178352505050506040518082805190602001908083835b6020831015156110275780518252602082019150602081019050602083039250611002565b6001836020036101000a038019825116818451168082178552505050505050905001915050600060405180830381855af49150503d8060008114611087576040519150601f19603f3d011682016040523d82523d6000602084013e61108c565b606091505b509150915081151561109d57600080fd5b808060200190516110b19190810190611ffe565b9250505090565b6040805190810160405280600381526020017f504348000000000000000000000000000000000000000000000000000000000081525081565b600060075460405180807f5065726d6974286164647265737320686f6c6465722c6164647265737320737081526020017f656e6465722c75696e74323536206e6f6e63652c75696e74323536206578706981526020017f72792c626f6f6c206973416c6c6f776564290000000000000000000000000000815250605201905060405180910390208a8a8a8a8a604051602001611192969594939291906122e9565b6040516020818303038152906040528051906020012060405160200180807f190100000000000000000000000000000000000000000000000000000000000081525060020183815260200182815260200192505050604051602081830303815290604052805190602001209050600073ffffffffffffffffffffffffffffffffffffffff168973ffffffffffffffffffffffffffffffffffffffff1614151515611271576040517f08c379a0000000000000000000000000000000000000000000000000000000008152600401611268906123cc565b60405180910390fd5b60018185858560405160008152602001604052604051808581526020018460ff1660ff1681526020018381526020018281526020019450505050506020604051602081039080840390855afa1580156112ce573d6000803e3d6000fd5b5050506020604051035173ffffffffffffffffffffffffffffffffffffffff168973ffffffffffffffffffffffffffffffffffffffff16141515611347576040517f08c379a000000000000000000000000000000000000000000000000000000000815260040161133e906123ec565b60405180910390fd5b60008614806113565750854211155b1515611397576040517f08c379a000000000000000000000000000000000000000000000000000000000815260040161138e9061236c565b60405180910390fd5b600860008a73ffffffffffffffffffffffffffffffffffffffff1673ffffffffffffffffffffffffffffffffffffffff16815260200190815260200160002060008154809291906001019190505587141515611428576040517f08c379a000000000000000000000000000000000000000000000000000000000815260040161141f9061238c565b60405180910390fd5b600085611436576000611458565b7fffffffffffffffffffffffffffffffffffffffffffffffffffffffffffffffff5b905080600460008c73ffffffffffffffffffffffffffffffffffffffff1673ffffffffffffffffffffffffffffffffffffffff16815260200190815260200160002060008b73ffffffffffffffffffffffffffffffffffffffff1673ffffffffffffffffffffffffffffffffffffffff168152602001908152602001600020819055508873ffffffffffffffffffffffffffffffffffffffff168a73ffffffffffffffffffffffffffffffffffffffff167f8c5be1e5ebec7d5bd14f71427d1e84f3dd0314c0f7b2291e5b200ac8c7c3b92583604051611538919061240c565b60405180910390a350505050505050505050565b600081600360003373ffffffffffffffffffffffffffffffffffffffff1673ffffffffffffffffffffffffffffffffffffffff168152602001908152602001600020541015151561159c57600080fd5b81600360003373ffffffffffffffffffffffffffffffffffffffff1673ffffffffffffffffffffffffffffffffffffffff1681526020019081526020016000206000828254039250508190555081600360008573ffffffffffffffffffffffffffffffffffffffff1673ffffffffffffffffffffffffffffffffffffffff168152602001908152602001600020600082825401925050819055508273ffffffffffffffffffffffffffffffffffffffff163373ffffffffffffffffffffffffffffffffffffffff167fddf252ad1be2c89b69c2b068fc378daa952ba7f163c4a11628f55a4df523b3ef84604051611693919061240c565b60405180910390a36001905092915050565b6000806060600560009054906101000a900473ffffffffffffffffffffffffffffffffffffffff1673ffffffffffffffffffffffffffffffffffffffff1660405180807f5f7472616e7361637428616464726573732c616464726573732c75696e74323581526020017f362c627974657333322c627974657333322c75696e7438290000000000000000815250603801905060405180910390208a8a8a8a8a8a60405160240161175a969594939291906121ff565b604051602081830303815290604052907bffffffffffffffffffffffffffffffffffffffffffffffffffffffff19166020820180517bffffffffffffffffffffffffffffffffffffffffffffffffffffffff83818316178352505050506040518082805190602001908083835b6020831015156117ec57805182526020820191506020810190506020830392506117c7565b6001836020036101000a038019825116818451168082178552505050505050905001915050600060405180830381855af49150503d806000811461184c576040519150601f19603f3d011682016040523d82523d6000602084013e611851565b606091505b509150915081151561186257600080fd5b808060200190516118769190810190611ffe565b925050509695505050505050565b6000806060600560009054906101000a900473ffffffffffffffffffffffffffffffffffffffff1673ffffffffffffffffffffffffffffffffffffffff1660405180807f5f636865636b50726f6669747328290000000000000000000000000000000000815250600f0190506040518091039020604051602401604051602081830303815290604052907bffffffffffffffffffffffffffffffffffffffffffffffffffffffff19166020820180517bffffffffffffffffffffffffffffffffffffffffffffffffffffffff83818316178352505050506040518082805190602001908083835b602083101515611990578051825260208201915060208101905060208303925061196b565b6001836020036101000a038019825116818451168082178552505050505050905001915050600060405180830381855af49150503d80600081146119f0576040519150601f19603f3d011682016040523d82523d6000602084013e6119f5565b606091505b5091509150811515611a0657600080fd5b80806020019051611a1a9190810190612027565b9250505090565b6000600460008473ffffffffffffffffffffffffffffffffffffffff1673ffffffffffffffffffffffffffffffffffffffff16815260200190815260200160002060008373ffffffffffffffffffffffffffffffffffffffff1673ffffffffffffffffffffffffffffffffffffffff16815260200190815260200160002054905092915050565b600560009054906101000a900473ffffffffffffffffffffffffffffffffffffffff1681565b6000806060600560009054906101000a900473ffffffffffffffffffffffffffffffffffffffff1673ffffffffffffffffffffffffffffffffffffffff1660405180807f5f6465706f73697428616464726573732c75696e743235362c6279746573333281526020017f2c627974657333322c75696e7438290000000000000000000000000000000000815250602f01905060405180910390208989898989604051602401611b81959493929190612260565b604051602081830303815290604052907bffffffffffffffffffffffffffffffffffffffffffffffffffffffff19166020820180517bffffffffffffffffffffffffffffffffffffffffffffffffffffffff83818316178352505050506040518082805190602001908083835b602083101515611c135780518252602082019150602081019050602083039250611bee565b6001836020036101000a038019825116818451168082178552505050505050905001915050600060405180830381855af49150503d8060008114611c73576040519150601f19603f3d011682016040523d82523d6000602084013e611c78565b606091505b5091509150811515611c8957600080fd5b80806020019051611c9d9190810190611ffe565b9250505095945050505050565b600660009054906101000a900473ffffffffffffffffffffffffffffffffffffffff1681565b6000611cdc82356124ac565b905092915050565b6000611cf082356124be565b905092915050565b6000611d0482516124be565b905092915050565b6000611d1882356124ca565b905092915050565b6000611d2c82356124d4565b905092915050565b6000611d4082516124d4565b905092915050565b6000611d5482356124de565b905092915050565b600060208284031215611d6e57600080fd5b6000611d7c84828501611cd0565b91505092915050565b60008060408385031215611d9857600080fd5b6000611da685828601611cd0565b9250506020611db785828601611cd0565b9150509250929050565b600080600060608486031215611dd657600080fd5b6000611de486828701611cd0565b9350506020611df586828701611cd0565b9250506040611e0686828701611d20565b9150509250925092565b60008060008060008060c08789031215611e2957600080fd5b6000611e3789828a01611cd0565b9650506020611e4889828a01611cd0565b9550506040611e5989828a01611d20565b9450506060611e6a89828a01611d0c565b9350506080611e7b89828a01611d0c565b92505060a0611e8c89828a01611d48565b9150509295509295509295565b600080600080600080600080610100898b031215611eb657600080fd5b6000611ec48b828c01611cd0565b9850506020611ed58b828c01611cd0565b9750506040611ee68b828c01611d20565b9650506060611ef78b828c01611d20565b9550506080611f088b828c01611ce4565b94505060a0611f198b828c01611d48565b93505060c0611f2a8b828c01611d0c565b92505060e0611f3b8b828c01611d0c565b9150509295985092959890939650565b60008060408385031215611f5e57600080fd5b6000611f6c85828601611cd0565b9250506020611f7d85828601611d20565b9150509250929050565b600080600080600060a08688031215611f9f57600080fd5b6000611fad88828901611cd0565b9550506020611fbe88828901611d20565b9450506040611fcf88828901611d0c565b9350506060611fe088828901611d0c565b9250506080611ff188828901611d48565b9150509295509295909350565b60006020828403121561201057600080fd5b600061201e84828501611cf8565b91505092915050565b60006020828403121561203957600080fd5b600061204784828501611d34565b91505092915050565b6120598161244d565b82525050565b6120688161245f565b82525050565b6120778161246b565b82525050565b600061208882612442565b80845261209c8160208601602086016124eb565b6120a58161251e565b602085010191505092915050565b6000601282527f4461692f7065726d69742d6578706972656400000000000000000000000000006020830152604082019050919050565b6000601182527f4461692f696e76616c69642d6e6f6e63650000000000000000000000000000006020830152604082019050919050565b6000600a82527f41646d696e204f6e6c79000000000000000000000000000000000000000000006020830152604082019050919050565b6000601582527f4461692f696e76616c69642d616464726573732d3000000000000000000000006020830152604082019050919050565b6000601282527f4461692f696e76616c69642d7065726d697400000000000000000000000000006020830152604082019050919050565b6121cf81612495565b82525050565b6121de8161249f565b82525050565b60006020820190506121f96000830184612050565b92915050565b600060c0820190506122146000830189612050565b6122216020830188612050565b61222e60408301876121c6565b61223b606083018661206e565b612248608083018561206e565b61225560a08301846121d5565b979650505050505050565b600060a0820190506122756000830188612050565b61228260208301876121c6565b61228f604083018661206e565b61229c606083018561206e565b6122a960808301846121d5565b9695505050505050565b60006020820190506122c8600083018461205f565b92915050565b60006020820190506122e3600083018461206e565b92915050565b600060c0820190506122fe600083018961206e565b61230b6020830188612050565b6123186040830187612050565b61232560608301866121c6565b61233260808301856121c6565b61233f60a083018461205f565b979650505050505050565b60006020820190508181036000830152612364818461207d565b905092915050565b60006020820190508181036000830152612385816120b3565b9050919050565b600060208201905081810360008301526123a5816120ea565b9050919050565b600060208201905081810360008301526123c581612121565b9050919050565b600060208201905081810360008301526123e581612158565b9050919050565b600060208201905081810360008301526124058161218f565b9050919050565b600060208201905061242160008301846121c6565b92915050565b600060208201905061243c60008301846121d5565b92915050565b600081519050919050565b600061245882612475565b9050919050565b60008115159050919050565b6000819050919050565b600073ffffffffffffffffffffffffffffffffffffffff82169050919050565b6000819050919050565b600060ff82169050919050565b60006124b782612475565b9050919050565b60008115159050919050565b6000819050919050565b6000819050919050565b600060ff82169050919050565b60005b838110156125095780820151818401526020810190506124ee565b83811115612518576000848401525b50505050565b6000601f19601f830116905091905056fea265627a7a723058203f060ce904d4b6e5d29de65745d1c9523c5bc598bab9e1c64e35b7473e7571fd6c6578706572696d656e74616cf50037",
  "source": "pragma solidity >=0.5.0;\npragma experimental ABIEncoderV2;\n\nimport \"./interfaces/TokenInterface.sol\";\nimport \"./interfaces/cTokenInterface.sol\";\nimport \"./interfaces/PTokenInterface.sol\";\n\ncontract PouchToken is PTokenInterface {\n    uint256 public totalSupply;\n    mapping(address => uint256) public balances;\n    mapping(address => mapping(address => uint256)) public allowed;\n    address public ImplementationAddress;\n    address public admin;\n    bytes32 public DOMAIN_SEPARATOR;\n    bytes32 public constant PERMIT_TYPEHASH = keccak256(\n        \"Permit(address holder,address spender,uint256 nonce,uint256 expiry,bool isAllowed)\"\n    );\n    mapping(address => uint256) public nonces;\n    uint256 private constant MAX_UINT256 = uint256(-1);\n\n    bytes32 public constant DEPOSIT_TYPEHASH = keccak256(\n        \"Deposit(address holder,uint256 value)\"\n    );\n    bytes32 public constant WITHDRAW_TYPEHASH = keccak256(\n        \"Withdraw(address holder,uint256 value)\"\n    );\n\n    address daiAddress = 0x4F96Fe3b7A6Cf9725f59d353F723c1bDb64CA6Aa;\n    address cDaiAddress = 0xe7bc397DBd069fC7d0109C0636d06888bb50668c;\n    address pDaiAddress = 0xb5cea18Db04008a4D68444A298DBDD2D0E442E3D;\n\n    TokenInterface daiToken = TokenInterface(daiAddress);\n    cTokenInterface cDai = cTokenInterface(cDaiAddress);\n    PTokenInterface pDaiToken = PTokenInterface(pDaiAddress);\n\n    // --- ERC20 Data ---\n    string public constant name = \"Pouch Token\";\n    string public constant symbol = \"PCH\";\n    string public constant version = \"1\";\n    uint8 public constant decimals = 18;\n\n    constructor(uint256 _chainId) public {\n        DOMAIN_SEPARATOR = keccak256(\n            abi.encode(\n                keccak256(\n                    \"EIP712Domain(string name,string version,uint256 chainId,address verifyingContract)\"\n                ),\n                keccak256(bytes(name)),\n                keccak256(bytes(version)),\n                _chainId,\n                address(this)\n            )\n        );\n\n        admin = msg.sender;\n    }\n\n    function transfer(address _to, uint256 _value)\n        public\n        returns (bool success)\n    {\n        require(balances[msg.sender] >= _value);\n        balances[msg.sender] -= _value;\n        balances[_to] += _value;\n        emit Transfer(msg.sender, _to, _value);\n        return true;\n    }\n\n    function transferFrom(address _from, address _to, uint256 _value)\n        public\n        returns (bool success)\n    {\n        uint256 allowance = allowed[_from][msg.sender];\n        require(balances[_from] >= _value && allowance >= _value);\n        balances[_to] += _value;\n        balances[_from] -= _value;\n        if (allowance < MAX_UINT256) {\n            allowed[_from][msg.sender] -= _value;\n        }\n        emit Transfer(_from, _to, _value);\n        return true;\n    }\n\n    function balanceOf(address _owner) external view returns (uint256 balance) {\n        return balances[_owner];\n    }\n\n    function approve(address _spender, uint256 _value)\n        public\n        returns (bool success)\n    {\n        allowed[msg.sender][_spender] = _value;\n        emit Approval(msg.sender, _spender, _value);\n        return true;\n    }\n\n    function allowance(address _owner, address _spender)\n        public\n        view\n        returns (uint256 remaining)\n    {\n        return allowed[_owner][_spender];\n    }\n\n    // --- Approve by signature ---\n    function permitted(\n        address holder,\n        address spender,\n        uint256 nonce,\n        uint256 expiry,\n        bool isAllowed,\n        uint8 v,\n        bytes32 r,\n        bytes32 s\n    ) public {\n        bytes32 digest = keccak256(\n            abi.encodePacked(\n                \"\\x19\\x01\",\n                DOMAIN_SEPARATOR,\n                keccak256(\n                    abi.encode(\n                        PERMIT_TYPEHASH,\n                        holder,\n                        spender,\n                        nonce,\n                        expiry,\n                        isAllowed\n                    )\n                )\n            )\n        );\n\n        require(holder != address(0), \"Dai/invalid-address-0\");\n        require(holder == ecrecover(digest, v, r, s), \"Dai/invalid-permit\");\n        require(expiry == 0 || now <= expiry, \"Dai/permit-expired\");\n        require(nonce == nonces[holder]++, \"Dai/invalid-nonce\");\n        uint256 wad = isAllowed ? uint256(-1) : 0;\n        allowed[holder][spender] = wad;\n        emit Approval(holder, spender, wad);\n    }\n\n    // ** Proxy **\n\n    function updateLogic(address _newImplemenationAddress) external {\n        require(msg.sender == admin, \"Admin Only\");\n        ImplementationAddress = _newImplemenationAddress;\n    }\n\n    function deposit(\n        address holder,\n        uint256 value,\n        bytes32 r,\n        bytes32 s,\n        uint8 v\n    ) public returns (bool) {\n        (bool status, bytes memory returnedData) = ImplementationAddress\n            .delegatecall(\n            abi.encodeWithSelector(\n                bytes4(\n                    keccak256(\"_deposit(address,uint256,bytes32,bytes32,uint8)\")\n                ),\n                holder,\n                value,\n                r,\n                s,\n                v\n            )\n        );\n        require(status);\n        return abi.decode(returnedData, (bool));\n    }\n\n    function withdraw(\n        address holder,\n        uint256 value,\n        bytes32 r,\n        bytes32 s,\n        uint8 v\n    ) public returns (bool) {\n        (bool status, bytes memory returnedData) = ImplementationAddress\n            .delegatecall(\n            abi.encodeWithSelector(\n                bytes4(\n                    keccak256(\n                        \"_withdraw(address,uint256,bytes32,bytes32,uint8)\"\n                    )\n                ),\n                holder,\n                value,\n                r,\n                s,\n                v\n            )\n        );\n        require(status);\n        return abi.decode(returnedData, (bool));\n    }\n\n    function transact(\n        address holder,\n        address to,\n        uint256 value,\n        bytes32 r,\n        bytes32 s,\n        uint8 v\n    ) public returns (bool) {\n        (bool status, bytes memory returnedData) = ImplementationAddress\n            .delegatecall(\n            abi.encodeWithSelector(\n                bytes4(\n                    keccak256(\n                        \"_transact(address,address,uint256,bytes32,bytes32,uint8)\"\n                    )\n                ),\n                holder,\n                to,\n                value,\n                r,\n                s,\n                v\n            )\n        );\n        require(status);\n        return abi.decode(returnedData, (bool));\n    }\n\n    function checkProfits() public returns (uint256) {\n        (bool status, bytes memory returnedData) = ImplementationAddress\n            .delegatecall(\n            abi.encodeWithSelector(bytes4(keccak256(\"_checkProfits()\")))\n        );\n        require(status);\n        return abi.decode(returnedData, (uint256));\n    }\n\n    function spitProfits() public returns (bool) {\n        (bool status, bytes memory returnedData) = ImplementationAddress\n            .delegatecall(\n            abi.encodeWithSelector(bytes4(keccak256(\"_spitProfits()\")))\n        );\n        require(status);\n        return abi.decode(returnedData, (bool));\n    }\n\n}\n",
  "sourcePath": "/home/roheat/blockchain/projects/biconomy/boundless/contracts/PouchToken.sol",
  "compiler": {
    "name": "solc",
    "version": "0.5.0+commit.1d4f565a.Emscripten.clang"
  },
  "schemaVersion": "3.0.1",
  "updatedAt": "2020-02-15T19:19:42.302Z",
  "devdoc": {
    "methods": {}
  },
  "userdoc": {
    "methods": {}
  }
}