{
  "contractName": "Pouch",
  "abi": [
    {
      "constant": true,
      "inputs": [],
      "name": "DOMAIN_SEPARATOR",
      "outputs": [
        {
          "name": "",
          "type": "bytes32"
        }
      ],
      "payable": false,
      "stateMutability": "view",
      "type": "function",
      "signature": "0x3644e515"
    },
    {
      "constant": true,
      "inputs": [],
      "name": "DEPOSIT_TYPEHASH",
      "outputs": [
        {
          "name": "",
          "type": "bytes32"
        }
      ],
      "payable": false,
      "stateMutability": "view",
      "type": "function",
      "signature": "0x48825e94"
    },
    {
      "constant": true,
      "inputs": [],
      "name": "WITHDRAW_TYPEHASH",
      "outputs": [
        {
          "name": "",
          "type": "bytes32"
        }
      ],
      "payable": false,
      "stateMutability": "view",
      "type": "function",
      "signature": "0x76c5d758"
    },
    {
      "constant": true,
      "inputs": [],
      "name": "admin",
      "outputs": [
        {
          "name": "",
          "type": "address"
        }
      ],
      "payable": false,
      "stateMutability": "view",
      "type": "function",
      "signature": "0xf851a440"
    },
    {
      "inputs": [],
      "payable": false,
      "stateMutability": "nonpayable",
      "type": "constructor",
      "signature": "constructor"
    },
    {
      "constant": false,
      "inputs": [
        {
          "name": "holder",
          "type": "address"
        },
        {
          "name": "value",
          "type": "uint256"
        },
        {
          "name": "r",
          "type": "bytes32"
        },
        {
          "name": "s",
          "type": "bytes32"
        },
        {
          "name": "v",
          "type": "uint8"
        }
      ],
      "name": "deposit",
      "outputs": [],
      "payable": false,
      "stateMutability": "nonpayable",
      "type": "function",
      "signature": "0xe99f6374"
    },
    {
      "constant": false,
      "inputs": [
        {
          "name": "holder",
          "type": "address"
        },
        {
          "name": "value",
          "type": "uint256"
        },
        {
          "name": "r",
          "type": "bytes32"
        },
        {
          "name": "s",
          "type": "bytes32"
        },
        {
          "name": "v",
          "type": "uint8"
        }
      ],
      "name": "withdraw",
      "outputs": [],
      "payable": false,
      "stateMutability": "nonpayable",
      "type": "function",
      "signature": "0x197917e7"
    }
  ],
  "bytecode": "0x60806040527fffffffffffffffffffffffffffffffffffffffffffffffffffffffffffffffff600355734f96fe3b7a6cf9725f59d353f723c1bdb64ca6aa600460006101000a81548173ffffffffffffffffffffffffffffffffffffffff021916908373ffffffffffffffffffffffffffffffffffffffff16021790555073e7bc397dbd069fc7d0109c0636d06888bb50668c600560006101000a81548173ffffffffffffffffffffffffffffffffffffffff021916908373ffffffffffffffffffffffffffffffffffffffff16021790555073b5cea18db04008a4d68444a298dbdd2d0e442e3d600660006101000a81548173ffffffffffffffffffffffffffffffffffffffff021916908373ffffffffffffffffffffffffffffffffffffffff160217905550600460009054906101000a900473ffffffffffffffffffffffffffffffffffffffff16600760006101000a81548173ffffffffffffffffffffffffffffffffffffffff021916908373ffffffffffffffffffffffffffffffffffffffff160217905550600560009054906101000a900473ffffffffffffffffffffffffffffffffffffffff16600860006101000a81548173ffffffffffffffffffffffffffffffffffffffff021916908373ffffffffffffffffffffffffffffffffffffffff160217905550600660009054906101000a900473ffffffffffffffffffffffffffffffffffffffff16600960006101000a81548173ffffffffffffffffffffffffffffffffffffffff021916908373ffffffffffffffffffffffffffffffffffffffff1602179055503480156200025d57600080fd5b5060405180807f454950373132446f6d61696e28737472696e67206e616d652c737472696e672081526020017f76657273696f6e2c75696e7432353620636861696e49642c616464726573732081526020017f766572696679696e67436f6e74726163742900000000000000000000000000008152506052019050604051809103902060405180807f506f7563680000000000000000000000000000000000000000000000000000008152506005019050604051809103902060405180807f310000000000000000000000000000000000000000000000000000000000000081525060010190506040518091039020602a3060405160200162000365959493929190620003fb565b6040516020818303038152906040528051906020012060028190555033600160006101000a81548173ffffffffffffffffffffffffffffffffffffffff021916908373ffffffffffffffffffffffffffffffffffffffff160217905550620004b7565b620003d38162000458565b82525050565b620003e4816200046c565b82525050565b620003f581620004a3565b82525050565b600060a082019050620004126000830188620003d9565b620004216020830187620003d9565b620004306040830186620003d9565b6200043f6060830185620003ea565b6200044e6080830184620003c8565b9695505050505050565b6000620004658262000476565b9050919050565b6000819050919050565b600073ffffffffffffffffffffffffffffffffffffffff82169050919050565b600060ff82169050919050565b6000620004b08262000496565b9050919050565b61113380620004c76000396000f3fe608060405260043610610078576000357c0100000000000000000000000000000000000000000000000000000000900463ffffffff168063197917e71461007d5780633644e515146100a657806348825e94146100d157806376c5d758146100fc578063e99f637414610127578063f851a44014610150575b600080fd5b34801561008957600080fd5b506100a4600480360361009f9190810190610d68565b61017b565b005b3480156100b257600080fd5b506100bb610612565b6040516100c89190610fa7565b60405180910390f35b3480156100dd57600080fd5b506100e6610618565b6040516100f39190610fa7565b60405180910390f35b34801561010857600080fd5b50610111610677565b60405161011e9190610fa7565b60405180910390f35b34801561013357600080fd5b5061014e60048036036101499190810190610d68565b6106d6565b005b34801561015c57600080fd5b50610165610cca565b6040516101729190610f03565b60405180910390f35b600060025460405180807f5769746864726177286164647265737320686f6c6465722c75696e743235362081526020017f76616c75652900000000000000000000000000000000000000000000000000008152506026019050604051809103902087876040516020016101f093929190610fc2565b6040516020818303038152906040528051906020012060405160200180807f190100000000000000000000000000000000000000000000000000000000000081525060020183815260200182815260200192505050604051602081830303815290604052805190602001209050600073ffffffffffffffffffffffffffffffffffffffff168673ffffffffffffffffffffffffffffffffffffffff16141515156102cf576040517f08c379a00000000000000000000000000000000000000000000000000000000081526004016102c690611019565b60405180910390fd5b60018183868660405160008152602001604052604051808581526020018460ff1660ff1681526020018381526020018281526020019450505050506020604051602081039080840390855afa15801561032c573d6000803e3d6000fd5b5050506020604051035173ffffffffffffffffffffffffffffffffffffffff168673ffffffffffffffffffffffffffffffffffffffff161415156103a5576040517f08c379a000000000000000000000000000000000000000000000000000000000815260040161039c90611039565b60405180910390fd5b6000808773ffffffffffffffffffffffffffffffffffffffff1673ffffffffffffffffffffffffffffffffffffffff168152602001908152602001600020548511151515610428576040517f08c379a000000000000000000000000000000000000000000000000000000000815260040161041f90610ff9565b60405180910390fd5b846000808873ffffffffffffffffffffffffffffffffffffffff1673ffffffffffffffffffffffffffffffffffffffff16815260200190815260200160002060008282540392505081905550600860009054906101000a900473ffffffffffffffffffffffffffffffffffffffff1673ffffffffffffffffffffffffffffffffffffffff1663852a12e3866040518263ffffffff167c01000000000000000000000000000000000000000000000000000000000281526004016104eb9190611059565b602060405180830381600087803b15801561050557600080fd5b505af1158015610519573d6000803e3d6000fd5b505050506040513d601f19601f8201168201806040525061053d9190810190610e08565b50600760009054906101000a900473ffffffffffffffffffffffffffffffffffffffff1673ffffffffffffffffffffffffffffffffffffffff1663a9059cbb87876040518363ffffffff167c01000000000000000000000000000000000000000000000000000000000281526004016105b7929190610f7e565b602060405180830381600087803b1580156105d157600080fd5b505af11580156105e5573d6000803e3d6000fd5b505050506040513d601f19601f820116820180604052506106099190810190610ddf565b50505050505050565b60025481565b60405180807f4465706f736974286164647265737320686f6c6465722c75696e74323536207681526020017f616c7565290000000000000000000000000000000000000000000000000000008152506025019050604051809103902081565b60405180807f5769746864726177286164647265737320686f6c6465722c75696e743235362081526020017f76616c75652900000000000000000000000000000000000000000000000000008152506026019050604051809103902081565b600060025460405180807f4465706f736974286164647265737320686f6c6465722c75696e74323536207681526020017f616c75652900000000000000000000000000000000000000000000000000000081525060250190506040518091039020878760405160200161074b93929190610fc2565b6040516020818303038152906040528051906020012060405160200180807f190100000000000000000000000000000000000000000000000000000000000081525060020183815260200182815260200192505050604051602081830303815290604052805190602001209050600073ffffffffffffffffffffffffffffffffffffffff168673ffffffffffffffffffffffffffffffffffffffff161415151561082a576040517f08c379a000000000000000000000000000000000000000000000000000000000815260040161082190611019565b60405180910390fd5b60018183868660405160008152602001604052604051808581526020018460ff1660ff1681526020018381526020018281526020019450505050506020604051602081039080840390855afa158015610887573d6000803e3d6000fd5b5050506020604051035173ffffffffffffffffffffffffffffffffffffffff168673ffffffffffffffffffffffffffffffffffffffff16141515610900576040517f08c379a00000000000000000000000000000000000000000000000000000000081526004016108f790611039565b60405180910390fd5b600760009054906101000a900473ffffffffffffffffffffffffffffffffffffffff1673ffffffffffffffffffffffffffffffffffffffff166323b872dd8730886040518463ffffffff167c010000000000000000000000000000000000000000000000000000000002815260040161097b93929190610f47565b602060405180830381600087803b15801561099557600080fd5b505af11580156109a9573d6000803e3d6000fd5b505050506040513d601f19601f820116820180604052506109cd9190810190610ddf565b50846000808873ffffffffffffffffffffffffffffffffffffffff1673ffffffffffffffffffffffffffffffffffffffff168152602001908152602001600020600082825401925050819055506000600760009054906101000a900473ffffffffffffffffffffffffffffffffffffffff1673ffffffffffffffffffffffffffffffffffffffff1663dd62ed3e30600560009054906101000a900473ffffffffffffffffffffffffffffffffffffffff166040518363ffffffff167c0100000000000000000000000000000000000000000000000000000000028152600401610ab7929190610f1e565b60206040518083038186803b158015610acf57600080fd5b505afa158015610ae3573d6000803e3d6000fd5b505050506040513d601f19601f82011682018060405250610b079190810190610e08565b905085811015610bf75760006003548711610b2457600354610b26565b865b9050600760009054906101000a900473ffffffffffffffffffffffffffffffffffffffff1673ffffffffffffffffffffffffffffffffffffffff1663095ea7b3600560009054906101000a900473ffffffffffffffffffffffffffffffffffffffff16836040518363ffffffff167c0100000000000000000000000000000000000000000000000000000000028152600401610bc3929190610f7e565b600060405180830381600087803b158015610bdd57600080fd5b505af1158015610bf1573d6000803e3d6000fd5b50505050505b600860009054906101000a900473ffffffffffffffffffffffffffffffffffffffff1673ffffffffffffffffffffffffffffffffffffffff1663a0712d68876040518263ffffffff167c0100000000000000000000000000000000000000000000000000000000028152600401610c6e9190611059565b602060405180830381600087803b158015610c8857600080fd5b505af1158015610c9c573d6000803e3d6000fd5b505050506040513d601f19601f82011682018060405250610cc09190810190610e08565b5050505050505050565b600160009054906101000a900473ffffffffffffffffffffffffffffffffffffffff1681565b6000610cfc82356110ba565b905092915050565b6000610d1082516110cc565b905092915050565b6000610d2482356110d8565b905092915050565b6000610d3882356110e2565b905092915050565b6000610d4c82516110e2565b905092915050565b6000610d6082356110ec565b905092915050565b600080600080600060a08688031215610d8057600080fd5b6000610d8e88828901610cf0565b9550506020610d9f88828901610d2c565b9450506040610db088828901610d18565b9350506060610dc188828901610d18565b9250506080610dd288828901610d54565b9150509295509295909350565b600060208284031215610df157600080fd5b6000610dff84828501610d04565b91505092915050565b600060208284031215610e1a57600080fd5b6000610e2884828501610d40565b91505092915050565b610e3a81611074565b82525050565b610e4981611086565b82525050565b6000601282527f496e73756666696369656e742046756e647300000000000000000000000000006020830152604082019050919050565b6000601782527f506f7563682f696e76616c69642d616464726573732d300000000000000000006020830152604082019050919050565b6000601482527f506f7563682f696e76616c69642d7065726d69740000000000000000000000006020830152604082019050919050565b610efd816110b0565b82525050565b6000602082019050610f186000830184610e31565b92915050565b6000604082019050610f336000830185610e31565b610f406020830184610e31565b9392505050565b6000606082019050610f5c6000830186610e31565b610f696020830185610e31565b610f766040830184610ef4565b949350505050565b6000604082019050610f936000830185610e31565b610fa06020830184610ef4565b9392505050565b6000602082019050610fbc6000830184610e40565b92915050565b6000606082019050610fd76000830186610e40565b610fe46020830185610e31565b610ff16040830184610ef4565b949350505050565b6000602082019050818103600083015261101281610e4f565b9050919050565b6000602082019050818103600083015261103281610e86565b9050919050565b6000602082019050818103600083015261105281610ebd565b9050919050565b600060208201905061106e6000830184610ef4565b92915050565b600061107f82611090565b9050919050565b6000819050919050565b600073ffffffffffffffffffffffffffffffffffffffff82169050919050565b6000819050919050565b60006110c582611090565b9050919050565b60008115159050919050565b6000819050919050565b6000819050919050565b600060ff8216905091905056fea265627a7a723058205b776b1829aa1844f16fc7681f42d174e55e6106e5bab4d7ebcad154db86c9f96c6578706572696d656e74616cf50037",
  "source": "pragma solidity >=0.5.0;\npragma experimental ABIEncoderV2;\n\nimport \"./interfaces/TokenInterface.sol\";\nimport \"./interfaces/cTokenInterface.sol\";\nimport \"./interfaces/PTokenInterface.sol\";\n// import \"./interfaces/EIP20Interface.sol\";\n// import \"./EIP712MetaTransaction.sol\";\n\ncontract Pouch {\n    /*is EIP712MetaTransaction(\"Pouch\", \"1\")*/\n    // uint256 public totalDaiDeposits;\n    // mapping(address => bool) registeredUser;\n    mapping(address => uint256) balances;\n    address public admin;\n    bytes32 public DOMAIN_SEPARATOR;\n\n    bytes32 public constant DEPOSIT_TYPEHASH = keccak256(\n        \"Deposit(address holder,uint256 value)\"\n    );\n    bytes32 public constant WITHDRAW_TYPEHASH = keccak256(\n        \"Withdraw(address holder,uint256 value)\"\n    );\n\n    uint256 cDaiAllowedAmount = uint256(-1);\n    address daiAddress = 0x4F96Fe3b7A6Cf9725f59d353F723c1bDb64CA6Aa;\n    address cDaiAddress = 0xe7bc397DBd069fC7d0109C0636d06888bb50668c;\n    address pDaiAddress = 0xb5cea18Db04008a4D68444A298DBDD2D0E442E3D;\n\n    TokenInterface daiToken = TokenInterface(daiAddress);\n    cTokenInterface cDai = cTokenInterface(cDaiAddress);\n    PTokenInterface pDaiToken = PTokenInterface(pDaiAddress);\n\n    constructor() public {\n        DOMAIN_SEPARATOR = keccak256(\n            abi.encode(\n                keccak256(\n                    \"EIP712Domain(string name,string version,uint256 chainId,address verifyingContract)\"\n                ),\n                keccak256(\"Pouch\"),\n                keccak256(\"1\"),\n                42, // kovan chainId\n                address(this)\n            )\n        );\n        admin = msg.sender;\n        // daiToken.approve(cDaiAddress, cDaiAllowedAmount);\n    }\n\n    modifier adminOnly() {\n        require(msg.sender == admin, \"Not authorized\");\n        _;\n    }\n    // ** Deposit DAI **\n    function deposit(\n        address holder,\n        uint256 value,\n        bytes32 r,\n        bytes32 s,\n        uint8 v\n    ) public {\n        bytes32 digest = keccak256(\n            abi.encodePacked(\n                \"\\x19\\x01\",\n                DOMAIN_SEPARATOR,\n                keccak256(abi.encode(DEPOSIT_TYPEHASH, holder, value))\n            )\n        );\n\n        require(holder != address(0), \"Pouch/invalid-address-0\");\n        require(holder == ecrecover(digest, v, r, s), \"Pouch/invalid-permit\");\n        // Check if User's Dai Balance is more or equal to the value sent.\n        // uint256 userBalance = daiToken.balanceOf(holder);\n        // require(\n        //     userBalance >= value,\n        //     \"User does not have the required DAI balance.\"\n        // );\n\n        daiToken.transferFrom(holder, address(this), value);\n        balances[holder] += value;\n\n        // emit pDaiToken.Transfer(\n        //     0x0000000000000000000000000000000000000000,\n        //     holder,\n        //     value\n        // );\n\n        // Check for Dai allowance given from this contract to Cdai Contract\n        uint256 cDaiAllowance = daiToken.allowance(address(this), cDaiAddress);\n        if (cDaiAllowance < value) {\n            uint256 amount = value > cDaiAllowedAmount\n                ? value\n                : cDaiAllowedAmount;\n            daiToken.approve(cDaiAddress, amount);\n        }\n\n        cDai.mint(value);\n    }\n\n    // ** Withdraw DAI**\n    function withdraw(\n        address holder,\n        uint256 value,\n        bytes32 r,\n        bytes32 s,\n        uint8 v\n    ) public {\n        bytes32 digest = keccak256(\n            abi.encodePacked(\n                \"\\x19\\x01\",\n                DOMAIN_SEPARATOR,\n                keccak256(abi.encode(WITHDRAW_TYPEHASH, holder, value))\n            )\n        );\n\n        require(holder != address(0), \"Pouch/invalid-address-0\");\n        require(holder == ecrecover(digest, v, r, s), \"Pouch/invalid-permit\");\n        require(value <= balances[holder], \"Insufficient Funds\");\n        // Check if User's PCH balance is more or equal to the value sent.\n        // uint256 pouchBalance = pDaiToken.balanceOf(holder);\n        // require(\n        //     pouchBalance >= value,\n        //     \"User does not have the required PCH balance.\"\n        // );\n\n        // Burn PCH\n        // pDaiToken.transfer(0x0000000000000000000000000000000000000000, value);\n        // totalSupply -= value;\n\n        // Redeem User's DAI from compound and transfer it to user.\n        balances[holder] -= value;\n        cDai.redeemUnderlying(value);\n        daiToken.transfer(holder, value);\n    }\n\n    // function spitProfits() external adminOnly {\n    //     uint256 adjustedTotalSupply = totalSupply.mul(100000000);\n    //     uint256 ourContractBalance = cDai.balanceOf(address(this));\n    //     uint256 cDaiExchangeRate = cDai.exchangeRateCurrent();\n    //     uint256 cDaiExchangeRateDivided = cDaiExchangeRate.div(10000000000);\n\n    //     uint256 currentPrice = adjustedTotalSupply.div(cDaiExchangeRateDivided);\n    //     uint256 profit = ourContractBalance.sub(currentPrice);\n    //     cDai.transfer(msg.sender, profit);\n\n    // }\n\n    // function myCurrentBalance() external view returns (uint256) {\n    //     return cDai.balanceOf(address(this));\n    // }\n\n    // function getExchangeRate() external view returns (uint256) {\n    //     return cDai.exchangeRateCurrent();\n    // }\n\n    // function checkProfits() external view returns (uint256) {\n    //     uint256 adjustedTotalSupply = totalSupply.mul(100000000);\n    //     uint256 ourContractBalance = cDai.balanceOf(address(this));\n    //     uint256 cDaiExchangeRate = cDai.exchangeRateCurrent();\n    //     uint256 cDaiExchangeRateDivided = cDaiExchangeRate.div(10000000000);\n\n    //     uint256 currentPrice = adjustedTotalSupply.div(cDaiExchangeRateDivided);\n    //     uint256 profit = ourContractBalance.sub(currentPrice);\n    //     return profit;\n    // }\n    // MintInterface cDai = MintInterface(cDaiAddress);\n    // TokenInterface dai = TokenInterface(daiAddress);\n\n    // function checkDaiAllowance() external view returns (uint256) {\n    //     return dai.allowance(msg.sender, address(this));\n    // }\n\n    // function userBalance() external view returns (uint256) {\n    //     return balances[msg.sender];\n    // }\n\n    // function deposit(address sender, uint256 amount) external {\n    //     dai.transferFrom(sender, address(this), amount);\n    //     totalDaiDeposits += amount;\n    //     dai.approve(cDaiAddress, amount);\n    //     cDai.mint(amount);\n    //     balances[sender] += amount;\n    //     registeredUser[sender] = true;\n    // }\n\n    // function transact(address recipient, uint256 amount) external {\n    //     require(registeredUser[msg.sender] == true, \"Sender not registered\");\n    //     require(amount <= balances[msg.sender], \"Insufficient Funds\");\n    //     balances[msg.sender] -= amount;\n    //     balances[recipient] += amount;\n    // }\n\n    // function withdraw(uint256 amount) external {\n    //     require(amount <= balances[msg.sender], \"Insufficient Funds\");\n    //     cDai.redeemUnderlying(amount);\n    //     dai.transfer(msg.sender, amount);\n    //     balances[msg.sender] -= amount;\n    // }\n\n    // function contractBalance() external view returns (uint256) {\n    //     return cDai.balanceOf(address(this));\n    // }\n\n}\n",
  "sourcePath": "/home/roheat/blockchain/projects/biconomy/boundless/contracts/Pouch.sol",
  "compiler": {
    "name": "solc",
    "version": "0.5.0+commit.1d4f565a.Emscripten.clang"
  },
  "schemaVersion": "3.0.1",
  "updatedAt": "2020-02-13T15:31:05.058Z",
  "devdoc": {
    "methods": {}
  },
  "userdoc": {
    "methods": {}
  }
}