{
  "contractName": "PouchDelegate",
  "abi": [
    {
      "constant": true,
      "inputs": [],
      "name": "name",
      "outputs": [
        {
          "name": "",
          "type": "string"
        }
      ],
      "payable": false,
      "stateMutability": "view",
      "type": "function",
      "signature": "0x06fdde03"
    },
    {
      "constant": true,
      "inputs": [
        {
          "name": "",
          "type": "address"
        }
      ],
      "name": "rewards",
      "outputs": [
        {
          "name": "",
          "type": "uint256"
        }
      ],
      "payable": false,
      "stateMutability": "view",
      "type": "function",
      "signature": "0x0700037d"
    },
    {
      "constant": false,
      "inputs": [
        {
          "name": "_spender",
          "type": "address"
        },
        {
          "name": "_value",
          "type": "uint256"
        }
      ],
      "name": "approve",
      "outputs": [
        {
          "name": "success",
          "type": "bool"
        }
      ],
      "payable": false,
      "stateMutability": "nonpayable",
      "type": "function",
      "signature": "0x095ea7b3"
    },
    {
      "constant": true,
      "inputs": [],
      "name": "TRANSACT_TYPEHASH",
      "outputs": [
        {
          "name": "",
          "type": "bytes32"
        }
      ],
      "payable": false,
      "stateMutability": "view",
      "type": "function",
      "signature": "0x0df73116"
    },
    {
      "constant": true,
      "inputs": [],
      "name": "totalSupply",
      "outputs": [
        {
          "name": "",
          "type": "uint256"
        }
      ],
      "payable": false,
      "stateMutability": "view",
      "type": "function",
      "signature": "0x18160ddd"
    },
    {
      "constant": false,
      "inputs": [
        {
          "name": "_from",
          "type": "address"
        },
        {
          "name": "_to",
          "type": "address"
        },
        {
          "name": "_value",
          "type": "uint256"
        }
      ],
      "name": "transferFrom",
      "outputs": [
        {
          "name": "success",
          "type": "bool"
        }
      ],
      "payable": false,
      "stateMutability": "nonpayable",
      "type": "function",
      "signature": "0x23b872dd"
    },
    {
      "constant": true,
      "inputs": [
        {
          "name": "",
          "type": "address"
        }
      ],
      "name": "balances",
      "outputs": [
        {
          "name": "",
          "type": "uint256"
        }
      ],
      "payable": false,
      "stateMutability": "view",
      "type": "function",
      "signature": "0x27e235e3"
    },
    {
      "constant": true,
      "inputs": [],
      "name": "decimals",
      "outputs": [
        {
          "name": "",
          "type": "uint8"
        }
      ],
      "payable": false,
      "stateMutability": "view",
      "type": "function",
      "signature": "0x313ce567"
    },
    {
      "constant": true,
      "inputs": [],
      "name": "DOMAIN_SEPARATOR",
      "outputs": [
        {
          "name": "",
          "type": "bytes32"
        }
      ],
      "payable": false,
      "stateMutability": "view",
      "type": "function",
      "signature": "0x3644e515"
    },
    {
      "constant": true,
      "inputs": [],
      "name": "DEPOSIT_TYPEHASH",
      "outputs": [
        {
          "name": "",
          "type": "bytes32"
        }
      ],
      "payable": false,
      "stateMutability": "view",
      "type": "function",
      "signature": "0x48825e94"
    },
    {
      "constant": true,
      "inputs": [],
      "name": "supplyOf",
      "outputs": [
        {
          "name": "balance",
          "type": "uint256"
        }
      ],
      "payable": false,
      "stateMutability": "view",
      "type": "function",
      "signature": "0x523a50d0"
    },
    {
      "constant": true,
      "inputs": [],
      "name": "version",
      "outputs": [
        {
          "name": "",
          "type": "string"
        }
      ],
      "payable": false,
      "stateMutability": "view",
      "type": "function",
      "signature": "0x54fd4d50"
    },
    {
      "constant": true,
      "inputs": [
        {
          "name": "",
          "type": "address"
        },
        {
          "name": "",
          "type": "address"
        }
      ],
      "name": "allowed",
      "outputs": [
        {
          "name": "",
          "type": "uint256"
        }
      ],
      "payable": false,
      "stateMutability": "view",
      "type": "function",
      "signature": "0x5c658165"
    },
    {
      "constant": true,
      "inputs": [
        {
          "name": "_owner",
          "type": "address"
        }
      ],
      "name": "balanceOf",
      "outputs": [
        {
          "name": "balance",
          "type": "uint256"
        }
      ],
      "payable": false,
      "stateMutability": "view",
      "type": "function",
      "signature": "0x70a08231"
    },
    {
      "constant": true,
      "inputs": [],
      "name": "WITHDRAW_TYPEHASH",
      "outputs": [
        {
          "name": "",
          "type": "bytes32"
        }
      ],
      "payable": false,
      "stateMutability": "view",
      "type": "function",
      "signature": "0x76c5d758"
    },
    {
      "constant": true,
      "inputs": [
        {
          "name": "",
          "type": "address"
        }
      ],
      "name": "nonces",
      "outputs": [
        {
          "name": "",
          "type": "uint256"
        }
      ],
      "payable": false,
      "stateMutability": "view",
      "type": "function",
      "signature": "0x7ecebe00"
    },
    {
      "constant": true,
      "inputs": [],
      "name": "symbol",
      "outputs": [
        {
          "name": "",
          "type": "string"
        }
      ],
      "payable": false,
      "stateMutability": "view",
      "type": "function",
      "signature": "0x95d89b41"
    },
    {
      "constant": false,
      "inputs": [
        {
          "name": "_to",
          "type": "address"
        },
        {
          "name": "_value",
          "type": "uint256"
        }
      ],
      "name": "transfer",
      "outputs": [
        {
          "name": "success",
          "type": "bool"
        }
      ],
      "payable": false,
      "stateMutability": "nonpayable",
      "type": "function",
      "signature": "0xa9059cbb"
    },
    {
      "constant": true,
      "inputs": [
        {
          "name": "_owner",
          "type": "address"
        },
        {
          "name": "_spender",
          "type": "address"
        }
      ],
      "name": "allowance",
      "outputs": [
        {
          "name": "remaining",
          "type": "uint256"
        }
      ],
      "payable": false,
      "stateMutability": "view",
      "type": "function",
      "signature": "0xdd62ed3e"
    },
    {
      "constant": true,
      "inputs": [],
      "name": "ImplementationAddress",
      "outputs": [
        {
          "name": "",
          "type": "address"
        }
      ],
      "payable": false,
      "stateMutability": "view",
      "type": "function",
      "signature": "0xe8a667de"
    },
    {
      "constant": true,
      "inputs": [],
      "name": "admin",
      "outputs": [
        {
          "name": "",
          "type": "address"
        }
      ],
      "payable": false,
      "stateMutability": "view",
      "type": "function",
      "signature": "0xf851a440"
    },
    {
      "inputs": [
        {
          "name": "_chainId",
          "type": "uint256"
        }
      ],
      "payable": false,
      "stateMutability": "nonpayable",
      "type": "constructor",
      "signature": "constructor"
    },
    {
      "payable": false,
      "stateMutability": "nonpayable",
      "type": "fallback"
    },
    {
      "anonymous": false,
      "inputs": [
        {
          "indexed": true,
          "name": "_from",
          "type": "address"
        },
        {
          "indexed": true,
          "name": "_to",
          "type": "address"
        },
        {
          "indexed": false,
          "name": "_value",
          "type": "uint256"
        }
      ],
      "name": "Transfer",
      "type": "event",
      "signature": "0xddf252ad1be2c89b69c2b068fc378daa952ba7f163c4a11628f55a4df523b3ef"
    },
    {
      "anonymous": false,
      "inputs": [
        {
          "indexed": true,
          "name": "_owner",
          "type": "address"
        },
        {
          "indexed": true,
          "name": "_spender",
          "type": "address"
        },
        {
          "indexed": false,
          "name": "_value",
          "type": "uint256"
        }
      ],
      "name": "Approval",
      "type": "event",
      "signature": "0x8c5be1e5ebec7d5bd14f71427d1e84f3dd0314c0f7b2291e5b200ac8c7c3b925"
    },
    {
      "anonymous": false,
      "inputs": [
        {
          "indexed": true,
          "name": "_from",
          "type": "address"
        },
        {
          "indexed": true,
          "name": "_to",
          "type": "address"
        },
        {
          "indexed": false,
          "name": "_value",
          "type": "uint256"
        }
      ],
      "name": "Reward",
      "type": "event",
      "signature": "0x6b053894d8fdbdcc936dd753e21291f0c48e68ef12306eb39a63a374147ba4bd"
    },
    {
      "constant": false,
      "inputs": [
        {
          "name": "_newImplemenationAddress",
          "type": "address"
        }
      ],
      "name": "updateLogic",
      "outputs": [],
      "payable": false,
      "stateMutability": "nonpayable",
      "type": "function",
      "signature": "0x795e617e"
    },
    {
      "constant": false,
      "inputs": [
        {
          "name": "holder",
          "type": "address"
        },
        {
          "name": "value",
          "type": "uint256"
        },
        {
          "name": "nonce",
          "type": "uint256"
        },
        {
          "name": "r",
          "type": "bytes32"
        },
        {
          "name": "s",
          "type": "bytes32"
        },
        {
          "name": "v",
          "type": "uint8"
        }
      ],
      "name": "deposit",
      "outputs": [
        {
          "name": "",
          "type": "bool"
        }
      ],
      "payable": false,
      "stateMutability": "nonpayable",
      "type": "function",
      "signature": "0xcfefd241"
    },
    {
      "constant": false,
      "inputs": [
        {
          "name": "holder",
          "type": "address"
        },
        {
          "name": "value",
          "type": "uint256"
        },
        {
          "name": "nonce",
          "type": "uint256"
        },
        {
          "name": "r",
          "type": "bytes32"
        },
        {
          "name": "s",
          "type": "bytes32"
        },
        {
          "name": "v",
          "type": "uint8"
        }
      ],
      "name": "withdraw",
      "outputs": [
        {
          "name": "",
          "type": "bool"
        }
      ],
      "payable": false,
      "stateMutability": "nonpayable",
      "type": "function",
      "signature": "0xcbb40dae"
    },
    {
      "constant": false,
      "inputs": [
        {
          "name": "holder",
          "type": "address"
        },
        {
          "name": "to",
          "type": "address"
        },
        {
          "name": "value",
          "type": "uint256"
        },
        {
          "name": "nonce",
          "type": "uint256"
        },
        {
          "name": "r",
          "type": "bytes32"
        },
        {
          "name": "s",
          "type": "bytes32"
        },
        {
          "name": "v",
          "type": "uint8"
        }
      ],
      "name": "transact",
      "outputs": [
        {
          "name": "",
          "type": "bool"
        }
      ],
      "payable": false,
      "stateMutability": "nonpayable",
      "type": "function",
      "signature": "0x12c6abb8"
    },
    {
      "constant": false,
      "inputs": [
        {
          "name": "holder",
          "type": "address"
        },
        {
          "name": "to",
          "type": "address"
        },
        {
          "name": "value",
          "type": "uint256"
        },
        {
          "name": "nonce",
          "type": "uint256"
        },
        {
          "name": "r",
          "type": "bytes32"
        },
        {
          "name": "s",
          "type": "bytes32"
        },
        {
          "name": "v",
          "type": "uint8"
        }
      ],
      "name": "transactTest",
      "outputs": [
        {
          "name": "",
          "type": "bool"
        }
      ],
      "payable": false,
      "stateMutability": "nonpayable",
      "type": "function",
      "signature": "0xc883ed89"
    },
    {
      "constant": true,
      "inputs": [],
      "name": "checkProfits",
      "outputs": [
        {
          "name": "",
          "type": "uint256"
        }
      ],
      "payable": false,
      "stateMutability": "view",
      "type": "function",
      "signature": "0xd7a8e87b"
    },
    {
      "constant": false,
      "inputs": [],
      "name": "spitProfits",
      "outputs": [
        {
          "name": "",
          "type": "bool"
        }
      ],
      "payable": false,
      "stateMutability": "nonpayable",
      "type": "function",
      "signature": "0x890268f8"
    },
    {
      "constant": true,
      "inputs": [
        {
          "name": "holder",
          "type": "address"
        }
      ],
      "name": "userRewards",
      "outputs": [
        {
          "name": "",
          "type": "uint256"
        }
      ],
      "payable": false,
      "stateMutability": "view",
      "type": "function",
      "signature": "0x0660f1e8"
    }
  ],
  "bytecode": "0x608060405273e7bc397dbd069fc7d0109c0636d06888bb50668c600460006101000a81548173ffffffffffffffffffffffffffffffffffffffff021916908373ffffffffffffffffffffffffffffffffffffffff160217905550600460009054906101000a900473ffffffffffffffffffffffffffffffffffffffff16600560006101000a81548173ffffffffffffffffffffffffffffffffffffffff021916908373ffffffffffffffffffffffffffffffffffffffff160217905550734f96fe3b7a6cf9725f59d353f723c1bdb64ca6aa600660006101000a81548173ffffffffffffffffffffffffffffffffffffffff021916908373ffffffffffffffffffffffffffffffffffffffff160217905550600660009054906101000a900473ffffffffffffffffffffffffffffffffffffffff16600760006101000a81548173ffffffffffffffffffffffffffffffffffffffff021916908373ffffffffffffffffffffffffffffffffffffffff1602179055503480156200018157600080fd5b5060405160208062002c578339810180604052620001a3919081019062000331565b60405180807f454950373132446f6d61696e28737472696e67206e616d652c737472696e672081526020017f76657273696f6e2c75696e7432353620636861696e49642c616464726573732081526020017f766572696679696e67436f6e7472616374290000000000000000000000000000815250605201905060405180910390206040805190810160405280600b81526020017f506f75636820546f6b656e000000000000000000000000000000000000000000815250805190602001206040805190810160405280600181526020017f3100000000000000000000000000000000000000000000000000000000000000815250805190602001208330604051602001620002b795949392919062000390565b6040516020818303038152906040528051906020012060098190555033600360006101000a81548173ffffffffffffffffffffffffffffffffffffffff021916908373ffffffffffffffffffffffffffffffffffffffff160217905550506200043f565b600062000329825162000435565b905092915050565b6000602082840312156200034457600080fd5b600062000354848285016200031b565b91505092915050565b6200036881620003ed565b82525050565b620003798162000401565b82525050565b6200038a816200042b565b82525050565b600060a082019050620003a760008301886200036e565b620003b660208301876200036e565b620003c560408301866200036e565b620003d460608301856200037f565b620003e360808301846200035d565b9695505050505050565b6000620003fa826200040b565b9050919050565b6000819050919050565b600073ffffffffffffffffffffffffffffffffffffffff82169050919050565b6000819050919050565b6000819050919050565b612808806200044f6000396000f3fe608060405260043610610175576000357c0100000000000000000000000000000000000000000000000000000000900463ffffffff1680630660f1e81461022857806306fdde03146102655780630700037d14610290578063095ea7b3146102cd5780630df731161461030a57806312c6abb81461033557806318160ddd1461037257806323b872dd1461039d57806327e235e3146103da578063313ce567146104175780633644e5151461044257806348825e941461046d578063523a50d01461049857806354fd4d50146104c35780635c658165146104ee57806370a082311461052b57806376c5d75814610568578063795e617e146105935780637ecebe00146105bc578063890268f8146105f957806395d89b4114610624578063a9059cbb1461064f578063c883ed891461068c578063cbb40dae146106c9578063cfefd24114610706578063d7a8e87b14610743578063dd62ed3e1461076e578063e8a667de146107ab578063f851a440146107d6575b34801561018157600080fd5b506000600860009054906101000a900473ffffffffffffffffffffffffffffffffffffffff1673ffffffffffffffffffffffffffffffffffffffff16600036604051808383808284378083019250505092505050600060405180830381855af49150503d8060008114610210576040519150601f19603f3d011682016040523d82523d6000602084013e610215565b606091505b5050905080151561022557600080fd5b50005b34801561023457600080fd5b5061024f600480360361024a9190810190611fc6565b610801565b60405161025c91906126ab565b60405180910390f35b34801561027157600080fd5b5061027a61084a565b6040516102879190612589565b60405180910390f35b34801561029c57600080fd5b506102b760048036036102b29190810190611fc6565b610883565b6040516102c491906126ab565b60405180910390f35b3480156102d957600080fd5b506102f460048036036102ef9190810190612118565b61089b565b6040516103019190612553565b60405180910390f35b34801561031657600080fd5b5061031f61098d565b60405161032c919061256e565b60405180910390f35b34801561034157600080fd5b5061035c6004803603610357919081019061207a565b6109ec565b6040516103699190612553565b60405180910390f35b34801561037e57600080fd5b50610387610c04565b60405161039491906126ab565b60405180910390f35b3480156103a957600080fd5b506103c460048036036103bf919081019061202b565b610c0a565b6040516103d19190612553565b60405180910390f35b3480156103e657600080fd5b5061040160048036036103fc9190810190611fc6565b610ea4565b60405161040e91906126ab565b60405180910390f35b34801561042357600080fd5b5061042c610ebc565b60405161043991906126c6565b60405180910390f35b34801561044e57600080fd5b50610457610ec1565b604051610464919061256e565b60405180910390f35b34801561047957600080fd5b50610482610ec7565b60405161048f919061256e565b60405180910390f35b3480156104a457600080fd5b506104ad610f26565b6040516104ba91906126ab565b60405180910390f35b3480156104cf57600080fd5b506104d8610f2f565b6040516104e59190612589565b60405180910390f35b3480156104fa57600080fd5b5061051560048036036105109190810190611fef565b610f68565b60405161052291906126ab565b60405180910390f35b34801561053757600080fd5b50610552600480360361054d9190810190611fc6565b610f8d565b60405161055f91906126ab565b60405180910390f35b34801561057457600080fd5b5061057d610fd6565b60405161058a919061256e565b60405180910390f35b34801561059f57600080fd5b506105ba60048036036105b59190810190611fc6565b611035565b005b3480156105c857600080fd5b506105e360048036036105de9190810190611fc6565b61119d565b6040516105f091906126ab565b60405180910390f35b34801561060557600080fd5b5061060e6111b5565b60405161061b9190612553565b60405180910390f35b34801561063057600080fd5b5061063961141b565b6040516106469190612589565b60405180910390f35b34801561065b57600080fd5b5061067660048036036106719190810190612118565b611454565b6040516106839190612553565b60405180910390f35b34801561069857600080fd5b506106b360048036036106ae919081019061207a565b6115ad565b6040516106c09190612553565b60405180910390f35b3480156106d557600080fd5b506106f060048036036106eb9190810190612154565b6117eb565b6040516106fd9190612553565b60405180910390f35b34801561071257600080fd5b5061072d60048036036107289190810190612154565b611a00565b60405161073a9190612553565b60405180910390f35b34801561074f57600080fd5b50610758611c15565b60405161076591906126ab565b60405180910390f35b34801561077a57600080fd5b5061079560048036036107909190810190611fef565b611e7b565b6040516107a291906126ab565b60405180910390f35b3480156107b757600080fd5b506107c0611f02565b6040516107cd9190612468565b60405180910390f35b3480156107e257600080fd5b506107eb611f28565b6040516107f89190612468565b60405180910390f35b6000600b60008373ffffffffffffffffffffffffffffffffffffffff1673ffffffffffffffffffffffffffffffffffffffff168152602001908152602001600020549050919050565b6040805190810160405280600b81526020017f506f75636820546f6b656e00000000000000000000000000000000000000000081525081565b600b6020528060005260406000206000915090505481565b600081600260003373ffffffffffffffffffffffffffffffffffffffff1673ffffffffffffffffffffffffffffffffffffffff16815260200190815260200160002060008573ffffffffffffffffffffffffffffffffffffffff1673ffffffffffffffffffffffffffffffffffffffff168152602001908152602001600020819055508273ffffffffffffffffffffffffffffffffffffffff163373ffffffffffffffffffffffffffffffffffffffff167f8c5be1e5ebec7d5bd14f71427d1e84f3dd0314c0f7b2291e5b200ac8c7c3b9258460405161097b91906126ab565b60405180910390a36001905092915050565b60405180807f5472616e73616374286164647265737320686f6c6465722c616464726573732081526020017f746f2c75696e743235362076616c75652c75696e74323536206e6f6e63652900815250603f019050604051809103902081565b6000806060600860009054906101000a900473ffffffffffffffffffffffffffffffffffffffff1673ffffffffffffffffffffffffffffffffffffffff1660405180807f7472616e7361637428616464726573732c616464726573732c75696e7432353681526020017f2c75696e743235362c627974657333322c627974657333322c75696e74382900815250603f01905060405180910390208b8b8b8b8b8b8b604051602401610aa39796959493929190612483565b604051602081830303815290604052907bffffffffffffffffffffffffffffffffffffffffffffffffffffffff19166020820180517bffffffffffffffffffffffffffffffffffffffffffffffffffffffff83818316178352505050506040518082805190602001908083835b602083101515610b355780518252602082019150602081019050602083039250610b10565b6001836020036101000a038019825116818451168082178552505050505050905001915050600060405180830381855af49150503d8060008114610b95576040519150601f19603f3d011682016040523d82523d6000602084013e610b9a565b606091505b5091509150811515610be1576040517f08c379a0000000000000000000000000000000000000000000000000000000008152600401610bd89061268b565b60405180910390fd5b80806020019051610bf591908101906121dd565b92505050979650505050505050565b60005481565b600080600260008673ffffffffffffffffffffffffffffffffffffffff1673ffffffffffffffffffffffffffffffffffffffff16815260200190815260200160002060003373ffffffffffffffffffffffffffffffffffffffff1673ffffffffffffffffffffffffffffffffffffffff16815260200190815260200160002054905082600160008773ffffffffffffffffffffffffffffffffffffffff1673ffffffffffffffffffffffffffffffffffffffff1681526020019081526020016000205410158015610cdb5750828110155b1515610ce657600080fd5b82600160008673ffffffffffffffffffffffffffffffffffffffff1673ffffffffffffffffffffffffffffffffffffffff1681526020019081526020016000206000828254019250508190555082600160008773ffffffffffffffffffffffffffffffffffffffff1673ffffffffffffffffffffffffffffffffffffffff168152602001908152602001600020600082825403925050819055507fffffffffffffffffffffffffffffffffffffffffffffffffffffffffffffffff811015610e335782600260008773ffffffffffffffffffffffffffffffffffffffff1673ffffffffffffffffffffffffffffffffffffffff16815260200190815260200160002060003373ffffffffffffffffffffffffffffffffffffffff1673ffffffffffffffffffffffffffffffffffffffff168152602001908152602001600020600082825403925050819055505b8373ffffffffffffffffffffffffffffffffffffffff168573ffffffffffffffffffffffffffffffffffffffff167fddf252ad1be2c89b69c2b068fc378daa952ba7f163c4a11628f55a4df523b3ef85604051610e9091906126ab565b60405180910390a360019150509392505050565b60016020528060005260406000206000915090505481565b601281565b60095481565b60405180807f4465706f736974286164647265737320686f6c6465722c75696e74323536207681526020017f616c75652c75696e74323536206e6f6e636529000000000000000000000000008152506033019050604051809103902081565b60008054905090565b6040805190810160405280600181526020017f310000000000000000000000000000000000000000000000000000000000000081525081565b6002602052816000526040600020602052806000526040600020600091509150505481565b6000600160008373ffffffffffffffffffffffffffffffffffffffff1673ffffffffffffffffffffffffffffffffffffffff168152602001908152602001600020549050919050565b60405180807f5769746864726177286164647265737320686f6c6465722c75696e743235362081526020017f76616c75652c75696e74323536206e6f6e6365290000000000000000000000008152506034019050604051809103902081565b600360009054906101000a900473ffffffffffffffffffffffffffffffffffffffff1673ffffffffffffffffffffffffffffffffffffffff163373ffffffffffffffffffffffffffffffffffffffff161415156110c7576040517f08c379a00000000000000000000000000000000000000000000000000000000081526004016110be906125ab565b60405180910390fd5b600360009054906101000a900473ffffffffffffffffffffffffffffffffffffffff1673ffffffffffffffffffffffffffffffffffffffff163373ffffffffffffffffffffffffffffffffffffffff16141515611159576040517f08c379a0000000000000000000000000000000000000000000000000000000008152600401611150906125cb565b60405180910390fd5b80600860006101000a81548173ffffffffffffffffffffffffffffffffffffffff021916908373ffffffffffffffffffffffffffffffffffffffff16021790555050565b600a6020528060005260406000206000915090505481565b6000600360009054906101000a900473ffffffffffffffffffffffffffffffffffffffff1673ffffffffffffffffffffffffffffffffffffffff163373ffffffffffffffffffffffffffffffffffffffff16141515611249576040517f08c379a0000000000000000000000000000000000000000000000000000000008152600401611240906125ab565b60405180910390fd5b60006060600860009054906101000a900473ffffffffffffffffffffffffffffffffffffffff1673ffffffffffffffffffffffffffffffffffffffff1660405180807f7370697450726f66697473282900000000000000000000000000000000000000815250600d0190506040518091039020604051602401604051602081830303815290604052907bffffffffffffffffffffffffffffffffffffffffffffffffffffffff19166020820180517bffffffffffffffffffffffffffffffffffffffffffffffffffffffff83818316178352505050506040518082805190602001908083835b602083101515611354578051825260208201915060208101905060208303925061132f565b6001836020036101000a038019825116818451168082178552505050505050905001915050600060405180830381855af49150503d80600081146113b4576040519150601f19603f3d011682016040523d82523d6000602084013e6113b9565b606091505b5091509150811515611400576040517f08c379a00000000000000000000000000000000000000000000000000000000081526004016113f79061264b565b60405180910390fd5b8080602001905161141491908101906121dd565b9250505090565b6040805190810160405280600381526020017f504348000000000000000000000000000000000000000000000000000000000081525081565b600081600160003373ffffffffffffffffffffffffffffffffffffffff1673ffffffffffffffffffffffffffffffffffffffff16815260200190815260200160002054101515156114a457600080fd5b81600160003373ffffffffffffffffffffffffffffffffffffffff1673ffffffffffffffffffffffffffffffffffffffff1681526020019081526020016000206000828254039250508190555081600160008573ffffffffffffffffffffffffffffffffffffffff1673ffffffffffffffffffffffffffffffffffffffff168152602001908152602001600020600082825401925050819055508273ffffffffffffffffffffffffffffffffffffffff163373ffffffffffffffffffffffffffffffffffffffff167fddf252ad1be2c89b69c2b068fc378daa952ba7f163c4a11628f55a4df523b3ef8460405161159b91906126ab565b60405180910390a36001905092915050565b6000806060600860009054906101000a900473ffffffffffffffffffffffffffffffffffffffff1673ffffffffffffffffffffffffffffffffffffffff1660405180807f7472616e736163745465737428616464726573732c616464726573732c75696e81526020017f743235362c75696e743235362c627974657333322c627974657333322c75696e81526020017f7438290000000000000000000000000000000000000000000000000000000000815250604301905060405180910390208b8b8b8b8b8b8b60405160240161168a9796959493929190612483565b604051602081830303815290604052907bffffffffffffffffffffffffffffffffffffffffffffffffffffffff19166020820180517bffffffffffffffffffffffffffffffffffffffffffffffffffffffff83818316178352505050506040518082805190602001908083835b60208310151561171c57805182526020820191506020810190506020830392506116f7565b6001836020036101000a038019825116818451168082178552505050505050905001915050600060405180830381855af49150503d806000811461177c576040519150601f19603f3d011682016040523d82523d6000602084013e611781565b606091505b50915091508115156117c8576040517f08c379a00000000000000000000000000000000000000000000000000000000081526004016117bf9061260b565b60405180910390fd5b808060200190516117dc91908101906121dd565b92505050979650505050505050565b6000806060600860009054906101000a900473ffffffffffffffffffffffffffffffffffffffff1673ffffffffffffffffffffffffffffffffffffffff1660405180807f776974686472617728616464726573732c75696e743235362c75696e7432353681526020017f2c627974657333322c627974657333322c75696e743829000000000000000000815250603701905060405180910390208a8a8a8a8a8a6040516024016118a0969594939291906124f2565b604051602081830303815290604052907bffffffffffffffffffffffffffffffffffffffffffffffffffffffff19166020820180517bffffffffffffffffffffffffffffffffffffffffffffffffffffffff83818316178352505050506040518082805190602001908083835b602083101515611932578051825260208201915060208101905060208303925061190d565b6001836020036101000a038019825116818451168082178552505050505050905001915050600060405180830381855af49150503d8060008114611992576040519150601f19603f3d011682016040523d82523d6000602084013e611997565b606091505b50915091508115156119de576040517f08c379a00000000000000000000000000000000000000000000000000000000081526004016119d59061262b565b60405180910390fd5b808060200190516119f291908101906121dd565b925050509695505050505050565b6000806060600860009054906101000a900473ffffffffffffffffffffffffffffffffffffffff1673ffffffffffffffffffffffffffffffffffffffff1660405180807f6465706f73697428616464726573732c75696e743235362c75696e743235362c81526020017f627974657333322c627974657333322c75696e74382900000000000000000000815250603601905060405180910390208a8a8a8a8a8a604051602401611ab5969594939291906124f2565b604051602081830303815290604052907bffffffffffffffffffffffffffffffffffffffffffffffffffffffff19166020820180517bffffffffffffffffffffffffffffffffffffffffffffffffffffffff83818316178352505050506040518082805190602001908083835b602083101515611b475780518252602082019150602081019050602083039250611b22565b6001836020036101000a038019825116818451168082178552505050505050905001915050600060405180830381855af49150503d8060008114611ba7576040519150601f19603f3d011682016040523d82523d6000602084013e611bac565b606091505b5091509150811515611bf3576040517f08c379a0000000000000000000000000000000000000000000000000000000008152600401611bea906125eb565b60405180910390fd5b80806020019051611c0791908101906121dd565b925050509695505050505050565b6000600360009054906101000a900473ffffffffffffffffffffffffffffffffffffffff1673ffffffffffffffffffffffffffffffffffffffff163373ffffffffffffffffffffffffffffffffffffffff16141515611ca9576040517f08c379a0000000000000000000000000000000000000000000000000000000008152600401611ca0906125ab565b60405180910390fd5b60006060600860009054906101000a900473ffffffffffffffffffffffffffffffffffffffff1673ffffffffffffffffffffffffffffffffffffffff1660405180807f636865636b50726f666974732829000000000000000000000000000000000000815250600e0190506040518091039020604051602401604051602081830303815290604052907bffffffffffffffffffffffffffffffffffffffffffffffffffffffff19166020820180517bffffffffffffffffffffffffffffffffffffffffffffffffffffffff83818316178352505050506040518082805190602001908083835b602083101515611db45780518252602082019150602081019050602083039250611d8f565b6001836020036101000a038019825116818451168082178552505050505050905001915050600060405180830381855afa9150503d8060008114611e14576040519150601f19603f3d011682016040523d82523d6000602084013e611e19565b606091505b5091509150811515611e60576040517f08c379a0000000000000000000000000000000000000000000000000000000008152600401611e579061266b565b60405180910390fd5b80806020019051611e749190810190612206565b9250505090565b6000600260008473ffffffffffffffffffffffffffffffffffffffff1673ffffffffffffffffffffffffffffffffffffffff16815260200190815260200160002060008373ffffffffffffffffffffffffffffffffffffffff1673ffffffffffffffffffffffffffffffffffffffff16815260200190815260200160002054905092915050565b600860009054906101000a900473ffffffffffffffffffffffffffffffffffffffff1681565b600360009054906101000a900473ffffffffffffffffffffffffffffffffffffffff1681565b6000611f5a823561274b565b905092915050565b6000611f6e825161275d565b905092915050565b6000611f828235612769565b905092915050565b6000611f968235612773565b905092915050565b6000611faa8251612773565b905092915050565b6000611fbe823561277d565b905092915050565b600060208284031215611fd857600080fd5b6000611fe684828501611f4e565b91505092915050565b6000806040838503121561200257600080fd5b600061201085828601611f4e565b925050602061202185828601611f4e565b9150509250929050565b60008060006060848603121561204057600080fd5b600061204e86828701611f4e565b935050602061205f86828701611f4e565b925050604061207086828701611f8a565b9150509250925092565b600080600080600080600060e0888a03121561209557600080fd5b60006120a38a828b01611f4e565b97505060206120b48a828b01611f4e565b96505060406120c58a828b01611f8a565b95505060606120d68a828b01611f8a565b94505060806120e78a828b01611f76565b93505060a06120f88a828b01611f76565b92505060c06121098a828b01611fb2565b91505092959891949750929550565b6000806040838503121561212b57600080fd5b600061213985828601611f4e565b925050602061214a85828601611f8a565b9150509250929050565b60008060008060008060c0878903121561216d57600080fd5b600061217b89828a01611f4e565b965050602061218c89828a01611f8a565b955050604061219d89828a01611f8a565b94505060606121ae89828a01611f76565b93505060806121bf89828a01611f76565b92505060a06121d089828a01611fb2565b9150509295509295509295565b6000602082840312156121ef57600080fd5b60006121fd84828501611f62565b91505092915050565b60006020828403121561221857600080fd5b600061222684828501611f9e565b91505092915050565b612238816126ec565b82525050565b612247816126fe565b82525050565b6122568161270a565b82525050565b6000612267826126e1565b80845261227b81602086016020860161278a565b612284816127bd565b602085010191505092915050565b6000601f82527f526573747269637465642041636365737320746f2041646d696e204f6e6c79006020830152604082019050919050565b6000600a82527f41646d696e204f6e6c79000000000000000000000000000000000000000000006020830152604082019050919050565b6000601782527f44656c65676174652f6465706f736974206661696c65640000000000000000006020830152604082019050919050565b6000601c82527f44656c65676174652f7472616e7361637454657374206661696c6564000000006020830152604082019050919050565b6000601882527f44656c65676174652f7769746864726177206661696c656400000000000000006020830152604082019050919050565b6000601b82527f44656c65676174652f7370697450726f66697473206661696c656400000000006020830152604082019050919050565b6000601c82527f44656c65676174652f636865636b50726f66697473206661696c6564000000006020830152604082019050919050565b6000601882527f44656c65676174652f7472616e73616374206661696c656400000000000000006020830152604082019050919050565b61245381612734565b82525050565b6124628161273e565b82525050565b600060208201905061247d600083018461222f565b92915050565b600060e082019050612498600083018a61222f565b6124a5602083018961222f565b6124b2604083018861244a565b6124bf606083018761244a565b6124cc608083018661224d565b6124d960a083018561224d565b6124e660c0830184612459565b98975050505050505050565b600060c082019050612507600083018961222f565b612514602083018861244a565b612521604083018761244a565b61252e606083018661224d565b61253b608083018561224d565b61254860a0830184612459565b979650505050505050565b6000602082019050612568600083018461223e565b92915050565b6000602082019050612583600083018461224d565b92915050565b600060208201905081810360008301526125a3818461225c565b905092915050565b600060208201905081810360008301526125c481612292565b9050919050565b600060208201905081810360008301526125e4816122c9565b9050919050565b6000602082019050818103600083015261260481612300565b9050919050565b6000602082019050818103600083015261262481612337565b9050919050565b600060208201905081810360008301526126448161236e565b9050919050565b60006020820190508181036000830152612664816123a5565b9050919050565b60006020820190508181036000830152612684816123dc565b9050919050565b600060208201905081810360008301526126a481612413565b9050919050565b60006020820190506126c0600083018461244a565b92915050565b60006020820190506126db6000830184612459565b92915050565b600081519050919050565b60006126f782612714565b9050919050565b60008115159050919050565b6000819050919050565b600073ffffffffffffffffffffffffffffffffffffffff82169050919050565b6000819050919050565b600060ff82169050919050565b600061275682612714565b9050919050565b60008115159050919050565b6000819050919050565b6000819050919050565b600060ff82169050919050565b60005b838110156127a857808201518184015260208101905061278d565b838111156127b7576000848401525b50505050565b6000601f19601f830116905091905056fea265627a7a72305820bca5a5b4cc1e5c7a116c6d033c31af8482c1f2e9525f7e1867c246f90156685b6c6578706572696d656e74616cf50037",
  "source": "pragma solidity >=0.5.0;\npragma experimental ABIEncoderV2;\n\nimport \"./PouchToken.sol\";\n\n//  ** Inheritance of Pouch Token to Make Delegate Calls to implementation Contract. **\n\ncontract PouchDelegate is PouchToken {\n    constructor(uint256 _chainId) public {\n        DOMAIN_SEPARATOR = keccak256(\n            abi.encode(\n                keccak256(\n                    \"EIP712Domain(string name,string version,uint256 chainId,address verifyingContract)\"\n                ),\n                keccak256(bytes(name)),\n                keccak256(bytes(version)),\n                _chainId,\n                address(this)\n            )\n        );\n\n        admin = msg.sender;\n    }\n\n    // ** Internal Functions **\n\n    modifier adminOnly() {\n        require(msg.sender == admin, \"Restricted Access to Admin Only\");\n        _;\n    }\n\n    // ** Update Implementation Address **\n    function updateLogic(address _newImplemenationAddress) external adminOnly {\n        require(msg.sender == admin, \"Admin Only\");\n        ImplementationAddress = _newImplemenationAddress;\n    }\n\n    // ** Delegate calls **\n\n    // Deposit delegate call\n    function deposit(\n        address holder,\n        uint256 value,\n        uint256 nonce,\n        bytes32 r,\n        bytes32 s,\n        uint8 v\n    ) public returns (bool) {\n        (bool status, bytes memory returnedData) = ImplementationAddress\n            .delegatecall(\n            abi.encodeWithSelector(\n                bytes4(\n                    keccak256(\n                        \"deposit(address,uint256,uint256,bytes32,bytes32,uint8)\"\n                    )\n                ),\n                holder,\n                value,\n                nonce,\n                r,\n                s,\n                v\n            )\n        );\n        require(status, \"Delegate/deposit failed\");\n        return abi.decode(returnedData, (bool));\n    }\n\n    // Withdraw delegate call\n    function withdraw(\n        address holder,\n        uint256 value,\n        uint256 nonce,\n        bytes32 r,\n        bytes32 s,\n        uint8 v\n    ) public returns (bool) {\n        (bool status, bytes memory returnedData) = ImplementationAddress\n            .delegatecall(\n            abi.encodeWithSelector(\n                bytes4(\n                    keccak256(\n                        \"withdraw(address,uint256,uint256,bytes32,bytes32,uint8)\"\n                    )\n                ),\n                holder,\n                value,\n                nonce,\n                r,\n                s,\n                v\n            )\n        );\n        require(status, \"Delegate/withdraw failed\");\n        return abi.decode(returnedData, (bool));\n    }\n\n    // Transact delegate call\n    function transact(\n        address holder,\n        address to,\n        uint256 value,\n        uint256 nonce,\n        bytes32 r,\n        bytes32 s,\n        uint8 v\n    ) public returns (bool) {\n        (bool status, bytes memory returnedData) = ImplementationAddress\n            .delegatecall(\n            abi.encodeWithSelector(\n                bytes4(\n                    keccak256(\n                        \"transact(address,address,uint256,uint256,bytes32,bytes32,uint8)\"\n                    )\n                ),\n                holder,\n                to,\n                value,\n                nonce,\n                r,\n                s,\n                v\n            )\n        );\n        require(status, \"Delegate/transact failed\");\n        return abi.decode(returnedData, (bool));\n    }\n\n    /* For Testing Purposes Only*/\n\n    function transactTest(\n        address holder,\n        address to,\n        uint256 value,\n        uint256 nonce,\n        bytes32 r,\n        bytes32 s,\n        uint8 v\n    ) public returns (bool) {\n        (bool status, bytes memory returnedData) = ImplementationAddress\n            .delegatecall(\n            abi.encodeWithSelector(\n                bytes4(\n                    keccak256(\n                        \"transactTest(address,address,uint256,uint256,bytes32,bytes32,uint8)\"\n                    )\n                ),\n                holder,\n                to,\n                value,\n                nonce,\n                r,\n                s,\n                v\n            )\n        );\n        require(status, \"Delegate/transactTest failed\");\n        return abi.decode(returnedData, (bool));\n\n    }\n\n    // Check Profits delegate call\n    function checkProfits() public view adminOnly returns (uint256) {\n        (bool status, bytes memory returnedData) = ImplementationAddress\n            .staticcall(\n            abi.encodeWithSelector(bytes4(keccak256(\"checkProfits()\")))\n        );\n        require(status, \"Delegate/checkProfits failed\");\n        return abi.decode(returnedData, (uint256));\n    }\n\n    // Split Profits delegate call\n    function spitProfits() public adminOnly returns (bool) {\n        (bool status, bytes memory returnedData) = ImplementationAddress\n            .delegatecall(\n            abi.encodeWithSelector(bytes4(keccak256(\"spitProfits()\")))\n        );\n        require(status, \"Delegate/spitProfits failed\");\n        return abi.decode(returnedData, (bool));\n    }\n\n    function userRewards(address holder) external view returns (uint256) {\n        return rewards[holder];\n    }\n    /**\n     * @notice Delegates execution to an implementation contract\n     * @dev It returns to the external caller whatever the implementation returns or forwards reverts\n     */\n    function() external {\n        // delegate all other functions to current implementation\n        (bool status, ) = ImplementationAddress.delegatecall(msg.data);\n        require(status);\n\n    }\n\n}\n",
  "sourcePath": "/home/roheat/blockchain/projects/biconomy/boundless/contracts/PouchDelegate.sol",
  "compiler": {
    "name": "solc",
    "version": "0.5.0+commit.1d4f565a.Emscripten.clang"
  },
  "schemaVersion": "3.0.1",
  "updatedAt": "2020-02-28T11:10:41.423Z",
  "devdoc": {
    "methods": {}
  },
  "userdoc": {
    "methods": {}
  }
}