{
  "contractName": "PouchDelegate",
  "abi": [
    {
      "constant": true,
      "inputs": [],
      "name": "name",
      "outputs": [
        {
          "name": "",
          "type": "string"
        }
      ],
      "payable": false,
      "stateMutability": "view",
      "type": "function",
      "signature": "0x06fdde03"
    },
    {
      "constant": false,
      "inputs": [
        {
          "name": "_spender",
          "type": "address"
        },
        {
          "name": "_value",
          "type": "uint256"
        }
      ],
      "name": "approve",
      "outputs": [
        {
          "name": "success",
          "type": "bool"
        }
      ],
      "payable": false,
      "stateMutability": "nonpayable",
      "type": "function",
      "signature": "0x095ea7b3"
    },
    {
      "constant": true,
      "inputs": [],
      "name": "totalSupply",
      "outputs": [
        {
          "name": "",
          "type": "uint256"
        }
      ],
      "payable": false,
      "stateMutability": "view",
      "type": "function",
      "signature": "0x18160ddd"
    },
    {
      "constant": false,
      "inputs": [
        {
          "name": "_from",
          "type": "address"
        },
        {
          "name": "_to",
          "type": "address"
        },
        {
          "name": "_value",
          "type": "uint256"
        }
      ],
      "name": "transferFrom",
      "outputs": [
        {
          "name": "success",
          "type": "bool"
        }
      ],
      "payable": false,
      "stateMutability": "nonpayable",
      "type": "function",
      "signature": "0x23b872dd"
    },
    {
      "constant": true,
      "inputs": [
        {
          "name": "",
          "type": "address"
        }
      ],
      "name": "balances",
      "outputs": [
        {
          "name": "",
          "type": "uint256"
        }
      ],
      "payable": false,
      "stateMutability": "view",
      "type": "function",
      "signature": "0x27e235e3"
    },
    {
      "constant": true,
      "inputs": [],
      "name": "decimals",
      "outputs": [
        {
          "name": "",
          "type": "uint8"
        }
      ],
      "payable": false,
      "stateMutability": "view",
      "type": "function",
      "signature": "0x313ce567"
    },
    {
      "constant": true,
      "inputs": [],
      "name": "version",
      "outputs": [
        {
          "name": "",
          "type": "string"
        }
      ],
      "payable": false,
      "stateMutability": "view",
      "type": "function",
      "signature": "0x54fd4d50"
    },
    {
      "constant": true,
      "inputs": [
        {
          "name": "",
          "type": "address"
        },
        {
          "name": "",
          "type": "address"
        }
      ],
      "name": "allowed",
      "outputs": [
        {
          "name": "",
          "type": "uint256"
        }
      ],
      "payable": false,
      "stateMutability": "view",
      "type": "function",
      "signature": "0x5c658165"
    },
    {
      "constant": true,
      "inputs": [
        {
          "name": "_owner",
          "type": "address"
        }
      ],
      "name": "balanceOf",
      "outputs": [
        {
          "name": "balance",
          "type": "uint256"
        }
      ],
      "payable": false,
      "stateMutability": "view",
      "type": "function",
      "signature": "0x70a08231"
    },
    {
      "constant": true,
      "inputs": [],
      "name": "symbol",
      "outputs": [
        {
          "name": "",
          "type": "string"
        }
      ],
      "payable": false,
      "stateMutability": "view",
      "type": "function",
      "signature": "0x95d89b41"
    },
    {
      "constant": false,
      "inputs": [
        {
          "name": "_to",
          "type": "address"
        },
        {
          "name": "_value",
          "type": "uint256"
        }
      ],
      "name": "transfer",
      "outputs": [
        {
          "name": "success",
          "type": "bool"
        }
      ],
      "payable": false,
      "stateMutability": "nonpayable",
      "type": "function",
      "signature": "0xa9059cbb"
    },
    {
      "constant": true,
      "inputs": [
        {
          "name": "_owner",
          "type": "address"
        },
        {
          "name": "_spender",
          "type": "address"
        }
      ],
      "name": "allowance",
      "outputs": [
        {
          "name": "remaining",
          "type": "uint256"
        }
      ],
      "payable": false,
      "stateMutability": "view",
      "type": "function",
      "signature": "0xdd62ed3e"
    },
    {
      "constant": true,
      "inputs": [],
      "name": "ImplementationAddress",
      "outputs": [
        {
          "name": "",
          "type": "address"
        }
      ],
      "payable": false,
      "stateMutability": "view",
      "type": "function",
      "signature": "0xe8a667de"
    },
    {
      "constant": true,
      "inputs": [],
      "name": "admin",
      "outputs": [
        {
          "name": "",
          "type": "address"
        }
      ],
      "payable": false,
      "stateMutability": "view",
      "type": "function",
      "signature": "0xf851a440"
    },
    {
      "inputs": [],
      "payable": false,
      "stateMutability": "nonpayable",
      "type": "constructor",
      "signature": "constructor"
    },
    {
      "payable": false,
      "stateMutability": "nonpayable",
      "type": "fallback"
    },
    {
      "anonymous": false,
      "inputs": [
        {
          "indexed": true,
          "name": "_from",
          "type": "address"
        },
        {
          "indexed": true,
          "name": "_to",
          "type": "address"
        },
        {
          "indexed": false,
          "name": "_value",
          "type": "uint256"
        }
      ],
      "name": "Transfer",
      "type": "event",
      "signature": "0xddf252ad1be2c89b69c2b068fc378daa952ba7f163c4a11628f55a4df523b3ef"
    },
    {
      "anonymous": false,
      "inputs": [
        {
          "indexed": true,
          "name": "_owner",
          "type": "address"
        },
        {
          "indexed": true,
          "name": "_spender",
          "type": "address"
        },
        {
          "indexed": false,
          "name": "_value",
          "type": "uint256"
        }
      ],
      "name": "Approval",
      "type": "event",
      "signature": "0x8c5be1e5ebec7d5bd14f71427d1e84f3dd0314c0f7b2291e5b200ac8c7c3b925"
    },
    {
      "constant": false,
      "inputs": [
        {
          "name": "_newImplemenationAddress",
          "type": "address"
        }
      ],
      "name": "updateLogic",
      "outputs": [],
      "payable": false,
      "stateMutability": "nonpayable",
      "type": "function",
      "signature": "0x795e617e"
    },
    {
      "constant": false,
      "inputs": [
        {
          "name": "holder",
          "type": "address"
        },
        {
          "name": "value",
          "type": "uint256"
        },
        {
          "name": "r",
          "type": "bytes32"
        },
        {
          "name": "s",
          "type": "bytes32"
        },
        {
          "name": "v",
          "type": "uint8"
        }
      ],
      "name": "deposit",
      "outputs": [
        {
          "name": "",
          "type": "bool"
        }
      ],
      "payable": false,
      "stateMutability": "nonpayable",
      "type": "function",
      "signature": "0xe99f6374"
    },
    {
      "constant": false,
      "inputs": [
        {
          "name": "holder",
          "type": "address"
        },
        {
          "name": "value",
          "type": "uint256"
        },
        {
          "name": "r",
          "type": "bytes32"
        },
        {
          "name": "s",
          "type": "bytes32"
        },
        {
          "name": "v",
          "type": "uint8"
        }
      ],
      "name": "withdraw",
      "outputs": [
        {
          "name": "",
          "type": "bool"
        }
      ],
      "payable": false,
      "stateMutability": "nonpayable",
      "type": "function",
      "signature": "0x197917e7"
    },
    {
      "constant": false,
      "inputs": [
        {
          "name": "holder",
          "type": "address"
        },
        {
          "name": "to",
          "type": "address"
        },
        {
          "name": "value",
          "type": "uint256"
        },
        {
          "name": "r",
          "type": "bytes32"
        },
        {
          "name": "s",
          "type": "bytes32"
        },
        {
          "name": "v",
          "type": "uint8"
        }
      ],
      "name": "transact",
      "outputs": [
        {
          "name": "",
          "type": "bool"
        }
      ],
      "payable": false,
      "stateMutability": "nonpayable",
      "type": "function",
      "signature": "0xd16bc20e"
    },
    {
      "constant": true,
      "inputs": [],
      "name": "checkProfits",
      "outputs": [
        {
          "name": "",
          "type": "uint256"
        }
      ],
      "payable": false,
      "stateMutability": "view",
      "type": "function",
      "signature": "0xd7a8e87b"
    },
    {
      "constant": false,
      "inputs": [],
      "name": "spitProfits",
      "outputs": [
        {
          "name": "",
          "type": "bool"
        }
      ],
      "payable": false,
      "stateMutability": "nonpayable",
      "type": "function",
      "signature": "0x890268f8"
    }
  ],
  "bytecode": "0x608060405234801561001057600080fd5b5033600560006101000a81548173ffffffffffffffffffffffffffffffffffffffff021916908373ffffffffffffffffffffffffffffffffffffffff160217905550611ede806100616000396000f3fe608060405260043610610112576000357c0100000000000000000000000000000000000000000000000000000000900463ffffffff16806306fdde03146101c5578063095ea7b3146101f057806318160ddd1461022d578063197917e71461025857806323b872dd1461029557806327e235e3146102d2578063313ce5671461030f57806354fd4d501461033a5780635c6581651461036557806370a08231146103a2578063795e617e146103df578063890268f81461040857806395d89b4114610433578063a9059cbb1461045e578063d16bc20e1461049b578063d7a8e87b146104d8578063dd62ed3e14610503578063e8a667de14610540578063e99f63741461056b578063f851a440146105a8575b34801561011e57600080fd5b506000600460009054906101000a900473ffffffffffffffffffffffffffffffffffffffff1673ffffffffffffffffffffffffffffffffffffffff16600036604051808383808284378083019250505092505050600060405180830381855af49150503d80600081146101ad576040519150601f19603f3d011682016040523d82523d6000602084013e6101b2565b606091505b505090508015156101c257600080fd5b50005b3480156101d157600080fd5b506101da6105d3565b6040516101e79190611cbf565b60405180910390f35b3480156101fc57600080fd5b506102176004803603610212919081019061193c565b61060c565b6040516102249190611ca4565b60405180910390f35b34801561023957600080fd5b506102426106fe565b60405161024f9190611d81565b60405180910390f35b34801561026457600080fd5b5061027f600480360361027a9190810190611978565b610704565b60405161028c9190611ca4565b60405180910390f35b3480156102a157600080fd5b506102bc60048036036102b79190810190611864565b61077b565b6040516102c99190611ca4565b60405180910390f35b3480156102de57600080fd5b506102f960048036036102f491908101906117ff565b610a15565b6040516103069190611d81565b60405180910390f35b34801561031b57600080fd5b50610324610a2d565b6040516103319190611d9c565b60405180910390f35b34801561034657600080fd5b5061034f610a32565b60405161035c9190611cbf565b60405180910390f35b34801561037157600080fd5b5061038c60048036036103879190810190611828565b610a6b565b6040516103999190611d81565b60405180910390f35b3480156103ae57600080fd5b506103c960048036036103c491908101906117ff565b610a90565b6040516103d69190611d81565b60405180910390f35b3480156103eb57600080fd5b50610406600480360361040191908101906117ff565b610ad9565b005b34801561041457600080fd5b5061041d610c41565b60405161042a9190611ca4565b60405180910390f35b34801561043f57600080fd5b50610448610ea7565b6040516104559190611cbf565b60405180910390f35b34801561046a57600080fd5b506104856004803603610480919081019061193c565b610ee0565b6040516104929190611ca4565b60405180910390f35b3480156104a757600080fd5b506104c260048036036104bd91908101906118b3565b611039565b6040516104cf9190611ca4565b60405180910390f35b3480156104e457600080fd5b506104ed61124e565b6040516104fa9190611d81565b60405180910390f35b34801561050f57600080fd5b5061052a60048036036105259190810190611828565b6114b4565b6040516105379190611d81565b60405180910390f35b34801561054c57600080fd5b5061055561153b565b6040516105629190611bd5565b60405180910390f35b34801561057757600080fd5b50610592600480360361058d9190810190611978565b611561565b60405161059f9190611ca4565b60405180910390f35b3480156105b457600080fd5b506105bd6115d8565b6040516105ca9190611bd5565b60405180910390f35b6040805190810160405280600b81526020017f506f75636820546f6b656e00000000000000000000000000000000000000000081525081565b600081600360003373ffffffffffffffffffffffffffffffffffffffff1673ffffffffffffffffffffffffffffffffffffffff16815260200190815260200160002060008573ffffffffffffffffffffffffffffffffffffffff1673ffffffffffffffffffffffffffffffffffffffff168152602001908152602001600020819055508273ffffffffffffffffffffffffffffffffffffffff163373ffffffffffffffffffffffffffffffffffffffff167f8c5be1e5ebec7d5bd14f71427d1e84f3dd0314c0f7b2291e5b200ac8c7c3b925846040516106ec9190611d81565b60405180910390a36001905092915050565b60015481565b60006107708686868686606060405190810160405280602f81526020017f776974686472617728616464726573732c75696e743235362c6279746573333281526020017f2c627974657333322c75696e74382900000000000000000000000000000000008152506115fe565b905095945050505050565b600080600360008673ffffffffffffffffffffffffffffffffffffffff1673ffffffffffffffffffffffffffffffffffffffff16815260200190815260200160002060003373ffffffffffffffffffffffffffffffffffffffff1673ffffffffffffffffffffffffffffffffffffffff16815260200190815260200160002054905082600260008773ffffffffffffffffffffffffffffffffffffffff1673ffffffffffffffffffffffffffffffffffffffff168152602001908152602001600020541015801561084c5750828110155b151561085757600080fd5b82600260008673ffffffffffffffffffffffffffffffffffffffff1673ffffffffffffffffffffffffffffffffffffffff1681526020019081526020016000206000828254019250508190555082600260008773ffffffffffffffffffffffffffffffffffffffff1673ffffffffffffffffffffffffffffffffffffffff168152602001908152602001600020600082825403925050819055507fffffffffffffffffffffffffffffffffffffffffffffffffffffffffffffffff8110156109a45782600360008773ffffffffffffffffffffffffffffffffffffffff1673ffffffffffffffffffffffffffffffffffffffff16815260200190815260200160002060003373ffffffffffffffffffffffffffffffffffffffff1673ffffffffffffffffffffffffffffffffffffffff168152602001908152602001600020600082825403925050819055505b8373ffffffffffffffffffffffffffffffffffffffff168573ffffffffffffffffffffffffffffffffffffffff167fddf252ad1be2c89b69c2b068fc378daa952ba7f163c4a11628f55a4df523b3ef85604051610a019190611d81565b60405180910390a360019150509392505050565b60026020528060005260406000206000915090505481565b601281565b6040805190810160405280600181526020017f310000000000000000000000000000000000000000000000000000000000000081525081565b6003602052816000526040600020602052806000526040600020600091509150505481565b6000600260008373ffffffffffffffffffffffffffffffffffffffff1673ffffffffffffffffffffffffffffffffffffffff168152602001908152602001600020549050919050565b600560009054906101000a900473ffffffffffffffffffffffffffffffffffffffff1673ffffffffffffffffffffffffffffffffffffffff163373ffffffffffffffffffffffffffffffffffffffff16141515610b6b576040517f08c379a0000000000000000000000000000000000000000000000000000000008152600401610b6290611ce1565b60405180910390fd5b600560009054906101000a900473ffffffffffffffffffffffffffffffffffffffff1673ffffffffffffffffffffffffffffffffffffffff163373ffffffffffffffffffffffffffffffffffffffff16141515610bfd576040517f08c379a0000000000000000000000000000000000000000000000000000000008152600401610bf490611d21565b60405180910390fd5b80600460006101000a81548173ffffffffffffffffffffffffffffffffffffffff021916908373ffffffffffffffffffffffffffffffffffffffff16021790555050565b6000600560009054906101000a900473ffffffffffffffffffffffffffffffffffffffff1673ffffffffffffffffffffffffffffffffffffffff163373ffffffffffffffffffffffffffffffffffffffff16141515610cd5576040517f08c379a0000000000000000000000000000000000000000000000000000000008152600401610ccc90611ce1565b60405180910390fd5b60006060600460009054906101000a900473ffffffffffffffffffffffffffffffffffffffff1673ffffffffffffffffffffffffffffffffffffffff1660405180807f7370697450726f66697473282900000000000000000000000000000000000000815250600d0190506040518091039020604051602401604051602081830303815290604052907bffffffffffffffffffffffffffffffffffffffffffffffffffffffff19166020820180517bffffffffffffffffffffffffffffffffffffffffffffffffffffffff83818316178352505050506040518082805190602001908083835b602083101515610de05780518252602082019150602081019050602083039250610dbb565b6001836020036101000a038019825116818451168082178552505050505050905001915050600060405180830381855af49150503d8060008114610e40576040519150601f19603f3d011682016040523d82523d6000602084013e610e45565b606091505b5091509150811515610e8c576040517f08c379a0000000000000000000000000000000000000000000000000000000008152600401610e8390611d61565b60405180910390fd5b80806020019051610ea091908101906119ef565b9250505090565b6040805190810160405280600381526020017f504348000000000000000000000000000000000000000000000000000000000081525081565b600081600260003373ffffffffffffffffffffffffffffffffffffffff1673ffffffffffffffffffffffffffffffffffffffff1681526020019081526020016000205410151515610f3057600080fd5b81600260003373ffffffffffffffffffffffffffffffffffffffff1673ffffffffffffffffffffffffffffffffffffffff1681526020019081526020016000206000828254039250508190555081600260008573ffffffffffffffffffffffffffffffffffffffff1673ffffffffffffffffffffffffffffffffffffffff168152602001908152602001600020600082825401925050819055508273ffffffffffffffffffffffffffffffffffffffff163373ffffffffffffffffffffffffffffffffffffffff167fddf252ad1be2c89b69c2b068fc378daa952ba7f163c4a11628f55a4df523b3ef846040516110279190611d81565b60405180910390a36001905092915050565b6000806060600460009054906101000a900473ffffffffffffffffffffffffffffffffffffffff1673ffffffffffffffffffffffffffffffffffffffff1660405180807f7472616e7361637428616464726573732c616464726573732c75696e7432353681526020017f2c627974657333322c627974657333322c75696e743829000000000000000000815250603701905060405180910390208a8a8a8a8a8a6040516024016110ee96959493929190611bf0565b604051602081830303815290604052907bffffffffffffffffffffffffffffffffffffffffffffffffffffffff19166020820180517bffffffffffffffffffffffffffffffffffffffffffffffffffffffff83818316178352505050506040518082805190602001908083835b602083101515611180578051825260208201915060208101905060208303925061115b565b6001836020036101000a038019825116818451168082178552505050505050905001915050600060405180830381855af49150503d80600081146111e0576040519150601f19603f3d011682016040523d82523d6000602084013e6111e5565b606091505b509150915081151561122c576040517f08c379a000000000000000000000000000000000000000000000000000000000815260040161122390611d01565b60405180910390fd5b8080602001905161124091908101906119ef565b925050509695505050505050565b6000600560009054906101000a900473ffffffffffffffffffffffffffffffffffffffff1673ffffffffffffffffffffffffffffffffffffffff163373ffffffffffffffffffffffffffffffffffffffff161415156112e2576040517f08c379a00000000000000000000000000000000000000000000000000000000081526004016112d990611ce1565b60405180910390fd5b60006060600460009054906101000a900473ffffffffffffffffffffffffffffffffffffffff1673ffffffffffffffffffffffffffffffffffffffff1660405180807f636865636b50726f666974732829000000000000000000000000000000000000815250600e0190506040518091039020604051602401604051602081830303815290604052907bffffffffffffffffffffffffffffffffffffffffffffffffffffffff19166020820180517bffffffffffffffffffffffffffffffffffffffffffffffffffffffff83818316178352505050506040518082805190602001908083835b6020831015156113ed57805182526020820191506020810190506020830392506113c8565b6001836020036101000a038019825116818451168082178552505050505050905001915050600060405180830381855afa9150503d806000811461144d576040519150601f19603f3d011682016040523d82523d6000602084013e611452565b606091505b5091509150811515611499576040517f08c379a000000000000000000000000000000000000000000000000000000000815260040161149090611d41565b60405180910390fd5b808060200190516114ad9190810190611a18565b9250505090565b6000600360008473ffffffffffffffffffffffffffffffffffffffff1673ffffffffffffffffffffffffffffffffffffffff16815260200190815260200160002060008373ffffffffffffffffffffffffffffffffffffffff1673ffffffffffffffffffffffffffffffffffffffff16815260200190815260200160002054905092915050565b600460009054906101000a900473ffffffffffffffffffffffffffffffffffffffff1681565b60006115cd8686868686606060405190810160405280602e81526020017f6465706f73697428616464726573732c75696e743235362c627974657333322c81526020017f627974657333322c75696e7438290000000000000000000000000000000000008152506115fe565b905095945050505050565b600560009054906101000a900473ffffffffffffffffffffffffffffffffffffffff1681565b6000806060600460009054906101000a900473ffffffffffffffffffffffffffffffffffffffff1673ffffffffffffffffffffffffffffffffffffffff1684805190602001208a8a8a8a8a60405160240161165d959493929190611c51565b604051602081830303815290604052907bffffffffffffffffffffffffffffffffffffffffffffffffffffffff19166020820180517bffffffffffffffffffffffffffffffffffffffffffffffffffffffff83818316178352505050506040518082805190602001908083835b6020831015156116ef57805182526020820191506020810190506020830392506116ca565b6001836020036101000a038019825116818451168082178552505050505050905001915050600060405180830381855af49150503d806000811461174f576040519150601f19603f3d011682016040523d82523d6000602084013e611754565b606091505b509150915081151561176557600080fd5b8080602001905161177991908101906119ef565b925050509695505050505050565b60006117938235611e21565b905092915050565b60006117a78251611e33565b905092915050565b60006117bb8235611e3f565b905092915050565b60006117cf8235611e49565b905092915050565b60006117e38251611e49565b905092915050565b60006117f78235611e53565b905092915050565b60006020828403121561181157600080fd5b600061181f84828501611787565b91505092915050565b6000806040838503121561183b57600080fd5b600061184985828601611787565b925050602061185a85828601611787565b9150509250929050565b60008060006060848603121561187957600080fd5b600061188786828701611787565b935050602061189886828701611787565b92505060406118a9868287016117c3565b9150509250925092565b60008060008060008060c087890312156118cc57600080fd5b60006118da89828a01611787565b96505060206118eb89828a01611787565b95505060406118fc89828a016117c3565b945050606061190d89828a016117af565b935050608061191e89828a016117af565b92505060a061192f89828a016117eb565b9150509295509295509295565b6000806040838503121561194f57600080fd5b600061195d85828601611787565b925050602061196e858286016117c3565b9150509250929050565b600080600080600060a0868803121561199057600080fd5b600061199e88828901611787565b95505060206119af888289016117c3565b94505060406119c0888289016117af565b93505060606119d1888289016117af565b92505060806119e2888289016117eb565b9150509295509295909350565b600060208284031215611a0157600080fd5b6000611a0f8482850161179b565b91505092915050565b600060208284031215611a2a57600080fd5b6000611a38848285016117d7565b91505092915050565b611a4a81611dc2565b82525050565b611a5981611dd4565b82525050565b611a6881611de0565b82525050565b6000611a7982611db7565b808452611a8d816020860160208601611e60565b611a9681611e93565b602085010191505092915050565b6000601f82527f526573747269637465642041636365737320746f2041646d696e204f6e6c79006020830152604082019050919050565b6000601882527f5472616e736163742064656c6567617465206661696c656400000000000000006020830152604082019050919050565b6000600a82527f41646d696e204f6e6c79000000000000000000000000000000000000000000006020830152604082019050919050565b6000601c82527f636865636b50726f666974732064656c6567617465206661696c6564000000006020830152604082019050919050565b6000601c82527f73706c697450726f666974732064656c6567617465206661696c6564000000006020830152604082019050919050565b611bc081611e0a565b82525050565b611bcf81611e14565b82525050565b6000602082019050611bea6000830184611a41565b92915050565b600060c082019050611c056000830189611a41565b611c126020830188611a41565b611c1f6040830187611bb7565b611c2c6060830186611a5f565b611c396080830185611a5f565b611c4660a0830184611bc6565b979650505050505050565b600060a082019050611c666000830188611a41565b611c736020830187611bb7565b611c806040830186611a5f565b611c8d6060830185611a5f565b611c9a6080830184611bc6565b9695505050505050565b6000602082019050611cb96000830184611a50565b92915050565b60006020820190508181036000830152611cd98184611a6e565b905092915050565b60006020820190508181036000830152611cfa81611aa4565b9050919050565b60006020820190508181036000830152611d1a81611adb565b9050919050565b60006020820190508181036000830152611d3a81611b12565b9050919050565b60006020820190508181036000830152611d5a81611b49565b9050919050565b60006020820190508181036000830152611d7a81611b80565b9050919050565b6000602082019050611d966000830184611bb7565b92915050565b6000602082019050611db16000830184611bc6565b92915050565b600081519050919050565b6000611dcd82611dea565b9050919050565b60008115159050919050565b6000819050919050565b600073ffffffffffffffffffffffffffffffffffffffff82169050919050565b6000819050919050565b600060ff82169050919050565b6000611e2c82611dea565b9050919050565b60008115159050919050565b6000819050919050565b6000819050919050565b600060ff82169050919050565b60005b83811015611e7e578082015181840152602081019050611e63565b83811115611e8d576000848401525b50505050565b6000601f19601f830116905091905056fea265627a7a723058208722ef625682532bbdcfe38191df789eed3ce281f788371514f9a91cd8587dea6c6578706572696d656e74616cf50037",
  "source": "pragma solidity >=0.5.0;\npragma experimental ABIEncoderV2;\n\nimport \"./PouchToken.sol\";\n\n//  ** Inheritance of Pouch Token to Make Delegate Calls to implementation Contract. **\n\ncontract PouchDelegate is PouchToken {\n    address public admin;\n    constructor() public {\n        // DOMAIN_SEPARATOR = keccak256(\n        //     abi.encode(\n        //         keccak256(\n        //             \"EIP712Domain(string name,string version,uint256 chainId,address verifyingContract)\"\n        //         ),\n        //         keccak256(bytes(\"Pouch\")),\n        //         keccak256(bytes(\"1\")),\n        //         _chainId,\n        //         address(this)\n        //     )\n        // );\n        admin = msg.sender;\n    }\n\n    // ** Internal Functions **\n\n    modifier adminOnly() {\n        require(msg.sender == admin, \"Restricted Access to Admin Only\");\n        _;\n    }\n\n    // ** Update Implementation Address **\n    function updateLogic(address _newImplemenationAddress) external adminOnly {\n        require(msg.sender == admin, \"Admin Only\");\n        ImplementationAddress = _newImplemenationAddress;\n    }\n\n    // ** Delegate Calls **\n\n    // Internal Delegate Function **\n    function _ImplementDelegationCore(\n        address _holder,\n        uint256 _value,\n        bytes32 _r,\n        bytes32 _s,\n        uint8 _v,\n        bytes memory logic\n    ) internal returns (bool) {\n        (bool status, bytes memory returnedData) = ImplementationAddress\n            .delegatecall(\n            abi.encodeWithSelector(\n                bytes4(keccak256(logic)),\n                _holder,\n                _value,\n                _r,\n                _s,\n                _v\n            )\n        );\n        require(status);\n        return abi.decode(returnedData, (bool));\n    }\n\n    function deposit(\n        address holder,\n        uint256 value,\n        bytes32 r,\n        bytes32 s,\n        uint8 v\n    ) public returns (bool) {\n        return\n            _ImplementDelegationCore(\n                holder,\n                value,\n                r,\n                s,\n                v,\n                \"deposit(address,uint256,bytes32,bytes32,uint8)\"\n            );\n    }\n\n    function withdraw(\n        address holder,\n        uint256 value,\n        bytes32 r,\n        bytes32 s,\n        uint8 v\n    ) public returns (bool) {\n        return\n            _ImplementDelegationCore(\n                holder,\n                value,\n                r,\n                s,\n                v,\n                \"withdraw(address,uint256,bytes32,bytes32,uint8)\"\n            );\n    }\n\n    function transact(\n        address holder,\n        address to,\n        uint256 value,\n        bytes32 r,\n        bytes32 s,\n        uint8 v\n    ) public returns (bool) {\n        (bool status, bytes memory returnedData) = ImplementationAddress\n            .delegatecall(\n            abi.encodeWithSelector(\n                bytes4(\n                    keccak256(\n                        \"transact(address,address,uint256,bytes32,bytes32,uint8)\"\n                    )\n                ),\n                holder,\n                to,\n                value,\n                r,\n                s,\n                v\n            )\n        );\n        require(status, \"Transact delegate failed\");\n        return abi.decode(returnedData, (bool));\n    }\n\n    function checkProfits() public view adminOnly returns (uint256) {\n        (bool status, bytes memory returnedData) = ImplementationAddress\n            .staticcall(\n            abi.encodeWithSelector(bytes4(keccak256(\"checkProfits()\")))\n        );\n        require(status, \"checkProfits delegate failed\");\n        return abi.decode(returnedData, (uint256));\n    }\n\n    function spitProfits() public adminOnly returns (bool) {\n        (bool status, bytes memory returnedData) = ImplementationAddress\n            .delegatecall(\n            abi.encodeWithSelector(bytes4(keccak256(\"spitProfits()\")))\n        );\n        require(status, \"splitProfits delegate failed\");\n        return abi.decode(returnedData, (bool));\n    }\n\n    /**\n     * @notice Delegates execution to an implementation contract\n     * @dev It returns to the external caller whatever the implementation returns or forwards reverts\n     */\n    function() external {\n        // delegate all other functions to current implementation\n        (bool status, ) = ImplementationAddress.delegatecall(msg.data);\n        require(status);\n\n    }\n\n}\n",
  "sourcePath": "/home/roheat/blockchain/projects/biconomy/boundless/contracts/PouchDelegate.sol",
  "compiler": {
    "name": "solc",
    "version": "0.5.0+commit.1d4f565a.Emscripten.clang"
  },
  "schemaVersion": "3.0.1",
  "updatedAt": "2020-02-17T21:44:57.558Z",
  "devdoc": {
    "methods": {}
  },
  "userdoc": {
    "methods": {}
  }
}