{
  "contractName": "Pouch",
  "abi": [
    {
      "constant": true,
      "inputs": [],
      "name": "TRANSACT_TYPEHASH",
      "outputs": [
        {
          "name": "",
          "type": "bytes32"
        }
      ],
      "payable": false,
      "stateMutability": "view",
      "type": "function",
      "signature": "0x0df73116"
    },
    {
      "constant": true,
      "inputs": [],
      "name": "totalSupply",
      "outputs": [
        {
          "name": "",
          "type": "uint256"
        }
      ],
      "payable": false,
      "stateMutability": "view",
      "type": "function",
      "signature": "0x18160ddd"
    },
    {
      "constant": true,
      "inputs": [
        {
          "name": "",
          "type": "address"
        }
      ],
      "name": "balances",
      "outputs": [
        {
          "name": "",
          "type": "uint256"
        }
      ],
      "payable": false,
      "stateMutability": "view",
      "type": "function",
      "signature": "0x27e235e3"
    },
    {
      "constant": true,
      "inputs": [],
      "name": "PERMIT_TYPEHASH",
      "outputs": [
        {
          "name": "",
          "type": "bytes32"
        }
      ],
      "payable": false,
      "stateMutability": "view",
      "type": "function",
      "signature": "0x30adf81f"
    },
    {
      "constant": true,
      "inputs": [],
      "name": "DOMAIN_SEPARATOR",
      "outputs": [
        {
          "name": "",
          "type": "bytes32"
        }
      ],
      "payable": false,
      "stateMutability": "view",
      "type": "function",
      "signature": "0x3644e515"
    },
    {
      "constant": true,
      "inputs": [],
      "name": "DEPOSIT_TYPEHASH",
      "outputs": [
        {
          "name": "",
          "type": "bytes32"
        }
      ],
      "payable": false,
      "stateMutability": "view",
      "type": "function",
      "signature": "0x48825e94"
    },
    {
      "constant": true,
      "inputs": [
        {
          "name": "",
          "type": "address"
        },
        {
          "name": "",
          "type": "address"
        }
      ],
      "name": "allowed",
      "outputs": [
        {
          "name": "",
          "type": "uint256"
        }
      ],
      "payable": false,
      "stateMutability": "view",
      "type": "function",
      "signature": "0x5c658165"
    },
    {
      "constant": true,
      "inputs": [],
      "name": "WITHDRAW_TYPEHASH",
      "outputs": [
        {
          "name": "",
          "type": "bytes32"
        }
      ],
      "payable": false,
      "stateMutability": "view",
      "type": "function",
      "signature": "0x76c5d758"
    },
    {
      "constant": true,
      "inputs": [
        {
          "name": "",
          "type": "address"
        }
      ],
      "name": "nonces",
      "outputs": [
        {
          "name": "",
          "type": "uint256"
        }
      ],
      "payable": false,
      "stateMutability": "view",
      "type": "function",
      "signature": "0x7ecebe00"
    },
    {
      "constant": true,
      "inputs": [],
      "name": "ImplementationAddress",
      "outputs": [
        {
          "name": "",
          "type": "address"
        }
      ],
      "payable": false,
      "stateMutability": "view",
      "type": "function",
      "signature": "0xe8a667de"
    },
    {
      "constant": true,
      "inputs": [],
      "name": "admin",
      "outputs": [
        {
          "name": "",
          "type": "address"
        }
      ],
      "payable": false,
      "stateMutability": "view",
      "type": "function",
      "signature": "0xf851a440"
    },
    {
      "inputs": [
        {
          "name": "tokenAddress",
          "type": "address"
        }
      ],
      "payable": false,
      "stateMutability": "nonpayable",
      "type": "constructor",
      "signature": "constructor"
    },
    {
      "anonymous": false,
      "inputs": [
        {
          "indexed": true,
          "name": "_from",
          "type": "address"
        },
        {
          "indexed": true,
          "name": "_to",
          "type": "address"
        },
        {
          "indexed": false,
          "name": "_value",
          "type": "uint256"
        }
      ],
      "name": "Transfer",
      "type": "event",
      "signature": "0xddf252ad1be2c89b69c2b068fc378daa952ba7f163c4a11628f55a4df523b3ef"
    },
    {
      "constant": false,
      "inputs": [
        {
          "name": "holder",
          "type": "address"
        },
        {
          "name": "value",
          "type": "uint256"
        },
        {
          "name": "r",
          "type": "bytes32"
        },
        {
          "name": "s",
          "type": "bytes32"
        },
        {
          "name": "v",
          "type": "uint8"
        }
      ],
      "name": "deposit",
      "outputs": [
        {
          "name": "",
          "type": "bool"
        }
      ],
      "payable": false,
      "stateMutability": "nonpayable",
      "type": "function",
      "signature": "0xe99f6374"
    },
    {
      "constant": false,
      "inputs": [
        {
          "name": "holder",
          "type": "address"
        },
        {
          "name": "value",
          "type": "uint256"
        },
        {
          "name": "r",
          "type": "bytes32"
        },
        {
          "name": "s",
          "type": "bytes32"
        },
        {
          "name": "v",
          "type": "uint8"
        }
      ],
      "name": "withdraw",
      "outputs": [
        {
          "name": "",
          "type": "bool"
        }
      ],
      "payable": false,
      "stateMutability": "nonpayable",
      "type": "function",
      "signature": "0x197917e7"
    },
    {
      "constant": false,
      "inputs": [
        {
          "name": "_from",
          "type": "address"
        },
        {
          "name": "_to",
          "type": "address"
        },
        {
          "name": "_value",
          "type": "uint256"
        },
        {
          "name": "r",
          "type": "bytes32"
        },
        {
          "name": "s",
          "type": "bytes32"
        },
        {
          "name": "v",
          "type": "uint8"
        }
      ],
      "name": "transact",
      "outputs": [
        {
          "name": "",
          "type": "bool"
        }
      ],
      "payable": false,
      "stateMutability": "nonpayable",
      "type": "function",
      "signature": "0xd16bc20e"
    }
  ],
  "bytecode": "0x6080604052734f96fe3b7a6cf9725f59d353f723c1bdb64ca6aa600760006101000a81548173ffffffffffffffffffffffffffffffffffffffff021916908373ffffffffffffffffffffffffffffffffffffffff16021790555073e7bc397dbd069fc7d0109c0636d06888bb50668c600860006101000a81548173ffffffffffffffffffffffffffffffffffffffff021916908373ffffffffffffffffffffffffffffffffffffffff16021790555073b5cea18db04008a4d68444a298dbdd2d0e442e3d600960006101000a81548173ffffffffffffffffffffffffffffffffffffffff021916908373ffffffffffffffffffffffffffffffffffffffff160217905550600760009054906101000a900473ffffffffffffffffffffffffffffffffffffffff16600a60006101000a81548173ffffffffffffffffffffffffffffffffffffffff021916908373ffffffffffffffffffffffffffffffffffffffff160217905550600860009054906101000a900473ffffffffffffffffffffffffffffffffffffffff16600b60006101000a81548173ffffffffffffffffffffffffffffffffffffffff021916908373ffffffffffffffffffffffffffffffffffffffff160217905550600960009054906101000a900473ffffffffffffffffffffffffffffffffffffffff16600c60006101000a81548173ffffffffffffffffffffffffffffffffffffffff021916908373ffffffffffffffffffffffffffffffffffffffff1602179055503480156200023957600080fd5b5060405160208062001fe183398101806040526200025b9190810190620003dc565b60405180807f454950373132446f6d61696e28737472696e67206e616d652c737472696e672081526020017f76657273696f6e2c75696e7432353620636861696e49642c616464726573732081526020017f766572696679696e67436f6e74726163742900000000000000000000000000008152506052019050604051809103902060405180807f506f7563680000000000000000000000000000000000000000000000000000008152506005019050604051809103902060405180807f310000000000000000000000000000000000000000000000000000000000000081525060010190506040518091039020602a84604051602001620003629594939291906200043b565b6040516020818303038152906040528051906020012060058190555080600460006101000a81548173ffffffffffffffffffffffffffffffffffffffff021916908373ffffffffffffffffffffffffffffffffffffffff160217905550506200050b565b6000620003d48251620004e3565b905092915050565b600060208284031215620003ef57600080fd5b6000620003ff84828501620003c6565b91505092915050565b620004138162000498565b82525050565b6200042481620004ac565b82525050565b6200043581620004f7565b82525050565b600060a08201905062000452600083018862000419565b62000461602083018762000419565b62000470604083018662000419565b6200047f60608301856200042a565b6200048e608083018462000408565b9695505050505050565b6000620004a582620004b6565b9050919050565b6000819050919050565b600073ffffffffffffffffffffffffffffffffffffffff82169050919050565b600060ff82169050919050565b6000620004f082620004b6565b9050919050565b60006200050482620004d6565b9050919050565b611ac6806200051b6000396000f3fe6080604052600436106100d0576000357c0100000000000000000000000000000000000000000000000000000000900463ffffffff1680630df73116146100d557806318160ddd14610100578063197917e71461012b57806327e235e31461016857806330adf81f146101a55780633644e515146101d057806348825e94146101fb5780635c6581651461022657806376c5d758146102635780637ecebe001461028e578063d16bc20e146102cb578063e8a667de14610308578063e99f637414610333578063f851a44014610370575b600080fd5b3480156100e157600080fd5b506100ea61039b565b6040516100f791906118e9565b60405180910390f35b34801561010c57600080fd5b506101156103fa565b60405161012291906119e0565b60405180910390f35b34801561013757600080fd5b50610152600480360361014d91908101906116a9565b610400565b60405161015f91906118ce565b60405180910390f35b34801561017457600080fd5b5061018f600480360361018a91908101906115bb565b61086f565b60405161019c91906119e0565b60405180910390f35b3480156101b157600080fd5b506101ba610887565b6040516101c791906118e9565b60405180910390f35b3480156101dc57600080fd5b506101e561090c565b6040516101f291906118e9565b60405180910390f35b34801561020757600080fd5b50610210610912565b60405161021d91906118e9565b60405180910390f35b34801561023257600080fd5b5061024d600480360361024891908101906115e4565b610971565b60405161025a91906119e0565b60405180910390f35b34801561026f57600080fd5b50610278610996565b60405161028591906118e9565b60405180910390f35b34801561029a57600080fd5b506102b560048036036102b091908101906115bb565b6109f5565b6040516102c291906119e0565b60405180910390f35b3480156102d757600080fd5b506102f260048036036102ed9190810190611620565b610a0d565b6040516102ff91906118ce565b60405180910390f35b34801561031457600080fd5b5061031d610d15565b60405161032a9190611853565b60405180910390f35b34801561033f57600080fd5b5061035a600480360361035591908101906116a9565b610d3b565b60405161036791906118ce565b60405180910390f35b34801561037c57600080fd5b506103856112f5565b6040516103929190611853565b60405180910390f35b60405180807f5472616e736163742861646472657373205f66726f6d2c61646472657373205f81526020017f746f2c75696e74323536205f76616c75652900000000000000000000000000008152506032019050604051809103902081565b60005481565b60008060055460405180807f5769746864726177286164647265737320686f6c6465722c75696e743235362081526020017f76616c756529000000000000000000000000000000000000000000000000000081525060260190506040518091039020888860405160200161047693929190611949565b6040516020818303038152906040528051906020012060405160200180807f190100000000000000000000000000000000000000000000000000000000000081525060020183815260200182815260200192505050604051602081830303815290604052805190602001209050600073ffffffffffffffffffffffffffffffffffffffff168773ffffffffffffffffffffffffffffffffffffffff1614151515610555576040517f08c379a000000000000000000000000000000000000000000000000000000000815260040161054c906119a0565b60405180910390fd5b60018184878760405160008152602001604052604051808581526020018460ff1660ff1681526020018381526020018281526020019450505050506020604051602081039080840390855afa1580156105b2573d6000803e3d6000fd5b5050506020604051035173ffffffffffffffffffffffffffffffffffffffff168773ffffffffffffffffffffffffffffffffffffffff1614151561062b576040517f08c379a0000000000000000000000000000000000000000000000000000000008152600401610622906119c0565b60405180910390fd5b600160008873ffffffffffffffffffffffffffffffffffffffff1673ffffffffffffffffffffffffffffffffffffffff1681526020019081526020016000205486111515156106af576040517f08c379a00000000000000000000000000000000000000000000000000000000081526004016106a690611980565b60405180910390fd5b6106bb8760008861131b565b50856000808282540392505081905550600b60009054906101000a900473ffffffffffffffffffffffffffffffffffffffff1673ffffffffffffffffffffffffffffffffffffffff1663852a12e3876040518263ffffffff167c010000000000000000000000000000000000000000000000000000000002815260040161074291906119e0565b602060405180830381600087803b15801561075c57600080fd5b505af1158015610770573d6000803e3d6000fd5b505050506040513d601f19601f820116820180604052506107949190810190611749565b50600a60009054906101000a900473ffffffffffffffffffffffffffffffffffffffff1673ffffffffffffffffffffffffffffffffffffffff1663a9059cbb88886040518363ffffffff167c010000000000000000000000000000000000000000000000000000000002815260040161080e9291906118a5565b602060405180830381600087803b15801561082857600080fd5b505af115801561083c573d6000803e3d6000fd5b505050506040513d601f19601f820116820180604052506108609190810190611720565b50600191505095945050505050565b60016020528060005260406000206000915090505481565b60405180807f5065726d6974286164647265737320686f6c6465722c6164647265737320737081526020017f656e6465722c75696e74323536206e6f6e63652c75696e74323536206578706981526020017f72792c626f6f6c206973416c6c6f7765642900000000000000000000000000008152506052019050604051809103902081565b60055481565b60405180807f4465706f736974286164647265737320686f6c6465722c75696e74323536207681526020017f616c7565290000000000000000000000000000000000000000000000000000008152506025019050604051809103902081565b6002602052816000526040600020602052806000526040600020600091509150505481565b60405180807f5769746864726177286164647265737320686f6c6465722c75696e743235362081526020017f76616c75652900000000000000000000000000000000000000000000000000008152506026019050604051809103902081565b60066020528060005260406000206000915090505481565b60008060055460405180807f5472616e736163742861646472657373205f66726f6d2c61646472657373205f81526020017f746f2c75696e74323536205f76616c756529000000000000000000000000000081525060320190506040518091039020898989604051602001610a859493929190611904565b6040516020818303038152906040528051906020012060405160200180807f190100000000000000000000000000000000000000000000000000000000000081525060020183815260200182815260200192505050604051602081830303815290604052805190602001209050600073ffffffffffffffffffffffffffffffffffffffff168873ffffffffffffffffffffffffffffffffffffffff1614151515610b64576040517f08c379a0000000000000000000000000000000000000000000000000000000008152600401610b5b906119a0565b60405180910390fd5b60018184878760405160008152602001604052604051808581526020018460ff1660ff1681526020018381526020018281526020019450505050506020604051602081039080840390855afa158015610bc1573d6000803e3d6000fd5b5050506020604051035173ffffffffffffffffffffffffffffffffffffffff168873ffffffffffffffffffffffffffffffffffffffff16141515610c3a576040517f08c379a0000000000000000000000000000000000000000000000000000000008152600401610c31906119c0565b60405180910390fd5b600160008973ffffffffffffffffffffffffffffffffffffffff1673ffffffffffffffffffffffffffffffffffffffff168152602001908152602001600020548611151515610cbe576040517f08c379a0000000000000000000000000000000000000000000000000000000008152600401610cb590611980565b60405180910390fd5b600073ffffffffffffffffffffffffffffffffffffffff168773ffffffffffffffffffffffffffffffffffffffff1614151515610cfa57600080fd5b610d0588888861131b565b5060019150509695505050505050565b600360009054906101000a900473ffffffffffffffffffffffffffffffffffffffff1681565b60008060055460405180807f4465706f736974286164647265737320686f6c6465722c75696e74323536207681526020017f616c756529000000000000000000000000000000000000000000000000000000815250602501905060405180910390208888604051602001610db193929190611949565b6040516020818303038152906040528051906020012060405160200180807f190100000000000000000000000000000000000000000000000000000000000081525060020183815260200182815260200192505050604051602081830303815290604052805190602001209050600073ffffffffffffffffffffffffffffffffffffffff168773ffffffffffffffffffffffffffffffffffffffff1614151515610e90576040517f08c379a0000000000000000000000000000000000000000000000000000000008152600401610e87906119a0565b60405180910390fd5b60018184878760405160008152602001604052604051808581526020018460ff1660ff1681526020018381526020018281526020019450505050506020604051602081039080840390855afa158015610eed573d6000803e3d6000fd5b5050506020604051035173ffffffffffffffffffffffffffffffffffffffff168773ffffffffffffffffffffffffffffffffffffffff16141515610f66576040517f08c379a0000000000000000000000000000000000000000000000000000000008152600401610f5d906119c0565b60405180910390fd5b6000600a60009054906101000a900473ffffffffffffffffffffffffffffffffffffffff1673ffffffffffffffffffffffffffffffffffffffff166370a08231896040518263ffffffff167c0100000000000000000000000000000000000000000000000000000000028152600401610fdf9190611853565b60206040518083038186803b158015610ff757600080fd5b505afa15801561100b573d6000803e3d6000fd5b505050506040513d601f19601f8201168201806040525061102f9190810190611749565b9050868110151515611076576040517f08c379a000000000000000000000000000000000000000000000000000000000815260040161106d90611980565b60405180910390fd5b600a60009054906101000a900473ffffffffffffffffffffffffffffffffffffffff1673ffffffffffffffffffffffffffffffffffffffff166323b872dd89308a6040518463ffffffff167c01000000000000000000000000000000000000000000000000000000000281526004016110f19392919061186e565b602060405180830381600087803b15801561110b57600080fd5b505af115801561111f573d6000803e3d6000fd5b505050506040513d601f19601f820116820180604052506111439190810190611720565b5061114e8888611475565b50600a60009054906101000a900473ffffffffffffffffffffffffffffffffffffffff1673ffffffffffffffffffffffffffffffffffffffff1663095ea7b3600860009054906101000a900473ffffffffffffffffffffffffffffffffffffffff16896040518363ffffffff167c01000000000000000000000000000000000000000000000000000000000281526004016111ea9291906118a5565b600060405180830381600087803b15801561120457600080fd5b505af1158015611218573d6000803e3d6000fd5b50505050600b60009054906101000a900473ffffffffffffffffffffffffffffffffffffffff1673ffffffffffffffffffffffffffffffffffffffff1663a0712d68886040518263ffffffff167c010000000000000000000000000000000000000000000000000000000002815260040161129391906119e0565b602060405180830381600087803b1580156112ad57600080fd5b505af11580156112c1573d6000803e3d6000fd5b505050506040513d601f19601f820116820180604052506112e59190810190611749565b5060019250505095945050505050565b600460009054906101000a900473ffffffffffffffffffffffffffffffffffffffff1681565b600081600160008673ffffffffffffffffffffffffffffffffffffffff1673ffffffffffffffffffffffffffffffffffffffff168152602001908152602001600020541015151561136b57600080fd5b81600160008673ffffffffffffffffffffffffffffffffffffffff1673ffffffffffffffffffffffffffffffffffffffff1681526020019081526020016000206000828254039250508190555081600160008573ffffffffffffffffffffffffffffffffffffffff1673ffffffffffffffffffffffffffffffffffffffff168152602001908152602001600020600082825401925050819055508273ffffffffffffffffffffffffffffffffffffffff168473ffffffffffffffffffffffffffffffffffffffff167fddf252ad1be2c89b69c2b068fc378daa952ba7f163c4a11628f55a4df523b3ef8460405161146291906119e0565b60405180910390a3600190509392505050565b600081600160008573ffffffffffffffffffffffffffffffffffffffff1673ffffffffffffffffffffffffffffffffffffffff168152602001908152602001600020600082825401925050819055508160008082825401925050819055508273ffffffffffffffffffffffffffffffffffffffff16600073ffffffffffffffffffffffffffffffffffffffff167fddf252ad1be2c89b69c2b068fc378daa952ba7f163c4a11628f55a4df523b3ef8460405161153191906119e0565b60405180910390a36001905092915050565b600061154f8235611a4d565b905092915050565b60006115638251611a5f565b905092915050565b60006115778235611a6b565b905092915050565b600061158b8235611a75565b905092915050565b600061159f8251611a75565b905092915050565b60006115b38235611a7f565b905092915050565b6000602082840312156115cd57600080fd5b60006115db84828501611543565b91505092915050565b600080604083850312156115f757600080fd5b600061160585828601611543565b925050602061161685828601611543565b9150509250929050565b60008060008060008060c0878903121561163957600080fd5b600061164789828a01611543565b965050602061165889828a01611543565b955050604061166989828a0161157f565b945050606061167a89828a0161156b565b935050608061168b89828a0161156b565b92505060a061169c89828a016115a7565b9150509295509295509295565b600080600080600060a086880312156116c157600080fd5b60006116cf88828901611543565b95505060206116e08882890161157f565b94505060406116f18882890161156b565b93505060606117028882890161156b565b9250506080611713888289016115a7565b9150509295509295909350565b60006020828403121561173257600080fd5b600061174084828501611557565b91505092915050565b60006020828403121561175b57600080fd5b600061176984828501611593565b91505092915050565b61177b816119fb565b82525050565b61178a81611a0d565b82525050565b61179981611a19565b82525050565b6000601282527f496e73756666696369656e742046756e647300000000000000000000000000006020830152604082019050919050565b6000601782527f506f7563682f696e76616c69642d616464726573732d300000000000000000006020830152604082019050919050565b6000601482527f506f7563682f696e76616c69642d7065726d69740000000000000000000000006020830152604082019050919050565b61184d81611a43565b82525050565b60006020820190506118686000830184611772565b92915050565b60006060820190506118836000830186611772565b6118906020830185611772565b61189d6040830184611844565b949350505050565b60006040820190506118ba6000830185611772565b6118c76020830184611844565b9392505050565b60006020820190506118e36000830184611781565b92915050565b60006020820190506118fe6000830184611790565b92915050565b60006080820190506119196000830187611790565b6119266020830186611772565b6119336040830185611772565b6119406060830184611844565b95945050505050565b600060608201905061195e6000830186611790565b61196b6020830185611772565b6119786040830184611844565b949350505050565b600060208201905081810360008301526119998161179f565b9050919050565b600060208201905081810360008301526119b9816117d6565b9050919050565b600060208201905081810360008301526119d98161180d565b9050919050565b60006020820190506119f56000830184611844565b92915050565b6000611a0682611a23565b9050919050565b60008115159050919050565b6000819050919050565b600073ffffffffffffffffffffffffffffffffffffffff82169050919050565b6000819050919050565b6000611a5882611a23565b9050919050565b60008115159050919050565b6000819050919050565b6000819050919050565b600060ff8216905091905056fea265627a7a723058205bd8404d7b8e125d79bdb43e1be70b6a8f8db46ca81452a71950b5ade0d0e87e6c6578706572696d656e74616cf50037",
  "source": "pragma solidity >=0.5.0;\npragma experimental ABIEncoderV2;\n\nimport \"./interfaces/TokenInterface.sol\";\nimport \"./interfaces/cTokenInterface.sol\";\nimport \"./interfaces/PTokenInterface.sol\";\nimport \"./interfaces/proxyInterface.sol\";\nimport \"./libraries/SafeMath.sol\";\n\ncontract Pouch is proxyInterface {\n    using SafeMath for uint256;\n    \n    uint256 public totalSupply;\n    mapping(address => uint256) public balances;\n    mapping(address => mapping(address => uint256)) public allowed;\n    address public ImplementationAddress;\n    address public admin;\n    bytes32 public DOMAIN_SEPARATOR;\n    bytes32 public constant PERMIT_TYPEHASH = keccak256(\n        \"Permit(address holder,address spender,uint256 nonce,uint256 expiry,bool isAllowed)\"\n    );\n    mapping(address => uint256) public nonces;\n    uint256 private constant MAX_UINT256 = uint256(-1);\n\n    bytes32 public constant DEPOSIT_TYPEHASH = keccak256(\n        \"Deposit(address holder,uint256 value)\"\n    );\n    bytes32 public constant WITHDRAW_TYPEHASH = keccak256(\n        \"Withdraw(address holder,uint256 value)\"\n    );\n    bytes32 public constant TRANSACT_TYPEHASH = keccak256(\n        \"Transact(address _from,address _to,uint256 _value)\"\n    );\n\n    // // // Required Interfaces\n    address daiAddress = 0x4F96Fe3b7A6Cf9725f59d353F723c1bDb64CA6Aa;\n    address cDaiAddress = 0xe7bc397DBd069fC7d0109C0636d06888bb50668c;\n    address pDaiAddress = 0xb5cea18Db04008a4D68444A298DBDD2D0E442E3D;\n\n    TokenInterface daiToken = TokenInterface(daiAddress);\n    cTokenInterface cDai = cTokenInterface(cDaiAddress);\n    PTokenInterface pDaiToken = PTokenInterface(pDaiAddress);\n\n    constructor(address tokenAddress) public {\n        DOMAIN_SEPARATOR = keccak256(\n            abi.encode(\n                keccak256(\n                    \"EIP712Domain(string name,string version,uint256 chainId,address verifyingContract)\"\n                ),\n                keccak256(\"Pouch\"),\n                keccak256(\"1\"),\n                42, // kovan chainId\n                tokenAddress\n            )\n        );\n        admin = tokenAddress;\n    }\n\n    // ** Internal Functions **\n\n    function _mint(address _to, uint256 _value)\n        internal\n        returns (bool success)\n    {\n        balances[_to] += _value;\n        totalSupply += _value;\n        emit Transfer(address(0), _to, _value);\n        return true;\n    }\n\n    function _transfer(address _from, address _to, uint256 _value)\n        internal\n        returns (bool success)\n    {\n        require(balances[_from] >= _value);\n        balances[_from] -= _value;\n        balances[_to] += _value;\n        emit Transfer(_from, _to, _value);\n        return true;\n    }\n\n    \n\n    // ** Deposit DAI **\n    function deposit(\n        address holder,\n        uint256 value,\n        bytes32 r,\n        bytes32 s,\n        uint8 v\n    ) public returns (bool) {\n        bytes32 digest = keccak256(\n            abi.encodePacked(\n                \"\\x19\\x01\",\n                DOMAIN_SEPARATOR,\n                keccak256(abi.encode(DEPOSIT_TYPEHASH, holder, value))\n            )\n        );\n\n        require(holder != address(0), \"Pouch/invalid-address-0\");\n        require(holder == ecrecover(digest, v, r, s), \"Pouch/invalid-permit\");\n\n        // ** Check for sufficient Funds **\n        uint256 userBalance = daiToken.balanceOf(holder);\n        require(userBalance >= value, \"Insufficient Funds\");\n\n        daiToken.transferFrom(holder, address(this), value); // **Transfer User's DAI**\n        _mint(holder, value); // **Mint PCH tokens for the User**\n        daiToken.approve(cDaiAddress, value);\n        cDai.mint(value); // **Mint cDai  **\n        return true;\n    }\n\n    // ** Withdraw DAI**\n    function withdraw(\n        address holder,\n        uint256 value,\n        bytes32 r,\n        bytes32 s,\n        uint8 v\n    ) public returns (bool) {\n        bytes32 digest = keccak256(\n            abi.encodePacked(\n                \"\\x19\\x01\",\n                DOMAIN_SEPARATOR,\n                keccak256(abi.encode(WITHDRAW_TYPEHASH, holder, value))\n            )\n        );\n\n        require(holder != address(0), \"Pouch/invalid-address-0\");\n        require(holder == ecrecover(digest, v, r, s), \"Pouch/invalid-permit\");\n        require(value <= balances[holder], \"Insufficient Funds\");\n\n        //          ** Burn Pouch Token **\n        _transfer(holder, address(0), value);\n        totalSupply -= value;\n\n        //         **  Redeem User's DAI from compound and transfer it to user.**\n        cDai.redeemUnderlying(value);\n        daiToken.transfer(holder, value);\n        return true;\n    }\n\n    //     function getExchangeRate() view public returns (uint) {\n    //         return cDai.exchangeRateCurrent();\n    //     }\n\n    //   function _randomReward() internal view returns (uint) {\n    //         uint randomnumber = uint(keccak256(abi.encodePacked(now, msg.sender,block.number))) % 5;\n    //         return randomnumber.mul(1e10);\n    //     }\n\n    function transact(\n        address _from,\n        address _to,\n        uint256 _value,\n        bytes32 r,\n        bytes32 s,\n        uint8 v\n    ) public returns (bool) {\n        bytes32 digest = keccak256(\n            abi.encodePacked(\n                \"\\x19\\x01\",\n                DOMAIN_SEPARATOR,\n                keccak256(abi.encode(TRANSACT_TYPEHASH, _from, _to, _value))\n            )\n        );\n\n        require(_from != address(0), \"Pouch/invalid-address-0\");\n        require(_from == ecrecover(digest, v, r, s), \"Pouch/invalid-permit\");\n        require(_value <= balances[_from], \"Insufficient Funds\");\n        require(_to != address(0));\n\n        // ** Transfer Funds **\n        _transfer(_from, _to, _value);\n\n        // ** Transfer Rewards,if Any. **\n        // if (value >= 1e18){\n        //     uint profitInDai =  _checkProfits().mul(getExchangeRate());\n        //     uint checkProfitInDai = profitInDai.div(1e18);\n        //     if(checkProfitInDai >= 1e11){\n        //         uint myReward =  _randomReward();\n        //         cDai.redeemUnderlying(myReward);\n        //         daiToken.transfer(msg.sender, myReward);\n\n        //     return true;\n        //     }\n        // }\n        return true;\n    }\n\n    // function _spitProfits() public returns (bool){\n\n    //     uint256 adjustedTotalSupply = totalSupply.mul(1e8);\n    //     uint256 ourContractBalance = cDai.balanceOf(admin);\n    //     uint256 cDaiExchangeRate = cDai.exchangeRateCurrent();\n    //     uint256 cDaiExchangeRateDivided = cDaiExchangeRate.div(1e10);\n\n    //     uint256 currentPrice = adjustedTotalSupply.div(cDaiExchangeRateDivided);\n    //     uint256 profit = ourContractBalance.sub(currentPrice);\n    //     cDai.transfer(msg.sender, profit);\n    //     return true;\n    // }\n\n    // function _checkProfits() public returns (uint256) {\n    //     uint256 adjustedTotalSupply = totalSupply.mul(1e8);\n    //     uint256 ourContractBalance = cDai.balanceOf(admin);\n    //     uint256 cDaiExchangeRate = cDai.exchangeRateCurrent();\n    //     uint256 cDaiExchangeRateDivided = cDaiExchangeRate.div(1e10);\n\n    //     uint256 currentPrice = adjustedTotalSupply.div(cDaiExchangeRateDivided);\n    //     uint256 profit = ourContractBalance.sub(currentPrice);\n    //     return 5;\n    // }\n\n}\n",
  "sourcePath": "/home/roheat/blockchain/projects/biconomy/boundless/contracts/Pouch.sol",
  "compiler": {
    "name": "solc",
    "version": "0.5.0+commit.1d4f565a.Emscripten.clang"
  },
  "schemaVersion": "3.0.1",
  "updatedAt": "2020-02-15T19:21:13.111Z",
  "devdoc": {
    "methods": {}
  },
  "userdoc": {
    "methods": {}
  }
}