{
  "contractName": "Boundless",
  "abi": [
    {
      "constant": true,
      "inputs": [],
      "name": "totalDaiDeposits",
      "outputs": [
        {
          "name": "",
          "type": "uint256"
        }
      ],
      "payable": false,
      "stateMutability": "view",
      "type": "function",
      "signature": "0x1de09fb8"
    },
    {
      "constant": true,
      "inputs": [],
      "name": "checkDaiAllowance",
      "outputs": [
        {
          "name": "",
          "type": "uint256"
        }
      ],
      "payable": false,
      "stateMutability": "view",
      "type": "function",
      "signature": "0x4f1ed5aa"
    },
    {
      "constant": true,
      "inputs": [],
      "name": "userBalance",
      "outputs": [
        {
          "name": "",
          "type": "uint256"
        }
      ],
      "payable": false,
      "stateMutability": "view",
      "type": "function",
      "signature": "0xbf152765"
    },
    {
      "constant": false,
      "inputs": [
        {
          "name": "amount",
          "type": "uint256"
        }
      ],
      "name": "deposit",
      "outputs": [],
      "payable": false,
      "stateMutability": "nonpayable",
      "type": "function",
      "signature": "0xb6b55f25"
    },
    {
      "constant": false,
      "inputs": [
        {
          "name": "recipient",
          "type": "address"
        },
        {
          "name": "amount",
          "type": "uint256"
        }
      ],
      "name": "transact",
      "outputs": [],
      "payable": false,
      "stateMutability": "nonpayable",
      "type": "function",
      "signature": "0xf77ac668"
    },
    {
      "constant": false,
      "inputs": [
        {
          "name": "amount",
          "type": "uint256"
        }
      ],
      "name": "withdraw",
      "outputs": [],
      "payable": false,
      "stateMutability": "nonpayable",
      "type": "function",
      "signature": "0x2e1a7d4d"
    },
    {
      "constant": true,
      "inputs": [],
      "name": "contractBalance",
      "outputs": [
        {
          "name": "",
          "type": "uint256"
        }
      ],
      "payable": false,
      "stateMutability": "view",
      "type": "function",
      "signature": "0x8b7afe2e"
    }
  ],
  "bytecode": "0x608060405273b5e5d0f8c0cba267cd3d7035d6adc8eba7df7cdd600360006101000a81548173ffffffffffffffffffffffffffffffffffffffff021916908373ffffffffffffffffffffffffffffffffffffffff160217905550732b536482a01e620ee111747f8334b395a42a555e600460006101000a81548173ffffffffffffffffffffffffffffffffffffffff021916908373ffffffffffffffffffffffffffffffffffffffff160217905550600460009054906101000a900473ffffffffffffffffffffffffffffffffffffffff16600560006101000a81548173ffffffffffffffffffffffffffffffffffffffff021916908373ffffffffffffffffffffffffffffffffffffffff160217905550600360009054906101000a900473ffffffffffffffffffffffffffffffffffffffff16600660006101000a81548173ffffffffffffffffffffffffffffffffffffffff021916908373ffffffffffffffffffffffffffffffffffffffff16021790555034801561018057600080fd5b50610d55806101906000396000f3fe608060405260043610610083576000357c0100000000000000000000000000000000000000000000000000000000900463ffffffff1680631de09fb8146100885780632e1a7d4d146100b35780634f1ed5aa146100ee5780638b7afe2e14610119578063b6b55f2514610144578063bf1527651461017f578063f77ac668146101aa575b600080fd5b34801561009457600080fd5b5061009d610205565b6040518082815260200191505060405180910390f35b3480156100bf57600080fd5b506100ec600480360360208110156100d657600080fd5b810190808035906020019092919050505061020b565b005b3480156100fa57600080fd5b506101036104e0565b6040518082815260200191505060405180910390f35b34801561012557600080fd5b5061012e610611565b6040518082815260200191505060405180910390f35b34801561015057600080fd5b5061017d6004803603602081101561016757600080fd5b810190808035906020019092919050505061070e565b005b34801561018b57600080fd5b50610194610ac5565b6040518082815260200191505060405180910390f35b3480156101b657600080fd5b50610203600480360360408110156101cd57600080fd5b81019080803573ffffffffffffffffffffffffffffffffffffffff16906020019092919080359060200190929190505050610b0c565b005b60005481565b600260003373ffffffffffffffffffffffffffffffffffffffff1673ffffffffffffffffffffffffffffffffffffffff1681526020019081526020016000205481111515156102c2576040517f08c379a00000000000000000000000000000000000000000000000000000000081526004018080602001828103825260128152602001807f496e73756666696369656e742046756e6473000000000000000000000000000081525060200191505060405180910390fd5b600560009054906101000a900473ffffffffffffffffffffffffffffffffffffffff1673ffffffffffffffffffffffffffffffffffffffff1663852a12e3826040518263ffffffff167c010000000000000000000000000000000000000000000000000000000002815260040180828152602001915050602060405180830381600087803b15801561035357600080fd5b505af1158015610367573d6000803e3d6000fd5b505050506040513d602081101561037d57600080fd5b810190808051906020019092919050505050600660009054906101000a900473ffffffffffffffffffffffffffffffffffffffff1673ffffffffffffffffffffffffffffffffffffffff1663a9059cbb33836040518363ffffffff167c0100000000000000000000000000000000000000000000000000000000028152600401808373ffffffffffffffffffffffffffffffffffffffff1673ffffffffffffffffffffffffffffffffffffffff16815260200182815260200192505050602060405180830381600087803b15801561045457600080fd5b505af1158015610468573d6000803e3d6000fd5b505050506040513d602081101561047e57600080fd5b81019080805190602001909291905050505080600260003373ffffffffffffffffffffffffffffffffffffffff1673ffffffffffffffffffffffffffffffffffffffff1681526020019081526020016000206000828254039250508190555050565b6000600660009054906101000a900473ffffffffffffffffffffffffffffffffffffffff1673ffffffffffffffffffffffffffffffffffffffff1663dd62ed3e33306040518363ffffffff167c0100000000000000000000000000000000000000000000000000000000028152600401808373ffffffffffffffffffffffffffffffffffffffff1673ffffffffffffffffffffffffffffffffffffffff1681526020018273ffffffffffffffffffffffffffffffffffffffff1673ffffffffffffffffffffffffffffffffffffffff1681526020019250505060206040518083038186803b1580156105d157600080fd5b505afa1580156105e5573d6000803e3d6000fd5b505050506040513d60208110156105fb57600080fd5b8101908080519060200190929190505050905090565b6000600560009054906101000a900473ffffffffffffffffffffffffffffffffffffffff1673ffffffffffffffffffffffffffffffffffffffff166370a08231306040518263ffffffff167c0100000000000000000000000000000000000000000000000000000000028152600401808273ffffffffffffffffffffffffffffffffffffffff1673ffffffffffffffffffffffffffffffffffffffff16815260200191505060206040518083038186803b1580156106ce57600080fd5b505afa1580156106e2573d6000803e3d6000fd5b505050506040513d60208110156106f857600080fd5b8101908080519060200190929190505050905090565b600660009054906101000a900473ffffffffffffffffffffffffffffffffffffffff1673ffffffffffffffffffffffffffffffffffffffff166323b872dd3330846040518463ffffffff167c0100000000000000000000000000000000000000000000000000000000028152600401808473ffffffffffffffffffffffffffffffffffffffff1673ffffffffffffffffffffffffffffffffffffffff1681526020018373ffffffffffffffffffffffffffffffffffffffff1673ffffffffffffffffffffffffffffffffffffffff1681526020018281526020019350505050602060405180830381600087803b15801561080757600080fd5b505af115801561081b573d6000803e3d6000fd5b505050506040513d602081101561083157600080fd5b810190808051906020019092919050505050806000808282540192505081905550600660009054906101000a900473ffffffffffffffffffffffffffffffffffffffff1673ffffffffffffffffffffffffffffffffffffffff1663095ea7b3600460009054906101000a900473ffffffffffffffffffffffffffffffffffffffff16836040518363ffffffff167c0100000000000000000000000000000000000000000000000000000000028152600401808373ffffffffffffffffffffffffffffffffffffffff1673ffffffffffffffffffffffffffffffffffffffff16815260200182815260200192505050600060405180830381600087803b15801561093957600080fd5b505af115801561094d573d6000803e3d6000fd5b50505050600560009054906101000a900473ffffffffffffffffffffffffffffffffffffffff1673ffffffffffffffffffffffffffffffffffffffff1663a0712d68826040518263ffffffff167c010000000000000000000000000000000000000000000000000000000002815260040180828152602001915050602060405180830381600087803b1580156109e257600080fd5b505af11580156109f6573d6000803e3d6000fd5b505050506040513d6020811015610a0c57600080fd5b81019080805190602001909291905050505080600260003373ffffffffffffffffffffffffffffffffffffffff1673ffffffffffffffffffffffffffffffffffffffff1681526020019081526020016000206000828254019250508190555060018060003373ffffffffffffffffffffffffffffffffffffffff1673ffffffffffffffffffffffffffffffffffffffff16815260200190815260200160002060006101000a81548160ff02191690831515021790555050565b6000600260003373ffffffffffffffffffffffffffffffffffffffff1673ffffffffffffffffffffffffffffffffffffffff16815260200190815260200160002054905090565b60011515600160003373ffffffffffffffffffffffffffffffffffffffff1673ffffffffffffffffffffffffffffffffffffffff16815260200190815260200160002060009054906101000a900460ff161515141515610bd4576040517f08c379a00000000000000000000000000000000000000000000000000000000081526004018080602001828103825260158152602001807f53656e646572206e6f742072656769737465726564000000000000000000000081525060200191505060405180910390fd5b600260003373ffffffffffffffffffffffffffffffffffffffff1673ffffffffffffffffffffffffffffffffffffffff168152602001908152602001600020548111151515610c8b576040517f08c379a00000000000000000000000000000000000000000000000000000000081526004018080602001828103825260128152602001807f496e73756666696369656e742046756e6473000000000000000000000000000081525060200191505060405180910390fd5b80600260003373ffffffffffffffffffffffffffffffffffffffff1673ffffffffffffffffffffffffffffffffffffffff1681526020019081526020016000206000828254039250508190555080600260008473ffffffffffffffffffffffffffffffffffffffff1673ffffffffffffffffffffffffffffffffffffffff16815260200190815260200160002060008282540192505081905550505056fea165627a7a723058207344ceb0cab8e2d6c466c8cf5ea30f56e25b87d4d1002134fb326a486452a4820029",
  "source": "pragma solidity >=0.5.0;\n\ninterface MintInterface {\n    function mint(uint256) external returns (uint256);\n    function redeemUnderlying(uint256 redeemAmount) external returns (uint256);\n    function balanceOf(address owner) external view returns (uint256);\n}\n\ninterface TokenInterface {\n    function allowance(address, address) external view returns (uint256);\n    function approve(address, uint256) external;\n    function transfer(address, uint256) external returns (bool);\n    function transferFrom(address, address, uint256) external returns (bool);\n}\n\ncontract Boundless {\n    uint256 public totalDaiDeposits;\n    mapping(address => bool) registeredUser;\n    mapping(address => uint256) balances;\n    address daiAddress = 0xB5E5D0F8C0cbA267CD3D7035d6AdC8eBA7Df7Cdd;\n    address cDaiAddress = 0x2B536482a01E620eE111747F8334B395a42A555E;\n\n    MintInterface cDai = MintInterface(cDaiAddress);\n    TokenInterface dai = TokenInterface(daiAddress);\n\n    function checkDaiAllowance() external view returns (uint256) {\n        return dai.allowance(msg.sender, address(this));\n    }\n\n    function userBalance() external view returns (uint256) {\n        return balances[msg.sender];\n    }\n\n    function deposit(uint256 amount) external {\n        dai.transferFrom(msg.sender, address(this), amount);\n        totalDaiDeposits += amount;\n        dai.approve(cDaiAddress, amount);\n        cDai.mint(amount);\n        balances[msg.sender] += amount;\n        registeredUser[msg.sender] = true;\n    }\n\n    function transact(address recipient, uint256 amount) external {\n        require(registeredUser[msg.sender] == true, \"Sender not registered\");\n        require(amount <= balances[msg.sender], \"Insufficient Funds\");\n        balances[msg.sender] -= amount;\n        balances[recipient] += amount;\n    }\n\n    function withdraw(uint256 amount) external {\n        require(amount <= balances[msg.sender], \"Insufficient Funds\");\n        cDai.redeemUnderlying(amount);\n        dai.transfer(msg.sender, amount);\n        balances[msg.sender] -= amount;\n    }\n\n    function contractBalance() external view returns (uint256) {\n        return cDai.balanceOf(address(this));\n    }\n}\n",
  "sourcePath": "/home/roheat/blockchain/projects/biconomy/boundless/contracts/Boundless.sol",
  "compiler": {
    "name": "solc",
    "version": "0.5.0+commit.1d4f565a.Emscripten.clang"
  },
  "schemaVersion": "3.0.1",
  "updatedAt": "2020-02-04T09:19:20.222Z",
  "devdoc": {
    "methods": {}
  },
  "userdoc": {
    "methods": {}
  }
}