{
  "contractName": "Pouch",
  "abi": [
    {
      "constant": true,
      "inputs": [],
      "name": "TRANSACT_TYPEHASH",
      "outputs": [
        {
          "name": "",
          "type": "bytes32"
        }
      ],
      "payable": false,
      "stateMutability": "view",
      "type": "function",
      "signature": "0x0df73116"
    },
    {
      "constant": true,
      "inputs": [],
      "name": "totalSupply",
      "outputs": [
        {
          "name": "",
          "type": "uint256"
        }
      ],
      "payable": false,
      "stateMutability": "view",
      "type": "function",
      "signature": "0x18160ddd"
    },
    {
      "constant": true,
      "inputs": [
        {
          "name": "",
          "type": "address"
        }
      ],
      "name": "balances",
      "outputs": [
        {
          "name": "",
          "type": "uint256"
        }
      ],
      "payable": false,
      "stateMutability": "view",
      "type": "function",
      "signature": "0x27e235e3"
    },
    {
      "constant": true,
      "inputs": [],
      "name": "DOMAIN_SEPARATOR",
      "outputs": [
        {
          "name": "",
          "type": "bytes32"
        }
      ],
      "payable": false,
      "stateMutability": "view",
      "type": "function",
      "signature": "0x3644e515"
    },
    {
      "constant": true,
      "inputs": [],
      "name": "DEPOSIT_TYPEHASH",
      "outputs": [
        {
          "name": "",
          "type": "bytes32"
        }
      ],
      "payable": false,
      "stateMutability": "view",
      "type": "function",
      "signature": "0x48825e94"
    },
    {
      "constant": true,
      "inputs": [
        {
          "name": "",
          "type": "address"
        },
        {
          "name": "",
          "type": "address"
        }
      ],
      "name": "allowed",
      "outputs": [
        {
          "name": "",
          "type": "uint256"
        }
      ],
      "payable": false,
      "stateMutability": "view",
      "type": "function",
      "signature": "0x5c658165"
    },
    {
      "constant": true,
      "inputs": [],
      "name": "WITHDRAW_TYPEHASH",
      "outputs": [
        {
          "name": "",
          "type": "bytes32"
        }
      ],
      "payable": false,
      "stateMutability": "view",
      "type": "function",
      "signature": "0x76c5d758"
    },
    {
      "constant": true,
      "inputs": [],
      "name": "ImplementationAddress",
      "outputs": [
        {
          "name": "",
          "type": "address"
        }
      ],
      "payable": false,
      "stateMutability": "view",
      "type": "function",
      "signature": "0xe8a667de"
    },
    {
      "constant": true,
      "inputs": [],
      "name": "admin",
      "outputs": [
        {
          "name": "",
          "type": "address"
        }
      ],
      "payable": false,
      "stateMutability": "view",
      "type": "function",
      "signature": "0xf851a440"
    },
    {
      "inputs": [
        {
          "name": "tokenAddress",
          "type": "address"
        }
      ],
      "payable": false,
      "stateMutability": "nonpayable",
      "type": "constructor",
      "signature": "constructor"
    },
    {
      "anonymous": false,
      "inputs": [
        {
          "indexed": true,
          "name": "_from",
          "type": "address"
        },
        {
          "indexed": true,
          "name": "_to",
          "type": "address"
        },
        {
          "indexed": false,
          "name": "_value",
          "type": "uint256"
        }
      ],
      "name": "Transfer",
      "type": "event",
      "signature": "0xddf252ad1be2c89b69c2b068fc378daa952ba7f163c4a11628f55a4df523b3ef"
    },
    {
      "constant": false,
      "inputs": [
        {
          "name": "holder",
          "type": "address"
        },
        {
          "name": "value",
          "type": "uint256"
        },
        {
          "name": "r",
          "type": "bytes32"
        },
        {
          "name": "s",
          "type": "bytes32"
        },
        {
          "name": "v",
          "type": "uint8"
        }
      ],
      "name": "deposit",
      "outputs": [
        {
          "name": "",
          "type": "bool"
        }
      ],
      "payable": false,
      "stateMutability": "nonpayable",
      "type": "function",
      "signature": "0xe99f6374"
    },
    {
      "constant": false,
      "inputs": [
        {
          "name": "holder",
          "type": "address"
        },
        {
          "name": "value",
          "type": "uint256"
        },
        {
          "name": "r",
          "type": "bytes32"
        },
        {
          "name": "s",
          "type": "bytes32"
        },
        {
          "name": "v",
          "type": "uint8"
        }
      ],
      "name": "withdraw",
      "outputs": [
        {
          "name": "",
          "type": "bool"
        }
      ],
      "payable": false,
      "stateMutability": "nonpayable",
      "type": "function",
      "signature": "0x197917e7"
    },
    {
      "constant": false,
      "inputs": [
        {
          "name": "_from",
          "type": "address"
        },
        {
          "name": "_to",
          "type": "address"
        },
        {
          "name": "_value",
          "type": "uint256"
        },
        {
          "name": "r",
          "type": "bytes32"
        },
        {
          "name": "s",
          "type": "bytes32"
        },
        {
          "name": "v",
          "type": "uint8"
        }
      ],
      "name": "transact",
      "outputs": [
        {
          "name": "",
          "type": "bool"
        }
      ],
      "payable": false,
      "stateMutability": "nonpayable",
      "type": "function",
      "signature": "0xd16bc20e"
    }
  ],
  "bytecode": "0x6080604052734f96fe3b7a6cf9725f59d353f723c1bdb64ca6aa600660006101000a81548173ffffffffffffffffffffffffffffffffffffffff021916908373ffffffffffffffffffffffffffffffffffffffff16021790555073e7bc397dbd069fc7d0109c0636d06888bb50668c600760006101000a81548173ffffffffffffffffffffffffffffffffffffffff021916908373ffffffffffffffffffffffffffffffffffffffff16021790555073b5cea18db04008a4d68444a298dbdd2d0e442e3d600860006101000a81548173ffffffffffffffffffffffffffffffffffffffff021916908373ffffffffffffffffffffffffffffffffffffffff160217905550600660009054906101000a900473ffffffffffffffffffffffffffffffffffffffff16600960006101000a81548173ffffffffffffffffffffffffffffffffffffffff021916908373ffffffffffffffffffffffffffffffffffffffff160217905550600760009054906101000a900473ffffffffffffffffffffffffffffffffffffffff16600a60006101000a81548173ffffffffffffffffffffffffffffffffffffffff021916908373ffffffffffffffffffffffffffffffffffffffff160217905550600860009054906101000a900473ffffffffffffffffffffffffffffffffffffffff16600b60006101000a81548173ffffffffffffffffffffffffffffffffffffffff021916908373ffffffffffffffffffffffffffffffffffffffff1602179055503480156200023957600080fd5b5060405160208062001ec683398101806040526200025b9190810190620003dc565b60405180807f454950373132446f6d61696e28737472696e67206e616d652c737472696e672081526020017f76657273696f6e2c75696e7432353620636861696e49642c616464726573732081526020017f766572696679696e67436f6e74726163742900000000000000000000000000008152506052019050604051809103902060405180807f506f7563680000000000000000000000000000000000000000000000000000008152506005019050604051809103902060405180807f310000000000000000000000000000000000000000000000000000000000000081525060010190506040518091039020602a84604051602001620003629594939291906200043b565b6040516020818303038152906040528051906020012060058190555080600460006101000a81548173ffffffffffffffffffffffffffffffffffffffff021916908373ffffffffffffffffffffffffffffffffffffffff160217905550506200050b565b6000620003d48251620004e3565b905092915050565b600060208284031215620003ef57600080fd5b6000620003ff84828501620003c6565b91505092915050565b620004138162000498565b82525050565b6200042481620004ac565b82525050565b6200043581620004f7565b82525050565b600060a08201905062000452600083018862000419565b62000461602083018762000419565b62000470604083018662000419565b6200047f60608301856200042a565b6200048e608083018462000408565b9695505050505050565b6000620004a582620004b6565b9050919050565b6000819050919050565b600073ffffffffffffffffffffffffffffffffffffffff82169050919050565b600060ff82169050919050565b6000620004f082620004b6565b9050919050565b60006200050482620004d6565b9050919050565b6119ab806200051b6000396000f3fe6080604052600436106100ba576000357c0100000000000000000000000000000000000000000000000000000000900463ffffffff1680630df73116146100bf57806318160ddd146100ea578063197917e71461011557806327e235e3146101525780633644e5151461018f57806348825e94146101ba5780635c658165146101e557806376c5d75814610222578063d16bc20e1461024d578063e8a667de1461028a578063e99f6374146102b5578063f851a440146102f2575b600080fd5b3480156100cb57600080fd5b506100d461031d565b6040516100e191906117ce565b60405180910390f35b3480156100f657600080fd5b506100ff61037c565b60405161010c91906118c5565b60405180910390f35b34801561012157600080fd5b5061013c6004803603610137919081019061158e565b610382565b60405161014991906117b3565b60405180910390f35b34801561015e57600080fd5b50610179600480360361017491908101906114a0565b6107f1565b60405161018691906118c5565b60405180910390f35b34801561019b57600080fd5b506101a4610809565b6040516101b191906117ce565b60405180910390f35b3480156101c657600080fd5b506101cf61080f565b6040516101dc91906117ce565b60405180910390f35b3480156101f157600080fd5b5061020c600480360361020791908101906114c9565b61086e565b60405161021991906118c5565b60405180910390f35b34801561022e57600080fd5b50610237610893565b60405161024491906117ce565b60405180910390f35b34801561025957600080fd5b50610274600480360361026f9190810190611505565b6108f2565b60405161028191906117b3565b60405180910390f35b34801561029657600080fd5b5061029f610bfa565b6040516102ac9190611738565b60405180910390f35b3480156102c157600080fd5b506102dc60048036036102d7919081019061158e565b610c20565b6040516102e991906117b3565b60405180910390f35b3480156102fe57600080fd5b506103076111da565b6040516103149190611738565b60405180910390f35b60405180807f5472616e736163742861646472657373205f66726f6d2c61646472657373205f81526020017f746f2c75696e74323536205f76616c75652900000000000000000000000000008152506032019050604051809103902081565b60005481565b60008060055460405180807f5769746864726177286164647265737320686f6c6465722c75696e743235362081526020017f76616c75652900000000000000000000000000000000000000000000000000008152506026019050604051809103902088886040516020016103f89392919061182e565b6040516020818303038152906040528051906020012060405160200180807f190100000000000000000000000000000000000000000000000000000000000081525060020183815260200182815260200192505050604051602081830303815290604052805190602001209050600073ffffffffffffffffffffffffffffffffffffffff168773ffffffffffffffffffffffffffffffffffffffff16141515156104d7576040517f08c379a00000000000000000000000000000000000000000000000000000000081526004016104ce90611885565b60405180910390fd5b60018184878760405160008152602001604052604051808581526020018460ff1660ff1681526020018381526020018281526020019450505050506020604051602081039080840390855afa158015610534573d6000803e3d6000fd5b5050506020604051035173ffffffffffffffffffffffffffffffffffffffff168773ffffffffffffffffffffffffffffffffffffffff161415156105ad576040517f08c379a00000000000000000000000000000000000000000000000000000000081526004016105a4906118a5565b60405180910390fd5b600160008873ffffffffffffffffffffffffffffffffffffffff1673ffffffffffffffffffffffffffffffffffffffff168152602001908152602001600020548611151515610631576040517f08c379a000000000000000000000000000000000000000000000000000000000815260040161062890611865565b60405180910390fd5b61063d87600088611200565b50856000808282540392505081905550600a60009054906101000a900473ffffffffffffffffffffffffffffffffffffffff1673ffffffffffffffffffffffffffffffffffffffff1663852a12e3876040518263ffffffff167c01000000000000000000000000000000000000000000000000000000000281526004016106c491906118c5565b602060405180830381600087803b1580156106de57600080fd5b505af11580156106f2573d6000803e3d6000fd5b505050506040513d601f19601f82011682018060405250610716919081019061162e565b50600960009054906101000a900473ffffffffffffffffffffffffffffffffffffffff1673ffffffffffffffffffffffffffffffffffffffff1663a9059cbb88886040518363ffffffff167c010000000000000000000000000000000000000000000000000000000002815260040161079092919061178a565b602060405180830381600087803b1580156107aa57600080fd5b505af11580156107be573d6000803e3d6000fd5b505050506040513d601f19601f820116820180604052506107e29190810190611605565b50600191505095945050505050565b60016020528060005260406000206000915090505481565b60055481565b60405180807f4465706f736974286164647265737320686f6c6465722c75696e74323536207681526020017f616c7565290000000000000000000000000000000000000000000000000000008152506025019050604051809103902081565b6002602052816000526040600020602052806000526040600020600091509150505481565b60405180807f5769746864726177286164647265737320686f6c6465722c75696e743235362081526020017f76616c75652900000000000000000000000000000000000000000000000000008152506026019050604051809103902081565b60008060055460405180807f5472616e736163742861646472657373205f66726f6d2c61646472657373205f81526020017f746f2c75696e74323536205f76616c75652900000000000000000000000000008152506032019050604051809103902089898960405160200161096a94939291906117e9565b6040516020818303038152906040528051906020012060405160200180807f190100000000000000000000000000000000000000000000000000000000000081525060020183815260200182815260200192505050604051602081830303815290604052805190602001209050600073ffffffffffffffffffffffffffffffffffffffff168873ffffffffffffffffffffffffffffffffffffffff1614151515610a49576040517f08c379a0000000000000000000000000000000000000000000000000000000008152600401610a4090611885565b60405180910390fd5b60018184878760405160008152602001604052604051808581526020018460ff1660ff1681526020018381526020018281526020019450505050506020604051602081039080840390855afa158015610aa6573d6000803e3d6000fd5b5050506020604051035173ffffffffffffffffffffffffffffffffffffffff168873ffffffffffffffffffffffffffffffffffffffff16141515610b1f576040517f08c379a0000000000000000000000000000000000000000000000000000000008152600401610b16906118a5565b60405180910390fd5b600160008973ffffffffffffffffffffffffffffffffffffffff1673ffffffffffffffffffffffffffffffffffffffff168152602001908152602001600020548611151515610ba3576040517f08c379a0000000000000000000000000000000000000000000000000000000008152600401610b9a90611865565b60405180910390fd5b600073ffffffffffffffffffffffffffffffffffffffff168773ffffffffffffffffffffffffffffffffffffffff1614151515610bdf57600080fd5b610bea888888611200565b5060019150509695505050505050565b600360009054906101000a900473ffffffffffffffffffffffffffffffffffffffff1681565b60008060055460405180807f4465706f736974286164647265737320686f6c6465722c75696e74323536207681526020017f616c756529000000000000000000000000000000000000000000000000000000815250602501905060405180910390208888604051602001610c969392919061182e565b6040516020818303038152906040528051906020012060405160200180807f190100000000000000000000000000000000000000000000000000000000000081525060020183815260200182815260200192505050604051602081830303815290604052805190602001209050600073ffffffffffffffffffffffffffffffffffffffff168773ffffffffffffffffffffffffffffffffffffffff1614151515610d75576040517f08c379a0000000000000000000000000000000000000000000000000000000008152600401610d6c90611885565b60405180910390fd5b60018184878760405160008152602001604052604051808581526020018460ff1660ff1681526020018381526020018281526020019450505050506020604051602081039080840390855afa158015610dd2573d6000803e3d6000fd5b5050506020604051035173ffffffffffffffffffffffffffffffffffffffff168773ffffffffffffffffffffffffffffffffffffffff16141515610e4b576040517f08c379a0000000000000000000000000000000000000000000000000000000008152600401610e42906118a5565b60405180910390fd5b6000600960009054906101000a900473ffffffffffffffffffffffffffffffffffffffff1673ffffffffffffffffffffffffffffffffffffffff166370a08231896040518263ffffffff167c0100000000000000000000000000000000000000000000000000000000028152600401610ec49190611738565b60206040518083038186803b158015610edc57600080fd5b505afa158015610ef0573d6000803e3d6000fd5b505050506040513d601f19601f82011682018060405250610f14919081019061162e565b9050868110151515610f5b576040517f08c379a0000000000000000000000000000000000000000000000000000000008152600401610f5290611865565b60405180910390fd5b600960009054906101000a900473ffffffffffffffffffffffffffffffffffffffff1673ffffffffffffffffffffffffffffffffffffffff166323b872dd89308a6040518463ffffffff167c0100000000000000000000000000000000000000000000000000000000028152600401610fd693929190611753565b602060405180830381600087803b158015610ff057600080fd5b505af1158015611004573d6000803e3d6000fd5b505050506040513d601f19601f820116820180604052506110289190810190611605565b50611033888861135a565b50600960009054906101000a900473ffffffffffffffffffffffffffffffffffffffff1673ffffffffffffffffffffffffffffffffffffffff1663095ea7b3600760009054906101000a900473ffffffffffffffffffffffffffffffffffffffff16896040518363ffffffff167c01000000000000000000000000000000000000000000000000000000000281526004016110cf92919061178a565b600060405180830381600087803b1580156110e957600080fd5b505af11580156110fd573d6000803e3d6000fd5b50505050600a60009054906101000a900473ffffffffffffffffffffffffffffffffffffffff1673ffffffffffffffffffffffffffffffffffffffff1663a0712d68886040518263ffffffff167c010000000000000000000000000000000000000000000000000000000002815260040161117891906118c5565b602060405180830381600087803b15801561119257600080fd5b505af11580156111a6573d6000803e3d6000fd5b505050506040513d601f19601f820116820180604052506111ca919081019061162e565b5060019250505095945050505050565b600460009054906101000a900473ffffffffffffffffffffffffffffffffffffffff1681565b600081600160008673ffffffffffffffffffffffffffffffffffffffff1673ffffffffffffffffffffffffffffffffffffffff168152602001908152602001600020541015151561125057600080fd5b81600160008673ffffffffffffffffffffffffffffffffffffffff1673ffffffffffffffffffffffffffffffffffffffff1681526020019081526020016000206000828254039250508190555081600160008573ffffffffffffffffffffffffffffffffffffffff1673ffffffffffffffffffffffffffffffffffffffff168152602001908152602001600020600082825401925050819055508273ffffffffffffffffffffffffffffffffffffffff168473ffffffffffffffffffffffffffffffffffffffff167fddf252ad1be2c89b69c2b068fc378daa952ba7f163c4a11628f55a4df523b3ef8460405161134791906118c5565b60405180910390a3600190509392505050565b600081600160008573ffffffffffffffffffffffffffffffffffffffff1673ffffffffffffffffffffffffffffffffffffffff168152602001908152602001600020600082825401925050819055508160008082825401925050819055508273ffffffffffffffffffffffffffffffffffffffff16600073ffffffffffffffffffffffffffffffffffffffff167fddf252ad1be2c89b69c2b068fc378daa952ba7f163c4a11628f55a4df523b3ef8460405161141691906118c5565b60405180910390a36001905092915050565b60006114348235611932565b905092915050565b60006114488251611944565b905092915050565b600061145c8235611950565b905092915050565b6000611470823561195a565b905092915050565b6000611484825161195a565b905092915050565b60006114988235611964565b905092915050565b6000602082840312156114b257600080fd5b60006114c084828501611428565b91505092915050565b600080604083850312156114dc57600080fd5b60006114ea85828601611428565b92505060206114fb85828601611428565b9150509250929050565b60008060008060008060c0878903121561151e57600080fd5b600061152c89828a01611428565b965050602061153d89828a01611428565b955050604061154e89828a01611464565b945050606061155f89828a01611450565b935050608061157089828a01611450565b92505060a061158189828a0161148c565b9150509295509295509295565b600080600080600060a086880312156115a657600080fd5b60006115b488828901611428565b95505060206115c588828901611464565b94505060406115d688828901611450565b93505060606115e788828901611450565b92505060806115f88882890161148c565b9150509295509295909350565b60006020828403121561161757600080fd5b60006116258482850161143c565b91505092915050565b60006020828403121561164057600080fd5b600061164e84828501611478565b91505092915050565b611660816118e0565b82525050565b61166f816118f2565b82525050565b61167e816118fe565b82525050565b6000601282527f496e73756666696369656e742046756e647300000000000000000000000000006020830152604082019050919050565b6000601782527f506f7563682f696e76616c69642d616464726573732d300000000000000000006020830152604082019050919050565b6000601482527f506f7563682f696e76616c69642d7065726d69740000000000000000000000006020830152604082019050919050565b61173281611928565b82525050565b600060208201905061174d6000830184611657565b92915050565b60006060820190506117686000830186611657565b6117756020830185611657565b6117826040830184611729565b949350505050565b600060408201905061179f6000830185611657565b6117ac6020830184611729565b9392505050565b60006020820190506117c86000830184611666565b92915050565b60006020820190506117e36000830184611675565b92915050565b60006080820190506117fe6000830187611675565b61180b6020830186611657565b6118186040830185611657565b6118256060830184611729565b95945050505050565b60006060820190506118436000830186611675565b6118506020830185611657565b61185d6040830184611729565b949350505050565b6000602082019050818103600083015261187e81611684565b9050919050565b6000602082019050818103600083015261189e816116bb565b9050919050565b600060208201905081810360008301526118be816116f2565b9050919050565b60006020820190506118da6000830184611729565b92915050565b60006118eb82611908565b9050919050565b60008115159050919050565b6000819050919050565b600073ffffffffffffffffffffffffffffffffffffffff82169050919050565b6000819050919050565b600061193d82611908565b9050919050565b60008115159050919050565b6000819050919050565b6000819050919050565b600060ff8216905091905056fea265627a7a7230582003d2765c44e0c105ec790da9ee450a22271602144b783c57c97207a22bef8f856c6578706572696d656e74616cf50037",
  "source": "pragma solidity >=0.5.0;\npragma experimental ABIEncoderV2;\n\nimport \"./interfaces/TokenInterface.sol\";\nimport \"./interfaces/cTokenInterface.sol\";\nimport \"./interfaces/PTokenInterface.sol\";\nimport \"./interfaces/proxyInterface.sol\";\nimport \"./libraries/SafeMath.sol\";\n\ncontract Pouch is proxyInterface {\n    using SafeMath for uint256;\n\n    uint256 public totalSupply;\n    mapping(address => uint256) public balances;\n    mapping(address => mapping(address => uint256)) public allowed;\n    address public ImplementationAddress;\n    address public admin;\n    bytes32 public DOMAIN_SEPARATOR;\n    // bytes32 public constant PERMIT_TYPEHASH = keccak256(\n    //     \"Permit(address holder,address spender,uint256 nonce,uint256 expiry,bool isAllowed)\"\n    // );\n    // mapping(address => uint256) public nonces;\n    uint256 private constant MAX_UINT256 = uint256(-1);\n\n    bytes32 public constant DEPOSIT_TYPEHASH = keccak256(\n        \"Deposit(address holder,uint256 value)\"\n    );\n    bytes32 public constant WITHDRAW_TYPEHASH = keccak256(\n        \"Withdraw(address holder,uint256 value)\"\n    );\n    bytes32 public constant TRANSACT_TYPEHASH = keccak256(\n        \"Transact(address _from,address _to,uint256 _value)\"\n    );\n\n    // // // Required Interfaces\n    address daiAddress = 0x4F96Fe3b7A6Cf9725f59d353F723c1bDb64CA6Aa;\n    address cDaiAddress = 0xe7bc397DBd069fC7d0109C0636d06888bb50668c;\n    address pDaiAddress = 0xb5cea18Db04008a4D68444A298DBDD2D0E442E3D;\n\n    TokenInterface daiToken = TokenInterface(daiAddress);\n    cTokenInterface cDai = cTokenInterface(cDaiAddress);\n    PTokenInterface pDaiToken = PTokenInterface(pDaiAddress);\n\n    constructor(address tokenAddress) public {\n        DOMAIN_SEPARATOR = keccak256(\n            abi.encode(\n                keccak256(\n                    \"EIP712Domain(string name,string version,uint256 chainId,address verifyingContract)\"\n                ),\n                keccak256(\"Pouch\"),\n                keccak256(\"1\"),\n                42, // kovan chainId\n                tokenAddress\n            )\n        );\n        admin = tokenAddress;\n    }\n\n    // ** Internal Functions **\n\n    function _mint(address _to, uint256 _value)\n        internal\n        returns (bool success)\n    {\n        balances[_to] += _value;\n        totalSupply += _value;\n        emit Transfer(address(0), _to, _value);\n        return true;\n    }\n\n    function _transfer(address _from, address _to, uint256 _value)\n        internal\n        returns (bool success)\n    {\n        require(balances[_from] >= _value);\n        balances[_from] -= _value;\n        balances[_to] += _value;\n        emit Transfer(_from, _to, _value);\n        return true;\n    }\n\n    // ** Deposit DAI **\n    function deposit(\n        address holder,\n        uint256 value,\n        bytes32 r,\n        bytes32 s,\n        uint8 v\n    ) public returns (bool) {\n        bytes32 digest = keccak256(\n            abi.encodePacked(\n                \"\\x19\\x01\",\n                DOMAIN_SEPARATOR,\n                keccak256(abi.encode(DEPOSIT_TYPEHASH, holder, value))\n            )\n        );\n\n        require(holder != address(0), \"Pouch/invalid-address-0\");\n        require(holder == ecrecover(digest, v, r, s), \"Pouch/invalid-permit\");\n\n        // ** Check for sufficient Funds **\n        uint256 userBalance = daiToken.balanceOf(holder);\n        require(userBalance >= value, \"Insufficient Funds\");\n\n        daiToken.transferFrom(holder, address(this), value); // **Transfer User's DAI**\n        _mint(holder, value); // **Mint PCH tokens for the User**\n        daiToken.approve(cDaiAddress, value);\n        cDai.mint(value); // **Mint cDai  **\n        return true;\n    }\n\n    // ** Withdraw DAI**\n    function withdraw(\n        address holder,\n        uint256 value,\n        bytes32 r,\n        bytes32 s,\n        uint8 v\n    ) public returns (bool) {\n        bytes32 digest = keccak256(\n            abi.encodePacked(\n                \"\\x19\\x01\",\n                DOMAIN_SEPARATOR,\n                keccak256(abi.encode(WITHDRAW_TYPEHASH, holder, value))\n            )\n        );\n\n        require(holder != address(0), \"Pouch/invalid-address-0\");\n        require(holder == ecrecover(digest, v, r, s), \"Pouch/invalid-permit\");\n        require(value <= balances[holder], \"Insufficient Funds\");\n\n        //          ** Burn Pouch Token **\n        _transfer(holder, address(0), value);\n        totalSupply -= value;\n\n        //         **  Redeem User's DAI from compound and transfer it to user.**\n        cDai.redeemUnderlying(value);\n        daiToken.transfer(holder, value);\n        return true;\n    }\n\n    //     function getExchangeRate() view public returns (uint) {\n    //         return cDai.exchangeRateCurrent();\n    //     }\n\n    //   function _randomReward() internal view returns (uint) {\n    //         uint randomnumber = uint(keccak256(abi.encodePacked(now, msg.sender,block.number))) % 5;\n    //         return randomnumber.mul(1e10);\n    //     }\n\n    function transact(\n        address _from,\n        address _to,\n        uint256 _value,\n        bytes32 r,\n        bytes32 s,\n        uint8 v\n    ) public returns (bool) {\n        bytes32 digest = keccak256(\n            abi.encodePacked(\n                \"\\x19\\x01\",\n                DOMAIN_SEPARATOR,\n                keccak256(abi.encode(TRANSACT_TYPEHASH, _from, _to, _value))\n            )\n        );\n\n        require(_from != address(0), \"Pouch/invalid-address-0\");\n        require(_from == ecrecover(digest, v, r, s), \"Pouch/invalid-permit\");\n        require(_value <= balances[_from], \"Insufficient Funds\");\n        require(_to != address(0));\n\n        // ** Transfer Funds **\n        _transfer(_from, _to, _value);\n\n        // ** Transfer Rewards,if Any. **\n        // if (value >= 1e18){\n        //     uint profitInDai =  _checkProfits().mul(getExchangeRate());\n        //     uint checkProfitInDai = profitInDai.div(1e18);\n        //     if(checkProfitInDai >= 1e11){\n        //         uint myReward =  _randomReward();\n        //         cDai.redeemUnderlying(myReward);\n        //         daiToken.transfer(msg.sender, myReward);\n\n        //     return true;\n        //     }\n        // }\n        return true;\n    }\n\n    // function _spitProfits() public returns (bool){\n\n    //     uint256 adjustedTotalSupply = totalSupply.mul(1e8);\n    //     uint256 ourContractBalance = cDai.balanceOf(admin);\n    //     uint256 cDaiExchangeRate = cDai.exchangeRateCurrent();\n    //     uint256 cDaiExchangeRateDivided = cDaiExchangeRate.div(1e10);\n\n    //     uint256 currentPrice = adjustedTotalSupply.div(cDaiExchangeRateDivided);\n    //     uint256 profit = ourContractBalance.sub(currentPrice);\n    //     cDai.transfer(msg.sender, profit);\n    //     return true;\n    // }\n\n    // function _checkProfits() public returns (uint256) {\n    //     uint256 adjustedTotalSupply = totalSupply.mul(1e8);\n    //     uint256 ourContractBalance = cDai.balanceOf(admin);\n    //     uint256 cDaiExchangeRate = cDai.exchangeRateCurrent();\n    //     uint256 cDaiExchangeRateDivided = cDaiExchangeRate.div(1e10);\n\n    //     uint256 currentPrice = adjustedTotalSupply.div(cDaiExchangeRateDivided);\n    //     uint256 profit = ourContractBalance.sub(currentPrice);\n    //     return 5;\n    // }\n\n}\n",
  "sourcePath": "/home/roheat/blockchain/projects/biconomy/boundless/contracts/Pouch.sol",
  "compiler": {
    "name": "solc",
    "version": "0.5.0+commit.1d4f565a.Emscripten.clang"
  },
  "schemaVersion": "3.0.1",
  "updatedAt": "2020-02-17T21:44:57.563Z",
  "devdoc": {
    "methods": {}
  },
  "userdoc": {
    "methods": {}
  }
}