{
  "contractName": "PouchToken",
  "abi": [
    {
      "constant": true,
      "inputs": [],
      "name": "name",
      "outputs": [
        {
          "name": "",
          "type": "string"
        }
      ],
      "payable": false,
      "stateMutability": "view",
      "type": "function"
    },
    {
      "constant": true,
      "inputs": [],
      "name": "totalSupply",
      "outputs": [
        {
          "name": "",
          "type": "uint256"
        }
      ],
      "payable": false,
      "stateMutability": "view",
      "type": "function"
    },
    {
      "constant": true,
      "inputs": [
        {
          "name": "",
          "type": "address"
        }
      ],
      "name": "balances",
      "outputs": [
        {
          "name": "",
          "type": "uint256"
        }
      ],
      "payable": false,
      "stateMutability": "view",
      "type": "function"
    },
    {
      "constant": true,
      "inputs": [],
      "name": "decimals",
      "outputs": [
        {
          "name": "",
          "type": "uint8"
        }
      ],
      "payable": false,
      "stateMutability": "view",
      "type": "function"
    },
    {
      "constant": true,
      "inputs": [],
      "name": "version",
      "outputs": [
        {
          "name": "",
          "type": "string"
        }
      ],
      "payable": false,
      "stateMutability": "view",
      "type": "function"
    },
    {
      "constant": true,
      "inputs": [
        {
          "name": "",
          "type": "address"
        },
        {
          "name": "",
          "type": "address"
        }
      ],
      "name": "allowed",
      "outputs": [
        {
          "name": "",
          "type": "uint256"
        }
      ],
      "payable": false,
      "stateMutability": "view",
      "type": "function"
    },
    {
      "constant": true,
      "inputs": [],
      "name": "symbol",
      "outputs": [
        {
          "name": "",
          "type": "string"
        }
      ],
      "payable": false,
      "stateMutability": "view",
      "type": "function"
    },
    {
      "constant": true,
      "inputs": [],
      "name": "ImplementationAddress",
      "outputs": [
        {
          "name": "",
          "type": "address"
        }
      ],
      "payable": false,
      "stateMutability": "view",
      "type": "function"
    },
    {
      "anonymous": false,
      "inputs": [
        {
          "indexed": true,
          "name": "_from",
          "type": "address"
        },
        {
          "indexed": true,
          "name": "_to",
          "type": "address"
        },
        {
          "indexed": false,
          "name": "_value",
          "type": "uint256"
        }
      ],
      "name": "Transfer",
      "type": "event"
    },
    {
      "anonymous": false,
      "inputs": [
        {
          "indexed": true,
          "name": "_owner",
          "type": "address"
        },
        {
          "indexed": true,
          "name": "_spender",
          "type": "address"
        },
        {
          "indexed": false,
          "name": "_value",
          "type": "uint256"
        }
      ],
      "name": "Approval",
      "type": "event"
    },
    {
      "constant": false,
      "inputs": [
        {
          "name": "_to",
          "type": "address"
        },
        {
          "name": "_value",
          "type": "uint256"
        }
      ],
      "name": "transfer",
      "outputs": [
        {
          "name": "success",
          "type": "bool"
        }
      ],
      "payable": false,
      "stateMutability": "nonpayable",
      "type": "function"
    },
    {
      "constant": false,
      "inputs": [
        {
          "name": "_from",
          "type": "address"
        },
        {
          "name": "_to",
          "type": "address"
        },
        {
          "name": "_value",
          "type": "uint256"
        }
      ],
      "name": "transferFrom",
      "outputs": [
        {
          "name": "success",
          "type": "bool"
        }
      ],
      "payable": false,
      "stateMutability": "nonpayable",
      "type": "function"
    },
    {
      "constant": true,
      "inputs": [
        {
          "name": "_owner",
          "type": "address"
        }
      ],
      "name": "balanceOf",
      "outputs": [
        {
          "name": "balance",
          "type": "uint256"
        }
      ],
      "payable": false,
      "stateMutability": "view",
      "type": "function"
    },
    {
      "constant": false,
      "inputs": [
        {
          "name": "_spender",
          "type": "address"
        },
        {
          "name": "_value",
          "type": "uint256"
        }
      ],
      "name": "approve",
      "outputs": [
        {
          "name": "success",
          "type": "bool"
        }
      ],
      "payable": false,
      "stateMutability": "nonpayable",
      "type": "function"
    },
    {
      "constant": true,
      "inputs": [
        {
          "name": "_owner",
          "type": "address"
        },
        {
          "name": "_spender",
          "type": "address"
        }
      ],
      "name": "allowance",
      "outputs": [
        {
          "name": "remaining",
          "type": "uint256"
        }
      ],
      "payable": false,
      "stateMutability": "view",
      "type": "function"
    }
  ],
  "bytecode": "0x608060405234801561001057600080fd5b50610d57806100206000396000f3fe6080604052600436106100c5576000357c0100000000000000000000000000000000000000000000000000000000900463ffffffff16806306fdde03146100ca578063095ea7b3146100f557806318160ddd1461013257806323b872dd1461015d57806327e235e31461019a578063313ce567146101d757806354fd4d50146102025780635c6581651461022d57806370a082311461026a57806395d89b41146102a7578063a9059cbb146102d2578063dd62ed3e1461030f578063e8a667de1461034c575b600080fd5b3480156100d657600080fd5b506100df610377565b6040516100ec9190610c05565b60405180910390f35b34801561010157600080fd5b5061011c60048036036101179190810190610b21565b6103b0565b6040516101299190610bea565b60405180910390f35b34801561013e57600080fd5b506101476104a2565b6040516101549190610c27565b60405180910390f35b34801561016957600080fd5b50610184600480360361017f9190810190610ad2565b6104a8565b6040516101919190610bea565b60405180910390f35b3480156101a657600080fd5b506101c160048036036101bc9190810190610a6d565b610742565b6040516101ce9190610c27565b60405180910390f35b3480156101e357600080fd5b506101ec61075a565b6040516101f99190610c42565b60405180910390f35b34801561020e57600080fd5b5061021761075f565b6040516102249190610c05565b60405180910390f35b34801561023957600080fd5b50610254600480360361024f9190810190610a96565b610798565b6040516102619190610c27565b60405180910390f35b34801561027657600080fd5b50610291600480360361028c9190810190610a6d565b6107bd565b60405161029e9190610c27565b60405180910390f35b3480156102b357600080fd5b506102bc610806565b6040516102c99190610c05565b60405180910390f35b3480156102de57600080fd5b506102f960048036036102f49190810190610b21565b61083f565b6040516103069190610bea565b60405180910390f35b34801561031b57600080fd5b5061033660048036036103319190810190610a96565b610998565b6040516103439190610c27565b60405180910390f35b34801561035857600080fd5b50610361610a1f565b60405161036e9190610bcf565b60405180910390f35b6040805190810160405280600b81526020017f506f75636820546f6b656e00000000000000000000000000000000000000000081525081565b600081600360003373ffffffffffffffffffffffffffffffffffffffff1673ffffffffffffffffffffffffffffffffffffffff16815260200190815260200160002060008573ffffffffffffffffffffffffffffffffffffffff1673ffffffffffffffffffffffffffffffffffffffff168152602001908152602001600020819055508273ffffffffffffffffffffffffffffffffffffffff163373ffffffffffffffffffffffffffffffffffffffff167f8c5be1e5ebec7d5bd14f71427d1e84f3dd0314c0f7b2291e5b200ac8c7c3b925846040516104909190610c27565b60405180910390a36001905092915050565b60015481565b600080600360008673ffffffffffffffffffffffffffffffffffffffff1673ffffffffffffffffffffffffffffffffffffffff16815260200190815260200160002060003373ffffffffffffffffffffffffffffffffffffffff1673ffffffffffffffffffffffffffffffffffffffff16815260200190815260200160002054905082600260008773ffffffffffffffffffffffffffffffffffffffff1673ffffffffffffffffffffffffffffffffffffffff16815260200190815260200160002054101580156105795750828110155b151561058457600080fd5b82600260008673ffffffffffffffffffffffffffffffffffffffff1673ffffffffffffffffffffffffffffffffffffffff1681526020019081526020016000206000828254019250508190555082600260008773ffffffffffffffffffffffffffffffffffffffff1673ffffffffffffffffffffffffffffffffffffffff168152602001908152602001600020600082825403925050819055507fffffffffffffffffffffffffffffffffffffffffffffffffffffffffffffffff8110156106d15782600360008773ffffffffffffffffffffffffffffffffffffffff1673ffffffffffffffffffffffffffffffffffffffff16815260200190815260200160002060003373ffffffffffffffffffffffffffffffffffffffff1673ffffffffffffffffffffffffffffffffffffffff168152602001908152602001600020600082825403925050819055505b8373ffffffffffffffffffffffffffffffffffffffff168573ffffffffffffffffffffffffffffffffffffffff167fddf252ad1be2c89b69c2b068fc378daa952ba7f163c4a11628f55a4df523b3ef8560405161072e9190610c27565b60405180910390a360019150509392505050565b60026020528060005260406000206000915090505481565b601281565b6040805190810160405280600181526020017f310000000000000000000000000000000000000000000000000000000000000081525081565b6003602052816000526040600020602052806000526040600020600091509150505481565b6000600260008373ffffffffffffffffffffffffffffffffffffffff1673ffffffffffffffffffffffffffffffffffffffff168152602001908152602001600020549050919050565b6040805190810160405280600381526020017f504348000000000000000000000000000000000000000000000000000000000081525081565b600081600260003373ffffffffffffffffffffffffffffffffffffffff1673ffffffffffffffffffffffffffffffffffffffff168152602001908152602001600020541015151561088f57600080fd5b81600260003373ffffffffffffffffffffffffffffffffffffffff1673ffffffffffffffffffffffffffffffffffffffff1681526020019081526020016000206000828254039250508190555081600260008573ffffffffffffffffffffffffffffffffffffffff1673ffffffffffffffffffffffffffffffffffffffff168152602001908152602001600020600082825401925050819055508273ffffffffffffffffffffffffffffffffffffffff163373ffffffffffffffffffffffffffffffffffffffff167fddf252ad1be2c89b69c2b068fc378daa952ba7f163c4a11628f55a4df523b3ef846040516109869190610c27565b60405180910390a36001905092915050565b6000600360008473ffffffffffffffffffffffffffffffffffffffff1673ffffffffffffffffffffffffffffffffffffffff16815260200190815260200160002060008373ffffffffffffffffffffffffffffffffffffffff1673ffffffffffffffffffffffffffffffffffffffff16815260200190815260200160002054905092915050565b600460009054906101000a900473ffffffffffffffffffffffffffffffffffffffff1681565b6000610a518235610cbd565b905092915050565b6000610a658235610ccf565b905092915050565b600060208284031215610a7f57600080fd5b6000610a8d84828501610a45565b91505092915050565b60008060408385031215610aa957600080fd5b6000610ab785828601610a45565b9250506020610ac885828601610a45565b9150509250929050565b600080600060608486031215610ae757600080fd5b6000610af586828701610a45565b9350506020610b0686828701610a45565b9250506040610b1786828701610a59565b9150509250925092565b60008060408385031215610b3457600080fd5b6000610b4285828601610a45565b9250506020610b5385828601610a59565b9150509250929050565b610b6681610c68565b82525050565b610b7581610c7a565b82525050565b6000610b8682610c5d565b808452610b9a816020860160208601610cd9565b610ba381610d0c565b602085010191505092915050565b610bba81610ca6565b82525050565b610bc981610cb0565b82525050565b6000602082019050610be46000830184610b5d565b92915050565b6000602082019050610bff6000830184610b6c565b92915050565b60006020820190508181036000830152610c1f8184610b7b565b905092915050565b6000602082019050610c3c6000830184610bb1565b92915050565b6000602082019050610c576000830184610bc0565b92915050565b600081519050919050565b6000610c7382610c86565b9050919050565b60008115159050919050565b600073ffffffffffffffffffffffffffffffffffffffff82169050919050565b6000819050919050565b600060ff82169050919050565b6000610cc882610c86565b9050919050565b6000819050919050565b60005b83811015610cf7578082015181840152602081019050610cdc565b83811115610d06576000848401525b50505050565b6000601f19601f830116905091905056fea265627a7a7230582030e70e992608827798f863163d8416875fcb932da1b117ba15aa82b080f4ac5d6c6578706572696d656e74616cf50037",
  "source": "pragma solidity >=0.5.0;\npragma experimental ABIEncoderV2;\n\nimport \"./interfaces/PTokenInterface.sol\";\n\ncontract PouchToken is PTokenInterface {\n    uint256 public totalSupply;\n    mapping(address => uint256) public balances;\n    mapping(address => mapping(address => uint256)) public allowed;\n    address public ImplementationAddress;\n    // bytes32 public DOMAIN_SEPARATOR;\n    // address cDaiAddress = 0xe7bc397DBd069fC7d0109C0636d06888bb50668c;\n    // address daiAddress = 0x4F96Fe3b7A6Cf9725f59d353F723c1bDb64CA6Aa;\n\n    // mapping(address => uint256) public nonces;\n    // bytes32 public constant PERMIT_TYPEHASH = keccak256(\n    //     \"Permit(address holder,address spender,uint256 nonce,uint256 expiry,bool isAllowed)\"\n    // );\n    uint256 private constant MAX_UINT256 = uint256(-1);\n\n    // --- ERC20 Data ---\n    string public constant name = \"Pouch Token\";\n    string public constant symbol = \"PCH\";\n    string public constant version = \"1\";\n    uint8 public constant decimals = 18;\n\n    // ** ERC-20 Standard Functions **\n\n    function transfer(address _to, uint256 _value)\n        external\n        returns (bool success)\n    {\n        require(balances[msg.sender] >= _value);\n        balances[msg.sender] -= _value;\n        balances[_to] += _value;\n        emit Transfer(msg.sender, _to, _value);\n        return true;\n    }\n\n    function transferFrom(address _from, address _to, uint256 _value)\n        external\n        returns (bool success)\n    {\n        uint256 allowance = allowed[_from][msg.sender];\n        require(balances[_from] >= _value && allowance >= _value);\n        balances[_to] += _value;\n        balances[_from] -= _value;\n        if (allowance < MAX_UINT256) {\n            allowed[_from][msg.sender] -= _value;\n        }\n        emit Transfer(_from, _to, _value);\n        return true;\n    }\n\n    function balanceOf(address _owner) external view returns (uint256 balance) {\n        return balances[_owner];\n    }\n\n    function approve(address _spender, uint256 _value)\n        external\n        returns (bool success)\n    {\n        allowed[msg.sender][_spender] = _value;\n        emit Approval(msg.sender, _spender, _value);\n        return true;\n    }\n\n    function allowance(address _owner, address _spender)\n        external\n        view\n        returns (uint256 remaining)\n    {\n        return allowed[_owner][_spender];\n    }\n\n    // --- Approve by signature ---\n    // function permitted(\n    //     address holder,\n    //     address spender,\n    //     uint256 nonce,\n    //     uint256 expiry,\n    //     bool isAllowed,\n    //     uint8 v,\n    //     bytes32 r,\n    //     bytes32 s\n    // ) public {\n    //     bytes32 digest = keccak256(\n    //         abi.encodePacked(\n    //             \"\\x19\\x01\",\n    //             DOMAIN_SEPARATOR,\n    //             keccak256(\n    //                 abi.encode(\n    //                     PERMIT_TYPEHASH,\n    //                     holder,\n    //                     spender,\n    //                     nonce,\n    //                     expiry,\n    //                     isAllowed\n    //                 )\n    //             )\n    //         )\n    //     );\n\n    //     require(holder != address(0), \"Dai/invalid-address-0\");\n    //     require(holder == ecrecover(digest, v, r, s), \"Dai/invalid-permit\");\n    //     require(expiry == 0 || now <= expiry, \"Dai/permit-expired\");\n    //     require(nonce == nonces[holder]++, \"Dai/invalid-nonce\");\n    //     uint256 wad = isAllowed ? uint256(-1) : 0;\n    //     allowed[holder][spender] = wad;\n    //     emit Approval(holder, spender, wad);\n    // }\n\n    // function totalSupply() external view returns (uint256) {\n    //     return totalSupply;\n    // }\n\n}\n",
  "sourcePath": "/home/roheat/blockchain/projects/biconomy/boundless/contracts/PouchToken.sol",
  "compiler": {
    "name": "solc",
    "version": "0.5.0+commit.1d4f565a.Emscripten.clang"
  },
  "schemaVersion": "3.0.1",
  "updatedAt": "2020-02-17T21:38:44.989Z",
  "devdoc": {
    "methods": {}
  },
  "userdoc": {
    "methods": {}
  }
}