{
  "contractName": "PouchToken",
  "abi": [
    {
      "constant": true,
      "inputs": [],
      "name": "name",
      "outputs": [
        {
          "name": "",
          "type": "string"
        }
      ],
      "payable": false,
      "stateMutability": "view",
      "type": "function"
    },
    {
      "constant": true,
      "inputs": [],
      "name": "totalSupply",
      "outputs": [
        {
          "name": "",
          "type": "uint256"
        }
      ],
      "payable": false,
      "stateMutability": "view",
      "type": "function"
    },
    {
      "constant": true,
      "inputs": [
        {
          "name": "",
          "type": "address"
        }
      ],
      "name": "balances",
      "outputs": [
        {
          "name": "",
          "type": "uint256"
        }
      ],
      "payable": false,
      "stateMutability": "view",
      "type": "function"
    },
    {
      "constant": true,
      "inputs": [],
      "name": "decimals",
      "outputs": [
        {
          "name": "",
          "type": "uint8"
        }
      ],
      "payable": false,
      "stateMutability": "view",
      "type": "function"
    },
    {
      "constant": true,
      "inputs": [],
      "name": "version",
      "outputs": [
        {
          "name": "",
          "type": "string"
        }
      ],
      "payable": false,
      "stateMutability": "view",
      "type": "function"
    },
    {
      "constant": true,
      "inputs": [
        {
          "name": "",
          "type": "address"
        },
        {
          "name": "",
          "type": "address"
        }
      ],
      "name": "allowed",
      "outputs": [
        {
          "name": "",
          "type": "uint256"
        }
      ],
      "payable": false,
      "stateMutability": "view",
      "type": "function"
    },
    {
      "anonymous": false,
      "inputs": [
        {
          "indexed": true,
          "name": "_from",
          "type": "address"
        },
        {
          "indexed": true,
          "name": "_to",
          "type": "address"
        },
        {
          "indexed": false,
          "name": "_value",
          "type": "uint256"
        }
      ],
      "name": "Transfer",
      "type": "event"
    },
    {
      "anonymous": false,
      "inputs": [
        {
          "indexed": true,
          "name": "_owner",
          "type": "address"
        },
        {
          "indexed": true,
          "name": "_spender",
          "type": "address"
        },
        {
          "indexed": false,
          "name": "_value",
          "type": "uint256"
        }
      ],
      "name": "Approval",
      "type": "event"
    },
    {
      "constant": false,
      "inputs": [
        {
          "name": "_to",
          "type": "address"
        },
        {
          "name": "_value",
          "type": "uint256"
        }
      ],
      "name": "transfer",
      "outputs": [
        {
          "name": "success",
          "type": "bool"
        }
      ],
      "payable": false,
      "stateMutability": "nonpayable",
      "type": "function"
    },
    {
      "constant": false,
      "inputs": [
        {
          "name": "_from",
          "type": "address"
        },
        {
          "name": "_to",
          "type": "address"
        },
        {
          "name": "_value",
          "type": "uint256"
        }
      ],
      "name": "transferFrom",
      "outputs": [
        {
          "name": "success",
          "type": "bool"
        }
      ],
      "payable": false,
      "stateMutability": "nonpayable",
      "type": "function"
    },
    {
      "constant": true,
      "inputs": [
        {
          "name": "_owner",
          "type": "address"
        }
      ],
      "name": "balanceOf",
      "outputs": [
        {
          "name": "balance",
          "type": "uint256"
        }
      ],
      "payable": false,
      "stateMutability": "view",
      "type": "function"
    },
    {
      "constant": false,
      "inputs": [
        {
          "name": "_spender",
          "type": "address"
        },
        {
          "name": "_value",
          "type": "uint256"
        }
      ],
      "name": "approve",
      "outputs": [
        {
          "name": "success",
          "type": "bool"
        }
      ],
      "payable": false,
      "stateMutability": "nonpayable",
      "type": "function"
    },
    {
      "constant": true,
      "inputs": [
        {
          "name": "_owner",
          "type": "address"
        },
        {
          "name": "_spender",
          "type": "address"
        }
      ],
      "name": "allowance",
      "outputs": [
        {
          "name": "remaining",
          "type": "uint256"
        }
      ],
      "payable": false,
      "stateMutability": "view",
      "type": "function"
    },
    {
      "constant": true,
      "inputs": [],
      "name": "supplyOf",
      "outputs": [
        {
          "name": "balance",
          "type": "uint256"
        }
      ],
      "payable": false,
      "stateMutability": "view",
      "type": "function"
    }
  ],
  "bytecode": "0x608060405234801561001057600080fd5b50610c8f806100206000396000f3fe6080604052600436106100ba576000357c0100000000000000000000000000000000000000000000000000000000900463ffffffff16806306fdde03146100bf578063095ea7b3146100ea57806318160ddd1461012757806323b872dd1461015257806327e235e31461018f578063313ce567146101cc578063523a50d0146101f757806354fd4d50146102225780635c6581651461024d57806370a082311461028a578063a9059cbb146102c7578063dd62ed3e14610304575b600080fd5b3480156100cb57600080fd5b506100d4610341565b6040516100e19190610b4f565b60405180910390f35b3480156100f657600080fd5b50610111600480360361010c9190810190610a95565b61037a565b60405161011e9190610b34565b60405180910390f35b34801561013357600080fd5b5061013c61046c565b6040516101499190610b71565b60405180910390f35b34801561015e57600080fd5b5061017960048036036101749190810190610a46565b610472565b6040516101869190610b34565b60405180910390f35b34801561019b57600080fd5b506101b660048036036101b191908101906109e1565b61070c565b6040516101c39190610b71565b60405180910390f35b3480156101d857600080fd5b506101e1610724565b6040516101ee9190610b8c565b60405180910390f35b34801561020357600080fd5b5061020c610729565b6040516102199190610b71565b60405180910390f35b34801561022e57600080fd5b50610237610732565b6040516102449190610b4f565b60405180910390f35b34801561025957600080fd5b50610274600480360361026f9190810190610a0a565b61076b565b6040516102819190610b71565b60405180910390f35b34801561029657600080fd5b506102b160048036036102ac91908101906109e1565b610790565b6040516102be9190610b71565b60405180910390f35b3480156102d357600080fd5b506102ee60048036036102e99190810190610a95565b6107d9565b6040516102fb9190610b34565b60405180910390f35b34801561031057600080fd5b5061032b60048036036103269190810190610a0a565b610932565b6040516103389190610b71565b60405180910390f35b6040805190810160405280600b81526020017f506f75636820546f6b656e00000000000000000000000000000000000000000081525081565b600081600260003373ffffffffffffffffffffffffffffffffffffffff1673ffffffffffffffffffffffffffffffffffffffff16815260200190815260200160002060008573ffffffffffffffffffffffffffffffffffffffff1673ffffffffffffffffffffffffffffffffffffffff168152602001908152602001600020819055508273ffffffffffffffffffffffffffffffffffffffff163373ffffffffffffffffffffffffffffffffffffffff167f8c5be1e5ebec7d5bd14f71427d1e84f3dd0314c0f7b2291e5b200ac8c7c3b9258460405161045a9190610b71565b60405180910390a36001905092915050565b60005481565b600080600260008673ffffffffffffffffffffffffffffffffffffffff1673ffffffffffffffffffffffffffffffffffffffff16815260200190815260200160002060003373ffffffffffffffffffffffffffffffffffffffff1673ffffffffffffffffffffffffffffffffffffffff16815260200190815260200160002054905082600160008773ffffffffffffffffffffffffffffffffffffffff1673ffffffffffffffffffffffffffffffffffffffff16815260200190815260200160002054101580156105435750828110155b151561054e57600080fd5b82600160008673ffffffffffffffffffffffffffffffffffffffff1673ffffffffffffffffffffffffffffffffffffffff1681526020019081526020016000206000828254019250508190555082600160008773ffffffffffffffffffffffffffffffffffffffff1673ffffffffffffffffffffffffffffffffffffffff168152602001908152602001600020600082825403925050819055507fffffffffffffffffffffffffffffffffffffffffffffffffffffffffffffffff81101561069b5782600260008773ffffffffffffffffffffffffffffffffffffffff1673ffffffffffffffffffffffffffffffffffffffff16815260200190815260200160002060003373ffffffffffffffffffffffffffffffffffffffff1673ffffffffffffffffffffffffffffffffffffffff168152602001908152602001600020600082825403925050819055505b8373ffffffffffffffffffffffffffffffffffffffff168573ffffffffffffffffffffffffffffffffffffffff167fddf252ad1be2c89b69c2b068fc378daa952ba7f163c4a11628f55a4df523b3ef856040516106f89190610b71565b60405180910390a360019150509392505050565b60016020528060005260406000206000915090505481565b601281565b60008054905090565b6040805190810160405280600181526020017f310000000000000000000000000000000000000000000000000000000000000081525081565b6002602052816000526040600020602052806000526040600020600091509150505481565b6000600160008373ffffffffffffffffffffffffffffffffffffffff1673ffffffffffffffffffffffffffffffffffffffff168152602001908152602001600020549050919050565b600081600160003373ffffffffffffffffffffffffffffffffffffffff1673ffffffffffffffffffffffffffffffffffffffff168152602001908152602001600020541015151561082957600080fd5b81600160003373ffffffffffffffffffffffffffffffffffffffff1673ffffffffffffffffffffffffffffffffffffffff1681526020019081526020016000206000828254039250508190555081600160008573ffffffffffffffffffffffffffffffffffffffff1673ffffffffffffffffffffffffffffffffffffffff168152602001908152602001600020600082825401925050819055508273ffffffffffffffffffffffffffffffffffffffff163373ffffffffffffffffffffffffffffffffffffffff167fddf252ad1be2c89b69c2b068fc378daa952ba7f163c4a11628f55a4df523b3ef846040516109209190610b71565b60405180910390a36001905092915050565b6000600260008473ffffffffffffffffffffffffffffffffffffffff1673ffffffffffffffffffffffffffffffffffffffff16815260200190815260200160002060008373ffffffffffffffffffffffffffffffffffffffff1673ffffffffffffffffffffffffffffffffffffffff16815260200190815260200160002054905092915050565b60006109c58235610bf5565b905092915050565b60006109d98235610c07565b905092915050565b6000602082840312156109f357600080fd5b6000610a01848285016109b9565b91505092915050565b60008060408385031215610a1d57600080fd5b6000610a2b858286016109b9565b9250506020610a3c858286016109b9565b9150509250929050565b600080600060608486031215610a5b57600080fd5b6000610a69868287016109b9565b9350506020610a7a868287016109b9565b9250506040610a8b868287016109cd565b9150509250925092565b60008060408385031215610aa857600080fd5b6000610ab6858286016109b9565b9250506020610ac7858286016109cd565b9150509250929050565b610ada81610bb2565b82525050565b6000610aeb82610ba7565b808452610aff816020860160208601610c11565b610b0881610c44565b602085010191505092915050565b610b1f81610bde565b82525050565b610b2e81610be8565b82525050565b6000602082019050610b496000830184610ad1565b92915050565b60006020820190508181036000830152610b698184610ae0565b905092915050565b6000602082019050610b866000830184610b16565b92915050565b6000602082019050610ba16000830184610b25565b92915050565b600081519050919050565b60008115159050919050565b600073ffffffffffffffffffffffffffffffffffffffff82169050919050565b6000819050919050565b600060ff82169050919050565b6000610c0082610bbe565b9050919050565b6000819050919050565b60005b83811015610c2f578082015181840152602081019050610c14565b83811115610c3e576000848401525b50505050565b6000601f19601f830116905091905056fea265627a7a723058203773a27a78a11ffd4e974a14866a57f905361ce3cfa708496d13cbc5764dd5366c6578706572696d656e74616cf50037",
  "source": "pragma solidity >=0.5.0;\npragma experimental ABIEncoderV2;\n\nimport \"./interfaces/TokenInterface.sol\";\nimport \"./interfaces/cTokenInterface.sol\";\nimport \"./interfaces/PTokenInterface.sol\";\n\ncontract PouchToken is PTokenInterface {\n    uint256 public totalSupply;\n    mapping(address => uint256) public balances;\n    mapping(address => mapping(address => uint256)) public allowed;\n    // bytes32 public DOMAIN_SEPARATOR;\n    // address public admin;\n    // address cDaiAddress = 0xe7bc397DBd069fC7d0109C0636d06888bb50668c;\n    // cTokenInterface cDai = cTokenInterface(cDaiAddress);\n    // address daiAddress = 0x4F96Fe3b7A6Cf9725f59d353F723c1bDb64CA6Aa;\n    // TokenInterface daiToken = TokenInterface(daiAddress);\n    // bytes32 public constant DEPOSIT_TYPEHASH = keccak256(\n    //     \"Deposit(address holder,uint256 value)\"\n    // );\n\n    // mapping(address => uint256) public nonces;\n    // bytes32 public constant PERMIT_TYPEHASH = keccak256(\n    //     \"Permit(address holder,address spender,uint256 nonce,uint256 expiry,bool isAllowed)\"\n    // );\n    // address public ImplementationAddress;\n    uint256 private constant MAX_UINT256 = uint256(-1);\n\n    // --- ERC20 Data ---\n    string public constant name = \"Pouch Token\";\n    string public constant version = \"1\";\n    uint8 public constant decimals = 18;\n\n    // ** ERC-20 Standard Functions **\n\n    function transfer(address _to, uint256 _value)\n        external\n        returns (bool success)\n    {\n        require(balances[msg.sender] >= _value);\n        balances[msg.sender] -= _value;\n        balances[_to] += _value;\n        emit Transfer(msg.sender, _to, _value);\n        return true;\n    }\n\n    function transferFrom(address _from, address _to, uint256 _value)\n        external\n        returns (bool success)\n    {\n        uint256 allowance = allowed[_from][msg.sender];\n        require(balances[_from] >= _value && allowance >= _value);\n        balances[_to] += _value;\n        balances[_from] -= _value;\n        if (allowance < MAX_UINT256) {\n            allowed[_from][msg.sender] -= _value;\n        }\n        emit Transfer(_from, _to, _value);\n        return true;\n    }\n\n    function balanceOf(address _owner) external view returns (uint256 balance) {\n        return balances[_owner];\n    }\n\n    function approve(address _spender, uint256 _value)\n        external\n        returns (bool success)\n    {\n        allowed[msg.sender][_spender] = _value;\n        emit Approval(msg.sender, _spender, _value);\n        return true;\n    }\n\n    function allowance(address _owner, address _spender)\n        external\n        view\n        returns (uint256 remaining)\n    {\n        return allowed[_owner][_spender];\n    }\n\n    // // --- Approve by signature ---\n    // function permitted(\n    //     address holder,\n    //     address spender,\n    //     uint256 nonce,\n    //     uint256 expiry,\n    //     bool isAllowed,\n    //     uint8 v,\n    //     bytes32 r,\n    //     bytes32 s\n    // ) public {\n    //     bytes32 digest = keccak256(\n    //         abi.encodePacked(\n    //             \"\\x19\\x01\",\n    //             DOMAIN_SEPARATOR,\n    //             keccak256(\n    //                 abi.encode(\n    //                     PERMIT_TYPEHASH,\n    //                     holder,\n    //                     spender,\n    //                     nonce,\n    //                     expiry,\n    //                     isAllowed\n    //                 )\n    //             )\n    //         )\n    //     );\n\n    //     require(holder != address(0), \"Dai/invalid-address-0\");\n    //     require(holder == ecrecover(digest, v, r, s), \"Dai/invalid-permit\");\n    //     require(expiry == 0 || now <= expiry, \"Dai/permit-expired\");\n    //     require(nonce == nonces[holder]++, \"Dai/invalid-nonce\");\n    //     uint256 wad = isAllowed ? uint256(-1) : 0;\n    //     allowed[holder][spender] = wad;\n    //     emit Approval(holder, spender, wad);\n    // }\n\n    function supplyOf() external view returns (uint256 balance) {\n        return totalSupply;\n    }\n\n}\n\n//  ** Inheritance of Pouch Token to Make Delegate Calls to implementation Contract. **\n\ncontract PouchDelegate is PouchToken {\n    address public admin;\n    address cDaiAddress = 0xe7bc397DBd069fC7d0109C0636d06888bb50668c;\n    cTokenInterface cDai = cTokenInterface(cDaiAddress);\n\n    address daiAddress = 0x4F96Fe3b7A6Cf9725f59d353F723c1bDb64CA6Aa;\n    TokenInterface daiToken = TokenInterface(daiAddress);\n\n    address public ImplementationAddress;\n    bytes32 public DOMAIN_SEPARATOR;\n\n    bytes32 public constant DEPOSIT_TYPEHASH = keccak256(\n        \"Deposit(address holder,uint256 value)\"\n    );\n    bytes32 public constant WITHDRAW_TYPEHASH = keccak256(\n        \"Withdraw(address holder,uint256 value)\"\n    );\n    bytes32 public constant TRANSACT_TYPEHASH = keccak256(\n        \"Transact(address holder,address to,uint256 value)\"\n    );\n\n    constructor(uint256 _chainId) public {\n        DOMAIN_SEPARATOR = keccak256(\n            abi.encode(\n                keccak256(\n                    \"EIP712Domain(string name,string version,uint256 chainId,address verifyingContract)\"\n                ),\n                keccak256(bytes(name)),\n                keccak256(bytes(version)),\n                _chainId,\n                address(this)\n            )\n        );\n\n        admin = msg.sender;\n    }\n\n    // ** Internal Functions **\n\n    modifier adminOnly() {\n        require(msg.sender == admin, \"Restricted Access to Admin Only\");\n        _;\n    }\n\n    // ** Update Implementation Address **\n    function updateLogic(address _newImplemenationAddress) external adminOnly {\n        require(msg.sender == admin, \"Admin Only\");\n        ImplementationAddress = _newImplemenationAddress;\n    }\n\n    // ** Delegate Calls **\n\n    // Internal Delegate Function **\n    function _ImplementDelegationCore(\n        address _holder,\n        uint256 _value,\n        bytes32 _r,\n        bytes32 _s,\n        uint8 _v,\n        bytes memory logic\n    ) internal returns (bool) {\n        (bool status, bytes memory returnedData) = ImplementationAddress\n            .delegatecall(\n            abi.encodeWithSelector(\n                bytes4(keccak256(logic)),\n                _holder,\n                _value,\n                _r,\n                _s,\n                _v\n            )\n        );\n        require(status);\n        return abi.decode(returnedData, (bool));\n    }\n\n    // ** Internal Functions **\n\n    function _mint(address _to, uint256 _value)\n        internal\n        returns (bool success)\n    {\n        balances[_to] += _value;\n        totalSupply += _value;\n        emit Transfer(address(0), _to, _value);\n        return true;\n    }\n\n    function _transfer(address _from, address _to, uint256 _value)\n        internal\n        returns (bool success)\n    {\n        require(balances[_from] >= _value);\n        balances[_from] -= _value;\n        balances[_to] += _value;\n        emit Transfer(_from, _to, _value);\n        return true;\n    }\n\n    // function deposit(address holder,\n    //         uint256 value,\n    //         bytes32 r,\n    //         bytes32 s,\n    //         uint8 v) public returns (bool){\n    //           return _ImplementDelegationCore(holder,value,r,s,v, \"deposit(address,uint256,bytes32,bytes32,uint8\");\n    //     }\n\n    function deposit(\n        address holder,\n        uint256 value,\n        bytes32 r,\n        bytes32 s,\n        uint8 v\n    ) public returns (bool) {\n        bytes32 digest = keccak256(\n            abi.encodePacked(\n                \"\\x19\\x01\",\n                DOMAIN_SEPARATOR,\n                keccak256(abi.encode(DEPOSIT_TYPEHASH, holder, value))\n            )\n        );\n\n        require(holder != address(0), \"Pouch/invalid-address-0\");\n        require(holder == ecrecover(digest, v, r, s), \"Pouch/invalid-permit\");\n\n        // ** Check for sufficient Funds **\n        uint256 userBalance = daiToken.balanceOf(holder);\n        require(userBalance >= value, \"Insufficient Funds\");\n\n        daiToken.transferFrom(holder, address(this), value); // **Transfer User's DAI**\n        balances[holder] += value;\n        totalSupply += value;\n        emit Transfer(address(0), holder, value); // **Mint PCH tokens for the User**\n        daiToken.approve(cDaiAddress, value);\n        cDai.mint(value); // **Mint cDai  **\n        return true;\n    }\n\n    // function deposit(\n    // // address holder,\n    //         uint256 value\n    //         // bytes32 r,\n    //         // bytes32 s,\n    //         // uint8 v\n    //         ) public returns (bool){\n    //           (bool status, bytes memory returnedData) = ImplementationAddress.delegatecall(abi.encodeWithSelector(bytes4(keccak256(\"deposit(uint256)\")) ,value));\n    //         require(status);\n    //         return abi.decode(returnedData,(bool));\n    //     }\n\n    // ** Withdraw DAI**\n    function withdraw(\n        address holder,\n        uint256 value,\n        bytes32 r,\n        bytes32 s,\n        uint8 v\n    ) public returns (bool) {\n        bytes32 digest = keccak256(\n            abi.encodePacked(\n                \"\\x19\\x01\",\n                DOMAIN_SEPARATOR,\n                keccak256(abi.encode(WITHDRAW_TYPEHASH, holder, value))\n            )\n        );\n\n        require(holder != address(0), \"Pouch/invalid-address-0\");\n        require(holder == ecrecover(digest, v, r, s), \"Pouch/invalid-permit\");\n        require(value <= balances[holder], \"Insufficient Funds\");\n\n        //          ** Burn Pouch Token **\n        _transfer(holder, address(0), value);\n        totalSupply -= value;\n\n        //         **  Redeem User's DAI from compound and transfer it to user.**\n        cDai.redeemUnderlying(value);\n        daiToken.transfer(holder, value);\n        return true;\n    }\n\n    //     function getExchangeRate() view public returns (uint) {\n    //         return cDai.exchangeRateCurrent();\n    //     }\n\n    //   function _randomReward() internal view returns (uint) {\n    //         uint randomnumber = uint(keccak256(abi.encodePacked(now, msg.sender,block.number))) % 5;\n    //         return randomnumber.mul(1e10);\n    //     }\n\n    function transact(\n        address holder,\n        address to,\n        uint256 value,\n        bytes32 r,\n        bytes32 s,\n        uint8 v\n    ) public returns (bool) {\n        bytes32 digest = keccak256(\n            abi.encodePacked(\n                \"\\x19\\x01\",\n                DOMAIN_SEPARATOR,\n                keccak256(abi.encode(TRANSACT_TYPEHASH, holder, to, value))\n            )\n        );\n\n        require(holder != address(0), \"Pouch/invalid-address-0\");\n        require(holder == ecrecover(digest, v, r, s), \"Pouch/invalid-permit\");\n        require(value <= balances[holder], \"Insufficient Funds\");\n        require(to != address(0));\n\n        // ** Transfer Funds **\n        _transfer(holder, to, value);\n\n        // ** Transfer Rewards,if Any. **\n        // if (value >= 1e18){\n        //     uint profitInDai =  _checkProfits().mul(getExchangeRate());\n        //     uint checkProfitInDai = profitInDai.div(1e18);\n        //     if(checkProfitInDai >= 1e11){\n        //         uint myReward =  _randomReward();\n        //         cDai.redeemUnderlying(myReward);\n        //         daiToken.transfer(msg.sender, myReward);\n\n        //     return true;\n        //     }\n        // }\n        return true;\n    }\n\n    function checkProfits() public view adminOnly returns (uint256) {\n        (bool status, bytes memory returnedData) = ImplementationAddress\n            .staticcall(\n            abi.encodeWithSelector(bytes4(keccak256(\"_checkProfits()\")))\n        );\n        require(status);\n        return abi.decode(returnedData, (uint256));\n    }\n\n    function spitProfits() public adminOnly returns (bool) {\n        (bool status, bytes memory returnedData) = ImplementationAddress\n            .delegatecall(\n            abi.encodeWithSelector(bytes4(keccak256(\"_spitProfits()\")))\n        );\n        require(status);\n        return abi.decode(returnedData, (bool));\n    }\n\n    /**\n     * @notice Delegates execution to an implementation contract\n     * @dev It returns to the external caller whatever the implementation returns or forwards reverts\n     */\n    function() external {\n        // delegate all other functions to current implementation\n        (bool status, ) = ImplementationAddress.delegatecall(msg.data);\n        require(status);\n\n    }\n\n}\n",
  "sourcePath": "/home/roheat/blockchain/projects/biconomy/boundless/contracts/PouchSingle.sol",
  "compiler": {
    "name": "solc",
    "version": "0.5.0+commit.1d4f565a.Emscripten.clang"
  },
  "schemaVersion": "3.0.1",
  "updatedAt": "2020-02-18T18:34:31.696Z",
  "devdoc": {
    "methods": {}
  },
  "userdoc": {
    "methods": {}
  }
}