{
  "contractName": "PouchDelegate",
  "abi": [
    {
      "inputs": [
        {
          "internalType": "uint256",
          "name": "_chainId",
          "type": "uint256"
        }
      ],
      "payable": false,
      "stateMutability": "nonpayable",
      "type": "constructor"
    },
    {
      "anonymous": false,
      "inputs": [
        {
          "indexed": true,
          "internalType": "address",
          "name": "_owner",
          "type": "address"
        },
        {
          "indexed": true,
          "internalType": "address",
          "name": "_spender",
          "type": "address"
        },
        {
          "indexed": false,
          "internalType": "uint256",
          "name": "_value",
          "type": "uint256"
        }
      ],
      "name": "Approval",
      "type": "event"
    },
    {
      "anonymous": false,
      "inputs": [
        {
          "indexed": true,
          "internalType": "address",
          "name": "_from",
          "type": "address"
        },
        {
          "indexed": true,
          "internalType": "address",
          "name": "_to",
          "type": "address"
        },
        {
          "indexed": false,
          "internalType": "uint256",
          "name": "_value",
          "type": "uint256"
        }
      ],
      "name": "Reward",
      "type": "event"
    },
    {
      "anonymous": false,
      "inputs": [
        {
          "indexed": true,
          "internalType": "address",
          "name": "_from",
          "type": "address"
        },
        {
          "indexed": true,
          "internalType": "address",
          "name": "_to",
          "type": "address"
        },
        {
          "indexed": false,
          "internalType": "uint256",
          "name": "_value",
          "type": "uint256"
        }
      ],
      "name": "Transfer",
      "type": "event"
    },
    {
      "payable": false,
      "stateMutability": "nonpayable",
      "type": "fallback"
    },
    {
      "constant": true,
      "inputs": [],
      "name": "DEPOSIT_TYPEHASH",
      "outputs": [
        {
          "internalType": "bytes32",
          "name": "",
          "type": "bytes32"
        }
      ],
      "payable": false,
      "stateMutability": "view",
      "type": "function"
    },
    {
      "constant": true,
      "inputs": [],
      "name": "DOMAIN_SEPARATOR",
      "outputs": [
        {
          "internalType": "bytes32",
          "name": "",
          "type": "bytes32"
        }
      ],
      "payable": false,
      "stateMutability": "view",
      "type": "function"
    },
    {
      "constant": true,
      "inputs": [],
      "name": "ImplementationAddress",
      "outputs": [
        {
          "internalType": "address",
          "name": "",
          "type": "address"
        }
      ],
      "payable": false,
      "stateMutability": "view",
      "type": "function"
    },
    {
      "constant": true,
      "inputs": [],
      "name": "TRANSACT_TYPEHASH",
      "outputs": [
        {
          "internalType": "bytes32",
          "name": "",
          "type": "bytes32"
        }
      ],
      "payable": false,
      "stateMutability": "view",
      "type": "function"
    },
    {
      "constant": true,
      "inputs": [],
      "name": "WITHDRAW_TYPEHASH",
      "outputs": [
        {
          "internalType": "bytes32",
          "name": "",
          "type": "bytes32"
        }
      ],
      "payable": false,
      "stateMutability": "view",
      "type": "function"
    },
    {
      "constant": true,
      "inputs": [],
      "name": "admin",
      "outputs": [
        {
          "internalType": "address",
          "name": "",
          "type": "address"
        }
      ],
      "payable": false,
      "stateMutability": "view",
      "type": "function"
    },
    {
      "constant": true,
      "inputs": [
        {
          "internalType": "address",
          "name": "_owner",
          "type": "address"
        },
        {
          "internalType": "address",
          "name": "_spender",
          "type": "address"
        }
      ],
      "name": "allowance",
      "outputs": [
        {
          "internalType": "uint256",
          "name": "remaining",
          "type": "uint256"
        }
      ],
      "payable": false,
      "stateMutability": "view",
      "type": "function"
    },
    {
      "constant": true,
      "inputs": [
        {
          "internalType": "address",
          "name": "",
          "type": "address"
        },
        {
          "internalType": "address",
          "name": "",
          "type": "address"
        }
      ],
      "name": "allowed",
      "outputs": [
        {
          "internalType": "uint256",
          "name": "",
          "type": "uint256"
        }
      ],
      "payable": false,
      "stateMutability": "view",
      "type": "function"
    },
    {
      "constant": false,
      "inputs": [
        {
          "internalType": "address",
          "name": "_spender",
          "type": "address"
        },
        {
          "internalType": "uint256",
          "name": "_value",
          "type": "uint256"
        }
      ],
      "name": "approve",
      "outputs": [
        {
          "internalType": "bool",
          "name": "success",
          "type": "bool"
        }
      ],
      "payable": false,
      "stateMutability": "nonpayable",
      "type": "function"
    },
    {
      "constant": true,
      "inputs": [
        {
          "internalType": "address",
          "name": "_owner",
          "type": "address"
        }
      ],
      "name": "balanceOf",
      "outputs": [
        {
          "internalType": "uint256",
          "name": "balance",
          "type": "uint256"
        }
      ],
      "payable": false,
      "stateMutability": "view",
      "type": "function"
    },
    {
      "constant": true,
      "inputs": [
        {
          "internalType": "address",
          "name": "",
          "type": "address"
        }
      ],
      "name": "balances",
      "outputs": [
        {
          "internalType": "uint256",
          "name": "",
          "type": "uint256"
        }
      ],
      "payable": false,
      "stateMutability": "view",
      "type": "function"
    },
    {
      "constant": true,
      "inputs": [],
      "name": "decimals",
      "outputs": [
        {
          "internalType": "uint8",
          "name": "",
          "type": "uint8"
        }
      ],
      "payable": false,
      "stateMutability": "view",
      "type": "function"
    },
    {
      "constant": true,
      "inputs": [],
      "name": "name",
      "outputs": [
        {
          "internalType": "string",
          "name": "",
          "type": "string"
        }
      ],
      "payable": false,
      "stateMutability": "view",
      "type": "function"
    },
    {
      "constant": true,
      "inputs": [
        {
          "internalType": "address",
          "name": "",
          "type": "address"
        }
      ],
      "name": "nonces",
      "outputs": [
        {
          "internalType": "uint256",
          "name": "",
          "type": "uint256"
        }
      ],
      "payable": false,
      "stateMutability": "view",
      "type": "function"
    },
    {
      "constant": true,
      "inputs": [
        {
          "internalType": "address",
          "name": "",
          "type": "address"
        }
      ],
      "name": "rewards",
      "outputs": [
        {
          "internalType": "uint256",
          "name": "",
          "type": "uint256"
        }
      ],
      "payable": false,
      "stateMutability": "view",
      "type": "function"
    },
    {
      "constant": true,
      "inputs": [],
      "name": "supplyOf",
      "outputs": [
        {
          "internalType": "uint256",
          "name": "balance",
          "type": "uint256"
        }
      ],
      "payable": false,
      "stateMutability": "view",
      "type": "function"
    },
    {
      "constant": true,
      "inputs": [],
      "name": "symbol",
      "outputs": [
        {
          "internalType": "string",
          "name": "",
          "type": "string"
        }
      ],
      "payable": false,
      "stateMutability": "view",
      "type": "function"
    },
    {
      "constant": true,
      "inputs": [],
      "name": "totalSupply",
      "outputs": [
        {
          "internalType": "uint256",
          "name": "",
          "type": "uint256"
        }
      ],
      "payable": false,
      "stateMutability": "view",
      "type": "function"
    },
    {
      "constant": false,
      "inputs": [
        {
          "internalType": "address",
          "name": "_to",
          "type": "address"
        },
        {
          "internalType": "uint256",
          "name": "_value",
          "type": "uint256"
        }
      ],
      "name": "transfer",
      "outputs": [
        {
          "internalType": "bool",
          "name": "success",
          "type": "bool"
        }
      ],
      "payable": false,
      "stateMutability": "nonpayable",
      "type": "function"
    },
    {
      "constant": false,
      "inputs": [
        {
          "internalType": "address",
          "name": "_from",
          "type": "address"
        },
        {
          "internalType": "address",
          "name": "_to",
          "type": "address"
        },
        {
          "internalType": "uint256",
          "name": "_value",
          "type": "uint256"
        }
      ],
      "name": "transferFrom",
      "outputs": [
        {
          "internalType": "bool",
          "name": "success",
          "type": "bool"
        }
      ],
      "payable": false,
      "stateMutability": "nonpayable",
      "type": "function"
    },
    {
      "constant": true,
      "inputs": [],
      "name": "version",
      "outputs": [
        {
          "internalType": "string",
          "name": "",
          "type": "string"
        }
      ],
      "payable": false,
      "stateMutability": "view",
      "type": "function"
    },
    {
      "constant": false,
      "inputs": [
        {
          "internalType": "address",
          "name": "_newImplemenationAddress",
          "type": "address"
        }
      ],
      "name": "updateLogic",
      "outputs": [],
      "payable": false,
      "stateMutability": "nonpayable",
      "type": "function"
    },
    {
      "constant": false,
      "inputs": [
        {
          "internalType": "address",
          "name": "holder",
          "type": "address"
        },
        {
          "internalType": "uint256",
          "name": "value",
          "type": "uint256"
        },
        {
          "internalType": "uint256",
          "name": "nonce",
          "type": "uint256"
        },
        {
          "internalType": "bytes32",
          "name": "r",
          "type": "bytes32"
        },
        {
          "internalType": "bytes32",
          "name": "s",
          "type": "bytes32"
        },
        {
          "internalType": "uint8",
          "name": "v",
          "type": "uint8"
        }
      ],
      "name": "deposit",
      "outputs": [
        {
          "internalType": "bool",
          "name": "",
          "type": "bool"
        }
      ],
      "payable": false,
      "stateMutability": "nonpayable",
      "type": "function"
    },
    {
      "constant": false,
      "inputs": [
        {
          "internalType": "address",
          "name": "holder",
          "type": "address"
        },
        {
          "internalType": "uint256",
          "name": "value",
          "type": "uint256"
        },
        {
          "internalType": "uint256",
          "name": "nonce",
          "type": "uint256"
        },
        {
          "internalType": "bytes32",
          "name": "r",
          "type": "bytes32"
        },
        {
          "internalType": "bytes32",
          "name": "s",
          "type": "bytes32"
        },
        {
          "internalType": "uint8",
          "name": "v",
          "type": "uint8"
        }
      ],
      "name": "withdraw",
      "outputs": [
        {
          "internalType": "bool",
          "name": "",
          "type": "bool"
        }
      ],
      "payable": false,
      "stateMutability": "nonpayable",
      "type": "function"
    },
    {
      "constant": false,
      "inputs": [
        {
          "internalType": "address",
          "name": "holder",
          "type": "address"
        },
        {
          "internalType": "address",
          "name": "to",
          "type": "address"
        },
        {
          "internalType": "uint256",
          "name": "value",
          "type": "uint256"
        },
        {
          "internalType": "uint256",
          "name": "nonce",
          "type": "uint256"
        },
        {
          "internalType": "bytes32",
          "name": "r",
          "type": "bytes32"
        },
        {
          "internalType": "bytes32",
          "name": "s",
          "type": "bytes32"
        },
        {
          "internalType": "uint8",
          "name": "v",
          "type": "uint8"
        }
      ],
      "name": "transact",
      "outputs": [
        {
          "internalType": "bool",
          "name": "",
          "type": "bool"
        }
      ],
      "payable": false,
      "stateMutability": "nonpayable",
      "type": "function"
    },
    {
      "constant": false,
      "inputs": [
        {
          "internalType": "address",
          "name": "holder",
          "type": "address"
        },
        {
          "internalType": "address",
          "name": "to",
          "type": "address"
        },
        {
          "internalType": "uint256",
          "name": "value",
          "type": "uint256"
        },
        {
          "internalType": "uint256",
          "name": "nonce",
          "type": "uint256"
        },
        {
          "internalType": "bytes32",
          "name": "r",
          "type": "bytes32"
        },
        {
          "internalType": "bytes32",
          "name": "s",
          "type": "bytes32"
        },
        {
          "internalType": "uint8",
          "name": "v",
          "type": "uint8"
        }
      ],
      "name": "transactTest",
      "outputs": [
        {
          "internalType": "bool",
          "name": "",
          "type": "bool"
        }
      ],
      "payable": false,
      "stateMutability": "nonpayable",
      "type": "function"
    },
    {
      "constant": true,
      "inputs": [],
      "name": "checkProfits",
      "outputs": [
        {
          "internalType": "uint256",
          "name": "",
          "type": "uint256"
        }
      ],
      "payable": false,
      "stateMutability": "view",
      "type": "function"
    },
    {
      "constant": false,
      "inputs": [],
      "name": "spitProfits",
      "outputs": [
        {
          "internalType": "bool",
          "name": "",
          "type": "bool"
        }
      ],
      "payable": false,
      "stateMutability": "nonpayable",
      "type": "function"
    },
    {
      "constant": true,
      "inputs": [
        {
          "internalType": "address",
          "name": "holder",
          "type": "address"
        }
      ],
      "name": "userRewards",
      "outputs": [
        {
          "internalType": "uint256",
          "name": "",
          "type": "uint256"
        }
      ],
      "payable": false,
      "stateMutability": "view",
      "type": "function"
    }
  ],
  "bytecode": "0x608060405273e7bc397dbd069fc7d0109c0636d06888bb50668c600460006101000a81548173ffffffffffffffffffffffffffffffffffffffff021916908373ffffffffffffffffffffffffffffffffffffffff160217905550600460009054906101000a900473ffffffffffffffffffffffffffffffffffffffff16600560006101000a81548173ffffffffffffffffffffffffffffffffffffffff021916908373ffffffffffffffffffffffffffffffffffffffff160217905550734f96fe3b7a6cf9725f59d353f723c1bdb64ca6aa600660006101000a81548173ffffffffffffffffffffffffffffffffffffffff021916908373ffffffffffffffffffffffffffffffffffffffff160217905550600660009054906101000a900473ffffffffffffffffffffffffffffffffffffffff16600760006101000a81548173ffffffffffffffffffffffffffffffffffffffff021916908373ffffffffffffffffffffffffffffffffffffffff1602179055503480156200018157600080fd5b5060405162002931380380620029318339818101604052620001a79190810190620002ca565b604051620001b590620003b7565b60405180910390206040518060400160405280600b81526020017f506f75636820546f6b656e000000000000000000000000000000000000000000815250805190602001206040518060400160405280600181526020017f31000000000000000000000000000000000000000000000000000000000000008152508051906020012083306040516020016200024f959493929190620003ce565b6040516020818303038152906040528051906020012060098190555033600360006101000a81548173ffffffffffffffffffffffffffffffffffffffff021916908373ffffffffffffffffffffffffffffffffffffffff1602179055505062000498565b600081519050620002c4816200047e565b92915050565b600060208284031215620002dd57600080fd5b6000620002ed84828501620002b3565b91505092915050565b620003018162000436565b82525050565b62000312816200044a565b82525050565b6000620003276052836200042b565b91507f454950373132446f6d61696e28737472696e67206e616d652c737472696e672060008301527f76657273696f6e2c75696e7432353620636861696e49642c616464726573732060208301527f766572696679696e67436f6e74726163742900000000000000000000000000006040830152605282019050919050565b620003b18162000474565b82525050565b6000620003c48262000318565b9150819050919050565b600060a082019050620003e5600083018862000307565b620003f4602083018762000307565b62000403604083018662000307565b620004126060830185620003a6565b620004216080830184620002f6565b9695505050505050565b600081905092915050565b6000620004438262000454565b9050919050565b6000819050919050565b600073ffffffffffffffffffffffffffffffffffffffff82169050919050565b6000819050919050565b620004898162000474565b81146200049557600080fd5b50565b61248980620004a86000396000f3fe608060405234801561001057600080fd5b50600436106101cf5760003560e01c80635c65816511610104578063a9059cbb116100a2578063d7a8e87b11610071578063d7a8e87b14610642578063dd62ed3e14610660578063e8a667de14610690578063f851a440146106ae576101cf565b8063a9059cbb14610582578063c883ed89146105b2578063cbb40dae146105e2578063cfefd24114610612576101cf565b8063795e617e116100de578063795e617e146104fa5780637ecebe0014610516578063890268f81461054657806395d89b4114610564576101cf565b80635c6581651461047c57806370a08231146104ac57806376c5d758146104dc576101cf565b806323b872dd116101715780633644e5151161014b5780633644e5151461040457806348825e9414610422578063523a50d01461044057806354fd4d501461045e576101cf565b806323b872dd1461038657806327e235e3146103b6578063313ce567146103e6576101cf565b8063095ea7b3116101ad578063095ea7b3146102ea5780630df731161461031a57806312c6abb81461033857806318160ddd14610368576101cf565b80630660f1e81461026c57806306fdde031461029c5780630700037d146102ba575b6000600860009054906101000a900473ffffffffffffffffffffffffffffffffffffffff1673ffffffffffffffffffffffffffffffffffffffff1660003660405161021b92919061203e565b600060405180830381855af49150503d8060008114610256576040519150601f19603f3d011682016040523d82523d6000602084013e61025b565b606091505b505090508061026957600080fd5b50005b6102866004803603610281919081019061190b565b6106cc565b60405161029391906122ae565b60405180910390f35b6102a4610715565b6040516102b1919061224c565b60405180910390f35b6102d460048036036102cf919081019061190b565b61074e565b6040516102e191906122ae565b60405180910390f35b61030460048036036102ff9190810190611a5d565b610766565b6040516103119190612216565b60405180910390f35b610322610858565b60405161032f9190612231565b60405180910390f35b610352600480360361034d91908101906119bf565b61086f565b60405161035f9190612216565b60405180910390f35b6103706109ba565b60405161037d91906122ae565b60405180910390f35b6103a0600480360361039b9190810190611970565b6109c0565b6040516103ad9190612216565b60405180910390f35b6103d060048036036103cb919081019061190b565b610c58565b6040516103dd91906122ae565b60405180910390f35b6103ee610c70565b6040516103fb91906122c9565b60405180910390f35b61040c610c75565b6040516104199190612231565b60405180910390f35b61042a610c7b565b6040516104379190612231565b60405180910390f35b610448610c92565b60405161045591906122ae565b60405180910390f35b610466610c9b565b604051610473919061224c565b60405180910390f35b61049660048036036104919190810190611934565b610cd4565b6040516104a391906122ae565b60405180910390f35b6104c660048036036104c1919081019061190b565b610cf9565b6040516104d391906122ae565b60405180910390f35b6104e4610d42565b6040516104f19190612231565b60405180910390f35b610514600480360361050f919081019061190b565b610d59565b005b610530600480360361052b919081019061190b565b610ebd565b60405161053d91906122ae565b60405180910390f35b61054e610ed5565b60405161055b9190612216565b60405180910390f35b61056c611092565b604051610579919061224c565b60405180910390f35b61059c60048036036105979190810190611a5d565b6110cb565b6040516105a99190612216565b60405180910390f35b6105cc60048036036105c791908101906119bf565b611222565b6040516105d99190612216565b60405180910390f35b6105fc60048036036105f79190810190611a99565b61136d565b6040516106099190612216565b60405180910390f35b61062c60048036036106279190810190611a99565b6114b5565b6040516106399190612216565b60405180910390f35b61064a6115fd565b60405161065791906122ae565b60405180910390f35b61067a60048036036106759190810190611934565b6117ba565b60405161068791906122ae565b60405180910390f35b610698611841565b6040516106a5919061212b565b60405180910390f35b6106b6611867565b6040516106c3919061212b565b60405180910390f35b6000600b60008373ffffffffffffffffffffffffffffffffffffffff1673ffffffffffffffffffffffffffffffffffffffff168152602001908152602001600020549050919050565b6040518060400160405280600b81526020017f506f75636820546f6b656e00000000000000000000000000000000000000000081525081565b600b6020528060005260406000206000915090505481565b600081600260003373ffffffffffffffffffffffffffffffffffffffff1673ffffffffffffffffffffffffffffffffffffffff16815260200190815260200160002060008573ffffffffffffffffffffffffffffffffffffffff1673ffffffffffffffffffffffffffffffffffffffff168152602001908152602001600020819055508273ffffffffffffffffffffffffffffffffffffffff163373ffffffffffffffffffffffffffffffffffffffff167f8c5be1e5ebec7d5bd14f71427d1e84f3dd0314c0f7b2291e5b200ac8c7c3b9258460405161084691906122ae565b60405180910390a36001905092915050565b60405161086490612116565b604051809103902081565b6000806060600860009054906101000a900473ffffffffffffffffffffffffffffffffffffffff1673ffffffffffffffffffffffffffffffffffffffff166040516108b99061206e565b60405180910390208b8b8b8b8b8b8b6040516024016108de9796959493929190612146565b604051602081830303815290604052907bffffffffffffffffffffffffffffffffffffffffffffffffffffffff19166020820180517bffffffffffffffffffffffffffffffffffffffffffffffffffffffff83818316178352505050506040516109489190612057565b600060405180830381855af49150503d8060008114610983576040519150601f19603f3d011682016040523d82523d6000602084013e610988565b606091505b50915091508161099757600080fd5b808060200190516109ab9190810190611b22565b92505050979650505050505050565b60005481565b600080600260008673ffffffffffffffffffffffffffffffffffffffff1673ffffffffffffffffffffffffffffffffffffffff16815260200190815260200160002060003373ffffffffffffffffffffffffffffffffffffffff1673ffffffffffffffffffffffffffffffffffffffff16815260200190815260200160002054905082600160008773ffffffffffffffffffffffffffffffffffffffff1673ffffffffffffffffffffffffffffffffffffffff1681526020019081526020016000205410158015610a915750828110155b610a9a57600080fd5b82600160008673ffffffffffffffffffffffffffffffffffffffff1673ffffffffffffffffffffffffffffffffffffffff1681526020019081526020016000206000828254019250508190555082600160008773ffffffffffffffffffffffffffffffffffffffff1673ffffffffffffffffffffffffffffffffffffffff168152602001908152602001600020600082825403925050819055507fffffffffffffffffffffffffffffffffffffffffffffffffffffffffffffffff811015610be75782600260008773ffffffffffffffffffffffffffffffffffffffff1673ffffffffffffffffffffffffffffffffffffffff16815260200190815260200160002060003373ffffffffffffffffffffffffffffffffffffffff1673ffffffffffffffffffffffffffffffffffffffff168152602001908152602001600020600082825403925050819055505b8373ffffffffffffffffffffffffffffffffffffffff168573ffffffffffffffffffffffffffffffffffffffff167fddf252ad1be2c89b69c2b068fc378daa952ba7f163c4a11628f55a4df523b3ef85604051610c4491906122ae565b60405180910390a360019150509392505050565b60016020528060005260406000206000915090505481565b601281565b60095481565b604051610c8790612098565b604051809103902081565b60008054905090565b6040518060400160405280600181526020017f310000000000000000000000000000000000000000000000000000000000000081525081565b6002602052816000526040600020602052806000526040600020600091509150505481565b6000600160008373ffffffffffffffffffffffffffffffffffffffff1673ffffffffffffffffffffffffffffffffffffffff168152602001908152602001600020549050919050565b604051610d4e90612083565b604051809103902081565b600360009054906101000a900473ffffffffffffffffffffffffffffffffffffffff1673ffffffffffffffffffffffffffffffffffffffff163373ffffffffffffffffffffffffffffffffffffffff1614610de9576040517f08c379a0000000000000000000000000000000000000000000000000000000008152600401610de09061226e565b60405180910390fd5b600360009054906101000a900473ffffffffffffffffffffffffffffffffffffffff1673ffffffffffffffffffffffffffffffffffffffff163373ffffffffffffffffffffffffffffffffffffffff1614610e79576040517f08c379a0000000000000000000000000000000000000000000000000000000008152600401610e709061228e565b60405180910390fd5b80600860006101000a81548173ffffffffffffffffffffffffffffffffffffffff021916908373ffffffffffffffffffffffffffffffffffffffff16021790555050565b600a6020528060005260406000206000915090505481565b6000600360009054906101000a900473ffffffffffffffffffffffffffffffffffffffff1673ffffffffffffffffffffffffffffffffffffffff163373ffffffffffffffffffffffffffffffffffffffff1614610f67576040517f08c379a0000000000000000000000000000000000000000000000000000000008152600401610f5e9061226e565b60405180910390fd5b60006060600860009054906101000a900473ffffffffffffffffffffffffffffffffffffffff1673ffffffffffffffffffffffffffffffffffffffff16604051610fb0906120ad565b6040518091039020604051602401604051602081830303815290604052907bffffffffffffffffffffffffffffffffffffffffffffffffffffffff19166020820180517bffffffffffffffffffffffffffffffffffffffffffffffffffffffff83818316178352505050506040516110289190612057565b600060405180830381855af49150503d8060008114611063576040519150601f19603f3d011682016040523d82523d6000602084013e611068565b606091505b50915091508161107757600080fd5b8080602001905161108b9190810190611b22565b9250505090565b6040518060400160405280600381526020017f504348000000000000000000000000000000000000000000000000000000000081525081565b600081600160003373ffffffffffffffffffffffffffffffffffffffff1673ffffffffffffffffffffffffffffffffffffffff16815260200190815260200160002054101561111957600080fd5b81600160003373ffffffffffffffffffffffffffffffffffffffff1673ffffffffffffffffffffffffffffffffffffffff1681526020019081526020016000206000828254039250508190555081600160008573ffffffffffffffffffffffffffffffffffffffff1673ffffffffffffffffffffffffffffffffffffffff168152602001908152602001600020600082825401925050819055508273ffffffffffffffffffffffffffffffffffffffff163373ffffffffffffffffffffffffffffffffffffffff167fddf252ad1be2c89b69c2b068fc378daa952ba7f163c4a11628f55a4df523b3ef8460405161121091906122ae565b60405180910390a36001905092915050565b6000806060600860009054906101000a900473ffffffffffffffffffffffffffffffffffffffff1673ffffffffffffffffffffffffffffffffffffffff1660405161126c906120c2565b60405180910390208b8b8b8b8b8b8b6040516024016112919796959493929190612146565b604051602081830303815290604052907bffffffffffffffffffffffffffffffffffffffffffffffffffffffff19166020820180517bffffffffffffffffffffffffffffffffffffffffffffffffffffffff83818316178352505050506040516112fb9190612057565b600060405180830381855af49150503d8060008114611336576040519150601f19603f3d011682016040523d82523d6000602084013e61133b565b606091505b50915091508161134a57600080fd5b8080602001905161135e9190810190611b22565b92505050979650505050505050565b6000806060600860009054906101000a900473ffffffffffffffffffffffffffffffffffffffff1673ffffffffffffffffffffffffffffffffffffffff166040516113b7906120d7565b60405180910390208a8a8a8a8a8a6040516024016113da969594939291906121b5565b604051602081830303815290604052907bffffffffffffffffffffffffffffffffffffffffffffffffffffffff19166020820180517bffffffffffffffffffffffffffffffffffffffffffffffffffffffff83818316178352505050506040516114449190612057565b600060405180830381855af49150503d806000811461147f576040519150601f19603f3d011682016040523d82523d6000602084013e611484565b606091505b50915091508161149357600080fd5b808060200190516114a79190810190611b22565b925050509695505050505050565b6000806060600860009054906101000a900473ffffffffffffffffffffffffffffffffffffffff1673ffffffffffffffffffffffffffffffffffffffff166040516114ff906120ec565b60405180910390208a8a8a8a8a8a604051602401611522969594939291906121b5565b604051602081830303815290604052907bffffffffffffffffffffffffffffffffffffffffffffffffffffffff19166020820180517bffffffffffffffffffffffffffffffffffffffffffffffffffffffff838183161783525050505060405161158c9190612057565b600060405180830381855af49150503d80600081146115c7576040519150601f19603f3d011682016040523d82523d6000602084013e6115cc565b606091505b5091509150816115db57600080fd5b808060200190516115ef9190810190611b22565b925050509695505050505050565b6000600360009054906101000a900473ffffffffffffffffffffffffffffffffffffffff1673ffffffffffffffffffffffffffffffffffffffff163373ffffffffffffffffffffffffffffffffffffffff161461168f576040517f08c379a00000000000000000000000000000000000000000000000000000000081526004016116869061226e565b60405180910390fd5b60006060600860009054906101000a900473ffffffffffffffffffffffffffffffffffffffff1673ffffffffffffffffffffffffffffffffffffffff166040516116d890612101565b6040518091039020604051602401604051602081830303815290604052907bffffffffffffffffffffffffffffffffffffffffffffffffffffffff19166020820180517bffffffffffffffffffffffffffffffffffffffffffffffffffffffff83818316178352505050506040516117509190612057565b600060405180830381855afa9150503d806000811461178b576040519150601f19603f3d011682016040523d82523d6000602084013e611790565b606091505b50915091508161179f57600080fd5b808060200190516117b39190810190611b4b565b9250505090565b6000600260008473ffffffffffffffffffffffffffffffffffffffff1673ffffffffffffffffffffffffffffffffffffffff16815260200190815260200160002060008373ffffffffffffffffffffffffffffffffffffffff1673ffffffffffffffffffffffffffffffffffffffff16815260200190815260200160002054905092915050565b600860009054906101000a900473ffffffffffffffffffffffffffffffffffffffff1681565b600360009054906101000a900473ffffffffffffffffffffffffffffffffffffffff1681565b60008135905061189c816123d3565b92915050565b6000815190506118b1816123ea565b92915050565b6000813590506118c681612401565b92915050565b6000813590506118db81612418565b92915050565b6000815190506118f081612418565b92915050565b6000813590506119058161242f565b92915050565b60006020828403121561191d57600080fd5b600061192b8482850161188d565b91505092915050565b6000806040838503121561194757600080fd5b60006119558582860161188d565b92505060206119668582860161188d565b9150509250929050565b60008060006060848603121561198557600080fd5b60006119938682870161188d565b93505060206119a48682870161188d565b92505060406119b5868287016118cc565b9150509250925092565b600080600080600080600060e0888a0312156119da57600080fd5b60006119e88a828b0161188d565b97505060206119f98a828b0161188d565b9650506040611a0a8a828b016118cc565b9550506060611a1b8a828b016118cc565b9450506080611a2c8a828b016118b7565b93505060a0611a3d8a828b016118b7565b92505060c0611a4e8a828b016118f6565b91505092959891949750929550565b60008060408385031215611a7057600080fd5b6000611a7e8582860161188d565b9250506020611a8f858286016118cc565b9150509250929050565b60008060008060008060c08789031215611ab257600080fd5b6000611ac089828a0161188d565b9650506020611ad189828a016118cc565b9550506040611ae289828a016118cc565b9450506060611af389828a016118b7565b9350506080611b0489828a016118b7565b92505060a0611b1589828a016118f6565b9150509295509295509295565b600060208284031215611b3457600080fd5b6000611b42848285016118a2565b91505092915050565b600060208284031215611b5d57600080fd5b6000611b6b848285016118e1565b91505092915050565b611b7d81612321565b82525050565b611b8c81612333565b82525050565b611b9b8161233f565b82525050565b6000611bad83856122fa565b9350611bba838584612380565b82840190509392505050565b6000611bd1826122e4565b611bdb81856122fa565b9350611beb81856020860161238f565b80840191505092915050565b6000611c02826122ef565b611c0c8185612305565b9350611c1c81856020860161238f565b611c25816123c2565b840191505092915050565b6000611c3d603f83612316565b91507f7472616e7361637428616464726573732c616464726573732c75696e7432353660008301527f2c75696e743235362c627974657333322c627974657333322c75696e743829006020830152603f82019050919050565b6000611ca3601f83612305565b91507f526573747269637465642041636365737320746f2041646d696e204f6e6c79006000830152602082019050919050565b6000611ce3603483612316565b91507f5769746864726177286164647265737320686f6c6465722c75696e743235362060008301527f76616c75652c75696e74323536206e6f6e6365290000000000000000000000006020830152603482019050919050565b6000611d49600a83612305565b91507f41646d696e204f6e6c79000000000000000000000000000000000000000000006000830152602082019050919050565b6000611d89603383612316565b91507f4465706f736974286164647265737320686f6c6465722c75696e74323536207660008301527f616c75652c75696e74323536206e6f6e636529000000000000000000000000006020830152603382019050919050565b6000611def600d83612316565b91507f7370697450726f666974732829000000000000000000000000000000000000006000830152600d82019050919050565b6000611e2f604383612316565b91507f7472616e736163745465737428616464726573732c616464726573732c75696e60008301527f743235362c75696e743235362c627974657333322c627974657333322c75696e60208301527f74382900000000000000000000000000000000000000000000000000000000006040830152604382019050919050565b6000611ebb603783612316565b91507f776974686472617728616464726573732c75696e743235362c75696e7432353660008301527f2c627974657333322c627974657333322c75696e7438290000000000000000006020830152603782019050919050565b6000611f21603683612316565b91507f6465706f73697428616464726573732c75696e743235362c75696e743235362c60008301527f627974657333322c627974657333322c75696e743829000000000000000000006020830152603682019050919050565b6000611f87600e83612316565b91507f636865636b50726f6669747328290000000000000000000000000000000000006000830152600e82019050919050565b6000611fc7603f83612316565b91507f5472616e73616374286164647265737320686f6c6465722c616464726573732060008301527f746f2c75696e743235362076616c75652c75696e74323536206e6f6e636529006020830152603f82019050919050565b61202981612369565b82525050565b61203881612373565b82525050565b600061204b828486611ba1565b91508190509392505050565b60006120638284611bc6565b915081905092915050565b600061207982611c30565b9150819050919050565b600061208e82611cd6565b9150819050919050565b60006120a382611d7c565b9150819050919050565b60006120b882611de2565b9150819050919050565b60006120cd82611e22565b9150819050919050565b60006120e282611eae565b9150819050919050565b60006120f782611f14565b9150819050919050565b600061210c82611f7a565b9150819050919050565b600061212182611fba565b9150819050919050565b60006020820190506121406000830184611b74565b92915050565b600060e08201905061215b600083018a611b74565b6121686020830189611b74565b6121756040830188612020565b6121826060830187612020565b61218f6080830186611b92565b61219c60a0830185611b92565b6121a960c083018461202f565b98975050505050505050565b600060c0820190506121ca6000830189611b74565b6121d76020830188612020565b6121e46040830187612020565b6121f16060830186611b92565b6121fe6080830185611b92565b61220b60a083018461202f565b979650505050505050565b600060208201905061222b6000830184611b83565b92915050565b60006020820190506122466000830184611b92565b92915050565b600060208201905081810360008301526122668184611bf7565b905092915050565b6000602082019050818103600083015261228781611c96565b9050919050565b600060208201905081810360008301526122a781611d3c565b9050919050565b60006020820190506122c36000830184612020565b92915050565b60006020820190506122de600083018461202f565b92915050565b600081519050919050565b600081519050919050565b600081905092915050565b600082825260208201905092915050565b600081905092915050565b600061232c82612349565b9050919050565b60008115159050919050565b6000819050919050565b600073ffffffffffffffffffffffffffffffffffffffff82169050919050565b6000819050919050565b600060ff82169050919050565b82818337600083830152505050565b60005b838110156123ad578082015181840152602081019050612392565b838111156123bc576000848401525b50505050565b6000601f19601f8301169050919050565b6123dc81612321565b81146123e757600080fd5b50565b6123f381612333565b81146123fe57600080fd5b50565b61240a8161233f565b811461241557600080fd5b50565b61242181612369565b811461242c57600080fd5b50565b61243881612373565b811461244357600080fd5b5056fea365627a7a72315820593102a4422dc7a1f3df42bfdb6bec8724b4309952913abcb5d24de86e5c71046c6578706572696d656e74616cf564736f6c63430005100040",
  "source": "pragma solidity >=0.5.0;\r\npragma experimental ABIEncoderV2;\r\n\r\nimport \"./PouchToken.sol\";\r\n\r\n//  ** Inheritance of Pouch Token to Make Delegate Calls to implementation Contract. **\r\n\r\ncontract PouchDelegate is PouchToken {\r\n    constructor(uint256 _chainId) public {\r\n        DOMAIN_SEPARATOR = keccak256(\r\n            abi.encode(\r\n                keccak256(\r\n                    \"EIP712Domain(string name,string version,uint256 chainId,address verifyingContract)\"\r\n                ),\r\n                keccak256(bytes(name)),\r\n                keccak256(bytes(version)),\r\n                _chainId,\r\n                address(this)\r\n            )\r\n        );\r\n\r\n        admin = msg.sender;\r\n    }\r\n\r\n    // ** Internal Functions **\r\n\r\n    modifier adminOnly() {\r\n        require(msg.sender == admin, \"Restricted Access to Admin Only\");\r\n        _;\r\n    }\r\n\r\n    // ** Update Implementation Address **\r\n    function updateLogic(address _newImplemenationAddress) external adminOnly {\r\n        require(msg.sender == admin, \"Admin Only\");\r\n        ImplementationAddress = _newImplemenationAddress;\r\n    }\r\n\r\n    // ** Delegate calls **\r\n\r\n    // Deposit delegate call\r\n    function deposit(\r\n        address holder,\r\n        uint256 value,\r\n        uint256 nonce,\r\n        bytes32 r,\r\n        bytes32 s,\r\n        uint8 v\r\n    ) public returns (bool) {\r\n        (bool status, bytes memory returnedData) = ImplementationAddress\r\n            .delegatecall(\r\n            abi.encodeWithSelector(\r\n                bytes4(\r\n                    keccak256(\r\n                        \"deposit(address,uint256,uint256,bytes32,bytes32,uint8)\"\r\n                    )\r\n                ),\r\n                holder,\r\n                value,\r\n                nonce,\r\n                r,\r\n                s,\r\n                v\r\n            )\r\n        );\r\n        require(status);\r\n        return abi.decode(returnedData, (bool));\r\n    }\r\n\r\n    // Withdraw delegate call\r\n    function withdraw(\r\n        address holder,\r\n        uint256 value,\r\n        uint256 nonce,\r\n        bytes32 r,\r\n        bytes32 s,\r\n        uint8 v\r\n    ) public returns (bool) {\r\n        (bool status, bytes memory returnedData) = ImplementationAddress\r\n            .delegatecall(\r\n            abi.encodeWithSelector(\r\n                bytes4(\r\n                    keccak256(\r\n                        \"withdraw(address,uint256,uint256,bytes32,bytes32,uint8)\"\r\n                    )\r\n                ),\r\n                holder,\r\n                value,\r\n                nonce,\r\n                r,\r\n                s,\r\n                v\r\n            )\r\n        );\r\n        require(status);\r\n        return abi.decode(returnedData, (bool));\r\n    }\r\n\r\n    // Transact delegate call\r\n    function transact(\r\n        address holder,\r\n        address to,\r\n        uint256 value,\r\n        uint256 nonce,\r\n        bytes32 r,\r\n        bytes32 s,\r\n        uint8 v\r\n    ) public returns (bool) {\r\n        (bool status, bytes memory returnedData) = ImplementationAddress\r\n            .delegatecall(\r\n            abi.encodeWithSelector(\r\n                bytes4(\r\n                    keccak256(\r\n                        \"transact(address,address,uint256,uint256,bytes32,bytes32,uint8)\"\r\n                    )\r\n                ),\r\n                holder,\r\n                to,\r\n                value,\r\n                nonce,\r\n                r,\r\n                s,\r\n                v\r\n            )\r\n        );\r\n        require(status);\r\n        return abi.decode(returnedData, (bool));\r\n    }\r\n\r\n    /* For Testing Purposes Only*/\r\n\r\n    function transactTest(\r\n        address holder,\r\n        address to,\r\n        uint256 value,\r\n        uint256 nonce,\r\n        bytes32 r,\r\n        bytes32 s,\r\n        uint8 v\r\n    ) public returns (bool) {\r\n        (bool status, bytes memory returnedData) = ImplementationAddress\r\n            .delegatecall(\r\n            abi.encodeWithSelector(\r\n                bytes4(\r\n                    keccak256(\r\n                        \"transactTest(address,address,uint256,uint256,bytes32,bytes32,uint8)\"\r\n                    )\r\n                ),\r\n                holder,\r\n                to,\r\n                value,\r\n                nonce,\r\n                r,\r\n                s,\r\n                v\r\n            )\r\n        );\r\n        require(status);\r\n        return abi.decode(returnedData, (bool));\r\n\r\n    }\r\n\r\n    // Check Profits delegate call\r\n    function checkProfits() public view adminOnly returns (uint256) {\r\n        (bool status, bytes memory returnedData) = ImplementationAddress\r\n            .staticcall(\r\n            abi.encodeWithSelector(bytes4(keccak256(\"checkProfits()\")))\r\n        );\r\n        require(status);\r\n        return abi.decode(returnedData, (uint256));\r\n    }\r\n\r\n    // Split Profits delegate call\r\n    function spitProfits() public adminOnly returns (bool) {\r\n        (bool status, bytes memory returnedData) = ImplementationAddress\r\n            .delegatecall(\r\n            abi.encodeWithSelector(bytes4(keccak256(\"spitProfits()\")))\r\n        );\r\n        require(status);\r\n        return abi.decode(returnedData, (bool));\r\n    }\r\n\r\n    function userRewards(address holder) external view returns (uint256) {\r\n        return rewards[holder];\r\n    }\r\n    /**\r\n     * @notice Delegates execution to an implementation contract\r\n     * @dev It returns to the external caller whatever the implementation returns or forwards reverts\r\n     */\r\n    function() external {\r\n        // delegate all other functions to current implementation\r\n        (bool status, ) = ImplementationAddress.delegatecall(msg.data);\r\n        require(status);\r\n\r\n    }\r\n\r\n}\r\n",
  "sourcePath": "C:\\Users\\Anubhav\\Documents\\pouchwallet\\contracts\\PouchDelegate.sol",
  "compiler": {
    "name": "solc",
    "version": "0.5.16+commit.9c3226ce.Emscripten.clang"
  },
  "schemaVersion": "3.0.23",
  "updatedAt": "2020-02-24T23:00:05.111Z",
  "networkType": "ethereum",
  "devdoc": {
    "methods": {}
  },
  "userdoc": {
    "methods": {}
  }
}