{
  "contractName": "PouchDelegate",
  "abi": [
    {
      "inputs": [
        {
          "internalType": "uint256",
          "name": "_chainId",
          "type": "uint256"
        }
      ],
      "payable": false,
      "stateMutability": "nonpayable",
      "type": "constructor"
    },
    {
      "anonymous": false,
      "inputs": [
        {
          "indexed": true,
          "internalType": "address",
          "name": "_owner",
          "type": "address"
        },
        {
          "indexed": true,
          "internalType": "address",
          "name": "_spender",
          "type": "address"
        },
        {
          "indexed": false,
          "internalType": "uint256",
          "name": "_value",
          "type": "uint256"
        }
      ],
      "name": "Approval",
      "type": "event"
    },
    {
      "anonymous": false,
      "inputs": [
        {
          "indexed": true,
          "internalType": "address",
          "name": "_from",
          "type": "address"
        },
        {
          "indexed": true,
          "internalType": "address",
          "name": "_to",
          "type": "address"
        },
        {
          "indexed": false,
          "internalType": "uint256",
          "name": "_value",
          "type": "uint256"
        }
      ],
      "name": "Reward",
      "type": "event"
    },
    {
      "anonymous": false,
      "inputs": [
        {
          "indexed": true,
          "internalType": "address",
          "name": "_from",
          "type": "address"
        },
        {
          "indexed": true,
          "internalType": "address",
          "name": "_to",
          "type": "address"
        },
        {
          "indexed": false,
          "internalType": "uint256",
          "name": "_value",
          "type": "uint256"
        }
      ],
      "name": "Transfer",
      "type": "event"
    },
    {
      "payable": false,
      "stateMutability": "nonpayable",
      "type": "fallback"
    },
    {
      "constant": true,
      "inputs": [],
      "name": "DEPOSIT_TYPEHASH",
      "outputs": [
        {
          "internalType": "bytes32",
          "name": "",
          "type": "bytes32"
        }
      ],
      "payable": false,
      "stateMutability": "view",
      "type": "function"
    },
    {
      "constant": true,
      "inputs": [],
      "name": "DOMAIN_SEPARATOR",
      "outputs": [
        {
          "internalType": "bytes32",
          "name": "",
          "type": "bytes32"
        }
      ],
      "payable": false,
      "stateMutability": "view",
      "type": "function"
    },
    {
      "constant": true,
      "inputs": [],
      "name": "ImplementationAddress",
      "outputs": [
        {
          "internalType": "address",
          "name": "",
          "type": "address"
        }
      ],
      "payable": false,
      "stateMutability": "view",
      "type": "function"
    },
    {
      "constant": true,
      "inputs": [],
      "name": "TRANSACT_TYPEHASH",
      "outputs": [
        {
          "internalType": "bytes32",
          "name": "",
          "type": "bytes32"
        }
      ],
      "payable": false,
      "stateMutability": "view",
      "type": "function"
    },
    {
      "constant": true,
      "inputs": [],
      "name": "WITHDRAW_TYPEHASH",
      "outputs": [
        {
          "internalType": "bytes32",
          "name": "",
          "type": "bytes32"
        }
      ],
      "payable": false,
      "stateMutability": "view",
      "type": "function"
    },
    {
      "constant": true,
      "inputs": [],
      "name": "admin",
      "outputs": [
        {
          "internalType": "address",
          "name": "",
          "type": "address"
        }
      ],
      "payable": false,
      "stateMutability": "view",
      "type": "function"
    },
    {
      "constant": true,
      "inputs": [
        {
          "internalType": "address",
          "name": "_owner",
          "type": "address"
        },
        {
          "internalType": "address",
          "name": "_spender",
          "type": "address"
        }
      ],
      "name": "allowance",
      "outputs": [
        {
          "internalType": "uint256",
          "name": "remaining",
          "type": "uint256"
        }
      ],
      "payable": false,
      "stateMutability": "view",
      "type": "function"
    },
    {
      "constant": true,
      "inputs": [
        {
          "internalType": "address",
          "name": "",
          "type": "address"
        },
        {
          "internalType": "address",
          "name": "",
          "type": "address"
        }
      ],
      "name": "allowed",
      "outputs": [
        {
          "internalType": "uint256",
          "name": "",
          "type": "uint256"
        }
      ],
      "payable": false,
      "stateMutability": "view",
      "type": "function"
    },
    {
      "constant": false,
      "inputs": [
        {
          "internalType": "address",
          "name": "_spender",
          "type": "address"
        },
        {
          "internalType": "uint256",
          "name": "_value",
          "type": "uint256"
        }
      ],
      "name": "approve",
      "outputs": [
        {
          "internalType": "bool",
          "name": "success",
          "type": "bool"
        }
      ],
      "payable": false,
      "stateMutability": "nonpayable",
      "type": "function"
    },
    {
      "constant": true,
      "inputs": [
        {
          "internalType": "address",
          "name": "_owner",
          "type": "address"
        }
      ],
      "name": "balanceOf",
      "outputs": [
        {
          "internalType": "uint256",
          "name": "balance",
          "type": "uint256"
        }
      ],
      "payable": false,
      "stateMutability": "view",
      "type": "function"
    },
    {
      "constant": true,
      "inputs": [
        {
          "internalType": "address",
          "name": "",
          "type": "address"
        }
      ],
      "name": "balances",
      "outputs": [
        {
          "internalType": "uint256",
          "name": "",
          "type": "uint256"
        }
      ],
      "payable": false,
      "stateMutability": "view",
      "type": "function"
    },
    {
      "constant": true,
      "inputs": [],
      "name": "decimals",
      "outputs": [
        {
          "internalType": "uint8",
          "name": "",
          "type": "uint8"
        }
      ],
      "payable": false,
      "stateMutability": "view",
      "type": "function"
    },
    {
      "constant": true,
      "inputs": [],
      "name": "name",
      "outputs": [
        {
          "internalType": "string",
          "name": "",
          "type": "string"
        }
      ],
      "payable": false,
      "stateMutability": "view",
      "type": "function"
    },
    {
      "constant": true,
      "inputs": [
        {
          "internalType": "address",
          "name": "",
          "type": "address"
        }
      ],
      "name": "nonces",
      "outputs": [
        {
          "internalType": "uint256",
          "name": "",
          "type": "uint256"
        }
      ],
      "payable": false,
      "stateMutability": "view",
      "type": "function"
    },
    {
      "constant": true,
      "inputs": [
        {
          "internalType": "address",
          "name": "",
          "type": "address"
        }
      ],
      "name": "rewards",
      "outputs": [
        {
          "internalType": "uint256",
          "name": "",
          "type": "uint256"
        }
      ],
      "payable": false,
      "stateMutability": "view",
      "type": "function"
    },
    {
      "constant": true,
      "inputs": [],
      "name": "supplyOf",
      "outputs": [
        {
          "internalType": "uint256",
          "name": "balance",
          "type": "uint256"
        }
      ],
      "payable": false,
      "stateMutability": "view",
      "type": "function"
    },
    {
      "constant": true,
      "inputs": [],
      "name": "symbol",
      "outputs": [
        {
          "internalType": "string",
          "name": "",
          "type": "string"
        }
      ],
      "payable": false,
      "stateMutability": "view",
      "type": "function"
    },
    {
      "constant": true,
      "inputs": [],
      "name": "totalSupply",
      "outputs": [
        {
          "internalType": "uint256",
          "name": "",
          "type": "uint256"
        }
      ],
      "payable": false,
      "stateMutability": "view",
      "type": "function"
    },
    {
      "constant": false,
      "inputs": [
        {
          "internalType": "address",
          "name": "_to",
          "type": "address"
        },
        {
          "internalType": "uint256",
          "name": "_value",
          "type": "uint256"
        }
      ],
      "name": "transfer",
      "outputs": [
        {
          "internalType": "bool",
          "name": "success",
          "type": "bool"
        }
      ],
      "payable": false,
      "stateMutability": "nonpayable",
      "type": "function"
    },
    {
      "constant": false,
      "inputs": [
        {
          "internalType": "address",
          "name": "_from",
          "type": "address"
        },
        {
          "internalType": "address",
          "name": "_to",
          "type": "address"
        },
        {
          "internalType": "uint256",
          "name": "_value",
          "type": "uint256"
        }
      ],
      "name": "transferFrom",
      "outputs": [
        {
          "internalType": "bool",
          "name": "success",
          "type": "bool"
        }
      ],
      "payable": false,
      "stateMutability": "nonpayable",
      "type": "function"
    },
    {
      "constant": true,
      "inputs": [],
      "name": "version",
      "outputs": [
        {
          "internalType": "string",
          "name": "",
          "type": "string"
        }
      ],
      "payable": false,
      "stateMutability": "view",
      "type": "function"
    },
    {
      "constant": false,
      "inputs": [
        {
          "internalType": "address",
          "name": "_newImplemenationAddress",
          "type": "address"
        }
      ],
      "name": "updateLogic",
      "outputs": [],
      "payable": false,
      "stateMutability": "nonpayable",
      "type": "function"
    },
    {
      "constant": false,
      "inputs": [
        {
          "internalType": "address",
          "name": "holder",
          "type": "address"
        },
        {
          "internalType": "uint256",
          "name": "value",
          "type": "uint256"
        },
        {
          "internalType": "uint256",
          "name": "nonce",
          "type": "uint256"
        },
        {
          "internalType": "bytes32",
          "name": "r",
          "type": "bytes32"
        },
        {
          "internalType": "bytes32",
          "name": "s",
          "type": "bytes32"
        },
        {
          "internalType": "uint8",
          "name": "v",
          "type": "uint8"
        }
      ],
      "name": "deposit",
      "outputs": [
        {
          "internalType": "bool",
          "name": "",
          "type": "bool"
        }
      ],
      "payable": false,
      "stateMutability": "nonpayable",
      "type": "function"
    },
    {
      "constant": false,
      "inputs": [
        {
          "internalType": "address",
          "name": "holder",
          "type": "address"
        },
        {
          "internalType": "uint256",
          "name": "value",
          "type": "uint256"
        },
        {
          "internalType": "uint256",
          "name": "nonce",
          "type": "uint256"
        },
        {
          "internalType": "bytes32",
          "name": "r",
          "type": "bytes32"
        },
        {
          "internalType": "bytes32",
          "name": "s",
          "type": "bytes32"
        },
        {
          "internalType": "uint8",
          "name": "v",
          "type": "uint8"
        }
      ],
      "name": "withdraw",
      "outputs": [
        {
          "internalType": "bool",
          "name": "",
          "type": "bool"
        }
      ],
      "payable": false,
      "stateMutability": "nonpayable",
      "type": "function"
    },
    {
      "constant": false,
      "inputs": [
        {
          "internalType": "address",
          "name": "holder",
          "type": "address"
        },
        {
          "internalType": "address",
          "name": "to",
          "type": "address"
        },
        {
          "internalType": "uint256",
          "name": "value",
          "type": "uint256"
        },
        {
          "internalType": "uint256",
          "name": "nonce",
          "type": "uint256"
        },
        {
          "internalType": "bytes32",
          "name": "r",
          "type": "bytes32"
        },
        {
          "internalType": "bytes32",
          "name": "s",
          "type": "bytes32"
        },
        {
          "internalType": "uint8",
          "name": "v",
          "type": "uint8"
        }
      ],
      "name": "transact",
      "outputs": [
        {
          "internalType": "bool",
          "name": "",
          "type": "bool"
        }
      ],
      "payable": false,
      "stateMutability": "nonpayable",
      "type": "function"
    },
    {
      "constant": true,
      "inputs": [],
      "name": "checkProfits",
      "outputs": [
        {
          "internalType": "uint256",
          "name": "",
          "type": "uint256"
        }
      ],
      "payable": false,
      "stateMutability": "view",
      "type": "function"
    },
    {
      "constant": false,
      "inputs": [],
      "name": "spitProfits",
      "outputs": [
        {
          "internalType": "bool",
          "name": "",
          "type": "bool"
        }
      ],
      "payable": false,
      "stateMutability": "nonpayable",
      "type": "function"
    },
    {
      "constant": true,
      "inputs": [
        {
          "internalType": "address",
          "name": "holder",
          "type": "address"
        }
      ],
      "name": "userRewards",
      "outputs": [
        {
          "internalType": "uint256",
          "name": "",
          "type": "uint256"
        }
      ],
      "payable": false,
      "stateMutability": "view",
      "type": "function"
    }
  ],
  "bytecode": "0x608060405273e7bc397dbd069fc7d0109c0636d06888bb50668c600460006101000a81548173ffffffffffffffffffffffffffffffffffffffff021916908373ffffffffffffffffffffffffffffffffffffffff160217905550600460009054906101000a900473ffffffffffffffffffffffffffffffffffffffff16600560006101000a81548173ffffffffffffffffffffffffffffffffffffffff021916908373ffffffffffffffffffffffffffffffffffffffff160217905550734f96fe3b7a6cf9725f59d353f723c1bdb64ca6aa600660006101000a81548173ffffffffffffffffffffffffffffffffffffffff021916908373ffffffffffffffffffffffffffffffffffffffff160217905550600660009054906101000a900473ffffffffffffffffffffffffffffffffffffffff16600760006101000a81548173ffffffffffffffffffffffffffffffffffffffff021916908373ffffffffffffffffffffffffffffffffffffffff1602179055503480156200018157600080fd5b506040516200270a3803806200270a8339818101604052620001a79190810190620002ca565b604051620001b590620003b7565b60405180910390206040518060400160405280600b81526020017f506f75636820546f6b656e000000000000000000000000000000000000000000815250805190602001206040518060400160405280600181526020017f31000000000000000000000000000000000000000000000000000000000000008152508051906020012083306040516020016200024f959493929190620003ce565b6040516020818303038152906040528051906020012060098190555033600360006101000a81548173ffffffffffffffffffffffffffffffffffffffff021916908373ffffffffffffffffffffffffffffffffffffffff1602179055505062000498565b600081519050620002c4816200047e565b92915050565b600060208284031215620002dd57600080fd5b6000620002ed84828501620002b3565b91505092915050565b620003018162000436565b82525050565b62000312816200044a565b82525050565b6000620003276052836200042b565b91507f454950373132446f6d61696e28737472696e67206e616d652c737472696e672060008301527f76657273696f6e2c75696e7432353620636861696e49642c616464726573732060208301527f766572696679696e67436f6e74726163742900000000000000000000000000006040830152605282019050919050565b620003b18162000474565b82525050565b6000620003c48262000318565b9150819050919050565b600060a082019050620003e5600083018862000307565b620003f4602083018762000307565b62000403604083018662000307565b620004126060830185620003a6565b620004216080830184620002f6565b9695505050505050565b600081905092915050565b6000620004438262000454565b9050919050565b6000819050919050565b600073ffffffffffffffffffffffffffffffffffffffff82169050919050565b6000819050919050565b620004898162000474565b81146200049557600080fd5b50565b61226280620004a86000396000f3fe608060405234801561001057600080fd5b50600436106101c45760003560e01c80635c658165116100f9578063a9059cbb11610097578063d7a8e87b11610071578063d7a8e87b14610607578063dd62ed3e14610625578063e8a667de14610655578063f851a44014610673576101c4565b8063a9059cbb14610577578063cbb40dae146105a7578063cfefd241146105d7576101c4565b8063795e617e116100d3578063795e617e146104ef5780637ecebe001461050b578063890268f81461053b57806395d89b4114610559576101c4565b80635c6581651461047157806370a08231146104a157806376c5d758146104d1576101c4565b806323b872dd116101665780633644e515116101405780633644e515146103f957806348825e9414610417578063523a50d01461043557806354fd4d5014610453576101c4565b806323b872dd1461037b57806327e235e3146103ab578063313ce567146103db576101c4565b8063095ea7b3116101a2578063095ea7b3146102df5780630df731161461030f57806312c6abb81461032d57806318160ddd1461035d576101c4565b80630660f1e81461026157806306fdde03146102915780630700037d146102af575b6000600860009054906101000a900473ffffffffffffffffffffffffffffffffffffffff1673ffffffffffffffffffffffffffffffffffffffff16600036604051610210929190611e2c565b600060405180830381855af49150503d806000811461024b576040519150601f19603f3d011682016040523d82523d6000602084013e610250565b606091505b505090508061025e57600080fd5b50005b61027b60048036036102769190810190611785565b610691565b6040516102889190612087565b60405180910390f35b6102996106da565b6040516102a69190612025565b60405180910390f35b6102c960048036036102c49190810190611785565b610713565b6040516102d69190612087565b60405180910390f35b6102f960048036036102f491908101906118d7565b61072b565b6040516103069190611fef565b60405180910390f35b61031761081d565b604051610324919061200a565b60405180910390f35b61034760048036036103429190810190611839565b610834565b6040516103549190611fef565b60405180910390f35b61036561097f565b6040516103729190612087565b60405180910390f35b610395600480360361039091908101906117ea565b610985565b6040516103a29190611fef565b60405180910390f35b6103c560048036036103c09190810190611785565b610c1d565b6040516103d29190612087565b60405180910390f35b6103e3610c35565b6040516103f091906120a2565b60405180910390f35b610401610c3a565b60405161040e919061200a565b60405180910390f35b61041f610c40565b60405161042c919061200a565b60405180910390f35b61043d610c57565b60405161044a9190612087565b60405180910390f35b61045b610c60565b6040516104689190612025565b60405180910390f35b61048b600480360361048691908101906117ae565b610c99565b6040516104989190612087565b60405180910390f35b6104bb60048036036104b69190810190611785565b610cbe565b6040516104c89190612087565b60405180910390f35b6104d9610d07565b6040516104e6919061200a565b60405180910390f35b61050960048036036105049190810190611785565b610d1e565b005b61052560048036036105209190810190611785565b610e82565b6040516105329190612087565b60405180910390f35b610543610e9a565b6040516105509190611fef565b60405180910390f35b610561611057565b60405161056e9190612025565b60405180910390f35b610591600480360361058c91908101906118d7565b611090565b60405161059e9190611fef565b60405180910390f35b6105c160048036036105bc9190810190611913565b6111e7565b6040516105ce9190611fef565b60405180910390f35b6105f160048036036105ec9190810190611913565b61132f565b6040516105fe9190611fef565b60405180910390f35b61060f611477565b60405161061c9190612087565b60405180910390f35b61063f600480360361063a91908101906117ae565b611634565b60405161064c9190612087565b60405180910390f35b61065d6116bb565b60405161066a9190611f04565b60405180910390f35b61067b6116e1565b6040516106889190611f04565b60405180910390f35b6000600b60008373ffffffffffffffffffffffffffffffffffffffff1673ffffffffffffffffffffffffffffffffffffffff168152602001908152602001600020549050919050565b6040518060400160405280600b81526020017f506f75636820546f6b656e00000000000000000000000000000000000000000081525081565b600b6020528060005260406000206000915090505481565b600081600260003373ffffffffffffffffffffffffffffffffffffffff1673ffffffffffffffffffffffffffffffffffffffff16815260200190815260200160002060008573ffffffffffffffffffffffffffffffffffffffff1673ffffffffffffffffffffffffffffffffffffffff168152602001908152602001600020819055508273ffffffffffffffffffffffffffffffffffffffff163373ffffffffffffffffffffffffffffffffffffffff167f8c5be1e5ebec7d5bd14f71427d1e84f3dd0314c0f7b2291e5b200ac8c7c3b9258460405161080b9190612087565b60405180910390a36001905092915050565b60405161082990611eef565b604051809103902081565b6000806060600860009054906101000a900473ffffffffffffffffffffffffffffffffffffffff1673ffffffffffffffffffffffffffffffffffffffff1660405161087e90611e5c565b60405180910390208b8b8b8b8b8b8b6040516024016108a39796959493929190611f1f565b604051602081830303815290604052907bffffffffffffffffffffffffffffffffffffffffffffffffffffffff19166020820180517bffffffffffffffffffffffffffffffffffffffffffffffffffffffff838183161783525050505060405161090d9190611e45565b600060405180830381855af49150503d8060008114610948576040519150601f19603f3d011682016040523d82523d6000602084013e61094d565b606091505b50915091508161095c57600080fd5b80806020019051610970919081019061199c565b92505050979650505050505050565b60005481565b600080600260008673ffffffffffffffffffffffffffffffffffffffff1673ffffffffffffffffffffffffffffffffffffffff16815260200190815260200160002060003373ffffffffffffffffffffffffffffffffffffffff1673ffffffffffffffffffffffffffffffffffffffff16815260200190815260200160002054905082600160008773ffffffffffffffffffffffffffffffffffffffff1673ffffffffffffffffffffffffffffffffffffffff1681526020019081526020016000205410158015610a565750828110155b610a5f57600080fd5b82600160008673ffffffffffffffffffffffffffffffffffffffff1673ffffffffffffffffffffffffffffffffffffffff1681526020019081526020016000206000828254019250508190555082600160008773ffffffffffffffffffffffffffffffffffffffff1673ffffffffffffffffffffffffffffffffffffffff168152602001908152602001600020600082825403925050819055507fffffffffffffffffffffffffffffffffffffffffffffffffffffffffffffffff811015610bac5782600260008773ffffffffffffffffffffffffffffffffffffffff1673ffffffffffffffffffffffffffffffffffffffff16815260200190815260200160002060003373ffffffffffffffffffffffffffffffffffffffff1673ffffffffffffffffffffffffffffffffffffffff168152602001908152602001600020600082825403925050819055505b8373ffffffffffffffffffffffffffffffffffffffff168573ffffffffffffffffffffffffffffffffffffffff167fddf252ad1be2c89b69c2b068fc378daa952ba7f163c4a11628f55a4df523b3ef85604051610c099190612087565b60405180910390a360019150509392505050565b60016020528060005260406000206000915090505481565b601281565b60095481565b604051610c4c90611e86565b604051809103902081565b60008054905090565b6040518060400160405280600181526020017f310000000000000000000000000000000000000000000000000000000000000081525081565b6002602052816000526040600020602052806000526040600020600091509150505481565b6000600160008373ffffffffffffffffffffffffffffffffffffffff1673ffffffffffffffffffffffffffffffffffffffff168152602001908152602001600020549050919050565b604051610d1390611e71565b604051809103902081565b600360009054906101000a900473ffffffffffffffffffffffffffffffffffffffff1673ffffffffffffffffffffffffffffffffffffffff163373ffffffffffffffffffffffffffffffffffffffff1614610dae576040517f08c379a0000000000000000000000000000000000000000000000000000000008152600401610da590612047565b60405180910390fd5b600360009054906101000a900473ffffffffffffffffffffffffffffffffffffffff1673ffffffffffffffffffffffffffffffffffffffff163373ffffffffffffffffffffffffffffffffffffffff1614610e3e576040517f08c379a0000000000000000000000000000000000000000000000000000000008152600401610e3590612067565b60405180910390fd5b80600860006101000a81548173ffffffffffffffffffffffffffffffffffffffff021916908373ffffffffffffffffffffffffffffffffffffffff16021790555050565b600a6020528060005260406000206000915090505481565b6000600360009054906101000a900473ffffffffffffffffffffffffffffffffffffffff1673ffffffffffffffffffffffffffffffffffffffff163373ffffffffffffffffffffffffffffffffffffffff1614610f2c576040517f08c379a0000000000000000000000000000000000000000000000000000000008152600401610f2390612047565b60405180910390fd5b60006060600860009054906101000a900473ffffffffffffffffffffffffffffffffffffffff1673ffffffffffffffffffffffffffffffffffffffff16604051610f7590611e9b565b6040518091039020604051602401604051602081830303815290604052907bffffffffffffffffffffffffffffffffffffffffffffffffffffffff19166020820180517bffffffffffffffffffffffffffffffffffffffffffffffffffffffff8381831617835250505050604051610fed9190611e45565b600060405180830381855af49150503d8060008114611028576040519150601f19603f3d011682016040523d82523d6000602084013e61102d565b606091505b50915091508161103c57600080fd5b80806020019051611050919081019061199c565b9250505090565b6040518060400160405280600381526020017f504348000000000000000000000000000000000000000000000000000000000081525081565b600081600160003373ffffffffffffffffffffffffffffffffffffffff1673ffffffffffffffffffffffffffffffffffffffff1681526020019081526020016000205410156110de57600080fd5b81600160003373ffffffffffffffffffffffffffffffffffffffff1673ffffffffffffffffffffffffffffffffffffffff1681526020019081526020016000206000828254039250508190555081600160008573ffffffffffffffffffffffffffffffffffffffff1673ffffffffffffffffffffffffffffffffffffffff168152602001908152602001600020600082825401925050819055508273ffffffffffffffffffffffffffffffffffffffff163373ffffffffffffffffffffffffffffffffffffffff167fddf252ad1be2c89b69c2b068fc378daa952ba7f163c4a11628f55a4df523b3ef846040516111d59190612087565b60405180910390a36001905092915050565b6000806060600860009054906101000a900473ffffffffffffffffffffffffffffffffffffffff1673ffffffffffffffffffffffffffffffffffffffff1660405161123190611eb0565b60405180910390208a8a8a8a8a8a60405160240161125496959493929190611f8e565b604051602081830303815290604052907bffffffffffffffffffffffffffffffffffffffffffffffffffffffff19166020820180517bffffffffffffffffffffffffffffffffffffffffffffffffffffffff83818316178352505050506040516112be9190611e45565b600060405180830381855af49150503d80600081146112f9576040519150601f19603f3d011682016040523d82523d6000602084013e6112fe565b606091505b50915091508161130d57600080fd5b80806020019051611321919081019061199c565b925050509695505050505050565b6000806060600860009054906101000a900473ffffffffffffffffffffffffffffffffffffffff1673ffffffffffffffffffffffffffffffffffffffff1660405161137990611ec5565b60405180910390208a8a8a8a8a8a60405160240161139c96959493929190611f8e565b604051602081830303815290604052907bffffffffffffffffffffffffffffffffffffffffffffffffffffffff19166020820180517bffffffffffffffffffffffffffffffffffffffffffffffffffffffff83818316178352505050506040516114069190611e45565b600060405180830381855af49150503d8060008114611441576040519150601f19603f3d011682016040523d82523d6000602084013e611446565b606091505b50915091508161145557600080fd5b80806020019051611469919081019061199c565b925050509695505050505050565b6000600360009054906101000a900473ffffffffffffffffffffffffffffffffffffffff1673ffffffffffffffffffffffffffffffffffffffff163373ffffffffffffffffffffffffffffffffffffffff1614611509576040517f08c379a000000000000000000000000000000000000000000000000000000000815260040161150090612047565b60405180910390fd5b60006060600860009054906101000a900473ffffffffffffffffffffffffffffffffffffffff1673ffffffffffffffffffffffffffffffffffffffff1660405161155290611eda565b6040518091039020604051602401604051602081830303815290604052907bffffffffffffffffffffffffffffffffffffffffffffffffffffffff19166020820180517bffffffffffffffffffffffffffffffffffffffffffffffffffffffff83818316178352505050506040516115ca9190611e45565b600060405180830381855afa9150503d8060008114611605576040519150601f19603f3d011682016040523d82523d6000602084013e61160a565b606091505b50915091508161161957600080fd5b8080602001905161162d91908101906119c5565b9250505090565b6000600260008473ffffffffffffffffffffffffffffffffffffffff1673ffffffffffffffffffffffffffffffffffffffff16815260200190815260200160002060008373ffffffffffffffffffffffffffffffffffffffff1673ffffffffffffffffffffffffffffffffffffffff16815260200190815260200160002054905092915050565b600860009054906101000a900473ffffffffffffffffffffffffffffffffffffffff1681565b600360009054906101000a900473ffffffffffffffffffffffffffffffffffffffff1681565b600081359050611716816121ac565b92915050565b60008151905061172b816121c3565b92915050565b600081359050611740816121da565b92915050565b600081359050611755816121f1565b92915050565b60008151905061176a816121f1565b92915050565b60008135905061177f81612208565b92915050565b60006020828403121561179757600080fd5b60006117a584828501611707565b91505092915050565b600080604083850312156117c157600080fd5b60006117cf85828601611707565b92505060206117e085828601611707565b9150509250929050565b6000806000606084860312156117ff57600080fd5b600061180d86828701611707565b935050602061181e86828701611707565b925050604061182f86828701611746565b9150509250925092565b600080600080600080600060e0888a03121561185457600080fd5b60006118628a828b01611707565b97505060206118738a828b01611707565b96505060406118848a828b01611746565b95505060606118958a828b01611746565b94505060806118a68a828b01611731565b93505060a06118b78a828b01611731565b92505060c06118c88a828b01611770565b91505092959891949750929550565b600080604083850312156118ea57600080fd5b60006118f885828601611707565b925050602061190985828601611746565b9150509250929050565b60008060008060008060c0878903121561192c57600080fd5b600061193a89828a01611707565b965050602061194b89828a01611746565b955050604061195c89828a01611746565b945050606061196d89828a01611731565b935050608061197e89828a01611731565b92505060a061198f89828a01611770565b9150509295509295509295565b6000602082840312156119ae57600080fd5b60006119bc8482850161171c565b91505092915050565b6000602082840312156119d757600080fd5b60006119e58482850161175b565b91505092915050565b6119f7816120fa565b82525050565b611a068161210c565b82525050565b611a1581612118565b82525050565b6000611a2783856120d3565b9350611a34838584612159565b82840190509392505050565b6000611a4b826120bd565b611a5581856120d3565b9350611a65818560208601612168565b80840191505092915050565b6000611a7c826120c8565b611a8681856120de565b9350611a96818560208601612168565b611a9f8161219b565b840191505092915050565b6000611ab7603f836120ef565b91507f7472616e7361637428616464726573732c616464726573732c75696e7432353660008301527f2c75696e743235362c627974657333322c627974657333322c75696e743829006020830152603f82019050919050565b6000611b1d601f836120de565b91507f526573747269637465642041636365737320746f2041646d696e204f6e6c79006000830152602082019050919050565b6000611b5d6034836120ef565b91507f5769746864726177286164647265737320686f6c6465722c75696e743235362060008301527f76616c75652c75696e74323536206e6f6e6365290000000000000000000000006020830152603482019050919050565b6000611bc3600a836120de565b91507f41646d696e204f6e6c79000000000000000000000000000000000000000000006000830152602082019050919050565b6000611c036033836120ef565b91507f4465706f736974286164647265737320686f6c6465722c75696e74323536207660008301527f616c75652c75696e74323536206e6f6e636529000000000000000000000000006020830152603382019050919050565b6000611c69600d836120ef565b91507f7370697450726f666974732829000000000000000000000000000000000000006000830152600d82019050919050565b6000611ca96037836120ef565b91507f776974686472617728616464726573732c75696e743235362c75696e7432353660008301527f2c627974657333322c627974657333322c75696e7438290000000000000000006020830152603782019050919050565b6000611d0f6036836120ef565b91507f6465706f73697428616464726573732c75696e743235362c75696e743235362c60008301527f627974657333322c627974657333322c75696e743829000000000000000000006020830152603682019050919050565b6000611d75600e836120ef565b91507f636865636b50726f6669747328290000000000000000000000000000000000006000830152600e82019050919050565b6000611db5603f836120ef565b91507f5472616e73616374286164647265737320686f6c6465722c616464726573732060008301527f746f2c75696e743235362076616c75652c75696e74323536206e6f6e636529006020830152603f82019050919050565b611e1781612142565b82525050565b611e268161214c565b82525050565b6000611e39828486611a1b565b91508190509392505050565b6000611e518284611a40565b915081905092915050565b6000611e6782611aaa565b9150819050919050565b6000611e7c82611b50565b9150819050919050565b6000611e9182611bf6565b9150819050919050565b6000611ea682611c5c565b9150819050919050565b6000611ebb82611c9c565b9150819050919050565b6000611ed082611d02565b9150819050919050565b6000611ee582611d68565b9150819050919050565b6000611efa82611da8565b9150819050919050565b6000602082019050611f1960008301846119ee565b92915050565b600060e082019050611f34600083018a6119ee565b611f4160208301896119ee565b611f4e6040830188611e0e565b611f5b6060830187611e0e565b611f686080830186611a0c565b611f7560a0830185611a0c565b611f8260c0830184611e1d565b98975050505050505050565b600060c082019050611fa360008301896119ee565b611fb06020830188611e0e565b611fbd6040830187611e0e565b611fca6060830186611a0c565b611fd76080830185611a0c565b611fe460a0830184611e1d565b979650505050505050565b600060208201905061200460008301846119fd565b92915050565b600060208201905061201f6000830184611a0c565b92915050565b6000602082019050818103600083015261203f8184611a71565b905092915050565b6000602082019050818103600083015261206081611b10565b9050919050565b6000602082019050818103600083015261208081611bb6565b9050919050565b600060208201905061209c6000830184611e0e565b92915050565b60006020820190506120b76000830184611e1d565b92915050565b600081519050919050565b600081519050919050565b600081905092915050565b600082825260208201905092915050565b600081905092915050565b600061210582612122565b9050919050565b60008115159050919050565b6000819050919050565b600073ffffffffffffffffffffffffffffffffffffffff82169050919050565b6000819050919050565b600060ff82169050919050565b82818337600083830152505050565b60005b8381101561218657808201518184015260208101905061216b565b83811115612195576000848401525b50505050565b6000601f19601f8301169050919050565b6121b5816120fa565b81146121c057600080fd5b50565b6121cc8161210c565b81146121d757600080fd5b50565b6121e381612118565b81146121ee57600080fd5b50565b6121fa81612142565b811461220557600080fd5b50565b6122118161214c565b811461221c57600080fd5b5056fea365627a7a72315820b0a79ebfd7d1725d23e0d997a985243c4158f2f2a3cc0e43445aba596a1539276c6578706572696d656e74616cf564736f6c63430005100040",
  "source": "pragma solidity >=0.5.0;\r\npragma experimental ABIEncoderV2;\r\n\r\nimport \"./PouchToken.sol\";\r\n\r\n//  ** Inheritance of Pouch Token to Make Delegate Calls to implementation Contract. **\r\n\r\ncontract PouchDelegate is PouchToken {\r\n    constructor(uint256 _chainId) public {\r\n        DOMAIN_SEPARATOR = keccak256(\r\n            abi.encode(\r\n                keccak256(\r\n                    \"EIP712Domain(string name,string version,uint256 chainId,address verifyingContract)\"\r\n                ),\r\n                keccak256(bytes(name)),\r\n                keccak256(bytes(version)),\r\n                _chainId,\r\n                address(this)\r\n            )\r\n        );\r\n\r\n        admin = msg.sender;\r\n    }\r\n\r\n    // ** Internal Functions **\r\n\r\n    modifier adminOnly() {\r\n        require(msg.sender == admin, \"Restricted Access to Admin Only\");\r\n        _;\r\n    }\r\n\r\n    // ** Update Implementation Address **\r\n    function updateLogic(address _newImplemenationAddress) external adminOnly {\r\n        require(msg.sender == admin, \"Admin Only\");\r\n        ImplementationAddress = _newImplemenationAddress;\r\n    }\r\n\r\n    // ** Delegate calls **\r\n\r\n    // Deposit delegate call\r\n    function deposit(\r\n        address holder,\r\n        uint256 value,\r\n        uint256 nonce,\r\n        bytes32 r,\r\n        bytes32 s,\r\n        uint8 v\r\n    ) public returns (bool) {\r\n        (bool status, bytes memory returnedData) = ImplementationAddress\r\n            .delegatecall(\r\n            abi.encodeWithSelector(\r\n                bytes4(\r\n                    keccak256(\r\n                        \"deposit(address,uint256,uint256,bytes32,bytes32,uint8)\"\r\n                    )\r\n                ),\r\n                holder,\r\n                value,\r\n                nonce,\r\n                r,\r\n                s,\r\n                v\r\n            )\r\n        );\r\n        require(status);\r\n        return abi.decode(returnedData, (bool));\r\n    }\r\n\r\n    // Withdraw delegate call\r\n    function withdraw(\r\n        address holder,\r\n        uint256 value,\r\n        uint256 nonce,\r\n        bytes32 r,\r\n        bytes32 s,\r\n        uint8 v\r\n    ) public returns (bool) {\r\n        (bool status, bytes memory returnedData) = ImplementationAddress\r\n            .delegatecall(\r\n            abi.encodeWithSelector(\r\n                bytes4(\r\n                    keccak256(\r\n                        \"withdraw(address,uint256,uint256,bytes32,bytes32,uint8)\"\r\n                    )\r\n                ),\r\n                holder,\r\n                value,\r\n                nonce,\r\n                r,\r\n                s,\r\n                v\r\n            )\r\n        );\r\n        require(status);\r\n        return abi.decode(returnedData, (bool));\r\n    }\r\n\r\n    // Transact delegate call\r\n    function transact(\r\n        address holder,\r\n        address to,\r\n        uint256 value,\r\n        uint256 nonce,\r\n        bytes32 r,\r\n        bytes32 s,\r\n        uint8 v\r\n    ) public returns (bool) {\r\n        (bool status, bytes memory returnedData) = ImplementationAddress\r\n            .delegatecall(\r\n            abi.encodeWithSelector(\r\n                bytes4(\r\n                    keccak256(\r\n                        \"transact(address,address,uint256,uint256,bytes32,bytes32,uint8)\"\r\n                    )\r\n                ),\r\n                holder,\r\n                to,\r\n                value,\r\n                nonce,\r\n                r,\r\n                s,\r\n                v\r\n            )\r\n        );\r\n        require(status);\r\n        return abi.decode(returnedData, (bool));\r\n    }\r\n\r\n    // Check Profits delegate call\r\n    function checkProfits() public view adminOnly returns (uint256) {\r\n        (bool status, bytes memory returnedData) = ImplementationAddress\r\n            .staticcall(\r\n            abi.encodeWithSelector(bytes4(keccak256(\"checkProfits()\")))\r\n        );\r\n        require(status);\r\n        return abi.decode(returnedData, (uint256));\r\n    }\r\n\r\n    // Split Profits delegate call\r\n    function spitProfits() public adminOnly returns (bool) {\r\n        (bool status, bytes memory returnedData) = ImplementationAddress\r\n            .delegatecall(\r\n            abi.encodeWithSelector(bytes4(keccak256(\"spitProfits()\")))\r\n        );\r\n        require(status);\r\n        return abi.decode(returnedData, (bool));\r\n    }\r\n\r\n    function userRewards(address holder) external view returns (uint256) {\r\n        return rewards[holder];\r\n    }\r\n    /**\r\n     * @notice Delegates execution to an implementation contract\r\n     * @dev It returns to the external caller whatever the implementation returns or forwards reverts\r\n     */\r\n    function() external {\r\n        // delegate all other functions to current implementation\r\n        (bool status, ) = ImplementationAddress.delegatecall(msg.data);\r\n        require(status);\r\n\r\n    }\r\n\r\n}\r\n",
  "sourcePath": "C:\\Users\\Anubhav\\Documents\\pouchwallet\\contracts\\PouchDelegate.sol",
  "compiler": {
    "name": "solc",
    "version": "0.5.16+commit.9c3226ce.Emscripten.clang"
  },
  "schemaVersion": "3.0.23",
  "updatedAt": "2020-02-24T22:39:24.737Z",
  "networkType": "ethereum",
  "devdoc": {
    "methods": {}
  },
  "userdoc": {
    "methods": {}
  }
}