{
  "contractName": "Pouch",
  "abi": [
    {
      "constant": true,
      "inputs": [],
      "name": "TRANSACT_TYPEHASH",
      "outputs": [
        {
          "name": "",
          "type": "bytes32"
        }
      ],
      "payable": false,
      "stateMutability": "view",
      "type": "function"
    },
    {
      "constant": true,
      "inputs": [],
      "name": "totalSupply",
      "outputs": [
        {
          "name": "",
          "type": "uint256"
        }
      ],
      "payable": false,
      "stateMutability": "view",
      "type": "function"
    },
    {
      "constant": true,
      "inputs": [
        {
          "name": "",
          "type": "address"
        }
      ],
      "name": "balances",
      "outputs": [
        {
          "name": "",
          "type": "uint256"
        }
      ],
      "payable": false,
      "stateMutability": "view",
      "type": "function"
    },
    {
      "constant": true,
      "inputs": [],
      "name": "DOMAIN_SEPARATOR",
      "outputs": [
        {
          "name": "",
          "type": "bytes32"
        }
      ],
      "payable": false,
      "stateMutability": "view",
      "type": "function"
    },
    {
      "constant": true,
      "inputs": [],
      "name": "DEPOSIT_TYPEHASH",
      "outputs": [
        {
          "name": "",
          "type": "bytes32"
        }
      ],
      "payable": false,
      "stateMutability": "view",
      "type": "function"
    },
    {
      "constant": true,
      "inputs": [
        {
          "name": "",
          "type": "address"
        },
        {
          "name": "",
          "type": "address"
        }
      ],
      "name": "allowed",
      "outputs": [
        {
          "name": "",
          "type": "uint256"
        }
      ],
      "payable": false,
      "stateMutability": "view",
      "type": "function"
    },
    {
      "constant": true,
      "inputs": [],
      "name": "WITHDRAW_TYPEHASH",
      "outputs": [
        {
          "name": "",
          "type": "bytes32"
        }
      ],
      "payable": false,
      "stateMutability": "view",
      "type": "function"
    },
    {
      "constant": true,
      "inputs": [],
      "name": "admin",
      "outputs": [
        {
          "name": "",
          "type": "address"
        }
      ],
      "payable": false,
      "stateMutability": "view",
      "type": "function"
    },
    {
      "inputs": [
        {
          "name": "tokenAddress",
          "type": "address"
        }
      ],
      "payable": false,
      "stateMutability": "nonpayable",
      "type": "constructor"
    },
    {
      "anonymous": false,
      "inputs": [
        {
          "indexed": true,
          "name": "_from",
          "type": "address"
        },
        {
          "indexed": true,
          "name": "_to",
          "type": "address"
        },
        {
          "indexed": false,
          "name": "_value",
          "type": "uint256"
        }
      ],
      "name": "Transfer",
      "type": "event"
    },
    {
      "constant": true,
      "inputs": [],
      "name": "getExchangeRate",
      "outputs": [
        {
          "name": "",
          "type": "uint256"
        }
      ],
      "payable": false,
      "stateMutability": "view",
      "type": "function"
    },
    {
      "constant": true,
      "inputs": [],
      "name": "checkContractBalance",
      "outputs": [
        {
          "name": "",
          "type": "uint256"
        }
      ],
      "payable": false,
      "stateMutability": "view",
      "type": "function"
    },
    {
      "constant": false,
      "inputs": [
        {
          "name": "holder",
          "type": "address"
        },
        {
          "name": "value",
          "type": "uint256"
        },
        {
          "name": "r",
          "type": "bytes32"
        },
        {
          "name": "s",
          "type": "bytes32"
        },
        {
          "name": "v",
          "type": "uint8"
        },
        {
          "name": "TYPEHASH",
          "type": "bytes32"
        }
      ],
      "name": "deposit",
      "outputs": [
        {
          "name": "",
          "type": "bool"
        }
      ],
      "payable": false,
      "stateMutability": "nonpayable",
      "type": "function"
    },
    {
      "constant": false,
      "inputs": [
        {
          "name": "holder",
          "type": "address"
        },
        {
          "name": "value",
          "type": "uint256"
        },
        {
          "name": "r",
          "type": "bytes32"
        },
        {
          "name": "s",
          "type": "bytes32"
        },
        {
          "name": "v",
          "type": "uint8"
        },
        {
          "name": "TYPEHASH",
          "type": "bytes32"
        }
      ],
      "name": "withdraw",
      "outputs": [
        {
          "name": "",
          "type": "bool"
        }
      ],
      "payable": false,
      "stateMutability": "nonpayable",
      "type": "function"
    },
    {
      "constant": false,
      "inputs": [
        {
          "name": "holder",
          "type": "address"
        },
        {
          "name": "to",
          "type": "address"
        },
        {
          "name": "value",
          "type": "uint256"
        },
        {
          "name": "r",
          "type": "bytes32"
        },
        {
          "name": "s",
          "type": "bytes32"
        },
        {
          "name": "v",
          "type": "uint8"
        },
        {
          "name": "TYPEHASH",
          "type": "bytes32"
        }
      ],
      "name": "transact",
      "outputs": [
        {
          "name": "",
          "type": "bool"
        }
      ],
      "payable": false,
      "stateMutability": "nonpayable",
      "type": "function"
    }
  ],
  "bytecode": "0x608060405273e7bc397dbd069fc7d0109c0636d06888bb50668c600560006101000a81548173ffffffffffffffffffffffffffffffffffffffff021916908373ffffffffffffffffffffffffffffffffffffffff160217905550600560009054906101000a900473ffffffffffffffffffffffffffffffffffffffff16600660006101000a81548173ffffffffffffffffffffffffffffffffffffffff021916908373ffffffffffffffffffffffffffffffffffffffff160217905550734f96fe3b7a6cf9725f59d353f723c1bdb64ca6aa600760006101000a81548173ffffffffffffffffffffffffffffffffffffffff021916908373ffffffffffffffffffffffffffffffffffffffff160217905550600760009054906101000a900473ffffffffffffffffffffffffffffffffffffffff16600860006101000a81548173ffffffffffffffffffffffffffffffffffffffff021916908373ffffffffffffffffffffffffffffffffffffffff1602179055503480156200018157600080fd5b5060405160208062001eea8339810180604052620001a3919081019062000324565b60405180807f454950373132446f6d61696e28737472696e67206e616d652c737472696e672081526020017f76657273696f6e2c75696e7432353620636861696e49642c616464726573732081526020017f766572696679696e67436f6e74726163742900000000000000000000000000008152506052019050604051809103902060405180807f506f7563680000000000000000000000000000000000000000000000000000008152506005019050604051809103902060405180807f310000000000000000000000000000000000000000000000000000000000000081525060010190506040518091039020602a84604051602001620002aa95949392919062000383565b6040516020818303038152906040528051906020012060038190555080600460006101000a81548173ffffffffffffffffffffffffffffffffffffffff021916908373ffffffffffffffffffffffffffffffffffffffff1602179055505062000453565b60006200031c82516200042b565b905092915050565b6000602082840312156200033757600080fd5b600062000347848285016200030e565b91505092915050565b6200035b81620003e0565b82525050565b6200036c81620003f4565b82525050565b6200037d816200043f565b82525050565b600060a0820190506200039a600083018862000361565b620003a9602083018762000361565b620003b8604083018662000361565b620003c7606083018562000372565b620003d6608083018462000350565b9695505050505050565b6000620003ed82620003fe565b9050919050565b6000819050919050565b600073ffffffffffffffffffffffffffffffffffffffff82169050919050565b600060ff82169050919050565b60006200043882620003fe565b9050919050565b60006200044c826200041e565b9050919050565b611a8780620004636000396000f3fe6080604052600436106100c5576000357c0100000000000000000000000000000000000000000000000000000000900463ffffffff1680630df73116146100ca57806318160ddd146100f557806327e235e3146101205780633644e5151461015d57806348825e941461018857806350312c9e146101b35780635c658165146101de57806376c5d7581461021b5780638e83a73a14610246578063ba5f7c0514610283578063bfcf42e0146102c0578063e6aa216c146102fd578063f851a44014610328575b600080fd5b3480156100d657600080fd5b506100df610353565b6040516100ec91906118aa565b60405180910390f35b34801561010157600080fd5b5061010a6103b2565b60405161011791906119a1565b60405180910390f35b34801561012c57600080fd5b5061014760048036036101429190810190611555565b6103b8565b60405161015491906119a1565b60405180910390f35b34801561016957600080fd5b506101726103d0565b60405161017f91906118aa565b60405180910390f35b34801561019457600080fd5b5061019d6103d6565b6040516101aa91906118aa565b60405180910390f35b3480156101bf57600080fd5b506101c8610435565b6040516101d591906119a1565b60405180910390f35b3480156101ea57600080fd5b506102056004803603610200919081019061157e565b610525565b60405161021291906119a1565b60405180910390f35b34801561022757600080fd5b5061023061054a565b60405161023d91906118aa565b60405180910390f35b34801561025257600080fd5b5061026d60048036036102689190810190611658565b6105a9565b60405161027a919061188f565b60405180910390f35b34801561028f57600080fd5b506102aa60048036036102a59190810190611658565b6109be565b6040516102b7919061188f565b60405180910390f35b3480156102cc57600080fd5b506102e760048036036102e291908101906115ba565b610f1e565b6040516102f4919061188f565b60405180910390f35b34801561030957600080fd5b506103126111cc565b60405161031f91906119a1565b60405180910390f35b34801561033457600080fd5b5061033d61128f565b60405161034a9190611814565b60405180910390f35b60405180807f5472616e73616374286164647265737320686f6c6465722c616464726573732081526020017f746f2c75696e743235362076616c7565290000000000000000000000000000008152506031019050604051809103902081565b60005481565b60016020528060005260406000206000915090505481565b60035481565b60405180807f4465706f736974286164647265737320686f6c6465722c75696e74323536207681526020017f616c7565290000000000000000000000000000000000000000000000000000008152506025019050604051809103902081565b6000600660009054906101000a900473ffffffffffffffffffffffffffffffffffffffff1673ffffffffffffffffffffffffffffffffffffffff166370a08231600460009054906101000a900473ffffffffffffffffffffffffffffffffffffffff166040518263ffffffff167c01000000000000000000000000000000000000000000000000000000000281526004016104d09190611814565b60206040518083038186803b1580156104e857600080fd5b505afa1580156104fc573d6000803e3d6000fd5b505050506040513d601f19601f82011682018060405250610520919081019061170a565b905090565b6002602052816000526040600020602052806000526040600020600091509150505481565b60405180807f5769746864726177286164647265737320686f6c6465722c75696e743235362081526020017f76616c75652900000000000000000000000000000000000000000000000000008152506026019050604051809103902081565b6000806003548389896040516020016105c49392919061190a565b6040516020818303038152906040528051906020012060405160200180807f190100000000000000000000000000000000000000000000000000000000000081525060020183815260200182815260200192505050604051602081830303815290604052805190602001209050600073ffffffffffffffffffffffffffffffffffffffff168873ffffffffffffffffffffffffffffffffffffffff16141515156106a3576040517f08c379a000000000000000000000000000000000000000000000000000000000815260040161069a90611961565b60405180910390fd5b60018185888860405160008152602001604052604051808581526020018460ff1660ff1681526020018381526020018281526020019450505050506020604051602081039080840390855afa158015610700573d6000803e3d6000fd5b5050506020604051035173ffffffffffffffffffffffffffffffffffffffff168873ffffffffffffffffffffffffffffffffffffffff16141515610779576040517f08c379a000000000000000000000000000000000000000000000000000000000815260040161077090611981565b60405180910390fd5b600160008973ffffffffffffffffffffffffffffffffffffffff1673ffffffffffffffffffffffffffffffffffffffff1681526020019081526020016000205487111515156107fd576040517f08c379a00000000000000000000000000000000000000000000000000000000081526004016107f490611941565b60405180910390fd5b610809886000896112b5565b50866000808282540392505081905550600660009054906101000a900473ffffffffffffffffffffffffffffffffffffffff1673ffffffffffffffffffffffffffffffffffffffff1663852a12e3886040518263ffffffff167c010000000000000000000000000000000000000000000000000000000002815260040161089091906119a1565b602060405180830381600087803b1580156108aa57600080fd5b505af11580156108be573d6000803e3d6000fd5b505050506040513d601f19601f820116820180604052506108e2919081019061170a565b50600860009054906101000a900473ffffffffffffffffffffffffffffffffffffffff1673ffffffffffffffffffffffffffffffffffffffff1663a9059cbb89896040518363ffffffff167c010000000000000000000000000000000000000000000000000000000002815260040161095c929190611866565b602060405180830381600087803b15801561097657600080fd5b505af115801561098a573d6000803e3d6000fd5b505050506040513d601f19601f820116820180604052506109ae91908101906116e1565b5060019150509695505050505050565b6000806003548389896040516020016109d99392919061190a565b6040516020818303038152906040528051906020012060405160200180807f190100000000000000000000000000000000000000000000000000000000000081525060020183815260200182815260200192505050604051602081830303815290604052805190602001209050600073ffffffffffffffffffffffffffffffffffffffff168873ffffffffffffffffffffffffffffffffffffffff1614151515610ab8576040517f08c379a0000000000000000000000000000000000000000000000000000000008152600401610aaf90611961565b60405180910390fd5b60018185888860405160008152602001604052604051808581526020018460ff1660ff1681526020018381526020018281526020019450505050506020604051602081039080840390855afa158015610b15573d6000803e3d6000fd5b5050506020604051035173ffffffffffffffffffffffffffffffffffffffff168873ffffffffffffffffffffffffffffffffffffffff16141515610b8e576040517f08c379a0000000000000000000000000000000000000000000000000000000008152600401610b8590611981565b60405180910390fd5b6000600860009054906101000a900473ffffffffffffffffffffffffffffffffffffffff1673ffffffffffffffffffffffffffffffffffffffff166370a082318a6040518263ffffffff167c0100000000000000000000000000000000000000000000000000000000028152600401610c079190611814565b60206040518083038186803b158015610c1f57600080fd5b505afa158015610c33573d6000803e3d6000fd5b505050506040513d601f19601f82011682018060405250610c57919081019061170a565b9050878110151515610c9e576040517f08c379a0000000000000000000000000000000000000000000000000000000008152600401610c9590611941565b60405180910390fd5b600860009054906101000a900473ffffffffffffffffffffffffffffffffffffffff1673ffffffffffffffffffffffffffffffffffffffff166323b872dd8a308b6040518463ffffffff167c0100000000000000000000000000000000000000000000000000000000028152600401610d199392919061182f565b602060405180830381600087803b158015610d3357600080fd5b505af1158015610d47573d6000803e3d6000fd5b505050506040513d601f19601f82011682018060405250610d6b91908101906116e1565b50610d76898961140f565b50600860009054906101000a900473ffffffffffffffffffffffffffffffffffffffff1673ffffffffffffffffffffffffffffffffffffffff1663095ea7b3600560009054906101000a900473ffffffffffffffffffffffffffffffffffffffff168a6040518363ffffffff167c0100000000000000000000000000000000000000000000000000000000028152600401610e12929190611866565b600060405180830381600087803b158015610e2c57600080fd5b505af1158015610e40573d6000803e3d6000fd5b50505050600660009054906101000a900473ffffffffffffffffffffffffffffffffffffffff1673ffffffffffffffffffffffffffffffffffffffff1663a0712d68896040518263ffffffff167c0100000000000000000000000000000000000000000000000000000000028152600401610ebb91906119a1565b602060405180830381600087803b158015610ed557600080fd5b505af1158015610ee9573d6000803e3d6000fd5b505050506040513d601f19601f82011682018060405250610f0d919081019061170a565b506001925050509695505050505050565b600080600354838a8a8a604051602001610f3b94939291906118c5565b6040516020818303038152906040528051906020012060405160200180807f190100000000000000000000000000000000000000000000000000000000000081525060020183815260200182815260200192505050604051602081830303815290604052805190602001209050600073ffffffffffffffffffffffffffffffffffffffff168973ffffffffffffffffffffffffffffffffffffffff161415151561101a576040517f08c379a000000000000000000000000000000000000000000000000000000000815260040161101190611961565b60405180910390fd5b60018185888860405160008152602001604052604051808581526020018460ff1660ff1681526020018381526020018281526020019450505050506020604051602081039080840390855afa158015611077573d6000803e3d6000fd5b5050506020604051035173ffffffffffffffffffffffffffffffffffffffff168973ffffffffffffffffffffffffffffffffffffffff161415156110f0576040517f08c379a00000000000000000000000000000000000000000000000000000000081526004016110e790611981565b60405180910390fd5b600160008a73ffffffffffffffffffffffffffffffffffffffff1673ffffffffffffffffffffffffffffffffffffffff168152602001908152602001600020548711151515611174576040517f08c379a000000000000000000000000000000000000000000000000000000000815260040161116b90611941565b60405180910390fd5b600073ffffffffffffffffffffffffffffffffffffffff168873ffffffffffffffffffffffffffffffffffffffff16141515156111b057600080fd5b6111bb8989896112b5565b506001915050979650505050505050565b6000600660009054906101000a900473ffffffffffffffffffffffffffffffffffffffff1673ffffffffffffffffffffffffffffffffffffffff1663182df0f56040518163ffffffff167c010000000000000000000000000000000000000000000000000000000002815260040160206040518083038186803b15801561125257600080fd5b505afa158015611266573d6000803e3d6000fd5b505050506040513d601f19601f8201168201806040525061128a919081019061170a565b905090565b600460009054906101000a900473ffffffffffffffffffffffffffffffffffffffff1681565b600081600160008673ffffffffffffffffffffffffffffffffffffffff1673ffffffffffffffffffffffffffffffffffffffff168152602001908152602001600020541015151561130557600080fd5b81600160008673ffffffffffffffffffffffffffffffffffffffff1673ffffffffffffffffffffffffffffffffffffffff1681526020019081526020016000206000828254039250508190555081600160008573ffffffffffffffffffffffffffffffffffffffff1673ffffffffffffffffffffffffffffffffffffffff168152602001908152602001600020600082825401925050819055508273ffffffffffffffffffffffffffffffffffffffff168473ffffffffffffffffffffffffffffffffffffffff167fddf252ad1be2c89b69c2b068fc378daa952ba7f163c4a11628f55a4df523b3ef846040516113fc91906119a1565b60405180910390a3600190509392505050565b600081600160008573ffffffffffffffffffffffffffffffffffffffff1673ffffffffffffffffffffffffffffffffffffffff168152602001908152602001600020600082825401925050819055508160008082825401925050819055508273ffffffffffffffffffffffffffffffffffffffff16600073ffffffffffffffffffffffffffffffffffffffff167fddf252ad1be2c89b69c2b068fc378daa952ba7f163c4a11628f55a4df523b3ef846040516114cb91906119a1565b60405180910390a36001905092915050565b60006114e98235611a0e565b905092915050565b60006114fd8251611a20565b905092915050565b60006115118235611a2c565b905092915050565b60006115258235611a36565b905092915050565b60006115398251611a36565b905092915050565b600061154d8235611a40565b905092915050565b60006020828403121561156757600080fd5b6000611575848285016114dd565b91505092915050565b6000806040838503121561159157600080fd5b600061159f858286016114dd565b92505060206115b0858286016114dd565b9150509250929050565b600080600080600080600060e0888a0312156115d557600080fd5b60006115e38a828b016114dd565b97505060206115f48a828b016114dd565b96505060406116058a828b01611519565b95505060606116168a828b01611505565b94505060806116278a828b01611505565b93505060a06116388a828b01611541565b92505060c06116498a828b01611505565b91505092959891949750929550565b60008060008060008060c0878903121561167157600080fd5b600061167f89828a016114dd565b965050602061169089828a01611519565b95505060406116a189828a01611505565b94505060606116b289828a01611505565b93505060806116c389828a01611541565b92505060a06116d489828a01611505565b9150509295509295509295565b6000602082840312156116f357600080fd5b6000611701848285016114f1565b91505092915050565b60006020828403121561171c57600080fd5b600061172a8482850161152d565b91505092915050565b61173c816119bc565b82525050565b61174b816119ce565b82525050565b61175a816119da565b82525050565b6000601282527f496e73756666696369656e742046756e647300000000000000000000000000006020830152604082019050919050565b6000601782527f506f7563682f696e76616c69642d616464726573732d300000000000000000006020830152604082019050919050565b6000601482527f506f7563682f696e76616c69642d7065726d69740000000000000000000000006020830152604082019050919050565b61180e81611a04565b82525050565b60006020820190506118296000830184611733565b92915050565b60006060820190506118446000830186611733565b6118516020830185611733565b61185e6040830184611805565b949350505050565b600060408201905061187b6000830185611733565b6118886020830184611805565b9392505050565b60006020820190506118a46000830184611742565b92915050565b60006020820190506118bf6000830184611751565b92915050565b60006080820190506118da6000830187611751565b6118e76020830186611733565b6118f46040830185611733565b6119016060830184611805565b95945050505050565b600060608201905061191f6000830186611751565b61192c6020830185611733565b6119396040830184611805565b949350505050565b6000602082019050818103600083015261195a81611760565b9050919050565b6000602082019050818103600083015261197a81611797565b9050919050565b6000602082019050818103600083015261199a816117ce565b9050919050565b60006020820190506119b66000830184611805565b92915050565b60006119c7826119e4565b9050919050565b60008115159050919050565b6000819050919050565b600073ffffffffffffffffffffffffffffffffffffffff82169050919050565b6000819050919050565b6000611a19826119e4565b9050919050565b60008115159050919050565b6000819050919050565b6000819050919050565b600060ff8216905091905056fea265627a7a723058200fd0a874ccd4a0933ab21d8c98d67b37ee7ae75447f316e933aeb84fc1b642dc6c6578706572696d656e74616cf50037",
  "source": "pragma solidity >=0.5.0;\npragma experimental ABIEncoderV2;\n\nimport \"./interfaces/TokenInterface.sol\";\nimport \"./interfaces/cTokenInterface.sol\";\nimport \"./interfaces/PTokenInterface.sol\";\nimport \"./interfaces/proxyInterface.sol\";\nimport \"./libraries/SafeMath.sol\";\n\ncontract Pouch is proxyInterface {\n    uint256 public totalSupply;\n    mapping(address => uint256) public balances;\n    mapping(address => mapping(address => uint256)) public allowed;\n    bytes32 public DOMAIN_SEPARATOR;\n    address public admin;\n    address cDaiAddress = 0xe7bc397DBd069fC7d0109C0636d06888bb50668c;\n    cTokenInterface cDai = cTokenInterface(cDaiAddress);\n    address daiAddress = 0x4F96Fe3b7A6Cf9725f59d353F723c1bDb64CA6Aa;\n    TokenInterface daiToken = TokenInterface(daiAddress);\n\n    bytes32 public constant DEPOSIT_TYPEHASH = keccak256(\n        \"Deposit(address holder,uint256 value)\"\n    );\n    bytes32 public constant WITHDRAW_TYPEHASH = keccak256(\n        \"Withdraw(address holder,uint256 value)\"\n    );\n    bytes32 public constant TRANSACT_TYPEHASH = keccak256(\n        \"Transact(address holder,address to,uint256 value)\"\n    );\n\n    using SafeMath for uint256;\n\n    constructor(address tokenAddress) public {\n        DOMAIN_SEPARATOR = keccak256(\n            abi.encode(\n                keccak256(\n                    \"EIP712Domain(string name,string version,uint256 chainId,address verifyingContract)\"\n                ),\n                keccak256(\"Pouch\"),\n                keccak256(\"1\"),\n                42, // kovan chainId\n                tokenAddress\n            )\n        );\n        admin = tokenAddress;\n    }\n\n    // ** Internal Functions **\n\n    function _mint(address _to, uint256 _value)\n        internal\n        returns (bool success)\n    {\n        balances[_to] += _value;\n        totalSupply += _value;\n        emit Transfer(address(0), _to, _value);\n        return true;\n    }\n\n    function _transfer(address _from, address _to, uint256 _value)\n        internal\n        returns (bool success)\n    {\n        require(balances[_from] >= _value);\n        balances[_from] -= _value;\n        balances[_to] += _value;\n        emit Transfer(_from, _to, _value);\n        return true;\n    }\n\n    function getExchangeRate() public view returns (uint256) {\n        return cDai.exchangeRateStored();\n    }\n\n    // function getMySupply() public view returns (uint256) {\n    //     TokenInterface pouch = TokenInterface(admin);\n    //     return pouch.totalSupply();\n    // }\n    // function _randomReward() internal view returns (uint256) {\n    //     uint256 randomnumber = uint256(\n    //         keccak256(abi.encodePacked(now, msg.sender, block.number))\n    //     ) %\n    //         3;\n    //     return randomnumber.mul(1e18);\n    // }\n\n    function checkContractBalance() public view returns (uint256) {\n        return cDai.balanceOf(admin);\n    }\n\n    function deposit(\n        address holder,\n        uint256 value,\n        bytes32 r,\n        bytes32 s,\n        uint8 v,\n        bytes32 TYPEHASH\n    ) public returns (bool) {\n        bytes32 digest = keccak256(\n            abi.encodePacked(\n                \"\\x19\\x01\",\n                DOMAIN_SEPARATOR,\n                keccak256(abi.encode(TYPEHASH, holder, value))\n            )\n        );\n\n        require(holder != address(0), \"Pouch/invalid-address-0\");\n        require(holder == ecrecover(digest, v, r, s), \"Pouch/invalid-permit\");\n\n        // ** Check for sufficient Funds **\n        uint256 userBalance = daiToken.balanceOf(holder);\n        require(userBalance >= value, \"Insufficient Funds\");\n\n        daiToken.transferFrom(holder, address(this), value); // **Transfer User's DAI**\n        _mint(holder, value); // **Mint PCH tokens for the User**\n        daiToken.approve(cDaiAddress, value);\n        cDai.mint(value); // **Mint cDai  **\n        return true;\n    }\n\n    // ** Withdraw DAI**\n    function withdraw(\n        address holder,\n        uint256 value,\n        bytes32 r,\n        bytes32 s,\n        uint8 v,\n        bytes32 TYPEHASH\n    ) public returns (bool) {\n        bytes32 digest = keccak256(\n            abi.encodePacked(\n                \"\\x19\\x01\",\n                DOMAIN_SEPARATOR,\n                keccak256(abi.encode(TYPEHASH, holder, value))\n            )\n        );\n\n        require(holder != address(0), \"Pouch/invalid-address-0\");\n        require(holder == ecrecover(digest, v, r, s), \"Pouch/invalid-permit\");\n        require(value <= balances[holder], \"Insufficient Funds\");\n\n        //          ** Burn Pouch Token **\n        _transfer(holder, address(0), value);\n        totalSupply -= value;\n\n        //         **  Redeem User's DAI from compound and transfer it to user.**\n        cDai.redeemUnderlying(value);\n        daiToken.transfer(holder, value);\n        return true;\n    }\n\n    //     function getExchangeRate() view public returns (uint) {\n    //         return cDai.exchangeRateCurrent();\n    //     }\n\n    //   function _randomReward() internal view returns (uint) {\n    //         uint randomnumber = uint(keccak256(abi.encodePacked(now, msg.sender,block.number))) % 5;\n    //         return randomnumber.mul(1e10);\n    //     }\n\n    function transact(\n        address holder,\n        address to,\n        uint256 value,\n        bytes32 r,\n        bytes32 s,\n        uint8 v,\n        bytes32 TYPEHASH\n    ) public returns (bool) {\n        bytes32 digest = keccak256(\n            abi.encodePacked(\n                \"\\x19\\x01\",\n                DOMAIN_SEPARATOR,\n                keccak256(abi.encode(TYPEHASH, holder, to, value))\n            )\n        );\n\n        require(holder != address(0), \"Pouch/invalid-address-0\");\n        require(holder == ecrecover(digest, v, r, s), \"Pouch/invalid-permit\");\n        require(value <= balances[holder], \"Insufficient Funds\");\n        require(to != address(0));\n\n        // ** Transfer Funds **\n        _transfer(holder, to, value);\n\n        // ** Transfer Rewards,if Any. **\n        // if (value >= 1e18){\n        //     uint profitInDai =  _checkProfits().mul(getExchangeRate());\n        //     uint checkProfitInDai = profitInDai.div(1e18);\n        //     if(checkProfitInDai >= 1e11){\n        //         uint myReward =  _randomReward();\n        //         cDai.redeemUnderlying(myReward);\n        //         daiToken.transfer(msg.sender, myReward);\n\n        //     return true;\n        //     }\n        // }\n        return true;\n    }\n\n    // function _spitProfits() public returns (bool) {\n    //     uint256 profit = _checkProfits();\n    //     cDai.transfer(msg.sender, profit);\n    //     return true;\n    // }\n\n    // function _checkProfits() public view returns (uint256) {\n    //     uint256 contractSupply = getMySupply();\n    //     uint256 adjustedTotalSupply = contractSupply.mul(1e8);\n    //     uint256 ourContractBalance = cDai.balanceOf(admin);\n    //     uint256 cDaiExchangeRate = cDai.exchangeRateStored();\n    //     uint256 cDaiExchangeRateDivided = cDaiExchangeRate.div(1e10);\n\n    //     uint256 currentPrice = adjustedTotalSupply.div(cDaiExchangeRateDivided);\n    //     uint256 profit = ourContractBalance.sub(currentPrice);\n    //     return profit;\n    // }\n\n}\n",
  "sourcePath": "/home/roheat/blockchain/projects/biconomy/boundless/contracts/Pouch.sol",
  "compiler": {
    "name": "solc",
    "version": "0.5.0+commit.1d4f565a.Emscripten.clang"
  },
  "schemaVersion": "3.0.1",
  "updatedAt": "2020-02-18T16:06:37.253Z",
  "devdoc": {
    "methods": {}
  },
  "userdoc": {
    "methods": {}
  }
}