{
  "contractName": "PouchToken",
  "abi": [
    {
      "constant": true,
      "inputs": [],
      "name": "name",
      "outputs": [
        {
          "name": "",
          "type": "string"
        }
      ],
      "payable": false,
      "stateMutability": "view",
      "type": "function"
    },
    {
      "constant": true,
      "inputs": [],
      "name": "totalSupply",
      "outputs": [
        {
          "name": "",
          "type": "uint256"
        }
      ],
      "payable": false,
      "stateMutability": "view",
      "type": "function"
    },
    {
      "constant": true,
      "inputs": [
        {
          "name": "",
          "type": "address"
        }
      ],
      "name": "balances",
      "outputs": [
        {
          "name": "",
          "type": "uint256"
        }
      ],
      "payable": false,
      "stateMutability": "view",
      "type": "function"
    },
    {
      "constant": true,
      "inputs": [],
      "name": "PERMIT_TYPEHASH",
      "outputs": [
        {
          "name": "",
          "type": "bytes32"
        }
      ],
      "payable": false,
      "stateMutability": "view",
      "type": "function"
    },
    {
      "constant": true,
      "inputs": [],
      "name": "decimals",
      "outputs": [
        {
          "name": "",
          "type": "uint8"
        }
      ],
      "payable": false,
      "stateMutability": "view",
      "type": "function"
    },
    {
      "constant": true,
      "inputs": [],
      "name": "DOMAIN_SEPARATOR",
      "outputs": [
        {
          "name": "",
          "type": "bytes32"
        }
      ],
      "payable": false,
      "stateMutability": "view",
      "type": "function"
    },
    {
      "constant": true,
      "inputs": [],
      "name": "DEPOSIT_TYPEHASH",
      "outputs": [
        {
          "name": "",
          "type": "bytes32"
        }
      ],
      "payable": false,
      "stateMutability": "view",
      "type": "function"
    },
    {
      "constant": true,
      "inputs": [],
      "name": "version",
      "outputs": [
        {
          "name": "",
          "type": "string"
        }
      ],
      "payable": false,
      "stateMutability": "view",
      "type": "function"
    },
    {
      "constant": true,
      "inputs": [
        {
          "name": "",
          "type": "address"
        },
        {
          "name": "",
          "type": "address"
        }
      ],
      "name": "allowed",
      "outputs": [
        {
          "name": "",
          "type": "uint256"
        }
      ],
      "payable": false,
      "stateMutability": "view",
      "type": "function"
    },
    {
      "constant": true,
      "inputs": [
        {
          "name": "",
          "type": "address"
        }
      ],
      "name": "nonces",
      "outputs": [
        {
          "name": "",
          "type": "uint256"
        }
      ],
      "payable": false,
      "stateMutability": "view",
      "type": "function"
    },
    {
      "constant": true,
      "inputs": [],
      "name": "ImplementationAddress",
      "outputs": [
        {
          "name": "",
          "type": "address"
        }
      ],
      "payable": false,
      "stateMutability": "view",
      "type": "function"
    },
    {
      "constant": true,
      "inputs": [],
      "name": "admin",
      "outputs": [
        {
          "name": "",
          "type": "address"
        }
      ],
      "payable": false,
      "stateMutability": "view",
      "type": "function"
    },
    {
      "anonymous": false,
      "inputs": [
        {
          "indexed": true,
          "name": "_from",
          "type": "address"
        },
        {
          "indexed": true,
          "name": "_to",
          "type": "address"
        },
        {
          "indexed": false,
          "name": "_value",
          "type": "uint256"
        }
      ],
      "name": "Transfer",
      "type": "event"
    },
    {
      "anonymous": false,
      "inputs": [
        {
          "indexed": true,
          "name": "_owner",
          "type": "address"
        },
        {
          "indexed": true,
          "name": "_spender",
          "type": "address"
        },
        {
          "indexed": false,
          "name": "_value",
          "type": "uint256"
        }
      ],
      "name": "Approval",
      "type": "event"
    },
    {
      "constant": false,
      "inputs": [
        {
          "name": "_to",
          "type": "address"
        },
        {
          "name": "_value",
          "type": "uint256"
        }
      ],
      "name": "transfer",
      "outputs": [
        {
          "name": "success",
          "type": "bool"
        }
      ],
      "payable": false,
      "stateMutability": "nonpayable",
      "type": "function"
    },
    {
      "constant": false,
      "inputs": [
        {
          "name": "_from",
          "type": "address"
        },
        {
          "name": "_to",
          "type": "address"
        },
        {
          "name": "_value",
          "type": "uint256"
        }
      ],
      "name": "transferFrom",
      "outputs": [
        {
          "name": "success",
          "type": "bool"
        }
      ],
      "payable": false,
      "stateMutability": "nonpayable",
      "type": "function"
    },
    {
      "constant": true,
      "inputs": [
        {
          "name": "_owner",
          "type": "address"
        }
      ],
      "name": "balanceOf",
      "outputs": [
        {
          "name": "balance",
          "type": "uint256"
        }
      ],
      "payable": false,
      "stateMutability": "view",
      "type": "function"
    },
    {
      "constant": false,
      "inputs": [
        {
          "name": "_spender",
          "type": "address"
        },
        {
          "name": "_value",
          "type": "uint256"
        }
      ],
      "name": "approve",
      "outputs": [
        {
          "name": "success",
          "type": "bool"
        }
      ],
      "payable": false,
      "stateMutability": "nonpayable",
      "type": "function"
    },
    {
      "constant": true,
      "inputs": [
        {
          "name": "_owner",
          "type": "address"
        },
        {
          "name": "_spender",
          "type": "address"
        }
      ],
      "name": "allowance",
      "outputs": [
        {
          "name": "remaining",
          "type": "uint256"
        }
      ],
      "payable": false,
      "stateMutability": "view",
      "type": "function"
    },
    {
      "constant": false,
      "inputs": [
        {
          "name": "holder",
          "type": "address"
        },
        {
          "name": "spender",
          "type": "address"
        },
        {
          "name": "nonce",
          "type": "uint256"
        },
        {
          "name": "expiry",
          "type": "uint256"
        },
        {
          "name": "isAllowed",
          "type": "bool"
        },
        {
          "name": "v",
          "type": "uint8"
        },
        {
          "name": "r",
          "type": "bytes32"
        },
        {
          "name": "s",
          "type": "bytes32"
        }
      ],
      "name": "permitted",
      "outputs": [],
      "payable": false,
      "stateMutability": "nonpayable",
      "type": "function"
    },
    {
      "constant": true,
      "inputs": [],
      "name": "supplyOf",
      "outputs": [
        {
          "name": "balance",
          "type": "uint256"
        }
      ],
      "payable": false,
      "stateMutability": "view",
      "type": "function"
    }
  ],
  "bytecode": "0x608060405273e7bc397dbd069fc7d0109c0636d06888bb50668c600560006101000a81548173ffffffffffffffffffffffffffffffffffffffff021916908373ffffffffffffffffffffffffffffffffffffffff160217905550600560009054906101000a900473ffffffffffffffffffffffffffffffffffffffff16600660006101000a81548173ffffffffffffffffffffffffffffffffffffffff021916908373ffffffffffffffffffffffffffffffffffffffff160217905550734f96fe3b7a6cf9725f59d353f723c1bdb64ca6aa600760006101000a81548173ffffffffffffffffffffffffffffffffffffffff021916908373ffffffffffffffffffffffffffffffffffffffff160217905550600760009054906101000a900473ffffffffffffffffffffffffffffffffffffffff16600860006101000a81548173ffffffffffffffffffffffffffffffffffffffff021916908373ffffffffffffffffffffffffffffffffffffffff16021790555034801561018057600080fd5b50611700806101906000396000f3fe608060405260043610610107576000357c0100000000000000000000000000000000000000000000000000000000900463ffffffff16806306fdde031461010c578063095ea7b31461013757806318160ddd1461017457806323b872dd1461019f57806327e235e3146101dc57806330adf81f14610219578063313ce567146102445780633644e5151461026f57806348825e941461029a578063523a50d0146102c557806354fd4d50146102f05780635c6581651461031b57806370a08231146103585780637ecebe001461039557806397fb16cc146103d2578063a9059cbb146103fb578063dd62ed3e14610438578063e8a667de14610475578063f851a440146104a0575b600080fd5b34801561011857600080fd5b506101216104cb565b60405161012e9190611501565b60405180910390f35b34801561014357600080fd5b5061015e600480360361015991908101906112b6565b610504565b60405161016b919061146a565b60405180910390f35b34801561018057600080fd5b506101896105f6565b60405161019691906115a3565b60405180910390f35b3480156101ab57600080fd5b506101c660048036036101c191908101906111b5565b6105fc565b6040516101d3919061146a565b60405180910390f35b3480156101e857600080fd5b5061020360048036036101fe9190810190611150565b610896565b60405161021091906115a3565b60405180910390f35b34801561022557600080fd5b5061022e6108ae565b60405161023b9190611485565b60405180910390f35b34801561025057600080fd5b50610259610933565b60405161026691906115be565b60405180910390f35b34801561027b57600080fd5b50610284610938565b6040516102919190611485565b60405180910390f35b3480156102a657600080fd5b506102af61093e565b6040516102bc9190611485565b60405180910390f35b3480156102d157600080fd5b506102da61099d565b6040516102e791906115a3565b60405180910390f35b3480156102fc57600080fd5b506103056109a6565b6040516103129190611501565b60405180910390f35b34801561032757600080fd5b50610342600480360361033d9190810190611179565b6109df565b60405161034f91906115a3565b60405180910390f35b34801561036457600080fd5b5061037f600480360361037a9190810190611150565b610a04565b60405161038c91906115a3565b60405180910390f35b3480156103a157600080fd5b506103bc60048036036103b79190810190611150565b610a4d565b6040516103c991906115a3565b60405180910390f35b3480156103de57600080fd5b506103f960048036036103f49190810190611204565b610a65565b005b34801561040757600080fd5b50610422600480360361041d91908101906112b6565b610ec0565b60405161042f919061146a565b60405180910390f35b34801561044457600080fd5b5061045f600480360361045a9190810190611179565b611019565b60405161046c91906115a3565b60405180910390f35b34801561048157600080fd5b5061048a6110a0565b604051610497919061144f565b60405180910390f35b3480156104ac57600080fd5b506104b56110c6565b6040516104c2919061144f565b60405180910390f35b6040805190810160405280600b81526020017f506f75636820546f6b656e00000000000000000000000000000000000000000081525081565b600081600260003373ffffffffffffffffffffffffffffffffffffffff1673ffffffffffffffffffffffffffffffffffffffff16815260200190815260200160002060008573ffffffffffffffffffffffffffffffffffffffff1673ffffffffffffffffffffffffffffffffffffffff168152602001908152602001600020819055508273ffffffffffffffffffffffffffffffffffffffff163373ffffffffffffffffffffffffffffffffffffffff167f8c5be1e5ebec7d5bd14f71427d1e84f3dd0314c0f7b2291e5b200ac8c7c3b925846040516105e491906115a3565b60405180910390a36001905092915050565b60005481565b600080600260008673ffffffffffffffffffffffffffffffffffffffff1673ffffffffffffffffffffffffffffffffffffffff16815260200190815260200160002060003373ffffffffffffffffffffffffffffffffffffffff1673ffffffffffffffffffffffffffffffffffffffff16815260200190815260200160002054905082600160008773ffffffffffffffffffffffffffffffffffffffff1673ffffffffffffffffffffffffffffffffffffffff16815260200190815260200160002054101580156106cd5750828110155b15156106d857600080fd5b82600160008673ffffffffffffffffffffffffffffffffffffffff1673ffffffffffffffffffffffffffffffffffffffff1681526020019081526020016000206000828254019250508190555082600160008773ffffffffffffffffffffffffffffffffffffffff1673ffffffffffffffffffffffffffffffffffffffff168152602001908152602001600020600082825403925050819055507fffffffffffffffffffffffffffffffffffffffffffffffffffffffffffffffff8110156108255782600260008773ffffffffffffffffffffffffffffffffffffffff1673ffffffffffffffffffffffffffffffffffffffff16815260200190815260200160002060003373ffffffffffffffffffffffffffffffffffffffff1673ffffffffffffffffffffffffffffffffffffffff168152602001908152602001600020600082825403925050819055505b8373ffffffffffffffffffffffffffffffffffffffff168573ffffffffffffffffffffffffffffffffffffffff167fddf252ad1be2c89b69c2b068fc378daa952ba7f163c4a11628f55a4df523b3ef8560405161088291906115a3565b60405180910390a360019150509392505050565b60016020528060005260406000206000915090505481565b60405180807f5065726d6974286164647265737320686f6c6465722c6164647265737320737081526020017f656e6465722c75696e74323536206e6f6e63652c75696e74323536206578706981526020017f72792c626f6f6c206973416c6c6f7765642900000000000000000000000000008152506052019050604051809103902081565b601281565b60035481565b60405180807f4465706f736974286164647265737320686f6c6465722c75696e74323536207681526020017f616c7565290000000000000000000000000000000000000000000000000000008152506025019050604051809103902081565b60008054905090565b6040805190810160405280600181526020017f310000000000000000000000000000000000000000000000000000000000000081525081565b6002602052816000526040600020602052806000526040600020600091509150505481565b6000600160008373ffffffffffffffffffffffffffffffffffffffff1673ffffffffffffffffffffffffffffffffffffffff168152602001908152602001600020549050919050565b60096020528060005260406000206000915090505481565b600060035460405180807f5065726d6974286164647265737320686f6c6465722c6164647265737320737081526020017f656e6465722c75696e74323536206e6f6e63652c75696e74323536206578706981526020017f72792c626f6f6c206973416c6c6f776564290000000000000000000000000000815250605201905060405180910390208a8a8a8a8a604051602001610b06969594939291906114a0565b6040516020818303038152906040528051906020012060405160200180807f190100000000000000000000000000000000000000000000000000000000000081525060020183815260200182815260200192505050604051602081830303815290604052805190602001209050600073ffffffffffffffffffffffffffffffffffffffff168973ffffffffffffffffffffffffffffffffffffffff1614151515610be5576040517f08c379a0000000000000000000000000000000000000000000000000000000008152600401610bdc90611563565b60405180910390fd5b60018185858560405160008152602001604052604051808581526020018460ff1660ff1681526020018381526020018281526020019450505050506020604051602081039080840390855afa158015610c42573d6000803e3d6000fd5b5050506020604051035173ffffffffffffffffffffffffffffffffffffffff168973ffffffffffffffffffffffffffffffffffffffff16141515610cbb576040517f08c379a0000000000000000000000000000000000000000000000000000000008152600401610cb290611583565b60405180910390fd5b6000861480610cca5750854211155b1515610d0b576040517f08c379a0000000000000000000000000000000000000000000000000000000008152600401610d0290611523565b60405180910390fd5b600960008a73ffffffffffffffffffffffffffffffffffffffff1673ffffffffffffffffffffffffffffffffffffffff16815260200190815260200160002060008154809291906001019190505587141515610d9c576040517f08c379a0000000000000000000000000000000000000000000000000000000008152600401610d9390611543565b60405180910390fd5b600085610daa576000610dcc565b7fffffffffffffffffffffffffffffffffffffffffffffffffffffffffffffffff5b905080600260008c73ffffffffffffffffffffffffffffffffffffffff1673ffffffffffffffffffffffffffffffffffffffff16815260200190815260200160002060008b73ffffffffffffffffffffffffffffffffffffffff1673ffffffffffffffffffffffffffffffffffffffff168152602001908152602001600020819055508873ffffffffffffffffffffffffffffffffffffffff168a73ffffffffffffffffffffffffffffffffffffffff167f8c5be1e5ebec7d5bd14f71427d1e84f3dd0314c0f7b2291e5b200ac8c7c3b92583604051610eac91906115a3565b60405180910390a350505050505050505050565b600081600160003373ffffffffffffffffffffffffffffffffffffffff1673ffffffffffffffffffffffffffffffffffffffff1681526020019081526020016000205410151515610f1057600080fd5b81600160003373ffffffffffffffffffffffffffffffffffffffff1673ffffffffffffffffffffffffffffffffffffffff1681526020019081526020016000206000828254039250508190555081600160008573ffffffffffffffffffffffffffffffffffffffff1673ffffffffffffffffffffffffffffffffffffffff168152602001908152602001600020600082825401925050819055508273ffffffffffffffffffffffffffffffffffffffff163373ffffffffffffffffffffffffffffffffffffffff167fddf252ad1be2c89b69c2b068fc378daa952ba7f163c4a11628f55a4df523b3ef8460405161100791906115a3565b60405180910390a36001905092915050565b6000600260008473ffffffffffffffffffffffffffffffffffffffff1673ffffffffffffffffffffffffffffffffffffffff16815260200190815260200160002060008373ffffffffffffffffffffffffffffffffffffffff1673ffffffffffffffffffffffffffffffffffffffff16815260200190815260200160002054905092915050565b600a60009054906101000a900473ffffffffffffffffffffffffffffffffffffffff1681565b600460009054906101000a900473ffffffffffffffffffffffffffffffffffffffff1681565b60006110f88235611643565b905092915050565b600061110c8235611655565b905092915050565b60006111208235611661565b905092915050565b6000611134823561166b565b905092915050565b60006111488235611675565b905092915050565b60006020828403121561116257600080fd5b6000611170848285016110ec565b91505092915050565b6000806040838503121561118c57600080fd5b600061119a858286016110ec565b92505060206111ab858286016110ec565b9150509250929050565b6000806000606084860312156111ca57600080fd5b60006111d8868287016110ec565b93505060206111e9868287016110ec565b92505060406111fa86828701611128565b9150509250925092565b600080600080600080600080610100898b03121561122157600080fd5b600061122f8b828c016110ec565b98505060206112408b828c016110ec565b97505060406112518b828c01611128565b96505060606112628b828c01611128565b95505060806112738b828c01611100565b94505060a06112848b828c0161113c565b93505060c06112958b828c01611114565b92505060e06112a68b828c01611114565b9150509295985092959890939650565b600080604083850312156112c957600080fd5b60006112d7858286016110ec565b92505060206112e885828601611128565b9150509250929050565b6112fb816115e4565b82525050565b61130a816115f6565b82525050565b61131981611602565b82525050565b600061132a826115d9565b80845261133e816020860160208601611682565b611347816116b5565b602085010191505092915050565b6000601282527f4461692f7065726d69742d6578706972656400000000000000000000000000006020830152604082019050919050565b6000601182527f4461692f696e76616c69642d6e6f6e63650000000000000000000000000000006020830152604082019050919050565b6000601582527f4461692f696e76616c69642d616464726573732d3000000000000000000000006020830152604082019050919050565b6000601282527f4461692f696e76616c69642d7065726d697400000000000000000000000000006020830152604082019050919050565b61143a8161162c565b82525050565b61144981611636565b82525050565b600060208201905061146460008301846112f2565b92915050565b600060208201905061147f6000830184611301565b92915050565b600060208201905061149a6000830184611310565b92915050565b600060c0820190506114b56000830189611310565b6114c260208301886112f2565b6114cf60408301876112f2565b6114dc6060830186611431565b6114e96080830185611431565b6114f660a0830184611301565b979650505050505050565b6000602082019050818103600083015261151b818461131f565b905092915050565b6000602082019050818103600083015261153c81611355565b9050919050565b6000602082019050818103600083015261155c8161138c565b9050919050565b6000602082019050818103600083015261157c816113c3565b9050919050565b6000602082019050818103600083015261159c816113fa565b9050919050565b60006020820190506115b86000830184611431565b92915050565b60006020820190506115d36000830184611440565b92915050565b600081519050919050565b60006115ef8261160c565b9050919050565b60008115159050919050565b6000819050919050565b600073ffffffffffffffffffffffffffffffffffffffff82169050919050565b6000819050919050565b600060ff82169050919050565b600061164e8261160c565b9050919050565b60008115159050919050565b6000819050919050565b6000819050919050565b600060ff82169050919050565b60005b838110156116a0578082015181840152602081019050611685565b838111156116af576000848401525b50505050565b6000601f19601f830116905091905056fea265627a7a723058206c5a37404797113106252f27614dfdbccb68aeb3d2c3cdb6692eb0046f5450906c6578706572696d656e74616cf50037",
  "source": "pragma solidity >=0.5.0;\npragma experimental ABIEncoderV2;\n\nimport \"./interfaces/TokenInterface.sol\";\nimport \"./interfaces/cTokenInterface.sol\";\nimport \"./interfaces/PTokenInterface.sol\";\n\ncontract PouchToken is PTokenInterface {\n    uint256 public totalSupply;\n    mapping(address => uint256) public balances;\n    mapping(address => mapping(address => uint256)) public allowed;\n    bytes32 public DOMAIN_SEPARATOR;\n    address public admin;\n    address cDaiAddress = 0xe7bc397DBd069fC7d0109C0636d06888bb50668c;\n    cTokenInterface cDai = cTokenInterface(cDaiAddress);\n    address daiAddress = 0x4F96Fe3b7A6Cf9725f59d353F723c1bDb64CA6Aa;\n    TokenInterface daiToken = TokenInterface(daiAddress);\n    bytes32 public constant DEPOSIT_TYPEHASH = keccak256(\n        \"Deposit(address holder,uint256 value)\"\n    );\n\n    mapping(address => uint256) public nonces;\n    bytes32 public constant PERMIT_TYPEHASH = keccak256(\n        \"Permit(address holder,address spender,uint256 nonce,uint256 expiry,bool isAllowed)\"\n    );\n    address public ImplementationAddress;\n    uint256 private constant MAX_UINT256 = uint256(-1);\n\n    // --- ERC20 Data ---\n    string public constant name = \"Pouch Token\";\n    string public constant version = \"1\";\n    uint8 public constant decimals = 18;\n\n    // ** ERC-20 Standard Functions **\n\n    function transfer(address _to, uint256 _value)\n        external\n        returns (bool success)\n    {\n        require(balances[msg.sender] >= _value);\n        balances[msg.sender] -= _value;\n        balances[_to] += _value;\n        emit Transfer(msg.sender, _to, _value);\n        return true;\n    }\n\n    function transferFrom(address _from, address _to, uint256 _value)\n        external\n        returns (bool success)\n    {\n        uint256 allowance = allowed[_from][msg.sender];\n        require(balances[_from] >= _value && allowance >= _value);\n        balances[_to] += _value;\n        balances[_from] -= _value;\n        if (allowance < MAX_UINT256) {\n            allowed[_from][msg.sender] -= _value;\n        }\n        emit Transfer(_from, _to, _value);\n        return true;\n    }\n\n    function balanceOf(address _owner) external view returns (uint256 balance) {\n        return balances[_owner];\n    }\n\n    function approve(address _spender, uint256 _value)\n        external\n        returns (bool success)\n    {\n        allowed[msg.sender][_spender] = _value;\n        emit Approval(msg.sender, _spender, _value);\n        return true;\n    }\n\n    function allowance(address _owner, address _spender)\n        external\n        view\n        returns (uint256 remaining)\n    {\n        return allowed[_owner][_spender];\n    }\n\n    // --- Approve by signature ---\n    function permitted(\n        address holder,\n        address spender,\n        uint256 nonce,\n        uint256 expiry,\n        bool isAllowed,\n        uint8 v,\n        bytes32 r,\n        bytes32 s\n    ) public {\n        bytes32 digest = keccak256(\n            abi.encodePacked(\n                \"\\x19\\x01\",\n                DOMAIN_SEPARATOR,\n                keccak256(\n                    abi.encode(\n                        PERMIT_TYPEHASH,\n                        holder,\n                        spender,\n                        nonce,\n                        expiry,\n                        isAllowed\n                    )\n                )\n            )\n        );\n\n        require(holder != address(0), \"Dai/invalid-address-0\");\n        require(holder == ecrecover(digest, v, r, s), \"Dai/invalid-permit\");\n        require(expiry == 0 || now <= expiry, \"Dai/permit-expired\");\n        require(nonce == nonces[holder]++, \"Dai/invalid-nonce\");\n        uint256 wad = isAllowed ? uint256(-1) : 0;\n        allowed[holder][spender] = wad;\n        emit Approval(holder, spender, wad);\n    }\n\n    function supplyOf() external view returns (uint256 balance) {\n        return totalSupply;\n    }\n\n}\n\n//  ** Inheritance of Pouch Token to Make Delegate Calls to implementation Contract. **\n\ncontract PouchDelegate is PouchToken {\n    constructor(uint256 _chainId) public {\n        DOMAIN_SEPARATOR = keccak256(\n            abi.encode(\n                keccak256(\n                    \"EIP712Domain(string name,string version,uint256 chainId,address verifyingContract)\"\n                ),\n                keccak256(bytes(name)),\n                keccak256(bytes(version)),\n                _chainId,\n                address(this)\n            )\n        );\n\n        admin = msg.sender;\n    }\n\n    // ** Internal Functions **\n\n    modifier adminOnly() {\n        require(msg.sender == admin, \"Restricted Access to Admin Only\");\n        _;\n    }\n\n    // ** Update Implementation Address **\n    function updateLogic(address _newImplemenationAddress) external adminOnly {\n        require(msg.sender == admin, \"Admin Only\");\n        ImplementationAddress = _newImplemenationAddress;\n    }\n\n    // ** Delegate Calls **\n\n    // Internal Delegate Function **\n    function _ImplementDelegationCore(\n        address _holder,\n        uint256 _value,\n        bytes32 _r,\n        bytes32 _s,\n        uint8 _v,\n        bytes memory logic\n    ) internal returns (bool) {\n        (bool status, bytes memory returnedData) = ImplementationAddress\n            .delegatecall(\n            abi.encodeWithSelector(\n                bytes4(keccak256(logic)),\n                _holder,\n                _value,\n                _r,\n                _s,\n                _v\n            )\n        );\n        require(status);\n        return abi.decode(returnedData, (bool));\n    }\n\n    // function deposit(address holder,\n    //         uint256 value,\n    //         bytes32 r,\n    //         bytes32 s,\n    //         uint8 v) public returns (bool){\n    //           return _ImplementDelegationCore(holder,value,r,s,v, \"deposit(address,uint256,bytes32,bytes32,uint8\");\n    //     }\n\n    function deposit(\n        address holder,\n        uint256 value,\n        bytes32 r,\n        bytes32 s,\n        uint8 v\n    ) public returns (bool) {\n        bytes32 digest = keccak256(\n            abi.encodePacked(\n                \"\\x19\\x01\",\n                DOMAIN_SEPARATOR,\n                keccak256(abi.encode(DEPOSIT_TYPEHASH, holder, value))\n            )\n        );\n\n        require(holder != address(0), \"Pouch/invalid-address-0\");\n        require(holder == ecrecover(digest, v, r, s), \"Pouch/invalid-permit\");\n\n        // ** Check for sufficient Funds **\n        uint256 userBalance = daiToken.balanceOf(holder);\n        require(userBalance >= value, \"Insufficient Funds\");\n\n        daiToken.transferFrom(holder, address(this), value); // **Transfer User's DAI**\n        balances[holder] += value;\n        totalSupply += value;\n        emit Transfer(address(0), holder, value); // **Mint PCH tokens for the User**\n        daiToken.approve(cDaiAddress, value);\n        cDai.mint(value); // **Mint cDai  **\n        return true;\n    }\n\n    // function deposit(\n    // // address holder,\n    //         uint256 value\n    //         // bytes32 r,\n    //         // bytes32 s,\n    //         // uint8 v\n    //         ) public returns (bool){\n    //           (bool status, bytes memory returnedData) = ImplementationAddress.delegatecall(abi.encodeWithSelector(bytes4(keccak256(\"deposit(uint256)\")) ,value));\n    //         require(status);\n    //         return abi.decode(returnedData,(bool));\n    //     }\n\n    function withdraw(\n        address holder,\n        uint256 value,\n        bytes32 r,\n        bytes32 s,\n        uint8 v\n    ) public returns (bool) {\n        return\n            _ImplementDelegationCore(\n                holder,\n                value,\n                r,\n                s,\n                v,\n                \"withdraw(address,uint256,bytes32,bytes32,uint8\"\n            );\n    }\n\n    function transact(\n        address holder,\n        address to,\n        uint256 value,\n        bytes32 r,\n        bytes32 s,\n        uint8 v\n    ) public returns (bool) {\n        (bool status, bytes memory returnedData) = ImplementationAddress\n            .delegatecall(\n            abi.encodeWithSelector(\n                bytes4(\n                    keccak256(\n                        \"transact(address,address,uint256,bytes32,bytes32,uint8)\"\n                    )\n                ),\n                holder,\n                to,\n                value,\n                r,\n                s,\n                v\n            )\n        );\n        require(status);\n        return abi.decode(returnedData, (bool));\n    }\n\n    function checkProfits() public view adminOnly returns (uint256) {\n        (bool status, bytes memory returnedData) = ImplementationAddress\n            .staticcall(\n            abi.encodeWithSelector(bytes4(keccak256(\"_checkProfits()\")))\n        );\n        require(status);\n        return abi.decode(returnedData, (uint256));\n    }\n\n    function spitProfits() public adminOnly returns (bool) {\n        (bool status, bytes memory returnedData) = ImplementationAddress\n            .delegatecall(\n            abi.encodeWithSelector(bytes4(keccak256(\"_spitProfits()\")))\n        );\n        require(status);\n        return abi.decode(returnedData, (bool));\n    }\n\n    /**\n     * @notice Delegates execution to an implementation contract\n     * @dev It returns to the external caller whatever the implementation returns or forwards reverts\n     */\n    function() external {\n        // delegate all other functions to current implementation\n        (bool status, ) = ImplementationAddress.delegatecall(msg.data);\n        require(status);\n\n    }\n\n}\n",
  "sourcePath": "/home/roheat/blockchain/projects/biconomy/boundless/contracts/PouchSingle.sol",
  "compiler": {
    "name": "solc",
    "version": "0.5.0+commit.1d4f565a.Emscripten.clang"
  },
  "schemaVersion": "3.0.1",
  "updatedAt": "2020-02-18T16:10:58.733Z",
  "devdoc": {
    "methods": {}
  },
  "userdoc": {
    "methods": {}
  }
}