{
  "contractName": "Pouch",
  "abi": [
    {
      "constant": true,
      "inputs": [],
      "name": "DOMAIN_SEPARATOR",
      "outputs": [
        {
          "name": "",
          "type": "bytes32"
        }
      ],
      "payable": false,
      "stateMutability": "view",
      "type": "function",
      "signature": "0x3644e515"
    },
    {
      "constant": true,
      "inputs": [],
      "name": "DEPOSIT_TYPEHASH",
      "outputs": [
        {
          "name": "",
          "type": "bytes32"
        }
      ],
      "payable": false,
      "stateMutability": "view",
      "type": "function",
      "signature": "0x48825e94"
    },
    {
      "constant": true,
      "inputs": [],
      "name": "admin",
      "outputs": [
        {
          "name": "",
          "type": "address"
        }
      ],
      "payable": false,
      "stateMutability": "view",
      "type": "function",
      "signature": "0xf851a440"
    },
    {
      "inputs": [],
      "payable": false,
      "stateMutability": "nonpayable",
      "type": "constructor",
      "signature": "constructor"
    },
    {
      "constant": false,
      "inputs": [
        {
          "components": [
            {
              "name": "holder",
              "type": "address"
            },
            {
              "name": "value",
              "type": "uint256"
            }
          ],
          "name": "dep",
          "type": "tuple"
        },
        {
          "name": "r",
          "type": "bytes32"
        },
        {
          "name": "s",
          "type": "bytes32"
        },
        {
          "name": "v",
          "type": "uint8"
        }
      ],
      "name": "deposit",
      "outputs": [],
      "payable": false,
      "stateMutability": "nonpayable",
      "type": "function",
      "signature": "0xadb42d0f"
    }
  ],
  "bytecode": "0x60806040527fffffffffffffffffffffffffffffffffffffffffffffffffffffffffffffffff600355734f96fe3b7a6cf9725f59d353f723c1bdb64ca6aa600460006101000a81548173ffffffffffffffffffffffffffffffffffffffff021916908373ffffffffffffffffffffffffffffffffffffffff16021790555073e7bc397dbd069fc7d0109c0636d06888bb50668c600560006101000a81548173ffffffffffffffffffffffffffffffffffffffff021916908373ffffffffffffffffffffffffffffffffffffffff16021790555073b5cea18db04008a4d68444a298dbdd2d0e442e3d600660006101000a81548173ffffffffffffffffffffffffffffffffffffffff021916908373ffffffffffffffffffffffffffffffffffffffff160217905550600460009054906101000a900473ffffffffffffffffffffffffffffffffffffffff16600760006101000a81548173ffffffffffffffffffffffffffffffffffffffff021916908373ffffffffffffffffffffffffffffffffffffffff160217905550600560009054906101000a900473ffffffffffffffffffffffffffffffffffffffff16600860006101000a81548173ffffffffffffffffffffffffffffffffffffffff021916908373ffffffffffffffffffffffffffffffffffffffff160217905550600660009054906101000a900473ffffffffffffffffffffffffffffffffffffffff16600960006101000a81548173ffffffffffffffffffffffffffffffffffffffff021916908373ffffffffffffffffffffffffffffffffffffffff1602179055503480156200025d57600080fd5b5060405180807f454950373132446f6d61696e28737472696e67206e616d652c737472696e672081526020017f76657273696f6e2c75696e7432353620636861696e49642c616464726573732081526020017f766572696679696e67436f6e74726163742900000000000000000000000000008152506052019050604051809103902060405180807f506f7563680000000000000000000000000000000000000000000000000000008152506005019050604051809103902060405180807f310000000000000000000000000000000000000000000000000000000000000081525060010190506040518091039020602a3060405160200162000365959493929190620003fb565b6040516020818303038152906040528051906020012060028190555033600160006101000a81548173ffffffffffffffffffffffffffffffffffffffff021916908373ffffffffffffffffffffffffffffffffffffffff160217905550620004b7565b620003d38162000458565b82525050565b620003e4816200046c565b82525050565b620003f581620004a3565b82525050565b600060a082019050620004126000830188620003d9565b620004216020830187620003d9565b620004306040830186620003d9565b6200043f6060830185620003ea565b6200044e6080830184620003c8565b9695505050505050565b6000620004658262000476565b9050919050565b6000819050919050565b600073ffffffffffffffffffffffffffffffffffffffff82169050919050565b600060ff82169050919050565b6000620004b08262000496565b9050919050565b610c1080620004c76000396000f3fe608060405260043610610062576000357c0100000000000000000000000000000000000000000000000000000000900463ffffffff1680633644e5151461006757806348825e9414610092578063adb42d0f146100bd578063f851a440146100e6575b600080fd5b34801561007357600080fd5b5061007c610111565b6040516100899190610a77565b60405180910390f35b34801561009e57600080fd5b506100a7610117565b6040516100b49190610a77565b60405180910390f35b3480156100c957600080fd5b506100e460048036036100df91908101906108ac565b610176565b005b3480156100f257600080fd5b506100fb610799565b60405161010891906109d3565b60405180910390f35b60025481565b60405180807f4465706f736974286164647265737320686f6c6465722c75696e74323536207681526020017f616c7565290000000000000000000000000000000000000000000000000000008152506025019050604051809103902081565b600060025460405180807f4465706f736974286164647265737320686f6c6465722c75696e74323536207681526020017f616c75652900000000000000000000000000000000000000000000000000000081525060250190506040518091039020866000015187602001516040516020016101f393929190610a92565b6040516020818303038152906040528051906020012060405160200180807f190100000000000000000000000000000000000000000000000000000000000081525060020183815260200182815260200192505050604051602081830303815290604052805190602001209050600073ffffffffffffffffffffffffffffffffffffffff16856000015173ffffffffffffffffffffffffffffffffffffffff16141515156102d6576040517f08c379a00000000000000000000000000000000000000000000000000000000081526004016102cd90610ac9565b60405180910390fd5b60018183868660405160008152602001604052604051808581526020018460ff1660ff1681526020018381526020018281526020019450505050506020604051602081039080840390855afa158015610333573d6000803e3d6000fd5b5050506020604051035173ffffffffffffffffffffffffffffffffffffffff16856000015173ffffffffffffffffffffffffffffffffffffffff161415156103b0576040517f08c379a00000000000000000000000000000000000000000000000000000000081526004016103a790610ae9565b60405180910390fd5b600760009054906101000a900473ffffffffffffffffffffffffffffffffffffffff1673ffffffffffffffffffffffffffffffffffffffff166323b872dd86600001513088602001516040518463ffffffff167c010000000000000000000000000000000000000000000000000000000002815260040161043393929190610a17565b602060405180830381600087803b15801561044d57600080fd5b505af1158015610461573d6000803e3d6000fd5b505050506040513d601f19601f820116820180604052506104859190810190610883565b508460200151600080876000015173ffffffffffffffffffffffffffffffffffffffff1673ffffffffffffffffffffffffffffffffffffffff168152602001908152602001600020600082825401925050819055506000600760009054906101000a900473ffffffffffffffffffffffffffffffffffffffff1673ffffffffffffffffffffffffffffffffffffffff1663dd62ed3e30600560009054906101000a900473ffffffffffffffffffffffffffffffffffffffff166040518363ffffffff167c01000000000000000000000000000000000000000000000000000000000281526004016105779291906109ee565b60206040518083038186803b15801561058f57600080fd5b505afa1580156105a3573d6000803e3d6000fd5b505050506040513d601f19601f820116820180604052506105c7919081019061090f565b905085602001518110156106c35760006003548760200151116105ec576003546105f2565b86602001515b9050600760009054906101000a900473ffffffffffffffffffffffffffffffffffffffff1673ffffffffffffffffffffffffffffffffffffffff1663095ea7b3600560009054906101000a900473ffffffffffffffffffffffffffffffffffffffff16836040518363ffffffff167c010000000000000000000000000000000000000000000000000000000002815260040161068f929190610a4e565b600060405180830381600087803b1580156106a957600080fd5b505af11580156106bd573d6000803e3d6000fd5b50505050505b600860009054906101000a900473ffffffffffffffffffffffffffffffffffffffff1673ffffffffffffffffffffffffffffffffffffffff1663a0712d6887602001516040518263ffffffff167c010000000000000000000000000000000000000000000000000000000002815260040161073e9190610b09565b602060405180830381600087803b15801561075857600080fd5b505af115801561076c573d6000803e3d6000fd5b505050506040513d601f19601f82011682018060405250610790919081019061090f565b50505050505050565b600160009054906101000a900473ffffffffffffffffffffffffffffffffffffffff1681565b60006107cb8235610b97565b905092915050565b60006107df8251610ba9565b905092915050565b60006107f38235610bb5565b905092915050565b60006040828403121561080d57600080fd5b6108176040610b24565b90506000610827848285016107bf565b600083015250602061083b84828501610847565b60208301525092915050565b60006108538235610bbf565b905092915050565b60006108678251610bbf565b905092915050565b600061087b8235610bc9565b905092915050565b60006020828403121561089557600080fd5b60006108a3848285016107d3565b91505092915050565b60008060008060a085870312156108c257600080fd5b60006108d0878288016107fb565b94505060406108e1878288016107e7565b93505060606108f2878288016107e7565b92505060806109038782880161086f565b91505092959194509250565b60006020828403121561092157600080fd5b600061092f8482850161085b565b91505092915050565b61094181610b51565b82525050565b61095081610b63565b82525050565b6000601782527f506f7563682f696e76616c69642d616464726573732d300000000000000000006020830152604082019050919050565b6000601482527f506f7563682f696e76616c69642d7065726d69740000000000000000000000006020830152604082019050919050565b6109cd81610b8d565b82525050565b60006020820190506109e86000830184610938565b92915050565b6000604082019050610a036000830185610938565b610a106020830184610938565b9392505050565b6000606082019050610a2c6000830186610938565b610a396020830185610938565b610a4660408301846109c4565b949350505050565b6000604082019050610a636000830185610938565b610a7060208301846109c4565b9392505050565b6000602082019050610a8c6000830184610947565b92915050565b6000606082019050610aa76000830186610947565b610ab46020830185610938565b610ac160408301846109c4565b949350505050565b60006020820190508181036000830152610ae281610956565b9050919050565b60006020820190508181036000830152610b028161098d565b9050919050565b6000602082019050610b1e60008301846109c4565b92915050565b6000604051905081810181811067ffffffffffffffff82111715610b4757600080fd5b8060405250919050565b6000610b5c82610b6d565b9050919050565b6000819050919050565b600073ffffffffffffffffffffffffffffffffffffffff82169050919050565b6000819050919050565b6000610ba282610b6d565b9050919050565b60008115159050919050565b6000819050919050565b6000819050919050565b600060ff8216905091905056fea265627a7a72305820830fdc1e7aa75bc8b278dc3b98347e102411169a1f425cd950b70bb908f880816c6578706572696d656e74616cf50037",
  "source": "pragma solidity >=0.5.0;\npragma experimental ABIEncoderV2;\n\nimport \"./interfaces/TokenInterface.sol\";\nimport \"./interfaces/cTokenInterface.sol\";\nimport \"./interfaces/PTokenInterface.sol\";\n// import \"./interfaces/EIP20Interface.sol\";\n// import \"./EIP712MetaTransaction.sol\";\n\ncontract Pouch {\n    /*is EIP712MetaTransaction(\"Pouch\", \"1\")*/\n    // uint256 public totalDaiDeposits;\n    // mapping(address => bool) registeredUser;\n    mapping(address => uint256) balances;\n    address public admin;\n    bytes32 public DOMAIN_SEPARATOR;\n    struct Deposit {\n        address holder;\n        uint256 value;\n    }\n    bytes32 public constant DEPOSIT_TYPEHASH = keccak256(\n        \"Deposit(address holder,uint256 value)\"\n    );\n\n    uint256 cDaiAllowedAmount = uint256(-1);\n    address daiAddress = 0x4F96Fe3b7A6Cf9725f59d353F723c1bDb64CA6Aa;\n    address cDaiAddress = 0xe7bc397DBd069fC7d0109C0636d06888bb50668c;\n    address pDaiAddress = 0xb5cea18Db04008a4D68444A298DBDD2D0E442E3D;\n\n    TokenInterface daiToken = TokenInterface(daiAddress);\n    cTokenInterface cDai = cTokenInterface(cDaiAddress);\n    PTokenInterface pDaiToken = PTokenInterface(pDaiAddress);\n\n    constructor() public {\n        DOMAIN_SEPARATOR = keccak256(\n            abi.encode(\n                keccak256(\n                    \"EIP712Domain(string name,string version,uint256 chainId,address verifyingContract)\"\n                ),\n                keccak256(\"Pouch\"),\n                keccak256(\"1\"),\n                42, // kovan chainId\n                address(this)\n            )\n        );\n        admin = msg.sender;\n        // daiToken.approve(cDaiAddress, cDaiAllowedAmount);\n    }\n\n    modifier adminOnly() {\n        require(msg.sender == admin, \"Not authorized\");\n        _;\n    }\n    // ** Deposit DAI **\n    function deposit(\n        Deposit memory dep,\n        bytes32 r,\n        bytes32 s,\n        uint8 v\n    ) public {\n        bytes32 digest = keccak256(\n            abi.encodePacked(\n                \"\\x19\\x01\",\n                DOMAIN_SEPARATOR,\n                keccak256(abi.encode(DEPOSIT_TYPEHASH, dep.holder, dep.value))\n            )\n        );\n\n        require(dep.holder != address(0), \"Pouch/invalid-address-0\");\n        require(dep.holder == ecrecover(digest, v, r, s), \"Pouch/invalid-permit\");\n        // Check if User's Dai Balance is more or equal to the value sent.\n        // uint256 userBalance = daiToken.balanceOf(dep.holder);\n        // require(\n        //     userBalance >= dep.value,\n        //     \"User does not have the required DAI balance.\"\n        // );\n\n        daiToken.transferFrom(dep.holder, address(this), dep.value);\n        balances[dep.holder] += dep.value;\n\n        // emit pDaiToken.Transfer(\n        //     0x0000000000000000000000000000000000000000,\n        //     holder,\n        //     value\n        // );\n\n        // Check for Dai allowance given from this contract to Cdai Contract\n        uint256 cDaiAllowance = daiToken.allowance(address(this), cDaiAddress);\n        if (cDaiAllowance < dep.value) {\n            uint256 amount = dep.value > cDaiAllowedAmount\n                ? dep.value\n                : cDaiAllowedAmount;\n            daiToken.approve(cDaiAddress, amount);\n        }\n\n        cDai.mint(dep.value);\n    }\n\n    // // ** Withdraw DAI**\n    // function withdraw(uint256 value) external {\n    //     // Check if User's PCH balance is more or equal to the value sent.\n    //     uint256 pouchBalance = pDaiToken.balanceOf(msgSender());\n    //     require(\n    //         pouchBalance >= value,\n    //         \"User does not have the required PCH balance.\"\n    //     );\n\n    //     // Burn PCH\n    //     pDaiToken.transfer(0x0000000000000000000000000000000000000000, value);\n    //     totalSupply -= value;\n\n    //     // Redeem User's DAI from compound and transfer it to user.\n    //     cDai.redeemUnderlying(value);\n    //     daiToken.transfer(msgSender(), value);\n    // }\n\n    // function spitProfits() external adminOnly {\n    //     uint256 adjustedTotalSupply = totalSupply.mul(100000000);\n    //     uint256 ourContractBalance = cDai.balanceOf(address(this));\n    //     uint256 cDaiExchangeRate = cDai.exchangeRateCurrent();\n    //     uint256 cDaiExchangeRateDivided = cDaiExchangeRate.div(10000000000);\n\n    //     uint256 currentPrice = adjustedTotalSupply.div(cDaiExchangeRateDivided);\n    //     uint256 profit = ourContractBalance.sub(currentPrice);\n    //     cDai.transfer(msg.sender, profit);\n\n    // }\n\n    // function myCurrentBalance() external view returns (uint256) {\n    //     return cDai.balanceOf(address(this));\n    // }\n\n    // function getExchangeRate() external view returns (uint256) {\n    //     return cDai.exchangeRateCurrent();\n    // }\n\n    // function checkProfits() external view returns (uint256) {\n    //     uint256 adjustedTotalSupply = totalSupply.mul(100000000);\n    //     uint256 ourContractBalance = cDai.balanceOf(address(this));\n    //     uint256 cDaiExchangeRate = cDai.exchangeRateCurrent();\n    //     uint256 cDaiExchangeRateDivided = cDaiExchangeRate.div(10000000000);\n\n    //     uint256 currentPrice = adjustedTotalSupply.div(cDaiExchangeRateDivided);\n    //     uint256 profit = ourContractBalance.sub(currentPrice);\n    //     return profit;\n    // }\n    // MintInterface cDai = MintInterface(cDaiAddress);\n    // TokenInterface dai = TokenInterface(daiAddress);\n\n    // function checkDaiAllowance() external view returns (uint256) {\n    //     return dai.allowance(msg.sender, address(this));\n    // }\n\n    // function userBalance() external view returns (uint256) {\n    //     return balances[msg.sender];\n    // }\n\n    // function deposit(address sender, uint256 amount) external {\n    //     dai.transferFrom(sender, address(this), amount);\n    //     totalDaiDeposits += amount;\n    //     dai.approve(cDaiAddress, amount);\n    //     cDai.mint(amount);\n    //     balances[sender] += amount;\n    //     registeredUser[sender] = true;\n    // }\n\n    // function transact(address recipient, uint256 amount) external {\n    //     require(registeredUser[msg.sender] == true, \"Sender not registered\");\n    //     require(amount <= balances[msg.sender], \"Insufficient Funds\");\n    //     balances[msg.sender] -= amount;\n    //     balances[recipient] += amount;\n    // }\n\n    // function withdraw(uint256 amount) external {\n    //     require(amount <= balances[msg.sender], \"Insufficient Funds\");\n    //     cDai.redeemUnderlying(amount);\n    //     dai.transfer(msg.sender, amount);\n    //     balances[msg.sender] -= amount;\n    // }\n\n    // function contractBalance() external view returns (uint256) {\n    //     return cDai.balanceOf(address(this));\n    // }\n\n}\n",
  "sourcePath": "/home/roheat/blockchain/projects/biconomy/boundless/contracts/Pouch.sol",
  "compiler": {
    "name": "solc",
    "version": "0.5.0+commit.1d4f565a.Emscripten.clang"
  },
  "schemaVersion": "3.0.1",
  "updatedAt": "2020-02-13T13:38:09.282Z",
  "devdoc": {
    "methods": {}
  },
  "userdoc": {
    "methods": {}
  }
}