{
  "contractName": "Pouch",
  "abi": [
    {
      "constant": true,
      "inputs": [],
      "name": "TRANSACT_TYPEHASH",
      "outputs": [
        {
          "name": "",
          "type": "bytes32"
        }
      ],
      "payable": false,
      "stateMutability": "view",
      "type": "function",
      "signature": "0x0df73116"
    },
    {
      "constant": true,
      "inputs": [],
      "name": "totalSupply",
      "outputs": [
        {
          "name": "",
          "type": "uint256"
        }
      ],
      "payable": false,
      "stateMutability": "view",
      "type": "function",
      "signature": "0x18160ddd"
    },
    {
      "constant": true,
      "inputs": [
        {
          "name": "",
          "type": "address"
        }
      ],
      "name": "balances",
      "outputs": [
        {
          "name": "",
          "type": "uint256"
        }
      ],
      "payable": false,
      "stateMutability": "view",
      "type": "function",
      "signature": "0x27e235e3"
    },
    {
      "constant": true,
      "inputs": [],
      "name": "DOMAIN_SEPARATOR",
      "outputs": [
        {
          "name": "",
          "type": "bytes32"
        }
      ],
      "payable": false,
      "stateMutability": "view",
      "type": "function",
      "signature": "0x3644e515"
    },
    {
      "constant": true,
      "inputs": [],
      "name": "DEPOSIT_TYPEHASH",
      "outputs": [
        {
          "name": "",
          "type": "bytes32"
        }
      ],
      "payable": false,
      "stateMutability": "view",
      "type": "function",
      "signature": "0x48825e94"
    },
    {
      "constant": true,
      "inputs": [
        {
          "name": "",
          "type": "address"
        },
        {
          "name": "",
          "type": "address"
        }
      ],
      "name": "allowed",
      "outputs": [
        {
          "name": "",
          "type": "uint256"
        }
      ],
      "payable": false,
      "stateMutability": "view",
      "type": "function",
      "signature": "0x5c658165"
    },
    {
      "constant": true,
      "inputs": [],
      "name": "WITHDRAW_TYPEHASH",
      "outputs": [
        {
          "name": "",
          "type": "bytes32"
        }
      ],
      "payable": false,
      "stateMutability": "view",
      "type": "function",
      "signature": "0x76c5d758"
    },
    {
      "constant": true,
      "inputs": [
        {
          "name": "",
          "type": "address"
        }
      ],
      "name": "nonces",
      "outputs": [
        {
          "name": "",
          "type": "uint256"
        }
      ],
      "payable": false,
      "stateMutability": "view",
      "type": "function",
      "signature": "0x7ecebe00"
    },
    {
      "constant": true,
      "inputs": [],
      "name": "ImplementationAddress",
      "outputs": [
        {
          "name": "",
          "type": "address"
        }
      ],
      "payable": false,
      "stateMutability": "view",
      "type": "function",
      "signature": "0xe8a667de"
    },
    {
      "constant": true,
      "inputs": [],
      "name": "admin",
      "outputs": [
        {
          "name": "",
          "type": "address"
        }
      ],
      "payable": false,
      "stateMutability": "view",
      "type": "function",
      "signature": "0xf851a440"
    },
    {
      "inputs": [
        {
          "name": "tokenAddress",
          "type": "address"
        }
      ],
      "payable": false,
      "stateMutability": "nonpayable",
      "type": "constructor",
      "signature": "constructor"
    },
    {
      "anonymous": false,
      "inputs": [
        {
          "indexed": true,
          "name": "_from",
          "type": "address"
        },
        {
          "indexed": true,
          "name": "_to",
          "type": "address"
        },
        {
          "indexed": false,
          "name": "_value",
          "type": "uint256"
        }
      ],
      "name": "Transfer",
      "type": "event",
      "signature": "0xddf252ad1be2c89b69c2b068fc378daa952ba7f163c4a11628f55a4df523b3ef"
    },
    {
      "anonymous": false,
      "inputs": [
        {
          "indexed": true,
          "name": "_owner",
          "type": "address"
        },
        {
          "indexed": true,
          "name": "_spender",
          "type": "address"
        },
        {
          "indexed": false,
          "name": "_value",
          "type": "uint256"
        }
      ],
      "name": "Approval",
      "type": "event",
      "signature": "0x8c5be1e5ebec7d5bd14f71427d1e84f3dd0314c0f7b2291e5b200ac8c7c3b925"
    },
    {
      "constant": false,
      "inputs": [
        {
          "name": "holder",
          "type": "address"
        },
        {
          "name": "value",
          "type": "uint256"
        },
        {
          "name": "nonce",
          "type": "uint256"
        },
        {
          "name": "r",
          "type": "bytes32"
        },
        {
          "name": "s",
          "type": "bytes32"
        },
        {
          "name": "v",
          "type": "uint8"
        }
      ],
      "name": "deposit",
      "outputs": [
        {
          "name": "",
          "type": "bool"
        }
      ],
      "payable": false,
      "stateMutability": "nonpayable",
      "type": "function",
      "signature": "0xcfefd241"
    },
    {
      "constant": false,
      "inputs": [
        {
          "name": "holder",
          "type": "address"
        },
        {
          "name": "value",
          "type": "uint256"
        },
        {
          "name": "nonce",
          "type": "uint256"
        },
        {
          "name": "r",
          "type": "bytes32"
        },
        {
          "name": "s",
          "type": "bytes32"
        },
        {
          "name": "v",
          "type": "uint8"
        }
      ],
      "name": "withdraw",
      "outputs": [
        {
          "name": "",
          "type": "bool"
        }
      ],
      "payable": false,
      "stateMutability": "nonpayable",
      "type": "function",
      "signature": "0xcbb40dae"
    },
    {
      "constant": false,
      "inputs": [
        {
          "name": "holder",
          "type": "address"
        },
        {
          "name": "to",
          "type": "address"
        },
        {
          "name": "value",
          "type": "uint256"
        },
        {
          "name": "nonce",
          "type": "uint256"
        },
        {
          "name": "r",
          "type": "bytes32"
        },
        {
          "name": "s",
          "type": "bytes32"
        },
        {
          "name": "v",
          "type": "uint8"
        }
      ],
      "name": "transact",
      "outputs": [
        {
          "name": "",
          "type": "bool"
        }
      ],
      "payable": false,
      "stateMutability": "nonpayable",
      "type": "function",
      "signature": "0x12c6abb8"
    },
    {
      "constant": true,
      "inputs": [],
      "name": "getExchangeRate",
      "outputs": [
        {
          "name": "",
          "type": "uint256"
        }
      ],
      "payable": false,
      "stateMutability": "view",
      "type": "function",
      "signature": "0xe6aa216c"
    },
    {
      "constant": true,
      "inputs": [],
      "name": "getMySupply",
      "outputs": [
        {
          "name": "",
          "type": "uint256"
        }
      ],
      "payable": false,
      "stateMutability": "view",
      "type": "function",
      "signature": "0x61f0cbab"
    },
    {
      "constant": true,
      "inputs": [],
      "name": "checkContractBalance",
      "outputs": [
        {
          "name": "",
          "type": "uint256"
        }
      ],
      "payable": false,
      "stateMutability": "view",
      "type": "function",
      "signature": "0x50312c9e"
    },
    {
      "constant": false,
      "inputs": [],
      "name": "spitProfits",
      "outputs": [
        {
          "name": "",
          "type": "bool"
        }
      ],
      "payable": false,
      "stateMutability": "nonpayable",
      "type": "function",
      "signature": "0x890268f8"
    },
    {
      "constant": true,
      "inputs": [],
      "name": "checkProfits",
      "outputs": [
        {
          "name": "",
          "type": "uint256"
        }
      ],
      "payable": false,
      "stateMutability": "view",
      "type": "function",
      "signature": "0xd7a8e87b"
    }
  ],
  "bytecode": "0x608060405273e7bc397dbd069fc7d0109c0636d06888bb50668c600460006101000a81548173ffffffffffffffffffffffffffffffffffffffff021916908373ffffffffffffffffffffffffffffffffffffffff160217905550600460009054906101000a900473ffffffffffffffffffffffffffffffffffffffff16600560006101000a81548173ffffffffffffffffffffffffffffffffffffffff021916908373ffffffffffffffffffffffffffffffffffffffff160217905550734f96fe3b7a6cf9725f59d353f723c1bdb64ca6aa600660006101000a81548173ffffffffffffffffffffffffffffffffffffffff021916908373ffffffffffffffffffffffffffffffffffffffff160217905550600660009054906101000a900473ffffffffffffffffffffffffffffffffffffffff16600760006101000a81548173ffffffffffffffffffffffffffffffffffffffff021916908373ffffffffffffffffffffffffffffffffffffffff1602179055503480156200018157600080fd5b5060405160208062002a9f8339810180604052620001a3919081019062000324565b60405180807f454950373132446f6d61696e28737472696e67206e616d652c737472696e672081526020017f76657273696f6e2c75696e7432353620636861696e49642c616464726573732081526020017f766572696679696e67436f6e74726163742900000000000000000000000000008152506052019050604051809103902060405180807f506f7563680000000000000000000000000000000000000000000000000000008152506005019050604051809103902060405180807f310000000000000000000000000000000000000000000000000000000000000081525060010190506040518091039020602a84604051602001620002aa95949392919062000383565b6040516020818303038152906040528051906020012060098190555080600360006101000a81548173ffffffffffffffffffffffffffffffffffffffff021916908373ffffffffffffffffffffffffffffffffffffffff1602179055505062000453565b60006200031c82516200042b565b905092915050565b6000602082840312156200033757600080fd5b600062000347848285016200030e565b91505092915050565b6200035b81620003e0565b82525050565b6200036c81620003f4565b82525050565b6200037d816200043f565b82525050565b600060a0820190506200039a600083018862000361565b620003a9602083018762000361565b620003b8604083018662000361565b620003c7606083018562000372565b620003d6608083018462000350565b9695505050505050565b6000620003ed82620003fe565b9050919050565b6000819050919050565b600073ffffffffffffffffffffffffffffffffffffffff82169050919050565b600060ff82169050919050565b60006200043882620003fe565b9050919050565b60006200044c826200041e565b9050919050565b61263c80620004636000396000f3fe6080604052600436106100fc576000357c0100000000000000000000000000000000000000000000000000000000900463ffffffff1680630df731161461010157806312c6abb81461012c57806318160ddd1461016957806327e235e3146101945780633644e515146101d157806348825e94146101fc57806350312c9e146102275780635c6581651461025257806361f0cbab1461028f57806376c5d758146102ba5780637ecebe00146102e5578063890268f814610322578063cbb40dae1461034d578063cfefd2411461038a578063d7a8e87b146103c7578063e6aa216c146103f2578063e8a667de1461041d578063f851a44014610448575b600080fd5b34801561010d57600080fd5b50610116610473565b604051610123919061235c565b60405180910390f35b34801561013857600080fd5b50610153600480360361014e9190810190611f6a565b6104d2565b6040516101609190612341565b60405180910390f35b34801561017557600080fd5b5061017e61086e565b60405161018b91906124d1565b60405180910390f35b3480156101a057600080fd5b506101bb60048036036101b69190810190611f05565b610874565b6040516101c891906124d1565b60405180910390f35b3480156101dd57600080fd5b506101e661088c565b6040516101f3919061235c565b60405180910390f35b34801561020857600080fd5b50610211610892565b60405161021e919061235c565b60405180910390f35b34801561023357600080fd5b5061023c6108f1565b60405161024991906124d1565b60405180910390f35b34801561025e57600080fd5b5061027960048036036102749190810190611f2e565b6109e1565b60405161028691906124d1565b60405180910390f35b34801561029b57600080fd5b506102a4610a06565b6040516102b191906124d1565b60405180910390f35b3480156102c657600080fd5b506102cf610ace565b6040516102dc919061235c565b60405180910390f35b3480156102f157600080fd5b5061030c60048036036103079190810190611f05565b610b2d565b60405161031991906124d1565b60405180910390f35b34801561032e57600080fd5b50610337610b45565b6040516103449190612341565b60405180910390f35b34801561035957600080fd5b50610374600480360361036f9190810190612008565b610c26565b6040516103819190612341565b60405180910390f35b34801561039657600080fd5b506103b160048036036103ac9190810190612008565b611129565b6040516103be9190612341565b60405180910390f35b3480156103d357600080fd5b506103dc61182e565b6040516103e991906124d1565b60405180910390f35b3480156103fe57600080fd5b50610407611a5a565b60405161041491906124d1565b60405180910390f35b34801561042957600080fd5b50610432611b1d565b60405161043f919061229d565b60405180910390f35b34801561045457600080fd5b5061045d611b43565b60405161046a919061229d565b60405180910390f35b60405180807f5472616e73616374286164647265737320686f6c6465722c616464726573732081526020017f746f2c75696e743235362076616c75652c75696e74323536206e6f6e63652900815250603f019050604051809103902081565b60008060095460405180807f5472616e73616374286164647265737320686f6c6465722c616464726573732081526020017f746f2c75696e743235362076616c75652c75696e74323536206e6f6e63652900815250603f01905060405180910390208a8a8a8a60405160200161054c959493929190612377565b6040516020818303038152906040528051906020012060405160200180807f190100000000000000000000000000000000000000000000000000000000000081525060020183815260200182815260200192505050604051602081830303815290604052805190602001209050600073ffffffffffffffffffffffffffffffffffffffff168973ffffffffffffffffffffffffffffffffffffffff161415151561062b576040517f08c379a000000000000000000000000000000000000000000000000000000000815260040161062290612471565b60405180910390fd5b60018184878760405160008152602001604052604051808581526020018460ff1660ff1681526020018381526020018281526020019450505050506020604051602081039080840390855afa158015610688573d6000803e3d6000fd5b5050506020604051035173ffffffffffffffffffffffffffffffffffffffff168973ffffffffffffffffffffffffffffffffffffffff16141515610701576040517f08c379a00000000000000000000000000000000000000000000000000000000081526004016106f8906124b1565b60405180910390fd5b600160008a73ffffffffffffffffffffffffffffffffffffffff1673ffffffffffffffffffffffffffffffffffffffff168152602001908152602001600020548711151515610785576040517f08c379a000000000000000000000000000000000000000000000000000000000815260040161077c90612451565b60405180910390fd5b600073ffffffffffffffffffffffffffffffffffffffff168873ffffffffffffffffffffffffffffffffffffffff16141515156107c157600080fd5b600a60008a73ffffffffffffffffffffffffffffffffffffffff1673ffffffffffffffffffffffffffffffffffffffff16815260200190815260200160002060008154809291906001019190505586141515610852576040517f08c379a000000000000000000000000000000000000000000000000000000000815260040161084990612431565b60405180910390fd5b61085d898989611b69565b506001915050979650505050505050565b60005481565b60016020528060005260406000206000915090505481565b60095481565b60405180807f4465706f736974286164647265737320686f6c6465722c75696e74323536207681526020017f616c75652c75696e74323536206e6f6e636529000000000000000000000000008152506033019050604051809103902081565b6000600560009054906101000a900473ffffffffffffffffffffffffffffffffffffffff1673ffffffffffffffffffffffffffffffffffffffff166370a08231600360009054906101000a900473ffffffffffffffffffffffffffffffffffffffff166040518263ffffffff167c010000000000000000000000000000000000000000000000000000000002815260040161098c919061229d565b60206040518083038186803b1580156109a457600080fd5b505afa1580156109b8573d6000803e3d6000fd5b505050506040513d601f19601f820116820180604052506109dc91908101906120ba565b905090565b6002602052816000526040600020602052806000526040600020600091509150505481565b600080600360009054906101000a900473ffffffffffffffffffffffffffffffffffffffff1690508073ffffffffffffffffffffffffffffffffffffffff166318160ddd6040518163ffffffff167c010000000000000000000000000000000000000000000000000000000002815260040160206040518083038186803b158015610a9057600080fd5b505afa158015610aa4573d6000803e3d6000fd5b505050506040513d601f19601f82011682018060405250610ac891908101906120ba565b91505090565b60405180807f5769746864726177286164647265737320686f6c6465722c75696e743235362081526020017f76616c75652c75696e74323536206e6f6e6365290000000000000000000000008152506034019050604051809103902081565b600a6020528060005260406000206000915090505481565b600080610b5061182e565b9050600560009054906101000a900473ffffffffffffffffffffffffffffffffffffffff1673ffffffffffffffffffffffffffffffffffffffff1663a9059cbb33836040518363ffffffff167c0100000000000000000000000000000000000000000000000000000000028152600401610bcb9291906122b8565b602060405180830381600087803b158015610be557600080fd5b505af1158015610bf9573d6000803e3d6000fd5b505050506040513d601f19601f82011682018060405250610c1d9190810190612091565b50600191505090565b60008060095460405180807f5769746864726177286164647265737320686f6c6465722c75696e743235362081526020017f76616c75652c75696e74323536206e6f6e63652900000000000000000000000081525060340190506040518091039020898989604051602001610c9e94939291906123ca565b6040516020818303038152906040528051906020012060405160200180807f190100000000000000000000000000000000000000000000000000000000000081525060020183815260200182815260200192505050604051602081830303815290604052805190602001209050600073ffffffffffffffffffffffffffffffffffffffff168873ffffffffffffffffffffffffffffffffffffffff1614151515610d7d576040517f08c379a0000000000000000000000000000000000000000000000000000000008152600401610d7490612471565b60405180910390fd5b60018184878760405160008152602001604052604051808581526020018460ff1660ff1681526020018381526020018281526020019450505050506020604051602081039080840390855afa158015610dda573d6000803e3d6000fd5b5050506020604051035173ffffffffffffffffffffffffffffffffffffffff168873ffffffffffffffffffffffffffffffffffffffff16141515610e53576040517f08c379a0000000000000000000000000000000000000000000000000000000008152600401610e4a906124b1565b60405180910390fd5b600160008973ffffffffffffffffffffffffffffffffffffffff1673ffffffffffffffffffffffffffffffffffffffff168152602001908152602001600020548711151515610ed7576040517f08c379a0000000000000000000000000000000000000000000000000000000008152600401610ece90612451565b60405180910390fd5b600a60008973ffffffffffffffffffffffffffffffffffffffff1673ffffffffffffffffffffffffffffffffffffffff16815260200190815260200160002060008154809291906001019190505586141515610f68576040517f08c379a0000000000000000000000000000000000000000000000000000000008152600401610f5f90612431565b60405180910390fd5b610f7488600089611b69565b50866000808282540392505081905550600560009054906101000a900473ffffffffffffffffffffffffffffffffffffffff1673ffffffffffffffffffffffffffffffffffffffff1663852a12e3886040518263ffffffff167c0100000000000000000000000000000000000000000000000000000000028152600401610ffb91906124d1565b602060405180830381600087803b15801561101557600080fd5b505af1158015611029573d6000803e3d6000fd5b505050506040513d601f19601f8201168201806040525061104d91908101906120ba565b50600760009054906101000a900473ffffffffffffffffffffffffffffffffffffffff1673ffffffffffffffffffffffffffffffffffffffff1663a9059cbb89896040518363ffffffff167c01000000000000000000000000000000000000000000000000000000000281526004016110c7929190612318565b602060405180830381600087803b1580156110e157600080fd5b505af11580156110f5573d6000803e3d6000fd5b505050506040513d601f19601f820116820180604052506111199190810190612091565b5060019150509695505050505050565b60008060095460405180807f4465706f736974286164647265737320686f6c6465722c75696e74323536207681526020017f616c75652c75696e74323536206e6f6e63652900000000000000000000000000815250603301905060405180910390208989896040516020016111a194939291906123ca565b6040516020818303038152906040528051906020012060405160200180807f190100000000000000000000000000000000000000000000000000000000000081525060020183815260200182815260200192505050604051602081830303815290604052805190602001209050600073ffffffffffffffffffffffffffffffffffffffff168873ffffffffffffffffffffffffffffffffffffffff1614151515611280576040517f08c379a000000000000000000000000000000000000000000000000000000000815260040161127790612471565b60405180910390fd5b60018184878760405160008152602001604052604051808581526020018460ff1660ff1681526020018381526020018281526020019450505050506020604051602081039080840390855afa1580156112dd573d6000803e3d6000fd5b5050506020604051035173ffffffffffffffffffffffffffffffffffffffff168873ffffffffffffffffffffffffffffffffffffffff16141515611356576040517f08c379a000000000000000000000000000000000000000000000000000000000815260040161134d906124b1565b60405180910390fd5b600a60008973ffffffffffffffffffffffffffffffffffffffff1673ffffffffffffffffffffffffffffffffffffffff168152602001908152602001600020600081548092919060010191905055861415156113e7576040517f08c379a00000000000000000000000000000000000000000000000000000000081526004016113de90612431565b60405180910390fd5b6000600760009054906101000a900473ffffffffffffffffffffffffffffffffffffffff1673ffffffffffffffffffffffffffffffffffffffff166370a082318a6040518263ffffffff167c0100000000000000000000000000000000000000000000000000000000028152600401611460919061229d565b60206040518083038186803b15801561147857600080fd5b505afa15801561148c573d6000803e3d6000fd5b505050506040513d601f19601f820116820180604052506114b091908101906120ba565b90508781101515156114f7576040517f08c379a00000000000000000000000000000000000000000000000000000000081526004016114ee90612451565b60405180910390fd5b600760009054906101000a900473ffffffffffffffffffffffffffffffffffffffff1673ffffffffffffffffffffffffffffffffffffffff166323b872dd8a308b6040518463ffffffff167c0100000000000000000000000000000000000000000000000000000000028152600401611572939291906122e1565b602060405180830381600087803b15801561158c57600080fd5b505af11580156115a0573d6000803e3d6000fd5b505050506040513d601f19601f820116820180604052506115c49190810190612091565b5087600160008b73ffffffffffffffffffffffffffffffffffffffff1673ffffffffffffffffffffffffffffffffffffffff168152602001908152602001600020600082825401925050819055508760008082825401925050819055508873ffffffffffffffffffffffffffffffffffffffff16600073ffffffffffffffffffffffffffffffffffffffff167fddf252ad1be2c89b69c2b068fc378daa952ba7f163c4a11628f55a4df523b3ef8a60405161167f91906124d1565b60405180910390a3600760009054906101000a900473ffffffffffffffffffffffffffffffffffffffff1673ffffffffffffffffffffffffffffffffffffffff1663095ea7b3600460009054906101000a900473ffffffffffffffffffffffffffffffffffffffff168a6040518363ffffffff167c0100000000000000000000000000000000000000000000000000000000028152600401611722929190612318565b600060405180830381600087803b15801561173c57600080fd5b505af1158015611750573d6000803e3d6000fd5b50505050600560009054906101000a900473ffffffffffffffffffffffffffffffffffffffff1673ffffffffffffffffffffffffffffffffffffffff1663a0712d68896040518263ffffffff167c01000000000000000000000000000000000000000000000000000000000281526004016117cb91906124d1565b602060405180830381600087803b1580156117e557600080fd5b505af11580156117f9573d6000803e3d6000fd5b505050506040513d601f19601f8201168201806040525061181d91908101906120ba565b506001925050509695505050505050565b600080611839610a06565b905060006118546305f5e10083611cc390919063ffffffff16565b90506000600560009054906101000a900473ffffffffffffffffffffffffffffffffffffffff1673ffffffffffffffffffffffffffffffffffffffff166370a08231600360009054906101000a900473ffffffffffffffffffffffffffffffffffffffff166040518263ffffffff167c01000000000000000000000000000000000000000000000000000000000281526004016118f1919061229d565b60206040518083038186803b15801561190957600080fd5b505afa15801561191d573d6000803e3d6000fd5b505050506040513d601f19601f8201168201806040525061194191908101906120ba565b90506000600560009054906101000a900473ffffffffffffffffffffffffffffffffffffffff1673ffffffffffffffffffffffffffffffffffffffff1663182df0f56040518163ffffffff167c010000000000000000000000000000000000000000000000000000000002815260040160206040518083038186803b1580156119c957600080fd5b505afa1580156119dd573d6000803e3d6000fd5b505050506040513d601f19601f82011682018060405250611a0191908101906120ba565b90506000611a1d6402540be40083611d3790919063ffffffff16565b90506000611a348286611d3790919063ffffffff16565b90506000611a4b8286611d8190919063ffffffff16565b90508097505050505050505090565b6000600560009054906101000a900473ffffffffffffffffffffffffffffffffffffffff1673ffffffffffffffffffffffffffffffffffffffff1663182df0f56040518163ffffffff167c010000000000000000000000000000000000000000000000000000000002815260040160206040518083038186803b158015611ae057600080fd5b505afa158015611af4573d6000803e3d6000fd5b505050506040513d601f19601f82011682018060405250611b1891908101906120ba565b905090565b600860009054906101000a900473ffffffffffffffffffffffffffffffffffffffff1681565b600360009054906101000a900473ffffffffffffffffffffffffffffffffffffffff1681565b600081600160008673ffffffffffffffffffffffffffffffffffffffff1673ffffffffffffffffffffffffffffffffffffffff1681526020019081526020016000205410151515611bb957600080fd5b81600160008673ffffffffffffffffffffffffffffffffffffffff1673ffffffffffffffffffffffffffffffffffffffff1681526020019081526020016000206000828254039250508190555081600160008573ffffffffffffffffffffffffffffffffffffffff1673ffffffffffffffffffffffffffffffffffffffff168152602001908152602001600020600082825401925050819055508273ffffffffffffffffffffffffffffffffffffffff168473ffffffffffffffffffffffffffffffffffffffff167fddf252ad1be2c89b69c2b068fc378daa952ba7f163c4a11628f55a4df523b3ef84604051611cb091906124d1565b60405180910390a3600190509392505050565b600080831415611cd65760009050611d31565b60008284029050828482811515611ce957fe5b04141515611d2c576040517f08c379a0000000000000000000000000000000000000000000000000000000008152600401611d2390612491565b60405180910390fd5b809150505b92915050565b6000611d7983836040805190810160405280601a81526020017f536166654d6174683a206469766973696f6e206279207a65726f000000000000815250611dcb565b905092915050565b6000611dc383836040805190810160405280601e81526020017f536166654d6174683a207375627472616374696f6e206f766572666c6f770000815250611e30565b905092915050565b600080831182901515611e14576040517f08c379a0000000000000000000000000000000000000000000000000000000008152600401611e0b919061240f565b60405180910390fd5b5060008385811515611e2257fe5b049050809150509392505050565b60008383111582901515611e7a576040517f08c379a0000000000000000000000000000000000000000000000000000000008152600401611e71919061240f565b60405180910390fd5b5060008385039050809150509392505050565b6000611e998235612549565b905092915050565b6000611ead825161255b565b905092915050565b6000611ec18235612567565b905092915050565b6000611ed58235612571565b905092915050565b6000611ee98251612571565b905092915050565b6000611efd823561257b565b905092915050565b600060208284031215611f1757600080fd5b6000611f2584828501611e8d565b91505092915050565b60008060408385031215611f4157600080fd5b6000611f4f85828601611e8d565b9250506020611f6085828601611e8d565b9150509250929050565b600080600080600080600060e0888a031215611f8557600080fd5b6000611f938a828b01611e8d565b9750506020611fa48a828b01611e8d565b9650506040611fb58a828b01611ec9565b9550506060611fc68a828b01611ec9565b9450506080611fd78a828b01611eb5565b93505060a0611fe88a828b01611eb5565b92505060c0611ff98a828b01611ef1565b91505092959891949750929550565b60008060008060008060c0878903121561202157600080fd5b600061202f89828a01611e8d565b965050602061204089828a01611ec9565b955050604061205189828a01611ec9565b945050606061206289828a01611eb5565b935050608061207389828a01611eb5565b92505060a061208489828a01611ef1565b9150509295509295509295565b6000602082840312156120a357600080fd5b60006120b184828501611ea1565b91505092915050565b6000602082840312156120cc57600080fd5b60006120da84828501611edd565b91505092915050565b6120ec81612588565b82525050565b6120fb816124f7565b82525050565b61210a81612509565b82525050565b61211981612515565b82525050565b600061212a826124ec565b80845261213e8160208601602086016125be565b612147816125f1565b602085010191505092915050565b6000601382527f506f7563682f696e76616c69642d6e6f6e6365000000000000000000000000006020830152604082019050919050565b6000601282527f496e73756666696369656e742046756e647300000000000000000000000000006020830152604082019050919050565b6000601782527f506f7563682f696e76616c69642d616464726573732d300000000000000000006020830152604082019050919050565b6000602182527f536166654d6174683a206d756c7469706c69636174696f6e206f766572666c6f60208301527f77000000000000000000000000000000000000000000000000000000000000006040830152606082019050919050565b6000601482527f506f7563682f696e76616c69642d7065726d69740000000000000000000000006020830152604082019050919050565b6122978161253f565b82525050565b60006020820190506122b260008301846120f2565b92915050565b60006040820190506122cd60008301856120e3565b6122da602083018461228e565b9392505050565b60006060820190506122f660008301866120f2565b61230360208301856120f2565b612310604083018461228e565b949350505050565b600060408201905061232d60008301856120f2565b61233a602083018461228e565b9392505050565b60006020820190506123566000830184612101565b92915050565b60006020820190506123716000830184612110565b92915050565b600060a08201905061238c6000830188612110565b61239960208301876120f2565b6123a660408301866120f2565b6123b3606083018561228e565b6123c0608083018461228e565b9695505050505050565b60006080820190506123df6000830187612110565b6123ec60208301866120f2565b6123f9604083018561228e565b612406606083018461228e565b95945050505050565b60006020820190508181036000830152612429818461211f565b905092915050565b6000602082019050818103600083015261244a81612155565b9050919050565b6000602082019050818103600083015261246a8161218c565b9050919050565b6000602082019050818103600083015261248a816121c3565b9050919050565b600060208201905081810360008301526124aa816121fa565b9050919050565b600060208201905081810360008301526124ca81612257565b9050919050565b60006020820190506124e6600083018461228e565b92915050565b600081519050919050565b60006125028261251f565b9050919050565b60008115159050919050565b6000819050919050565b600073ffffffffffffffffffffffffffffffffffffffff82169050919050565b6000819050919050565b60006125548261251f565b9050919050565b60008115159050919050565b6000819050919050565b6000819050919050565b600060ff82169050919050565b60006125938261259a565b9050919050565b60006125a5826125ac565b9050919050565b60006125b78261251f565b9050919050565b60005b838110156125dc5780820151818401526020810190506125c1565b838111156125eb576000848401525b50505050565b6000601f19601f830116905091905056fea265627a7a723058209f5511da50f23180669072364ea3e9c32d723a2fc19c113e38382e56c393e2c26c6578706572696d656e74616cf50037",
  "source": "pragma solidity >=0.5.0;\npragma experimental ABIEncoderV2;\n\nimport \"./interfaces/TokenInterface.sol\";\nimport \"./interfaces/cTokenInterface.sol\";\nimport \"./interfaces/PTokenInterface.sol\";\nimport \"./libraries/SafeMath.sol\";\n\ncontract Pouch is PTokenInterface {\n    uint256 public totalSupply;\n    mapping(address => uint256) public balances;\n    mapping(address => mapping(address => uint256)) public allowed;\n    address public admin;\n    address cDaiAddress = 0xe7bc397DBd069fC7d0109C0636d06888bb50668c;\n    cTokenInterface cDai = cTokenInterface(cDaiAddress);\n\n    address daiAddress = 0x4F96Fe3b7A6Cf9725f59d353F723c1bDb64CA6Aa;\n    TokenInterface daiToken = TokenInterface(daiAddress);\n\n    address public ImplementationAddress;\n    bytes32 public DOMAIN_SEPARATOR;\n\n    bytes32 public constant DEPOSIT_TYPEHASH = keccak256(\n        \"Deposit(address holder,uint256 value,uint256 nonce)\"\n    );\n    bytes32 public constant WITHDRAW_TYPEHASH = keccak256(\n        \"Withdraw(address holder,uint256 value,uint256 nonce)\"\n    );\n    bytes32 public constant TRANSACT_TYPEHASH = keccak256(\n        \"Transact(address holder,address to,uint256 value,uint256 nonce)\"\n    );\n    mapping(address => uint256) public nonces;\n\n    constructor(address tokenAddress) public {\n        DOMAIN_SEPARATOR = keccak256(\n            abi.encode(\n                keccak256(\n                    \"EIP712Domain(string name,string version,uint256 chainId,address verifyingContract)\"\n                ),\n                keccak256(\"Pouch\"),\n                keccak256(\"1\"),\n                42, // kovan chainId\n                tokenAddress\n            )\n        );\n        admin = tokenAddress;\n    }\n\n    using SafeMath for uint256;\n\n    function deposit(\n        address holder,\n        uint256 value,\n        uint256 nonce,\n        bytes32 r,\n        bytes32 s,\n        uint8 v\n    ) public returns (bool) {\n        bytes32 digest = keccak256(\n            abi.encodePacked(\n                \"\\x19\\x01\",\n                DOMAIN_SEPARATOR,\n                keccak256(abi.encode(DEPOSIT_TYPEHASH, holder, value, nonce))\n            )\n        );\n\n        require(holder != address(0), \"Pouch/invalid-address-0\");\n        require(holder == ecrecover(digest, v, r, s), \"Pouch/invalid-permit\");\n        require(nonce == nonces[holder]++, \"Pouch/invalid-nonce\");\n\n        // ** Check for sufficient Funds **\n        uint256 userBalance = daiToken.balanceOf(holder);\n        require(userBalance >= value, \"Insufficient Funds\");\n\n        daiToken.transferFrom(holder, address(this), value); // **Transfer User's DAI**\n        balances[holder] += value;\n        totalSupply += value;\n        emit Transfer(address(0), holder, value); // **Mint PCH tokens for the User**\n        daiToken.approve(cDaiAddress, value);\n        cDai.mint(value); // **Mint cDai  **\n        return true;\n    }\n\n    // ** Withdraw DAI**\n    function withdraw(\n        address holder,\n        uint256 value,\n        uint256 nonce,\n        bytes32 r,\n        bytes32 s,\n        uint8 v\n    ) public returns (bool) {\n        bytes32 digest = keccak256(\n            abi.encodePacked(\n                \"\\x19\\x01\",\n                DOMAIN_SEPARATOR,\n                keccak256(abi.encode(WITHDRAW_TYPEHASH, holder, value, nonce))\n            )\n        );\n\n        require(holder != address(0), \"Pouch/invalid-address-0\");\n        require(holder == ecrecover(digest, v, r, s), \"Pouch/invalid-permit\");\n        require(value <= balances[holder], \"Insufficient Funds\");\n        require(nonce == nonces[holder]++, \"Pouch/invalid-nonce\");\n\n        // ** Burn Pouch Token **\n        _transfer(holder, address(0), value);\n        totalSupply -= value;\n\n        // **  Redeem User's DAI from compound and transfer it to user.**\n        cDai.redeemUnderlying(value);\n        daiToken.transfer(holder, value);\n        return true;\n    }\n\n    function transact(\n        address holder,\n        address to,\n        uint256 value,\n        uint256 nonce,\n        bytes32 r,\n        bytes32 s,\n        uint8 v\n    ) public returns (bool) {\n        bytes32 digest = keccak256(\n            abi.encodePacked(\n                \"\\x19\\x01\",\n                DOMAIN_SEPARATOR,\n                keccak256(\n                    abi.encode(TRANSACT_TYPEHASH, holder, to, value, nonce)\n                )\n            )\n        );\n\n        require(holder != address(0), \"Pouch/invalid-address-0\");\n        require(holder == ecrecover(digest, v, r, s), \"Pouch/invalid-permit\");\n        require(value <= balances[holder], \"Insufficient Funds\");\n        require(to != address(0));\n        require(nonce == nonces[holder]++, \"Pouch/invalid-nonce\");\n\n        // ** Transfer Funds **\n        _transfer(holder, to, value);\n\n        // ** Transfer Rewards,if Any. **\n        // if (value >= 1e18){\n        //     uint profitInDai =  _checkProfits().mul(getExchangeRate());\n        //     uint checkProfitInDai = profitInDai.div(1e18);\n        //     if(checkProfitInDai >= 1e11){\n        //         uint myReward =  _randomReward();\n        //         cDai.redeemUnderlying(myReward);\n        //         daiToken.transfer(msg.sender, myReward);\n\n        //     return true;\n        //     }\n        // }\n        return true;\n    }\n\n    function getExchangeRate() public view returns (uint256) {\n        return cDai.exchangeRateStored();\n    }\n\n    function getMySupply() public view returns (uint256) {\n        TokenInterface pouch = TokenInterface(admin);\n        return pouch.totalSupply();\n    }\n\n    function checkContractBalance() public view returns (uint256) {\n        return cDai.balanceOf(admin);\n    }\n    // function getExchangeRate() view public returns (uint) {\n    //     return cDai.exchangeRateCurrent();\n    // }\n\n    function spitProfits() public returns (bool) {\n        uint256 profit = checkProfits();\n        cDai.transfer(msg.sender, profit);\n        return true;\n    }\n\n    function checkProfits() public view returns (uint256) {\n        uint256 contractSupply = getMySupply();\n        uint256 adjustedTotalSupply = contractSupply.mul(1e8);\n        uint256 ourContractBalance = cDai.balanceOf(admin);\n        uint256 cDaiExchangeRate = cDai.exchangeRateStored();\n        uint256 cDaiExchangeRateDivided = cDaiExchangeRate.div(1e10);\n\n        uint256 currentPrice = adjustedTotalSupply.div(cDaiExchangeRateDivided);\n        uint256 profit = ourContractBalance.sub(currentPrice);\n        return profit;\n    }\n\n    // ** Internal Functions **\n\n    function _mint(address _to, uint256 _value)\n        internal\n        returns (bool success)\n    {\n        balances[_to] += _value;\n        totalSupply += _value;\n        emit Transfer(address(0), _to, _value);\n        return true;\n    }\n\n    function _transfer(address _from, address _to, uint256 _value)\n        internal\n        returns (bool success)\n    {\n        require(balances[_from] >= _value);\n        balances[_from] -= _value;\n        balances[_to] += _value;\n        emit Transfer(_from, _to, _value);\n        return true;\n    }\n    function _randomReward() internal view returns (uint256) {\n        uint256 randomnumber = uint256(\n            keccak256(abi.encodePacked(now, msg.sender, block.number))\n        ) %\n            5;\n        return randomnumber.mul(1e10);\n    }\n\n}\n",
  "sourcePath": "/home/roheat/blockchain/projects/biconomy/boundless/contracts/Pouch.sol",
  "compiler": {
    "name": "solc",
    "version": "0.5.0+commit.1d4f565a.Emscripten.clang"
  },
  "schemaVersion": "3.0.1",
  "updatedAt": "2020-02-19T19:36:17.457Z",
  "devdoc": {
    "methods": {}
  },
  "userdoc": {
    "methods": {}
  }
}