{
  "contractName": "PouchStorage",
  "abi": [
    {
      "constant": true,
      "inputs": [],
      "name": "DEPOSIT_TYPEHASH",
      "outputs": [
        {
          "internalType": "bytes32",
          "name": "",
          "type": "bytes32"
        }
      ],
      "payable": false,
      "stateMutability": "view",
      "type": "function"
    },
    {
      "constant": true,
      "inputs": [],
      "name": "DOMAIN_SEPARATOR",
      "outputs": [
        {
          "internalType": "bytes32",
          "name": "",
          "type": "bytes32"
        }
      ],
      "payable": false,
      "stateMutability": "view",
      "type": "function"
    },
    {
      "constant": true,
      "inputs": [],
      "name": "ImplementationAddress",
      "outputs": [
        {
          "internalType": "address",
          "name": "",
          "type": "address"
        }
      ],
      "payable": false,
      "stateMutability": "view",
      "type": "function"
    },
    {
      "constant": true,
      "inputs": [],
      "name": "TRANSACT_TYPEHASH",
      "outputs": [
        {
          "internalType": "bytes32",
          "name": "",
          "type": "bytes32"
        }
      ],
      "payable": false,
      "stateMutability": "view",
      "type": "function"
    },
    {
      "constant": true,
      "inputs": [],
      "name": "WITHDRAW_TYPEHASH",
      "outputs": [
        {
          "internalType": "bytes32",
          "name": "",
          "type": "bytes32"
        }
      ],
      "payable": false,
      "stateMutability": "view",
      "type": "function"
    },
    {
      "constant": true,
      "inputs": [],
      "name": "admin",
      "outputs": [
        {
          "internalType": "address",
          "name": "",
          "type": "address"
        }
      ],
      "payable": false,
      "stateMutability": "view",
      "type": "function"
    },
    {
      "constant": true,
      "inputs": [
        {
          "internalType": "address",
          "name": "",
          "type": "address"
        },
        {
          "internalType": "address",
          "name": "",
          "type": "address"
        }
      ],
      "name": "allowed",
      "outputs": [
        {
          "internalType": "uint256",
          "name": "",
          "type": "uint256"
        }
      ],
      "payable": false,
      "stateMutability": "view",
      "type": "function"
    },
    {
      "constant": true,
      "inputs": [
        {
          "internalType": "address",
          "name": "",
          "type": "address"
        }
      ],
      "name": "balances",
      "outputs": [
        {
          "internalType": "uint256",
          "name": "",
          "type": "uint256"
        }
      ],
      "payable": false,
      "stateMutability": "view",
      "type": "function"
    },
    {
      "constant": true,
      "inputs": [
        {
          "internalType": "address",
          "name": "",
          "type": "address"
        }
      ],
      "name": "nonces",
      "outputs": [
        {
          "internalType": "uint256",
          "name": "",
          "type": "uint256"
        }
      ],
      "payable": false,
      "stateMutability": "view",
      "type": "function"
    },
    {
      "constant": true,
      "inputs": [
        {
          "internalType": "address",
          "name": "",
          "type": "address"
        }
      ],
      "name": "rewards",
      "outputs": [
        {
          "internalType": "uint256",
          "name": "",
          "type": "uint256"
        }
      ],
      "payable": false,
      "stateMutability": "view",
      "type": "function"
    },
    {
      "constant": true,
      "inputs": [],
      "name": "totalSupply",
      "outputs": [
        {
          "internalType": "uint256",
          "name": "",
          "type": "uint256"
        }
      ],
      "payable": false,
      "stateMutability": "view",
      "type": "function"
    }
  ],
  "bytecode": "0x608060405273e7bc397dbd069fc7d0109c0636d06888bb50668c600460006101000a81548173ffffffffffffffffffffffffffffffffffffffff021916908373ffffffffffffffffffffffffffffffffffffffff160217905550600460009054906101000a900473ffffffffffffffffffffffffffffffffffffffff16600560006101000a81548173ffffffffffffffffffffffffffffffffffffffff021916908373ffffffffffffffffffffffffffffffffffffffff160217905550734f96fe3b7a6cf9725f59d353f723c1bdb64ca6aa600660006101000a81548173ffffffffffffffffffffffffffffffffffffffff021916908373ffffffffffffffffffffffffffffffffffffffff160217905550600660009054906101000a900473ffffffffffffffffffffffffffffffffffffffff16600760006101000a81548173ffffffffffffffffffffffffffffffffffffffff021916908373ffffffffffffffffffffffffffffffffffffffff16021790555034801561018057600080fd5b5061054c806101906000396000f3fe608060405234801561001057600080fd5b50600436106100a95760003560e01c806348825e941161007157806348825e94146101b85780635c658165146101d657806376c5d7581461024e5780637ecebe001461026c578063e8a667de146102c4578063f851a4401461030e576100a9565b80630700037d146100ae5780630df731161461010657806318160ddd1461012457806327e235e3146101425780633644e5151461019a575b600080fd5b6100f0600480360360208110156100c457600080fd5b81019080803573ffffffffffffffffffffffffffffffffffffffff169060200190929190505050610358565b6040518082815260200191505060405180910390f35b61010e610370565b6040518082815260200191505060405180910390f35b61012c61038c565b6040518082815260200191505060405180910390f35b6101846004803603602081101561015857600080fd5b81019080803573ffffffffffffffffffffffffffffffffffffffff169060200190929190505050610392565b6040518082815260200191505060405180910390f35b6101a26103aa565b6040518082815260200191505060405180910390f35b6101c06103b0565b6040518082815260200191505060405180910390f35b610238600480360360408110156101ec57600080fd5b81019080803573ffffffffffffffffffffffffffffffffffffffff169060200190929190803573ffffffffffffffffffffffffffffffffffffffff1690602001909291905050506103cc565b6040518082815260200191505060405180910390f35b6102566103f1565b6040518082815260200191505060405180910390f35b6102ae6004803603602081101561028257600080fd5b81019080803573ffffffffffffffffffffffffffffffffffffffff16906020019092919050505061040d565b6040518082815260200191505060405180910390f35b6102cc610425565b604051808273ffffffffffffffffffffffffffffffffffffffff1673ffffffffffffffffffffffffffffffffffffffff16815260200191505060405180910390f35b61031661044b565b604051808273ffffffffffffffffffffffffffffffffffffffff1673ffffffffffffffffffffffffffffffffffffffff16815260200191505060405180910390f35b600b6020528060005260406000206000915090505481565b60405180806104d9603f9139603f019050604051809103902081565b60005481565b60016020528060005260406000206000915090505481565b60095481565b60405180806104a6603391396033019050604051809103902081565b6002602052816000526040600020602052806000526040600020600091509150505481565b6040518080610472603491396034019050604051809103902081565b600a6020528060005260406000206000915090505481565b600860009054906101000a900473ffffffffffffffffffffffffffffffffffffffff1681565b600360009054906101000a900473ffffffffffffffffffffffffffffffffffffffff168156fe5769746864726177286164647265737320686f6c6465722c75696e743235362076616c75652c75696e74323536206e6f6e6365294465706f736974286164647265737320686f6c6465722c75696e743235362076616c75652c75696e74323536206e6f6e6365295472616e73616374286164647265737320686f6c6465722c6164647265737320746f2c75696e743235362076616c75652c75696e74323536206e6f6e636529a265627a7a7231582021052f7c098d2505db54f8201f464cf08da059c31d0cbc4ce5cd524238675db364736f6c63430005100032",
  "source": "pragma solidity >=0.5.0;\r\n\r\nimport \"./interfaces/TokenInterface.sol\";\r\nimport \"./interfaces/cTokenInterface.sol\";\r\n\r\ncontract PouchStorage {\r\n    uint256 public totalSupply;\r\n    mapping(address => uint256) public balances;\r\n    mapping(address => mapping(address => uint256)) public allowed;\r\n    address public admin;\r\n    address cDaiAddress = 0xe7bc397DBd069fC7d0109C0636d06888bb50668c;\r\n    cTokenInterface cDai = cTokenInterface(cDaiAddress);\r\n\r\n    address daiAddress = 0x4F96Fe3b7A6Cf9725f59d353F723c1bDb64CA6Aa;\r\n    TokenInterface daiToken = TokenInterface(daiAddress);\r\n\r\n    address public ImplementationAddress;\r\n    bytes32 public DOMAIN_SEPARATOR;\r\n\r\n    bytes32 public constant DEPOSIT_TYPEHASH = keccak256(\r\n        \"Deposit(address holder,uint256 value,uint256 nonce)\"\r\n    );\r\n    bytes32 public constant WITHDRAW_TYPEHASH = keccak256(\r\n        \"Withdraw(address holder,uint256 value,uint256 nonce)\"\r\n    );\r\n    bytes32 public constant TRANSACT_TYPEHASH = keccak256(\r\n        \"Transact(address holder,address to,uint256 value,uint256 nonce)\"\r\n    );\r\n    mapping(address => uint256) public nonces;\r\n    mapping(address => uint256) public rewards;\r\n}\r\n",
  "sourcePath": "C:\\Users\\Anubhav\\Documents\\pouchwallet\\contracts\\PouchStorage.sol",
  "compiler": {
    "name": "solc",
    "version": "0.5.16+commit.9c3226ce.Emscripten.clang"
  },
  "schemaVersion": "3.0.23",
  "updatedAt": "2020-02-24T22:35:53.741Z",
  "devdoc": {
    "methods": {}
  },
  "userdoc": {
    "methods": {}
  }
}