{
  "contractName": "PouchDelegate",
  "abi": [
    {
      "constant": true,
      "inputs": [],
      "name": "name",
      "outputs": [
        {
          "name": "",
          "type": "string"
        }
      ],
      "payable": false,
      "stateMutability": "view",
      "type": "function",
      "signature": "0x06fdde03"
    },
    {
      "constant": false,
      "inputs": [
        {
          "name": "_spender",
          "type": "address"
        },
        {
          "name": "_value",
          "type": "uint256"
        }
      ],
      "name": "approve",
      "outputs": [
        {
          "name": "success",
          "type": "bool"
        }
      ],
      "payable": false,
      "stateMutability": "nonpayable",
      "type": "function",
      "signature": "0x095ea7b3"
    },
    {
      "constant": true,
      "inputs": [],
      "name": "TRANSACT_TYPEHASH",
      "outputs": [
        {
          "name": "",
          "type": "bytes32"
        }
      ],
      "payable": false,
      "stateMutability": "view",
      "type": "function",
      "signature": "0x0df73116"
    },
    {
      "constant": true,
      "inputs": [],
      "name": "totalSupply",
      "outputs": [
        {
          "name": "",
          "type": "uint256"
        }
      ],
      "payable": false,
      "stateMutability": "view",
      "type": "function",
      "signature": "0x18160ddd"
    },
    {
      "constant": false,
      "inputs": [
        {
          "name": "_from",
          "type": "address"
        },
        {
          "name": "_to",
          "type": "address"
        },
        {
          "name": "_value",
          "type": "uint256"
        }
      ],
      "name": "transferFrom",
      "outputs": [
        {
          "name": "success",
          "type": "bool"
        }
      ],
      "payable": false,
      "stateMutability": "nonpayable",
      "type": "function",
      "signature": "0x23b872dd"
    },
    {
      "constant": true,
      "inputs": [
        {
          "name": "",
          "type": "address"
        }
      ],
      "name": "balances",
      "outputs": [
        {
          "name": "",
          "type": "uint256"
        }
      ],
      "payable": false,
      "stateMutability": "view",
      "type": "function",
      "signature": "0x27e235e3"
    },
    {
      "constant": true,
      "inputs": [],
      "name": "decimals",
      "outputs": [
        {
          "name": "",
          "type": "uint8"
        }
      ],
      "payable": false,
      "stateMutability": "view",
      "type": "function",
      "signature": "0x313ce567"
    },
    {
      "constant": true,
      "inputs": [],
      "name": "DOMAIN_SEPARATOR",
      "outputs": [
        {
          "name": "",
          "type": "bytes32"
        }
      ],
      "payable": false,
      "stateMutability": "view",
      "type": "function",
      "signature": "0x3644e515"
    },
    {
      "constant": true,
      "inputs": [],
      "name": "DEPOSIT_TYPEHASH",
      "outputs": [
        {
          "name": "",
          "type": "bytes32"
        }
      ],
      "payable": false,
      "stateMutability": "view",
      "type": "function",
      "signature": "0x48825e94"
    },
    {
      "constant": true,
      "inputs": [],
      "name": "supplyOf",
      "outputs": [
        {
          "name": "balance",
          "type": "uint256"
        }
      ],
      "payable": false,
      "stateMutability": "view",
      "type": "function",
      "signature": "0x523a50d0"
    },
    {
      "constant": true,
      "inputs": [],
      "name": "version",
      "outputs": [
        {
          "name": "",
          "type": "string"
        }
      ],
      "payable": false,
      "stateMutability": "view",
      "type": "function",
      "signature": "0x54fd4d50"
    },
    {
      "constant": true,
      "inputs": [
        {
          "name": "",
          "type": "address"
        },
        {
          "name": "",
          "type": "address"
        }
      ],
      "name": "allowed",
      "outputs": [
        {
          "name": "",
          "type": "uint256"
        }
      ],
      "payable": false,
      "stateMutability": "view",
      "type": "function",
      "signature": "0x5c658165"
    },
    {
      "constant": true,
      "inputs": [
        {
          "name": "_owner",
          "type": "address"
        }
      ],
      "name": "balanceOf",
      "outputs": [
        {
          "name": "balance",
          "type": "uint256"
        }
      ],
      "payable": false,
      "stateMutability": "view",
      "type": "function",
      "signature": "0x70a08231"
    },
    {
      "constant": true,
      "inputs": [],
      "name": "WITHDRAW_TYPEHASH",
      "outputs": [
        {
          "name": "",
          "type": "bytes32"
        }
      ],
      "payable": false,
      "stateMutability": "view",
      "type": "function",
      "signature": "0x76c5d758"
    },
    {
      "constant": true,
      "inputs": [
        {
          "name": "",
          "type": "address"
        }
      ],
      "name": "nonces",
      "outputs": [
        {
          "name": "",
          "type": "uint256"
        }
      ],
      "payable": false,
      "stateMutability": "view",
      "type": "function",
      "signature": "0x7ecebe00"
    },
    {
      "constant": true,
      "inputs": [],
      "name": "symbol",
      "outputs": [
        {
          "name": "",
          "type": "string"
        }
      ],
      "payable": false,
      "stateMutability": "view",
      "type": "function",
      "signature": "0x95d89b41"
    },
    {
      "constant": false,
      "inputs": [
        {
          "name": "_to",
          "type": "address"
        },
        {
          "name": "_value",
          "type": "uint256"
        }
      ],
      "name": "transfer",
      "outputs": [
        {
          "name": "success",
          "type": "bool"
        }
      ],
      "payable": false,
      "stateMutability": "nonpayable",
      "type": "function",
      "signature": "0xa9059cbb"
    },
    {
      "constant": true,
      "inputs": [
        {
          "name": "_owner",
          "type": "address"
        },
        {
          "name": "_spender",
          "type": "address"
        }
      ],
      "name": "allowance",
      "outputs": [
        {
          "name": "remaining",
          "type": "uint256"
        }
      ],
      "payable": false,
      "stateMutability": "view",
      "type": "function",
      "signature": "0xdd62ed3e"
    },
    {
      "constant": true,
      "inputs": [],
      "name": "ImplementationAddress",
      "outputs": [
        {
          "name": "",
          "type": "address"
        }
      ],
      "payable": false,
      "stateMutability": "view",
      "type": "function",
      "signature": "0xe8a667de"
    },
    {
      "constant": true,
      "inputs": [],
      "name": "admin",
      "outputs": [
        {
          "name": "",
          "type": "address"
        }
      ],
      "payable": false,
      "stateMutability": "view",
      "type": "function",
      "signature": "0xf851a440"
    },
    {
      "inputs": [
        {
          "name": "_chainId",
          "type": "uint256"
        }
      ],
      "payable": false,
      "stateMutability": "nonpayable",
      "type": "constructor",
      "signature": "constructor"
    },
    {
      "payable": false,
      "stateMutability": "nonpayable",
      "type": "fallback"
    },
    {
      "anonymous": false,
      "inputs": [
        {
          "indexed": true,
          "name": "_from",
          "type": "address"
        },
        {
          "indexed": true,
          "name": "_to",
          "type": "address"
        },
        {
          "indexed": false,
          "name": "_value",
          "type": "uint256"
        }
      ],
      "name": "Transfer",
      "type": "event",
      "signature": "0xddf252ad1be2c89b69c2b068fc378daa952ba7f163c4a11628f55a4df523b3ef"
    },
    {
      "anonymous": false,
      "inputs": [
        {
          "indexed": true,
          "name": "_owner",
          "type": "address"
        },
        {
          "indexed": true,
          "name": "_spender",
          "type": "address"
        },
        {
          "indexed": false,
          "name": "_value",
          "type": "uint256"
        }
      ],
      "name": "Approval",
      "type": "event",
      "signature": "0x8c5be1e5ebec7d5bd14f71427d1e84f3dd0314c0f7b2291e5b200ac8c7c3b925"
    },
    {
      "anonymous": false,
      "inputs": [
        {
          "indexed": true,
          "name": "_from",
          "type": "address"
        },
        {
          "indexed": true,
          "name": "_to",
          "type": "address"
        },
        {
          "indexed": false,
          "name": "_value",
          "type": "uint256"
        }
      ],
      "name": "Reward",
      "type": "event",
      "signature": "0x6b053894d8fdbdcc936dd753e21291f0c48e68ef12306eb39a63a374147ba4bd"
    },
    {
      "constant": false,
      "inputs": [
        {
          "name": "_newImplemenationAddress",
          "type": "address"
        }
      ],
      "name": "updateLogic",
      "outputs": [],
      "payable": false,
      "stateMutability": "nonpayable",
      "type": "function",
      "signature": "0x795e617e"
    },
    {
      "constant": false,
      "inputs": [
        {
          "name": "holder",
          "type": "address"
        },
        {
          "name": "value",
          "type": "uint256"
        },
        {
          "name": "nonce",
          "type": "uint256"
        },
        {
          "name": "r",
          "type": "bytes32"
        },
        {
          "name": "s",
          "type": "bytes32"
        },
        {
          "name": "v",
          "type": "uint8"
        }
      ],
      "name": "deposit",
      "outputs": [
        {
          "name": "",
          "type": "bool"
        }
      ],
      "payable": false,
      "stateMutability": "nonpayable",
      "type": "function",
      "signature": "0xcfefd241"
    },
    {
      "constant": false,
      "inputs": [
        {
          "name": "holder",
          "type": "address"
        },
        {
          "name": "value",
          "type": "uint256"
        },
        {
          "name": "nonce",
          "type": "uint256"
        },
        {
          "name": "r",
          "type": "bytes32"
        },
        {
          "name": "s",
          "type": "bytes32"
        },
        {
          "name": "v",
          "type": "uint8"
        }
      ],
      "name": "withdraw",
      "outputs": [
        {
          "name": "",
          "type": "bool"
        }
      ],
      "payable": false,
      "stateMutability": "nonpayable",
      "type": "function",
      "signature": "0xcbb40dae"
    },
    {
      "constant": false,
      "inputs": [
        {
          "name": "holder",
          "type": "address"
        },
        {
          "name": "to",
          "type": "address"
        },
        {
          "name": "value",
          "type": "uint256"
        },
        {
          "name": "nonce",
          "type": "uint256"
        },
        {
          "name": "r",
          "type": "bytes32"
        },
        {
          "name": "s",
          "type": "bytes32"
        },
        {
          "name": "v",
          "type": "uint8"
        }
      ],
      "name": "transact",
      "outputs": [
        {
          "name": "",
          "type": "bool"
        }
      ],
      "payable": false,
      "stateMutability": "nonpayable",
      "type": "function",
      "signature": "0x12c6abb8"
    },
    {
      "constant": false,
      "inputs": [
        {
          "name": "holder",
          "type": "address"
        },
        {
          "name": "to",
          "type": "address"
        },
        {
          "name": "value",
          "type": "uint256"
        },
        {
          "name": "nonce",
          "type": "uint256"
        },
        {
          "name": "r",
          "type": "bytes32"
        },
        {
          "name": "s",
          "type": "bytes32"
        },
        {
          "name": "v",
          "type": "uint8"
        }
      ],
      "name": "transactTest",
      "outputs": [
        {
          "name": "",
          "type": "bool"
        }
      ],
      "payable": false,
      "stateMutability": "nonpayable",
      "type": "function",
      "signature": "0xc883ed89"
    },
    {
      "constant": true,
      "inputs": [],
      "name": "checkProfits",
      "outputs": [
        {
          "name": "",
          "type": "uint256"
        }
      ],
      "payable": false,
      "stateMutability": "view",
      "type": "function",
      "signature": "0xd7a8e87b"
    },
    {
      "constant": false,
      "inputs": [],
      "name": "spitProfits",
      "outputs": [
        {
          "name": "",
          "type": "bool"
        }
      ],
      "payable": false,
      "stateMutability": "nonpayable",
      "type": "function",
      "signature": "0x890268f8"
    }
  ],
  "bytecode": "0x608060405273e7bc397dbd069fc7d0109c0636d06888bb50668c600460006101000a81548173ffffffffffffffffffffffffffffffffffffffff021916908373ffffffffffffffffffffffffffffffffffffffff160217905550600460009054906101000a900473ffffffffffffffffffffffffffffffffffffffff16600560006101000a81548173ffffffffffffffffffffffffffffffffffffffff021916908373ffffffffffffffffffffffffffffffffffffffff160217905550734f96fe3b7a6cf9725f59d353f723c1bdb64ca6aa600660006101000a81548173ffffffffffffffffffffffffffffffffffffffff021916908373ffffffffffffffffffffffffffffffffffffffff160217905550600660009054906101000a900473ffffffffffffffffffffffffffffffffffffffff16600760006101000a81548173ffffffffffffffffffffffffffffffffffffffff021916908373ffffffffffffffffffffffffffffffffffffffff1602179055503480156200018157600080fd5b50604051602080620028188339810180604052620001a3919081019062000331565b60405180807f454950373132446f6d61696e28737472696e67206e616d652c737472696e672081526020017f76657273696f6e2c75696e7432353620636861696e49642c616464726573732081526020017f766572696679696e67436f6e7472616374290000000000000000000000000000815250605201905060405180910390206040805190810160405280600b81526020017f506f75636820546f6b656e000000000000000000000000000000000000000000815250805190602001206040805190810160405280600181526020017f3100000000000000000000000000000000000000000000000000000000000000815250805190602001208330604051602001620002b795949392919062000390565b6040516020818303038152906040528051906020012060098190555033600360006101000a81548173ffffffffffffffffffffffffffffffffffffffff021916908373ffffffffffffffffffffffffffffffffffffffff160217905550506200043f565b600062000329825162000435565b905092915050565b6000602082840312156200034457600080fd5b600062000354848285016200031b565b91505092915050565b6200036881620003ed565b82525050565b620003798162000401565b82525050565b6200038a816200042b565b82525050565b600060a082019050620003a760008301886200036e565b620003b660208301876200036e565b620003c560408301866200036e565b620003d460608301856200037f565b620003e360808301846200035d565b9695505050505050565b6000620003fa826200040b565b9050919050565b6000819050919050565b600073ffffffffffffffffffffffffffffffffffffffff82169050919050565b6000819050919050565b6000819050919050565b6123c9806200044f6000396000f3fe60806040526004361061015f576000357c0100000000000000000000000000000000000000000000000000000000900463ffffffff16806306fdde0314610212578063095ea7b31461023d5780630df731161461027a57806312c6abb8146102a557806318160ddd146102e257806323b872dd1461030d57806327e235e31461034a578063313ce567146103875780633644e515146103b257806348825e94146103dd578063523a50d01461040857806354fd4d50146104335780635c6581651461045e57806370a082311461049b57806376c5d758146104d8578063795e617e146105035780637ecebe001461052c578063890268f81461056957806395d89b4114610594578063a9059cbb146105bf578063c883ed89146105fc578063cbb40dae14610639578063cfefd24114610676578063d7a8e87b146106b3578063dd62ed3e146106de578063e8a667de1461071b578063f851a44014610746575b34801561016b57600080fd5b506000600860009054906101000a900473ffffffffffffffffffffffffffffffffffffffff1673ffffffffffffffffffffffffffffffffffffffff16600036604051808383808284378083019250505092505050600060405180830381855af49150503d80600081146101fa576040519150601f19603f3d011682016040523d82523d6000602084013e6101ff565b606091505b5050905080151561020f57600080fd5b50005b34801561021e57600080fd5b50610227610771565b604051610234919061220a565b60405180910390f35b34801561024957600080fd5b50610264600480360361025f9190810190611ee3565b6107aa565b60405161027191906121d4565b60405180910390f35b34801561028657600080fd5b5061028f61089c565b60405161029c91906121ef565b60405180910390f35b3480156102b157600080fd5b506102cc60048036036102c79190810190611e45565b6108fb565b6040516102d991906121d4565b60405180910390f35b3480156102ee57600080fd5b506102f7610add565b604051610304919061226c565b60405180910390f35b34801561031957600080fd5b50610334600480360361032f9190810190611df6565b610ae3565b60405161034191906121d4565b60405180910390f35b34801561035657600080fd5b50610371600480360361036c9190810190611d91565b610d7d565b60405161037e919061226c565b60405180910390f35b34801561039357600080fd5b5061039c610d95565b6040516103a99190612287565b60405180910390f35b3480156103be57600080fd5b506103c7610d9a565b6040516103d491906121ef565b60405180910390f35b3480156103e957600080fd5b506103f2610da0565b6040516103ff91906121ef565b60405180910390f35b34801561041457600080fd5b5061041d610dff565b60405161042a919061226c565b60405180910390f35b34801561043f57600080fd5b50610448610e08565b604051610455919061220a565b60405180910390f35b34801561046a57600080fd5b5061048560048036036104809190810190611dba565b610e41565b604051610492919061226c565b60405180910390f35b3480156104a757600080fd5b506104c260048036036104bd9190810190611d91565b610e66565b6040516104cf919061226c565b60405180910390f35b3480156104e457600080fd5b506104ed610eaf565b6040516104fa91906121ef565b60405180910390f35b34801561050f57600080fd5b5061052a60048036036105259190810190611d91565b610f0e565b005b34801561053857600080fd5b50610553600480360361054e9190810190611d91565b611076565b604051610560919061226c565b60405180910390f35b34801561057557600080fd5b5061057e61108e565b60405161058b91906121d4565b60405180910390f35b3480156105a057600080fd5b506105a96112be565b6040516105b6919061220a565b60405180910390f35b3480156105cb57600080fd5b506105e660048036036105e19190810190611ee3565b6112f7565b6040516105f391906121d4565b60405180910390f35b34801561060857600080fd5b50610623600480360361061e9190810190611e45565b611450565b60405161063091906121d4565b60405180910390f35b34801561064557600080fd5b50610660600480360361065b9190810190611f1f565b611658565b60405161066d91906121d4565b60405180910390f35b34801561068257600080fd5b5061069d60048036036106989190810190611f1f565b611837565b6040516106aa91906121d4565b60405180910390f35b3480156106bf57600080fd5b506106c8611a16565b6040516106d5919061226c565b60405180910390f35b3480156106ea57600080fd5b5061070560048036036107009190810190611dba565b611c46565b604051610712919061226c565b60405180910390f35b34801561072757600080fd5b50610730611ccd565b60405161073d91906120e9565b60405180910390f35b34801561075257600080fd5b5061075b611cf3565b60405161076891906120e9565b60405180910390f35b6040805190810160405280600b81526020017f506f75636820546f6b656e00000000000000000000000000000000000000000081525081565b600081600260003373ffffffffffffffffffffffffffffffffffffffff1673ffffffffffffffffffffffffffffffffffffffff16815260200190815260200160002060008573ffffffffffffffffffffffffffffffffffffffff1673ffffffffffffffffffffffffffffffffffffffff168152602001908152602001600020819055508273ffffffffffffffffffffffffffffffffffffffff163373ffffffffffffffffffffffffffffffffffffffff167f8c5be1e5ebec7d5bd14f71427d1e84f3dd0314c0f7b2291e5b200ac8c7c3b9258460405161088a919061226c565b60405180910390a36001905092915050565b60405180807f5472616e73616374286164647265737320686f6c6465722c616464726573732081526020017f746f2c75696e743235362076616c75652c75696e74323536206e6f6e63652900815250603f019050604051809103902081565b6000806060600860009054906101000a900473ffffffffffffffffffffffffffffffffffffffff1673ffffffffffffffffffffffffffffffffffffffff1660405180807f7472616e7361637428616464726573732c616464726573732c75696e7432353681526020017f2c75696e743235362c627974657333322c627974657333322c75696e74382900815250603f01905060405180910390208b8b8b8b8b8b8b6040516024016109b29796959493929190612104565b604051602081830303815290604052907bffffffffffffffffffffffffffffffffffffffffffffffffffffffff19166020820180517bffffffffffffffffffffffffffffffffffffffffffffffffffffffff83818316178352505050506040518082805190602001908083835b602083101515610a445780518252602082019150602081019050602083039250610a1f565b6001836020036101000a038019825116818451168082178552505050505050905001915050600060405180830381855af49150503d8060008114610aa4576040519150601f19603f3d011682016040523d82523d6000602084013e610aa9565b606091505b5091509150811515610aba57600080fd5b80806020019051610ace9190810190611fa8565b92505050979650505050505050565b60005481565b600080600260008673ffffffffffffffffffffffffffffffffffffffff1673ffffffffffffffffffffffffffffffffffffffff16815260200190815260200160002060003373ffffffffffffffffffffffffffffffffffffffff1673ffffffffffffffffffffffffffffffffffffffff16815260200190815260200160002054905082600160008773ffffffffffffffffffffffffffffffffffffffff1673ffffffffffffffffffffffffffffffffffffffff1681526020019081526020016000205410158015610bb45750828110155b1515610bbf57600080fd5b82600160008673ffffffffffffffffffffffffffffffffffffffff1673ffffffffffffffffffffffffffffffffffffffff1681526020019081526020016000206000828254019250508190555082600160008773ffffffffffffffffffffffffffffffffffffffff1673ffffffffffffffffffffffffffffffffffffffff168152602001908152602001600020600082825403925050819055507fffffffffffffffffffffffffffffffffffffffffffffffffffffffffffffffff811015610d0c5782600260008773ffffffffffffffffffffffffffffffffffffffff1673ffffffffffffffffffffffffffffffffffffffff16815260200190815260200160002060003373ffffffffffffffffffffffffffffffffffffffff1673ffffffffffffffffffffffffffffffffffffffff168152602001908152602001600020600082825403925050819055505b8373ffffffffffffffffffffffffffffffffffffffff168573ffffffffffffffffffffffffffffffffffffffff167fddf252ad1be2c89b69c2b068fc378daa952ba7f163c4a11628f55a4df523b3ef85604051610d69919061226c565b60405180910390a360019150509392505050565b60016020528060005260406000206000915090505481565b601281565b60095481565b60405180807f4465706f736974286164647265737320686f6c6465722c75696e74323536207681526020017f616c75652c75696e74323536206e6f6e636529000000000000000000000000008152506033019050604051809103902081565b60008054905090565b6040805190810160405280600181526020017f310000000000000000000000000000000000000000000000000000000000000081525081565b6002602052816000526040600020602052806000526040600020600091509150505481565b6000600160008373ffffffffffffffffffffffffffffffffffffffff1673ffffffffffffffffffffffffffffffffffffffff168152602001908152602001600020549050919050565b60405180807f5769746864726177286164647265737320686f6c6465722c75696e743235362081526020017f76616c75652c75696e74323536206e6f6e6365290000000000000000000000008152506034019050604051809103902081565b600360009054906101000a900473ffffffffffffffffffffffffffffffffffffffff1673ffffffffffffffffffffffffffffffffffffffff163373ffffffffffffffffffffffffffffffffffffffff16141515610fa0576040517f08c379a0000000000000000000000000000000000000000000000000000000008152600401610f979061222c565b60405180910390fd5b600360009054906101000a900473ffffffffffffffffffffffffffffffffffffffff1673ffffffffffffffffffffffffffffffffffffffff163373ffffffffffffffffffffffffffffffffffffffff16141515611032576040517f08c379a00000000000000000000000000000000000000000000000000000000081526004016110299061224c565b60405180910390fd5b80600860006101000a81548173ffffffffffffffffffffffffffffffffffffffff021916908373ffffffffffffffffffffffffffffffffffffffff16021790555050565b600a6020528060005260406000206000915090505481565b6000600360009054906101000a900473ffffffffffffffffffffffffffffffffffffffff1673ffffffffffffffffffffffffffffffffffffffff163373ffffffffffffffffffffffffffffffffffffffff16141515611122576040517f08c379a00000000000000000000000000000000000000000000000000000000081526004016111199061222c565b60405180910390fd5b60006060600860009054906101000a900473ffffffffffffffffffffffffffffffffffffffff1673ffffffffffffffffffffffffffffffffffffffff1660405180807f7370697450726f66697473282900000000000000000000000000000000000000815250600d0190506040518091039020604051602401604051602081830303815290604052907bffffffffffffffffffffffffffffffffffffffffffffffffffffffff19166020820180517bffffffffffffffffffffffffffffffffffffffffffffffffffffffff83818316178352505050506040518082805190602001908083835b60208310151561122d5780518252602082019150602081019050602083039250611208565b6001836020036101000a038019825116818451168082178552505050505050905001915050600060405180830381855af49150503d806000811461128d576040519150601f19603f3d011682016040523d82523d6000602084013e611292565b606091505b50915091508115156112a357600080fd5b808060200190516112b79190810190611fa8565b9250505090565b6040805190810160405280600381526020017f504348000000000000000000000000000000000000000000000000000000000081525081565b600081600160003373ffffffffffffffffffffffffffffffffffffffff1673ffffffffffffffffffffffffffffffffffffffff168152602001908152602001600020541015151561134757600080fd5b81600160003373ffffffffffffffffffffffffffffffffffffffff1673ffffffffffffffffffffffffffffffffffffffff1681526020019081526020016000206000828254039250508190555081600160008573ffffffffffffffffffffffffffffffffffffffff1673ffffffffffffffffffffffffffffffffffffffff168152602001908152602001600020600082825401925050819055508273ffffffffffffffffffffffffffffffffffffffff163373ffffffffffffffffffffffffffffffffffffffff167fddf252ad1be2c89b69c2b068fc378daa952ba7f163c4a11628f55a4df523b3ef8460405161143e919061226c565b60405180910390a36001905092915050565b6000806060600860009054906101000a900473ffffffffffffffffffffffffffffffffffffffff1673ffffffffffffffffffffffffffffffffffffffff1660405180807f7472616e736163745465737428616464726573732c616464726573732c75696e81526020017f743235362c75696e743235362c627974657333322c627974657333322c75696e81526020017f7438290000000000000000000000000000000000000000000000000000000000815250604301905060405180910390208b8b8b8b8b8b8b60405160240161152d9796959493929190612104565b604051602081830303815290604052907bffffffffffffffffffffffffffffffffffffffffffffffffffffffff19166020820180517bffffffffffffffffffffffffffffffffffffffffffffffffffffffff83818316178352505050506040518082805190602001908083835b6020831015156115bf578051825260208201915060208101905060208303925061159a565b6001836020036101000a038019825116818451168082178552505050505050905001915050600060405180830381855af49150503d806000811461161f576040519150601f19603f3d011682016040523d82523d6000602084013e611624565b606091505b509150915081151561163557600080fd5b808060200190516116499190810190611fa8565b92505050979650505050505050565b6000806060600860009054906101000a900473ffffffffffffffffffffffffffffffffffffffff1673ffffffffffffffffffffffffffffffffffffffff1660405180807f776974686472617728616464726573732c75696e743235362c75696e7432353681526020017f2c627974657333322c627974657333322c75696e743829000000000000000000815250603701905060405180910390208a8a8a8a8a8a60405160240161170d96959493929190612173565b604051602081830303815290604052907bffffffffffffffffffffffffffffffffffffffffffffffffffffffff19166020820180517bffffffffffffffffffffffffffffffffffffffffffffffffffffffff83818316178352505050506040518082805190602001908083835b60208310151561179f578051825260208201915060208101905060208303925061177a565b6001836020036101000a038019825116818451168082178552505050505050905001915050600060405180830381855af49150503d80600081146117ff576040519150601f19603f3d011682016040523d82523d6000602084013e611804565b606091505b509150915081151561181557600080fd5b808060200190516118299190810190611fa8565b925050509695505050505050565b6000806060600860009054906101000a900473ffffffffffffffffffffffffffffffffffffffff1673ffffffffffffffffffffffffffffffffffffffff1660405180807f6465706f73697428616464726573732c75696e743235362c75696e743235362c81526020017f627974657333322c627974657333322c75696e74382900000000000000000000815250603601905060405180910390208a8a8a8a8a8a6040516024016118ec96959493929190612173565b604051602081830303815290604052907bffffffffffffffffffffffffffffffffffffffffffffffffffffffff19166020820180517bffffffffffffffffffffffffffffffffffffffffffffffffffffffff83818316178352505050506040518082805190602001908083835b60208310151561197e5780518252602082019150602081019050602083039250611959565b6001836020036101000a038019825116818451168082178552505050505050905001915050600060405180830381855af49150503d80600081146119de576040519150601f19603f3d011682016040523d82523d6000602084013e6119e3565b606091505b50915091508115156119f457600080fd5b80806020019051611a089190810190611fa8565b925050509695505050505050565b6000600360009054906101000a900473ffffffffffffffffffffffffffffffffffffffff1673ffffffffffffffffffffffffffffffffffffffff163373ffffffffffffffffffffffffffffffffffffffff16141515611aaa576040517f08c379a0000000000000000000000000000000000000000000000000000000008152600401611aa19061222c565b60405180910390fd5b60006060600860009054906101000a900473ffffffffffffffffffffffffffffffffffffffff1673ffffffffffffffffffffffffffffffffffffffff1660405180807f636865636b50726f666974732829000000000000000000000000000000000000815250600e0190506040518091039020604051602401604051602081830303815290604052907bffffffffffffffffffffffffffffffffffffffffffffffffffffffff19166020820180517bffffffffffffffffffffffffffffffffffffffffffffffffffffffff83818316178352505050506040518082805190602001908083835b602083101515611bb55780518252602082019150602081019050602083039250611b90565b6001836020036101000a038019825116818451168082178552505050505050905001915050600060405180830381855afa9150503d8060008114611c15576040519150601f19603f3d011682016040523d82523d6000602084013e611c1a565b606091505b5091509150811515611c2b57600080fd5b80806020019051611c3f9190810190611fd1565b9250505090565b6000600260008473ffffffffffffffffffffffffffffffffffffffff1673ffffffffffffffffffffffffffffffffffffffff16815260200190815260200160002060008373ffffffffffffffffffffffffffffffffffffffff1673ffffffffffffffffffffffffffffffffffffffff16815260200190815260200160002054905092915050565b600860009054906101000a900473ffffffffffffffffffffffffffffffffffffffff1681565b600360009054906101000a900473ffffffffffffffffffffffffffffffffffffffff1681565b6000611d25823561230c565b905092915050565b6000611d39825161231e565b905092915050565b6000611d4d823561232a565b905092915050565b6000611d618235612334565b905092915050565b6000611d758251612334565b905092915050565b6000611d89823561233e565b905092915050565b600060208284031215611da357600080fd5b6000611db184828501611d19565b91505092915050565b60008060408385031215611dcd57600080fd5b6000611ddb85828601611d19565b9250506020611dec85828601611d19565b9150509250929050565b600080600060608486031215611e0b57600080fd5b6000611e1986828701611d19565b9350506020611e2a86828701611d19565b9250506040611e3b86828701611d55565b9150509250925092565b600080600080600080600060e0888a031215611e6057600080fd5b6000611e6e8a828b01611d19565b9750506020611e7f8a828b01611d19565b9650506040611e908a828b01611d55565b9550506060611ea18a828b01611d55565b9450506080611eb28a828b01611d41565b93505060a0611ec38a828b01611d41565b92505060c0611ed48a828b01611d7d565b91505092959891949750929550565b60008060408385031215611ef657600080fd5b6000611f0485828601611d19565b9250506020611f1585828601611d55565b9150509250929050565b60008060008060008060c08789031215611f3857600080fd5b6000611f4689828a01611d19565b9650506020611f5789828a01611d55565b9550506040611f6889828a01611d55565b9450506060611f7989828a01611d41565b9350506080611f8a89828a01611d41565b92505060a0611f9b89828a01611d7d565b9150509295509295509295565b600060208284031215611fba57600080fd5b6000611fc884828501611d2d565b91505092915050565b600060208284031215611fe357600080fd5b6000611ff184828501611d69565b91505092915050565b612003816122ad565b82525050565b612012816122bf565b82525050565b612021816122cb565b82525050565b6000612032826122a2565b80845261204681602086016020860161234b565b61204f8161237e565b602085010191505092915050565b6000601f82527f526573747269637465642041636365737320746f2041646d696e204f6e6c79006020830152604082019050919050565b6000600a82527f41646d696e204f6e6c79000000000000000000000000000000000000000000006020830152604082019050919050565b6120d4816122f5565b82525050565b6120e3816122ff565b82525050565b60006020820190506120fe6000830184611ffa565b92915050565b600060e082019050612119600083018a611ffa565b6121266020830189611ffa565b61213360408301886120cb565b61214060608301876120cb565b61214d6080830186612018565b61215a60a0830185612018565b61216760c08301846120da565b98975050505050505050565b600060c0820190506121886000830189611ffa565b61219560208301886120cb565b6121a260408301876120cb565b6121af6060830186612018565b6121bc6080830185612018565b6121c960a08301846120da565b979650505050505050565b60006020820190506121e96000830184612009565b92915050565b60006020820190506122046000830184612018565b92915050565b600060208201905081810360008301526122248184612027565b905092915050565b600060208201905081810360008301526122458161205d565b9050919050565b6000602082019050818103600083015261226581612094565b9050919050565b600060208201905061228160008301846120cb565b92915050565b600060208201905061229c60008301846120da565b92915050565b600081519050919050565b60006122b8826122d5565b9050919050565b60008115159050919050565b6000819050919050565b600073ffffffffffffffffffffffffffffffffffffffff82169050919050565b6000819050919050565b600060ff82169050919050565b6000612317826122d5565b9050919050565b60008115159050919050565b6000819050919050565b6000819050919050565b600060ff82169050919050565b60005b8381101561236957808201518184015260208101905061234e565b83811115612378576000848401525b50505050565b6000601f19601f830116905091905056fea265627a7a723058205b4ad3e70a43a8db9a2c62a2da45ca8329fcf1da681c9283d239da7684982fb26c6578706572696d656e74616cf50037",
  "source": "pragma solidity >=0.5.0;\npragma experimental ABIEncoderV2;\n\nimport \"./PouchToken.sol\";\n\n//  ** Inheritance of Pouch Token to Make Delegate Calls to implementation Contract. **\n\ncontract PouchDelegate is PouchToken {\n    constructor(uint256 _chainId) public {\n        DOMAIN_SEPARATOR = keccak256(\n            abi.encode(\n                keccak256(\n                    \"EIP712Domain(string name,string version,uint256 chainId,address verifyingContract)\"\n                ),\n                keccak256(bytes(name)),\n                keccak256(bytes(version)),\n                _chainId,\n                address(this)\n            )\n        );\n\n        admin = msg.sender;\n    }\n\n    // ** Internal Functions **\n\n    modifier adminOnly() {\n        require(msg.sender == admin, \"Restricted Access to Admin Only\");\n        _;\n    }\n\n    // ** Update Implementation Address **\n    function updateLogic(address _newImplemenationAddress) external adminOnly {\n        require(msg.sender == admin, \"Admin Only\");\n        ImplementationAddress = _newImplemenationAddress;\n    }\n\n    // ** Delegate calls **\n\n    // Deposit delegate call\n    function deposit(\n        address holder,\n        uint256 value,\n        uint256 nonce,\n        bytes32 r,\n        bytes32 s,\n        uint8 v\n    ) public returns (bool) {\n        (bool status, bytes memory returnedData) = ImplementationAddress\n            .delegatecall(\n            abi.encodeWithSelector(\n                bytes4(\n                    keccak256(\n                        \"deposit(address,uint256,uint256,bytes32,bytes32,uint8)\"\n                    )\n                ),\n                holder,\n                value,\n                nonce,\n                r,\n                s,\n                v\n            )\n        );\n        require(status);\n        return abi.decode(returnedData, (bool));\n    }\n\n    // Withdraw delegate call\n    function withdraw(\n        address holder,\n        uint256 value,\n        uint256 nonce,\n        bytes32 r,\n        bytes32 s,\n        uint8 v\n    ) public returns (bool) {\n        (bool status, bytes memory returnedData) = ImplementationAddress\n            .delegatecall(\n            abi.encodeWithSelector(\n                bytes4(\n                    keccak256(\n                        \"withdraw(address,uint256,uint256,bytes32,bytes32,uint8)\"\n                    )\n                ),\n                holder,\n                value,\n                nonce,\n                r,\n                s,\n                v\n            )\n        );\n        require(status);\n        return abi.decode(returnedData, (bool));\n    }\n\n    // Transact delegate call\n    function transact(\n        address holder,\n        address to,\n        uint256 value,\n        uint256 nonce,\n        bytes32 r,\n        bytes32 s,\n        uint8 v\n    ) public returns (bool) {\n        (bool status, bytes memory returnedData) = ImplementationAddress\n            .delegatecall(\n            abi.encodeWithSelector(\n                bytes4(\n                    keccak256(\n                        \"transact(address,address,uint256,uint256,bytes32,bytes32,uint8)\"\n                    )\n                ),\n                holder,\n                to,\n                value,\n                nonce,\n                r,\n                s,\n                v\n            )\n        );\n        require(status);\n        return abi.decode(returnedData, (bool));\n    }\n\n    /* For Testing Purposes Only*/\n\n    function transactTest(\n        address holder,\n        address to,\n        uint256 value,\n        uint256 nonce,\n        bytes32 r,\n        bytes32 s,\n        uint8 v\n    ) public returns (bool) {\n        (bool status, bytes memory returnedData) = ImplementationAddress\n            .delegatecall(\n            abi.encodeWithSelector(\n                bytes4(\n                    keccak256(\n                        \"transactTest(address,address,uint256,uint256,bytes32,bytes32,uint8)\"\n                    )\n                ),\n                holder,\n                to,\n                value,\n                nonce,\n                r,\n                s,\n                v\n            )\n        );\n        require(status);\n        return abi.decode(returnedData, (bool));\n\n    }\n\n    // Check Profits delegate call\n    function checkProfits() public view adminOnly returns (uint256) {\n        (bool status, bytes memory returnedData) = ImplementationAddress\n            .staticcall(\n            abi.encodeWithSelector(bytes4(keccak256(\"checkProfits()\")))\n        );\n        require(status);\n        return abi.decode(returnedData, (uint256));\n    }\n\n    // Split Profits delegate call\n    function spitProfits() public adminOnly returns (bool) {\n        (bool status, bytes memory returnedData) = ImplementationAddress\n            .delegatecall(\n            abi.encodeWithSelector(bytes4(keccak256(\"spitProfits()\")))\n        );\n        require(status);\n        return abi.decode(returnedData, (bool));\n    }\n\n    // function userRewards(address holder) external view returns (uint256) {\n    //     return rewards[holder];\n    // }\n    /**\n     * @notice Delegates execution to an implementation contract\n     * @dev It returns to the external caller whatever the implementation returns or forwards reverts\n     */\n    function() external {\n        // delegate all other functions to current implementation\n        (bool status, ) = ImplementationAddress.delegatecall(msg.data);\n        require(status);\n\n    }\n\n}\n",
  "sourcePath": "/home/roheat/blockchain/projects/biconomy/boundless/contracts/PouchDelegate.sol",
  "compiler": {
    "name": "solc",
    "version": "0.5.0+commit.1d4f565a.Emscripten.clang"
  },
  "schemaVersion": "3.0.1",
  "updatedAt": "2020-02-25T18:20:12.865Z",
  "devdoc": {
    "methods": {}
  },
  "userdoc": {
    "methods": {}
  }
}