{
  "contractName": "Pouch",
  "abi": [
    {
      "constant": true,
      "inputs": [],
      "name": "admin",
      "outputs": [
        {
          "name": "",
          "type": "address"
        }
      ],
      "payable": false,
      "stateMutability": "view",
      "type": "function",
      "signature": "0xf851a440"
    }
  ],
  "bytecode": "0x6080604052720fb1cd8e958da21c3cfe3803e5b80000000000600255734f96fe3b7a6cf9725f59d353f723c1bdb64ca6aa600360006101000a81548173ffffffffffffffffffffffffffffffffffffffff021916908373ffffffffffffffffffffffffffffffffffffffff16021790555073e7bc397dbd069fc7d0109c0636d06888bb50668c600460006101000a81548173ffffffffffffffffffffffffffffffffffffffff021916908373ffffffffffffffffffffffffffffffffffffffff16021790555073b5cea18db04008a4d68444a298dbdd2d0e442e3d600560006101000a81548173ffffffffffffffffffffffffffffffffffffffff021916908373ffffffffffffffffffffffffffffffffffffffff160217905550600360009054906101000a900473ffffffffffffffffffffffffffffffffffffffff16600660006101000a81548173ffffffffffffffffffffffffffffffffffffffff021916908373ffffffffffffffffffffffffffffffffffffffff160217905550600460009054906101000a900473ffffffffffffffffffffffffffffffffffffffff16600760006101000a81548173ffffffffffffffffffffffffffffffffffffffff021916908373ffffffffffffffffffffffffffffffffffffffff160217905550600560009054906101000a900473ffffffffffffffffffffffffffffffffffffffff16600860006101000a81548173ffffffffffffffffffffffffffffffffffffffff021916908373ffffffffffffffffffffffffffffffffffffffff16021790555034801561024f57600080fd5b5060ea8061025e6000396000f3fe608060405260043610603f576000357c0100000000000000000000000000000000000000000000000000000000900463ffffffff168063f851a440146044575b600080fd5b348015604f57600080fd5b5060566098565b604051808273ffffffffffffffffffffffffffffffffffffffff1673ffffffffffffffffffffffffffffffffffffffff16815260200191505060405180910390f35b600160009054906101000a900473ffffffffffffffffffffffffffffffffffffffff168156fea165627a7a723058201c3f483d231b31e48ca6683cddda0eaf60b0f1e9fd597994fb5eb50911c9d4670029",
  "source": "pragma solidity >=0.5.0;\n\n// import \"./interfaces/TokenInterface.sol\";\nimport \"./interfaces/cTokenInterface.sol\";\nimport \"./interfaces/EIP20Interface.sol\";\n// import \"./EIP712MetaTransaction.sol\";\n\ncontract Pouch {\n    /*is EIP712MetaTransaction(\"Pouch\", \"1\")*/\n    // uint256 public totalDaiDeposits;\n    // mapping(address => bool) registeredUser;\n    mapping(address => uint256) balances;\n    address public admin;\n\n    uint256 cDaiAllowedAmount = 350000000000000000000000000000000000000000000;\n    address daiAddress = 0x4F96Fe3b7A6Cf9725f59d353F723c1bDb64CA6Aa;\n    address cDaiAddress = 0xe7bc397DBd069fC7d0109C0636d06888bb50668c;\n    address pDaiAddress = 0xb5cea18Db04008a4D68444A298DBDD2D0E442E3D;\n\n    EIP20Interface daiToken = EIP20Interface(daiAddress);\n    cTokenInterface cDai = cTokenInterface(cDaiAddress);\n    EIP20Interface pDaiToken = EIP20Interface(pDaiAddress);\n\n    // constructor() public {\n    //     admin = msg.sender;\n    //     daiToken.approve(cDaiAddress, cDaiAllowedAmount);\n    // }\n\n    // modifier adminOnly() {\n    //     require(msg.sender == admin, \"Not authorized\");\n    //     _;\n    // }\n    // // ** Deposit DAI **\n    // function deposit(address spender, uint256 value) external {\n    //     // Check if User's Dai Balance is more or equal to the value sent.\n    //     uint256 userBalance = daiToken.balanceOf(msgSender());\n    //     require(\n    //         userBalance >= value,\n    //         \"User does not have the required DAI balance.\"\n    //     );\n\n    //     daiToken.transferFrom(msgSender(), address(this), value);\n    //     balances[msgSender()] += value;\n\n    //     emit pDaiToken.Transfer(\n    //         0x0000000000000000000000000000000000000000,\n    //         msgSender(),\n    //         value\n    //     );\n\n    //     // Check for Dai allowance given from this contract to Cdai Contract\n    //     uint256 cDaiAllowance = daiToken.allowance(address(this), cDaiAddress);\n    //     if (cDaiAllowance < value) {\n    //         uint256 amount = value > cDaiAllowedAmount\n    //             ? value\n    //             : cDaiAllowedAmount;\n    //         daiToken.approve(cDaiAddress, amount);\n    //     }\n\n    //     cDai.mint(value);\n    // }\n\n    // // ** Withdraw DAI**\n    // function withdraw(uint256 value) external {\n    //     // Check if User's PCH balance is more or equal to the value sent.\n    //     uint256 pouchBalance = pDaiToken.balanceOf(msgSender());\n    //     require(\n    //         pouchBalance >= value,\n    //         \"User does not have the required PCH balance.\"\n    //     );\n\n    //     // Burn PCH\n    //     pDaiToken.transfer(0x0000000000000000000000000000000000000000, value);\n    //     totalSupply -= value;\n\n    //     // Redeem User's DAI from compound and transfer it to user.\n    //     cDai.redeemUnderlying(value);\n    //     daiToken.transfer(msgSender(), value);\n    // }\n\n    // function spitProfits() external adminOnly {\n    //     uint256 adjustedTotalSupply = totalSupply.mul(100000000);\n    //     uint256 ourContractBalance = cDai.balanceOf(address(this));\n    //     uint256 cDaiExchangeRate = cDai.exchangeRateCurrent();\n    //     uint256 cDaiExchangeRateDivided = cDaiExchangeRate.div(10000000000);\n\n    //     uint256 currentPrice = adjustedTotalSupply.div(cDaiExchangeRateDivided);\n    //     uint256 profit = ourContractBalance.sub(currentPrice);\n    //     cDai.transfer(msg.sender, profit);\n\n    // }\n\n    // function myCurrentBalance() external view returns (uint256) {\n    //     return cDai.balanceOf(address(this));\n    // }\n\n    // function getExchangeRate() external view returns (uint256) {\n    //     return cDai.exchangeRateCurrent();\n    // }\n\n    // function checkProfits() external view returns (uint256) {\n    //     uint256 adjustedTotalSupply = totalSupply.mul(100000000);\n    //     uint256 ourContractBalance = cDai.balanceOf(address(this));\n    //     uint256 cDaiExchangeRate = cDai.exchangeRateCurrent();\n    //     uint256 cDaiExchangeRateDivided = cDaiExchangeRate.div(10000000000);\n\n    //     uint256 currentPrice = adjustedTotalSupply.div(cDaiExchangeRateDivided);\n    //     uint256 profit = ourContractBalance.sub(currentPrice);\n    //     return profit;\n    // }\n    // MintInterface cDai = MintInterface(cDaiAddress);\n    // TokenInterface dai = TokenInterface(daiAddress);\n\n    // function checkDaiAllowance() external view returns (uint256) {\n    //     return dai.allowance(msg.sender, address(this));\n    // }\n\n    // function userBalance() external view returns (uint256) {\n    //     return balances[msg.sender];\n    // }\n\n    // function deposit(address sender, uint256 amount) external {\n    //     dai.transferFrom(sender, address(this), amount);\n    //     totalDaiDeposits += amount;\n    //     dai.approve(cDaiAddress, amount);\n    //     cDai.mint(amount);\n    //     balances[sender] += amount;\n    //     registeredUser[sender] = true;\n    // }\n\n    // function transact(address recipient, uint256 amount) external {\n    //     require(registeredUser[msg.sender] == true, \"Sender not registered\");\n    //     require(amount <= balances[msg.sender], \"Insufficient Funds\");\n    //     balances[msg.sender] -= amount;\n    //     balances[recipient] += amount;\n    // }\n\n    // function withdraw(uint256 amount) external {\n    //     require(amount <= balances[msg.sender], \"Insufficient Funds\");\n    //     cDai.redeemUnderlying(amount);\n    //     dai.transfer(msg.sender, amount);\n    //     balances[msg.sender] -= amount;\n    // }\n\n    // function contractBalance() external view returns (uint256) {\n    //     return cDai.balanceOf(address(this));\n    // }\n\n}\n",
  "sourcePath": "/home/roheat/blockchain/projects/biconomy/boundless/contracts/Pouch.sol",
  "compiler": {
    "name": "solc",
    "version": "0.5.0+commit.1d4f565a.Emscripten.clang"
  },
  "schemaVersion": "3.0.1",
  "updatedAt": "2020-02-12T19:54:44.660Z",
  "devdoc": {
    "methods": {}
  },
  "userdoc": {
    "methods": {}
  }
}