{
  "contractName": "PouchToken",
  "abi": [
    {
      "anonymous": false,
      "inputs": [
        {
          "indexed": true,
          "internalType": "address",
          "name": "_owner",
          "type": "address"
        },
        {
          "indexed": true,
          "internalType": "address",
          "name": "_spender",
          "type": "address"
        },
        {
          "indexed": false,
          "internalType": "uint256",
          "name": "_value",
          "type": "uint256"
        }
      ],
      "name": "Approval",
      "type": "event"
    },
    {
      "anonymous": false,
      "inputs": [
        {
          "indexed": true,
          "internalType": "address",
          "name": "_from",
          "type": "address"
        },
        {
          "indexed": true,
          "internalType": "address",
          "name": "_to",
          "type": "address"
        },
        {
          "indexed": false,
          "internalType": "uint256",
          "name": "_value",
          "type": "uint256"
        }
      ],
      "name": "Reward",
      "type": "event"
    },
    {
      "anonymous": false,
      "inputs": [
        {
          "indexed": true,
          "internalType": "address",
          "name": "_from",
          "type": "address"
        },
        {
          "indexed": true,
          "internalType": "address",
          "name": "_to",
          "type": "address"
        },
        {
          "indexed": false,
          "internalType": "uint256",
          "name": "_value",
          "type": "uint256"
        }
      ],
      "name": "Transfer",
      "type": "event"
    },
    {
      "constant": true,
      "inputs": [],
      "name": "DEPOSIT_TYPEHASH",
      "outputs": [
        {
          "internalType": "bytes32",
          "name": "",
          "type": "bytes32"
        }
      ],
      "payable": false,
      "stateMutability": "view",
      "type": "function"
    },
    {
      "constant": true,
      "inputs": [],
      "name": "DOMAIN_SEPARATOR",
      "outputs": [
        {
          "internalType": "bytes32",
          "name": "",
          "type": "bytes32"
        }
      ],
      "payable": false,
      "stateMutability": "view",
      "type": "function"
    },
    {
      "constant": true,
      "inputs": [],
      "name": "ImplementationAddress",
      "outputs": [
        {
          "internalType": "address",
          "name": "",
          "type": "address"
        }
      ],
      "payable": false,
      "stateMutability": "view",
      "type": "function"
    },
    {
      "constant": true,
      "inputs": [],
      "name": "TRANSACT_TYPEHASH",
      "outputs": [
        {
          "internalType": "bytes32",
          "name": "",
          "type": "bytes32"
        }
      ],
      "payable": false,
      "stateMutability": "view",
      "type": "function"
    },
    {
      "constant": true,
      "inputs": [],
      "name": "WITHDRAW_TYPEHASH",
      "outputs": [
        {
          "internalType": "bytes32",
          "name": "",
          "type": "bytes32"
        }
      ],
      "payable": false,
      "stateMutability": "view",
      "type": "function"
    },
    {
      "constant": true,
      "inputs": [],
      "name": "admin",
      "outputs": [
        {
          "internalType": "address",
          "name": "",
          "type": "address"
        }
      ],
      "payable": false,
      "stateMutability": "view",
      "type": "function"
    },
    {
      "constant": true,
      "inputs": [
        {
          "internalType": "address",
          "name": "",
          "type": "address"
        },
        {
          "internalType": "address",
          "name": "",
          "type": "address"
        }
      ],
      "name": "allowed",
      "outputs": [
        {
          "internalType": "uint256",
          "name": "",
          "type": "uint256"
        }
      ],
      "payable": false,
      "stateMutability": "view",
      "type": "function"
    },
    {
      "constant": true,
      "inputs": [
        {
          "internalType": "address",
          "name": "",
          "type": "address"
        }
      ],
      "name": "balances",
      "outputs": [
        {
          "internalType": "uint256",
          "name": "",
          "type": "uint256"
        }
      ],
      "payable": false,
      "stateMutability": "view",
      "type": "function"
    },
    {
      "constant": true,
      "inputs": [],
      "name": "decimals",
      "outputs": [
        {
          "internalType": "uint8",
          "name": "",
          "type": "uint8"
        }
      ],
      "payable": false,
      "stateMutability": "view",
      "type": "function"
    },
    {
      "constant": true,
      "inputs": [],
      "name": "name",
      "outputs": [
        {
          "internalType": "string",
          "name": "",
          "type": "string"
        }
      ],
      "payable": false,
      "stateMutability": "view",
      "type": "function"
    },
    {
      "constant": true,
      "inputs": [
        {
          "internalType": "address",
          "name": "",
          "type": "address"
        }
      ],
      "name": "nonces",
      "outputs": [
        {
          "internalType": "uint256",
          "name": "",
          "type": "uint256"
        }
      ],
      "payable": false,
      "stateMutability": "view",
      "type": "function"
    },
    {
      "constant": true,
      "inputs": [
        {
          "internalType": "address",
          "name": "",
          "type": "address"
        }
      ],
      "name": "rewards",
      "outputs": [
        {
          "internalType": "uint256",
          "name": "",
          "type": "uint256"
        }
      ],
      "payable": false,
      "stateMutability": "view",
      "type": "function"
    },
    {
      "constant": true,
      "inputs": [],
      "name": "symbol",
      "outputs": [
        {
          "internalType": "string",
          "name": "",
          "type": "string"
        }
      ],
      "payable": false,
      "stateMutability": "view",
      "type": "function"
    },
    {
      "constant": true,
      "inputs": [],
      "name": "totalSupply",
      "outputs": [
        {
          "internalType": "uint256",
          "name": "",
          "type": "uint256"
        }
      ],
      "payable": false,
      "stateMutability": "view",
      "type": "function"
    },
    {
      "constant": true,
      "inputs": [],
      "name": "version",
      "outputs": [
        {
          "internalType": "string",
          "name": "",
          "type": "string"
        }
      ],
      "payable": false,
      "stateMutability": "view",
      "type": "function"
    },
    {
      "constant": false,
      "inputs": [
        {
          "internalType": "address",
          "name": "_to",
          "type": "address"
        },
        {
          "internalType": "uint256",
          "name": "_value",
          "type": "uint256"
        }
      ],
      "name": "transfer",
      "outputs": [
        {
          "internalType": "bool",
          "name": "success",
          "type": "bool"
        }
      ],
      "payable": false,
      "stateMutability": "nonpayable",
      "type": "function"
    },
    {
      "constant": false,
      "inputs": [
        {
          "internalType": "address",
          "name": "_from",
          "type": "address"
        },
        {
          "internalType": "address",
          "name": "_to",
          "type": "address"
        },
        {
          "internalType": "uint256",
          "name": "_value",
          "type": "uint256"
        }
      ],
      "name": "transferFrom",
      "outputs": [
        {
          "internalType": "bool",
          "name": "success",
          "type": "bool"
        }
      ],
      "payable": false,
      "stateMutability": "nonpayable",
      "type": "function"
    },
    {
      "constant": true,
      "inputs": [
        {
          "internalType": "address",
          "name": "_owner",
          "type": "address"
        }
      ],
      "name": "balanceOf",
      "outputs": [
        {
          "internalType": "uint256",
          "name": "balance",
          "type": "uint256"
        }
      ],
      "payable": false,
      "stateMutability": "view",
      "type": "function"
    },
    {
      "constant": false,
      "inputs": [
        {
          "internalType": "address",
          "name": "_spender",
          "type": "address"
        },
        {
          "internalType": "uint256",
          "name": "_value",
          "type": "uint256"
        }
      ],
      "name": "approve",
      "outputs": [
        {
          "internalType": "bool",
          "name": "success",
          "type": "bool"
        }
      ],
      "payable": false,
      "stateMutability": "nonpayable",
      "type": "function"
    },
    {
      "constant": true,
      "inputs": [
        {
          "internalType": "address",
          "name": "_owner",
          "type": "address"
        },
        {
          "internalType": "address",
          "name": "_spender",
          "type": "address"
        }
      ],
      "name": "allowance",
      "outputs": [
        {
          "internalType": "uint256",
          "name": "remaining",
          "type": "uint256"
        }
      ],
      "payable": false,
      "stateMutability": "view",
      "type": "function"
    },
    {
      "constant": true,
      "inputs": [],
      "name": "supplyOf",
      "outputs": [
        {
          "internalType": "uint256",
          "name": "balance",
          "type": "uint256"
        }
      ],
      "payable": false,
      "stateMutability": "view",
      "type": "function"
    }
  ],
  "bytecode": "0x608060405273e7bc397dbd069fc7d0109c0636d06888bb50668c600460006101000a81548173ffffffffffffffffffffffffffffffffffffffff021916908373ffffffffffffffffffffffffffffffffffffffff160217905550600460009054906101000a900473ffffffffffffffffffffffffffffffffffffffff16600560006101000a81548173ffffffffffffffffffffffffffffffffffffffff021916908373ffffffffffffffffffffffffffffffffffffffff160217905550734f96fe3b7a6cf9725f59d353f723c1bdb64ca6aa600660006101000a81548173ffffffffffffffffffffffffffffffffffffffff021916908373ffffffffffffffffffffffffffffffffffffffff160217905550600660009054906101000a900473ffffffffffffffffffffffffffffffffffffffff16600760006101000a81548173ffffffffffffffffffffffffffffffffffffffff021916908373ffffffffffffffffffffffffffffffffffffffff16021790555034801561018057600080fd5b506110bb806101906000396000f3fe608060405234801561001057600080fd5b50600436106101375760003560e01c8063523a50d0116100b85780637ecebe001161007c5780637ecebe001461036a57806395d89b411461039a578063a9059cbb146103b8578063dd62ed3e146103e8578063e8a667de14610418578063f851a4401461043657610137565b8063523a50d0146102b057806354fd4d50146102ce5780635c658165146102ec57806370a082311461031c57806376c5d7581461034c57610137565b806323b872dd116100ff57806323b872dd146101f657806327e235e314610226578063313ce567146102565780633644e5151461027457806348825e941461029257610137565b806306fdde031461013c5780630700037d1461015a578063095ea7b31461018a5780630df73116146101ba57806318160ddd146101d8575b600080fd5b610144610454565b6040516101519190610f28565b60405180910390f35b610174600480360361016f9190810190610bf2565b61048d565b6040516101819190610f4a565b60405180910390f35b6101a4600480360361019f9190810190610ca6565b6104a5565b6040516101b19190610ef2565b60405180910390f35b6101c2610597565b6040516101cf9190610f0d565b60405180910390f35b6101e06105ae565b6040516101ed9190610f4a565b60405180910390f35b610210600480360361020b9190810190610c57565b6105b4565b60405161021d9190610ef2565b60405180910390f35b610240600480360361023b9190810190610bf2565b61084c565b60405161024d9190610f4a565b60405180910390f35b61025e610864565b60405161026b9190610f65565b60405180910390f35b61027c610869565b6040516102899190610f0d565b60405180910390f35b61029a61086f565b6040516102a79190610f0d565b60405180910390f35b6102b8610886565b6040516102c59190610f4a565b60405180910390f35b6102d661088f565b6040516102e39190610f28565b60405180910390f35b61030660048036036103019190810190610c1b565b6108c8565b6040516103139190610f4a565b60405180910390f35b61033660048036036103319190810190610bf2565b6108ed565b6040516103439190610f4a565b60405180910390f35b610354610936565b6040516103619190610f0d565b60405180910390f35b610384600480360361037f9190810190610bf2565b61094d565b6040516103919190610f4a565b60405180910390f35b6103a2610965565b6040516103af9190610f28565b60405180910390f35b6103d260048036036103cd9190810190610ca6565b61099e565b6040516103df9190610ef2565b60405180910390f35b61040260048036036103fd9190810190610c1b565b610af5565b60405161040f9190610f4a565b60405180910390f35b610420610b7c565b60405161042d9190610ed7565b60405180910390f35b61043e610ba2565b60405161044b9190610ed7565b60405180910390f35b6040518060400160405280600b81526020017f506f75636820546f6b656e00000000000000000000000000000000000000000081525081565b600b6020528060005260406000206000915090505481565b600081600260003373ffffffffffffffffffffffffffffffffffffffff1673ffffffffffffffffffffffffffffffffffffffff16815260200190815260200160002060008573ffffffffffffffffffffffffffffffffffffffff1673ffffffffffffffffffffffffffffffffffffffff168152602001908152602001600020819055508273ffffffffffffffffffffffffffffffffffffffff163373ffffffffffffffffffffffffffffffffffffffff167f8c5be1e5ebec7d5bd14f71427d1e84f3dd0314c0f7b2291e5b200ac8c7c3b925846040516105859190610f4a565b60405180910390a36001905092915050565b6040516105a390610ec2565b604051809103902081565b60005481565b600080600260008673ffffffffffffffffffffffffffffffffffffffff1673ffffffffffffffffffffffffffffffffffffffff16815260200190815260200160002060003373ffffffffffffffffffffffffffffffffffffffff1673ffffffffffffffffffffffffffffffffffffffff16815260200190815260200160002054905082600160008773ffffffffffffffffffffffffffffffffffffffff1673ffffffffffffffffffffffffffffffffffffffff16815260200190815260200160002054101580156106855750828110155b61068e57600080fd5b82600160008673ffffffffffffffffffffffffffffffffffffffff1673ffffffffffffffffffffffffffffffffffffffff1681526020019081526020016000206000828254019250508190555082600160008773ffffffffffffffffffffffffffffffffffffffff1673ffffffffffffffffffffffffffffffffffffffff168152602001908152602001600020600082825403925050819055507fffffffffffffffffffffffffffffffffffffffffffffffffffffffffffffffff8110156107db5782600260008773ffffffffffffffffffffffffffffffffffffffff1673ffffffffffffffffffffffffffffffffffffffff16815260200190815260200160002060003373ffffffffffffffffffffffffffffffffffffffff1673ffffffffffffffffffffffffffffffffffffffff168152602001908152602001600020600082825403925050819055505b8373ffffffffffffffffffffffffffffffffffffffff168573ffffffffffffffffffffffffffffffffffffffff167fddf252ad1be2c89b69c2b068fc378daa952ba7f163c4a11628f55a4df523b3ef856040516108389190610f4a565b60405180910390a360019150509392505050565b60016020528060005260406000206000915090505481565b601281565b60095481565b60405161087b90610ead565b604051809103902081565b60008054905090565b6040518060400160405280600181526020017f310000000000000000000000000000000000000000000000000000000000000081525081565b6002602052816000526040600020602052806000526040600020600091509150505481565b6000600160008373ffffffffffffffffffffffffffffffffffffffff1673ffffffffffffffffffffffffffffffffffffffff168152602001908152602001600020549050919050565b60405161094290610e98565b604051809103902081565b600a6020528060005260406000206000915090505481565b6040518060400160405280600381526020017f504348000000000000000000000000000000000000000000000000000000000081525081565b600081600160003373ffffffffffffffffffffffffffffffffffffffff1673ffffffffffffffffffffffffffffffffffffffff1681526020019081526020016000205410156109ec57600080fd5b81600160003373ffffffffffffffffffffffffffffffffffffffff1673ffffffffffffffffffffffffffffffffffffffff1681526020019081526020016000206000828254039250508190555081600160008573ffffffffffffffffffffffffffffffffffffffff1673ffffffffffffffffffffffffffffffffffffffff168152602001908152602001600020600082825401925050819055508273ffffffffffffffffffffffffffffffffffffffff163373ffffffffffffffffffffffffffffffffffffffff167fddf252ad1be2c89b69c2b068fc378daa952ba7f163c4a11628f55a4df523b3ef84604051610ae39190610f4a565b60405180910390a36001905092915050565b6000600260008473ffffffffffffffffffffffffffffffffffffffff1673ffffffffffffffffffffffffffffffffffffffff16815260200190815260200160002060008373ffffffffffffffffffffffffffffffffffffffff1673ffffffffffffffffffffffffffffffffffffffff16815260200190815260200160002054905092915050565b600860009054906101000a900473ffffffffffffffffffffffffffffffffffffffff1681565b600360009054906101000a900473ffffffffffffffffffffffffffffffffffffffff1681565b600081359050610bd78161104a565b92915050565b600081359050610bec81611061565b92915050565b600060208284031215610c0457600080fd5b6000610c1284828501610bc8565b91505092915050565b60008060408385031215610c2e57600080fd5b6000610c3c85828601610bc8565b9250506020610c4d85828601610bc8565b9150509250929050565b600080600060608486031215610c6c57600080fd5b6000610c7a86828701610bc8565b9350506020610c8b86828701610bc8565b9250506040610c9c86828701610bdd565b9150509250925092565b60008060408385031215610cb957600080fd5b6000610cc785828601610bc8565b9250506020610cd885828601610bdd565b9150509250929050565b610ceb81610fa7565b82525050565b610cfa81610fb9565b82525050565b610d0981610fc5565b82525050565b6000610d1a82610f80565b610d248185610f8b565b9350610d34818560208601611006565b610d3d81611039565b840191505092915050565b6000610d55603483610f9c565b91507f5769746864726177286164647265737320686f6c6465722c75696e743235362060008301527f76616c75652c75696e74323536206e6f6e6365290000000000000000000000006020830152603482019050919050565b6000610dbb603383610f9c565b91507f4465706f736974286164647265737320686f6c6465722c75696e74323536207660008301527f616c75652c75696e74323536206e6f6e636529000000000000000000000000006020830152603382019050919050565b6000610e21603f83610f9c565b91507f5472616e73616374286164647265737320686f6c6465722c616464726573732060008301527f746f2c75696e743235362076616c75652c75696e74323536206e6f6e636529006020830152603f82019050919050565b610e8381610fef565b82525050565b610e9281610ff9565b82525050565b6000610ea382610d48565b9150819050919050565b6000610eb882610dae565b9150819050919050565b6000610ecd82610e14565b9150819050919050565b6000602082019050610eec6000830184610ce2565b92915050565b6000602082019050610f076000830184610cf1565b92915050565b6000602082019050610f226000830184610d00565b92915050565b60006020820190508181036000830152610f428184610d0f565b905092915050565b6000602082019050610f5f6000830184610e7a565b92915050565b6000602082019050610f7a6000830184610e89565b92915050565b600081519050919050565b600082825260208201905092915050565b600081905092915050565b6000610fb282610fcf565b9050919050565b60008115159050919050565b6000819050919050565b600073ffffffffffffffffffffffffffffffffffffffff82169050919050565b6000819050919050565b600060ff82169050919050565b60005b83811015611024578082015181840152602081019050611009565b83811115611033576000848401525b50505050565b6000601f19601f8301169050919050565b61105381610fa7565b811461105e57600080fd5b50565b61106a81610fef565b811461107557600080fd5b5056fea365627a7a72315820c59e3ae27c6ce2302240b26fdf18bc5685f4b5aab66947bf12f04696e31d65346c6578706572696d656e74616cf564736f6c63430005100040",
  "source": "pragma solidity >=0.5.0;\r\npragma experimental ABIEncoderV2;\r\n\r\nimport \"./interfaces/TokenInterface.sol\";\r\nimport \"./interfaces/cTokenInterface.sol\";\r\nimport \"./interfaces/PTokenInterface.sol\";\r\nimport \"./PouchStorage.sol\";\r\n\r\ncontract PouchToken is PTokenInterface, PouchStorage {\r\n    uint256 private constant MAX_UINT256 = uint256(-1);\r\n\r\n    // --- ERC20 Data ---\r\n    string public constant name = \"Pouch Token\";\r\n    string public constant version = \"1\";\r\n    uint8 public constant decimals = 18;\r\n    string public constant symbol = \"PCH\";\r\n\r\n    // ** ERC-20 Standard Functions **\r\n\r\n    function transfer(address _to, uint256 _value)\r\n        external\r\n        returns (bool success)\r\n    {\r\n        require(balances[msg.sender] >= _value);\r\n        balances[msg.sender] -= _value;\r\n        balances[_to] += _value;\r\n        emit Transfer(msg.sender, _to, _value);\r\n        return true;\r\n    }\r\n\r\n    function transferFrom(address _from, address _to, uint256 _value)\r\n        external\r\n        returns (bool success)\r\n    {\r\n        uint256 allowance = allowed[_from][msg.sender];\r\n        require(balances[_from] >= _value && allowance >= _value);\r\n        balances[_to] += _value;\r\n        balances[_from] -= _value;\r\n        if (allowance < MAX_UINT256) {\r\n            allowed[_from][msg.sender] -= _value;\r\n        }\r\n        emit Transfer(_from, _to, _value);\r\n        return true;\r\n    }\r\n\r\n    function balanceOf(address _owner) external view returns (uint256 balance) {\r\n        return balances[_owner];\r\n    }\r\n\r\n    function approve(address _spender, uint256 _value)\r\n        external\r\n        returns (bool success)\r\n    {\r\n        allowed[msg.sender][_spender] = _value;\r\n        emit Approval(msg.sender, _spender, _value);\r\n        return true;\r\n    }\r\n\r\n    function allowance(address _owner, address _spender)\r\n        external\r\n        view\r\n        returns (uint256 remaining)\r\n    {\r\n        return allowed[_owner][_spender];\r\n    }\r\n\r\n    function supplyOf() external view returns (uint256 balance) {\r\n        return totalSupply;\r\n    }\r\n\r\n}\r\n",
  "sourcePath": "C:\\Users\\Anubhav\\Documents\\pouchwallet\\contracts\\PouchToken.sol",
  "compiler": {
    "name": "solc",
    "version": "0.5.16+commit.9c3226ce.Emscripten.clang"
  },
  "schemaVersion": "3.0.23",
  "updatedAt": "2020-02-24T22:35:53.743Z",
  "devdoc": {
    "methods": {}
  },
  "userdoc": {
    "methods": {}
  }
}