{
  "contractName": "PouchDelegate",
  "abi": [
    {
      "constant": true,
      "inputs": [],
      "name": "name",
      "outputs": [
        {
          "name": "",
          "type": "string"
        }
      ],
      "payable": false,
      "stateMutability": "view",
      "type": "function",
      "signature": "0x06fdde03"
    },
    {
      "constant": false,
      "inputs": [
        {
          "name": "_spender",
          "type": "address"
        },
        {
          "name": "_value",
          "type": "uint256"
        }
      ],
      "name": "approve",
      "outputs": [
        {
          "name": "success",
          "type": "bool"
        }
      ],
      "payable": false,
      "stateMutability": "nonpayable",
      "type": "function",
      "signature": "0x095ea7b3"
    },
    {
      "constant": true,
      "inputs": [],
      "name": "TRANSACT_TYPEHASH",
      "outputs": [
        {
          "name": "",
          "type": "bytes32"
        }
      ],
      "payable": false,
      "stateMutability": "view",
      "type": "function",
      "signature": "0x0df73116"
    },
    {
      "constant": true,
      "inputs": [],
      "name": "totalSupply",
      "outputs": [
        {
          "name": "",
          "type": "uint256"
        }
      ],
      "payable": false,
      "stateMutability": "view",
      "type": "function",
      "signature": "0x18160ddd"
    },
    {
      "constant": false,
      "inputs": [
        {
          "name": "_from",
          "type": "address"
        },
        {
          "name": "_to",
          "type": "address"
        },
        {
          "name": "_value",
          "type": "uint256"
        }
      ],
      "name": "transferFrom",
      "outputs": [
        {
          "name": "success",
          "type": "bool"
        }
      ],
      "payable": false,
      "stateMutability": "nonpayable",
      "type": "function",
      "signature": "0x23b872dd"
    },
    {
      "constant": true,
      "inputs": [
        {
          "name": "",
          "type": "address"
        }
      ],
      "name": "balances",
      "outputs": [
        {
          "name": "",
          "type": "uint256"
        }
      ],
      "payable": false,
      "stateMutability": "view",
      "type": "function",
      "signature": "0x27e235e3"
    },
    {
      "constant": true,
      "inputs": [],
      "name": "decimals",
      "outputs": [
        {
          "name": "",
          "type": "uint8"
        }
      ],
      "payable": false,
      "stateMutability": "view",
      "type": "function",
      "signature": "0x313ce567"
    },
    {
      "constant": true,
      "inputs": [],
      "name": "DOMAIN_SEPARATOR",
      "outputs": [
        {
          "name": "",
          "type": "bytes32"
        }
      ],
      "payable": false,
      "stateMutability": "view",
      "type": "function",
      "signature": "0x3644e515"
    },
    {
      "constant": true,
      "inputs": [],
      "name": "DEPOSIT_TYPEHASH",
      "outputs": [
        {
          "name": "",
          "type": "bytes32"
        }
      ],
      "payable": false,
      "stateMutability": "view",
      "type": "function",
      "signature": "0x48825e94"
    },
    {
      "constant": true,
      "inputs": [],
      "name": "supplyOf",
      "outputs": [
        {
          "name": "balance",
          "type": "uint256"
        }
      ],
      "payable": false,
      "stateMutability": "view",
      "type": "function",
      "signature": "0x523a50d0"
    },
    {
      "constant": true,
      "inputs": [],
      "name": "version",
      "outputs": [
        {
          "name": "",
          "type": "string"
        }
      ],
      "payable": false,
      "stateMutability": "view",
      "type": "function",
      "signature": "0x54fd4d50"
    },
    {
      "constant": true,
      "inputs": [
        {
          "name": "",
          "type": "address"
        },
        {
          "name": "",
          "type": "address"
        }
      ],
      "name": "allowed",
      "outputs": [
        {
          "name": "",
          "type": "uint256"
        }
      ],
      "payable": false,
      "stateMutability": "view",
      "type": "function",
      "signature": "0x5c658165"
    },
    {
      "constant": true,
      "inputs": [
        {
          "name": "_owner",
          "type": "address"
        }
      ],
      "name": "balanceOf",
      "outputs": [
        {
          "name": "balance",
          "type": "uint256"
        }
      ],
      "payable": false,
      "stateMutability": "view",
      "type": "function",
      "signature": "0x70a08231"
    },
    {
      "constant": true,
      "inputs": [],
      "name": "WITHDRAW_TYPEHASH",
      "outputs": [
        {
          "name": "",
          "type": "bytes32"
        }
      ],
      "payable": false,
      "stateMutability": "view",
      "type": "function",
      "signature": "0x76c5d758"
    },
    {
      "constant": true,
      "inputs": [
        {
          "name": "",
          "type": "address"
        }
      ],
      "name": "nonces",
      "outputs": [
        {
          "name": "",
          "type": "uint256"
        }
      ],
      "payable": false,
      "stateMutability": "view",
      "type": "function",
      "signature": "0x7ecebe00"
    },
    {
      "constant": true,
      "inputs": [],
      "name": "symbol",
      "outputs": [
        {
          "name": "",
          "type": "string"
        }
      ],
      "payable": false,
      "stateMutability": "view",
      "type": "function",
      "signature": "0x95d89b41"
    },
    {
      "constant": false,
      "inputs": [
        {
          "name": "_to",
          "type": "address"
        },
        {
          "name": "_value",
          "type": "uint256"
        }
      ],
      "name": "transfer",
      "outputs": [
        {
          "name": "success",
          "type": "bool"
        }
      ],
      "payable": false,
      "stateMutability": "nonpayable",
      "type": "function",
      "signature": "0xa9059cbb"
    },
    {
      "constant": true,
      "inputs": [
        {
          "name": "_owner",
          "type": "address"
        },
        {
          "name": "_spender",
          "type": "address"
        }
      ],
      "name": "allowance",
      "outputs": [
        {
          "name": "remaining",
          "type": "uint256"
        }
      ],
      "payable": false,
      "stateMutability": "view",
      "type": "function",
      "signature": "0xdd62ed3e"
    },
    {
      "constant": true,
      "inputs": [],
      "name": "ImplementationAddress",
      "outputs": [
        {
          "name": "",
          "type": "address"
        }
      ],
      "payable": false,
      "stateMutability": "view",
      "type": "function",
      "signature": "0xe8a667de"
    },
    {
      "constant": true,
      "inputs": [],
      "name": "admin",
      "outputs": [
        {
          "name": "",
          "type": "address"
        }
      ],
      "payable": false,
      "stateMutability": "view",
      "type": "function",
      "signature": "0xf851a440"
    },
    {
      "inputs": [
        {
          "name": "_chainId",
          "type": "uint256"
        }
      ],
      "payable": false,
      "stateMutability": "nonpayable",
      "type": "constructor",
      "signature": "constructor"
    },
    {
      "payable": false,
      "stateMutability": "nonpayable",
      "type": "fallback"
    },
    {
      "anonymous": false,
      "inputs": [
        {
          "indexed": true,
          "name": "_from",
          "type": "address"
        },
        {
          "indexed": true,
          "name": "_to",
          "type": "address"
        },
        {
          "indexed": false,
          "name": "_value",
          "type": "uint256"
        }
      ],
      "name": "Transfer",
      "type": "event",
      "signature": "0xddf252ad1be2c89b69c2b068fc378daa952ba7f163c4a11628f55a4df523b3ef"
    },
    {
      "anonymous": false,
      "inputs": [
        {
          "indexed": true,
          "name": "_owner",
          "type": "address"
        },
        {
          "indexed": true,
          "name": "_spender",
          "type": "address"
        },
        {
          "indexed": false,
          "name": "_value",
          "type": "uint256"
        }
      ],
      "name": "Approval",
      "type": "event",
      "signature": "0x8c5be1e5ebec7d5bd14f71427d1e84f3dd0314c0f7b2291e5b200ac8c7c3b925"
    },
    {
      "constant": false,
      "inputs": [
        {
          "name": "_newImplemenationAddress",
          "type": "address"
        }
      ],
      "name": "updateLogic",
      "outputs": [],
      "payable": false,
      "stateMutability": "nonpayable",
      "type": "function",
      "signature": "0x795e617e"
    },
    {
      "constant": false,
      "inputs": [
        {
          "name": "holder",
          "type": "address"
        },
        {
          "name": "value",
          "type": "uint256"
        },
        {
          "name": "nonce",
          "type": "uint256"
        },
        {
          "name": "r",
          "type": "bytes32"
        },
        {
          "name": "s",
          "type": "bytes32"
        },
        {
          "name": "v",
          "type": "uint8"
        }
      ],
      "name": "deposit",
      "outputs": [
        {
          "name": "",
          "type": "bool"
        }
      ],
      "payable": false,
      "stateMutability": "nonpayable",
      "type": "function",
      "signature": "0xcfefd241"
    },
    {
      "constant": false,
      "inputs": [
        {
          "name": "holder",
          "type": "address"
        },
        {
          "name": "value",
          "type": "uint256"
        },
        {
          "name": "nonce",
          "type": "uint256"
        },
        {
          "name": "r",
          "type": "bytes32"
        },
        {
          "name": "s",
          "type": "bytes32"
        },
        {
          "name": "v",
          "type": "uint8"
        }
      ],
      "name": "withdraw",
      "outputs": [
        {
          "name": "",
          "type": "bool"
        }
      ],
      "payable": false,
      "stateMutability": "nonpayable",
      "type": "function",
      "signature": "0xcbb40dae"
    },
    {
      "constant": false,
      "inputs": [
        {
          "name": "holder",
          "type": "address"
        },
        {
          "name": "to",
          "type": "address"
        },
        {
          "name": "value",
          "type": "uint256"
        },
        {
          "name": "nonce",
          "type": "uint256"
        },
        {
          "name": "r",
          "type": "bytes32"
        },
        {
          "name": "s",
          "type": "bytes32"
        },
        {
          "name": "v",
          "type": "uint8"
        }
      ],
      "name": "transact",
      "outputs": [
        {
          "name": "",
          "type": "bool"
        }
      ],
      "payable": false,
      "stateMutability": "nonpayable",
      "type": "function",
      "signature": "0x12c6abb8"
    },
    {
      "constant": true,
      "inputs": [],
      "name": "checkProfits",
      "outputs": [
        {
          "name": "",
          "type": "uint256"
        }
      ],
      "payable": false,
      "stateMutability": "view",
      "type": "function",
      "signature": "0xd7a8e87b"
    },
    {
      "constant": false,
      "inputs": [],
      "name": "spitProfits",
      "outputs": [
        {
          "name": "",
          "type": "bool"
        }
      ],
      "payable": false,
      "stateMutability": "nonpayable",
      "type": "function",
      "signature": "0x890268f8"
    }
  ],
  "bytecode": "0x608060405273e7bc397dbd069fc7d0109c0636d06888bb50668c600460006101000a81548173ffffffffffffffffffffffffffffffffffffffff021916908373ffffffffffffffffffffffffffffffffffffffff160217905550600460009054906101000a900473ffffffffffffffffffffffffffffffffffffffff16600560006101000a81548173ffffffffffffffffffffffffffffffffffffffff021916908373ffffffffffffffffffffffffffffffffffffffff160217905550734f96fe3b7a6cf9725f59d353f723c1bdb64ca6aa600660006101000a81548173ffffffffffffffffffffffffffffffffffffffff021916908373ffffffffffffffffffffffffffffffffffffffff160217905550600660009054906101000a900473ffffffffffffffffffffffffffffffffffffffff16600760006101000a81548173ffffffffffffffffffffffffffffffffffffffff021916908373ffffffffffffffffffffffffffffffffffffffff1602179055503480156200018157600080fd5b50604051602080620025c88339810180604052620001a3919081019062000331565b60405180807f454950373132446f6d61696e28737472696e67206e616d652c737472696e672081526020017f76657273696f6e2c75696e7432353620636861696e49642c616464726573732081526020017f766572696679696e67436f6e7472616374290000000000000000000000000000815250605201905060405180910390206040805190810160405280600b81526020017f506f75636820546f6b656e000000000000000000000000000000000000000000815250805190602001206040805190810160405280600181526020017f3100000000000000000000000000000000000000000000000000000000000000815250805190602001208330604051602001620002b795949392919062000390565b6040516020818303038152906040528051906020012060098190555033600360006101000a81548173ffffffffffffffffffffffffffffffffffffffff021916908373ffffffffffffffffffffffffffffffffffffffff160217905550506200043f565b600062000329825162000435565b905092915050565b6000602082840312156200034457600080fd5b600062000354848285016200031b565b91505092915050565b6200036881620003ed565b82525050565b620003798162000401565b82525050565b6200038a816200042b565b82525050565b600060a082019050620003a760008301886200036e565b620003b660208301876200036e565b620003c560408301866200036e565b620003d460608301856200037f565b620003e360808301846200035d565b9695505050505050565b6000620003fa826200040b565b9050919050565b6000819050919050565b600073ffffffffffffffffffffffffffffffffffffffff82169050919050565b6000819050919050565b6000819050919050565b612179806200044f6000396000f3fe608060405260043610610154576000357c0100000000000000000000000000000000000000000000000000000000900463ffffffff16806306fdde0314610207578063095ea7b3146102325780630df731161461026f57806312c6abb81461029a57806318160ddd146102d757806323b872dd1461030257806327e235e31461033f578063313ce5671461037c5780633644e515146103a757806348825e94146103d2578063523a50d0146103fd57806354fd4d50146104285780635c6581651461045357806370a082311461049057806376c5d758146104cd578063795e617e146104f85780637ecebe0014610521578063890268f81461055e57806395d89b4114610589578063a9059cbb146105b4578063cbb40dae146105f1578063cfefd2411461062e578063d7a8e87b1461066b578063dd62ed3e14610696578063e8a667de146106d3578063f851a440146106fe575b34801561016057600080fd5b506000600860009054906101000a900473ffffffffffffffffffffffffffffffffffffffff1673ffffffffffffffffffffffffffffffffffffffff16600036604051808383808284378083019250505092505050600060405180830381855af49150503d80600081146101ef576040519150601f19603f3d011682016040523d82523d6000602084013e6101f4565b606091505b5050905080151561020457600080fd5b50005b34801561021357600080fd5b5061021c610729565b6040516102299190611fba565b60405180910390f35b34801561023e57600080fd5b5061025960048036036102549190810190611c93565b610762565b6040516102669190611f84565b60405180910390f35b34801561027b57600080fd5b50610284610854565b6040516102919190611f9f565b60405180910390f35b3480156102a657600080fd5b506102c160048036036102bc9190810190611bf5565b6108b3565b6040516102ce9190611f84565b60405180910390f35b3480156102e357600080fd5b506102ec610a95565b6040516102f9919061201c565b60405180910390f35b34801561030e57600080fd5b5061032960048036036103249190810190611ba6565b610a9b565b6040516103369190611f84565b60405180910390f35b34801561034b57600080fd5b5061036660048036036103619190810190611b41565b610d35565b604051610373919061201c565b60405180910390f35b34801561038857600080fd5b50610391610d4d565b60405161039e9190612037565b60405180910390f35b3480156103b357600080fd5b506103bc610d52565b6040516103c99190611f9f565b60405180910390f35b3480156103de57600080fd5b506103e7610d58565b6040516103f49190611f9f565b60405180910390f35b34801561040957600080fd5b50610412610db7565b60405161041f919061201c565b60405180910390f35b34801561043457600080fd5b5061043d610dc0565b60405161044a9190611fba565b60405180910390f35b34801561045f57600080fd5b5061047a60048036036104759190810190611b6a565b610df9565b604051610487919061201c565b60405180910390f35b34801561049c57600080fd5b506104b760048036036104b29190810190611b41565b610e1e565b6040516104c4919061201c565b60405180910390f35b3480156104d957600080fd5b506104e2610e67565b6040516104ef9190611f9f565b60405180910390f35b34801561050457600080fd5b5061051f600480360361051a9190810190611b41565b610ec6565b005b34801561052d57600080fd5b5061054860048036036105439190810190611b41565b61102e565b604051610555919061201c565b60405180910390f35b34801561056a57600080fd5b50610573611046565b6040516105809190611f84565b60405180910390f35b34801561059557600080fd5b5061059e611276565b6040516105ab9190611fba565b60405180910390f35b3480156105c057600080fd5b506105db60048036036105d69190810190611c93565b6112af565b6040516105e89190611f84565b60405180910390f35b3480156105fd57600080fd5b5061061860048036036106139190810190611ccf565b611408565b6040516106259190611f84565b60405180910390f35b34801561063a57600080fd5b5061065560048036036106509190810190611ccf565b6115e7565b6040516106629190611f84565b60405180910390f35b34801561067757600080fd5b506106806117c6565b60405161068d919061201c565b60405180910390f35b3480156106a257600080fd5b506106bd60048036036106b89190810190611b6a565b6119f6565b6040516106ca919061201c565b60405180910390f35b3480156106df57600080fd5b506106e8611a7d565b6040516106f59190611e99565b60405180910390f35b34801561070a57600080fd5b50610713611aa3565b6040516107209190611e99565b60405180910390f35b6040805190810160405280600b81526020017f506f75636820546f6b656e00000000000000000000000000000000000000000081525081565b600081600260003373ffffffffffffffffffffffffffffffffffffffff1673ffffffffffffffffffffffffffffffffffffffff16815260200190815260200160002060008573ffffffffffffffffffffffffffffffffffffffff1673ffffffffffffffffffffffffffffffffffffffff168152602001908152602001600020819055508273ffffffffffffffffffffffffffffffffffffffff163373ffffffffffffffffffffffffffffffffffffffff167f8c5be1e5ebec7d5bd14f71427d1e84f3dd0314c0f7b2291e5b200ac8c7c3b92584604051610842919061201c565b60405180910390a36001905092915050565b60405180807f5472616e73616374286164647265737320686f6c6465722c616464726573732081526020017f746f2c75696e743235362076616c75652c75696e74323536206e6f6e63652900815250603f019050604051809103902081565b6000806060600860009054906101000a900473ffffffffffffffffffffffffffffffffffffffff1673ffffffffffffffffffffffffffffffffffffffff1660405180807f7472616e7361637428616464726573732c616464726573732c75696e7432353681526020017f2c75696e743235362c627974657333322c627974657333322c75696e74382900815250603f01905060405180910390208b8b8b8b8b8b8b60405160240161096a9796959493929190611eb4565b604051602081830303815290604052907bffffffffffffffffffffffffffffffffffffffffffffffffffffffff19166020820180517bffffffffffffffffffffffffffffffffffffffffffffffffffffffff83818316178352505050506040518082805190602001908083835b6020831015156109fc57805182526020820191506020810190506020830392506109d7565b6001836020036101000a038019825116818451168082178552505050505050905001915050600060405180830381855af49150503d8060008114610a5c576040519150601f19603f3d011682016040523d82523d6000602084013e610a61565b606091505b5091509150811515610a7257600080fd5b80806020019051610a869190810190611d58565b92505050979650505050505050565b60005481565b600080600260008673ffffffffffffffffffffffffffffffffffffffff1673ffffffffffffffffffffffffffffffffffffffff16815260200190815260200160002060003373ffffffffffffffffffffffffffffffffffffffff1673ffffffffffffffffffffffffffffffffffffffff16815260200190815260200160002054905082600160008773ffffffffffffffffffffffffffffffffffffffff1673ffffffffffffffffffffffffffffffffffffffff1681526020019081526020016000205410158015610b6c5750828110155b1515610b7757600080fd5b82600160008673ffffffffffffffffffffffffffffffffffffffff1673ffffffffffffffffffffffffffffffffffffffff1681526020019081526020016000206000828254019250508190555082600160008773ffffffffffffffffffffffffffffffffffffffff1673ffffffffffffffffffffffffffffffffffffffff168152602001908152602001600020600082825403925050819055507fffffffffffffffffffffffffffffffffffffffffffffffffffffffffffffffff811015610cc45782600260008773ffffffffffffffffffffffffffffffffffffffff1673ffffffffffffffffffffffffffffffffffffffff16815260200190815260200160002060003373ffffffffffffffffffffffffffffffffffffffff1673ffffffffffffffffffffffffffffffffffffffff168152602001908152602001600020600082825403925050819055505b8373ffffffffffffffffffffffffffffffffffffffff168573ffffffffffffffffffffffffffffffffffffffff167fddf252ad1be2c89b69c2b068fc378daa952ba7f163c4a11628f55a4df523b3ef85604051610d21919061201c565b60405180910390a360019150509392505050565b60016020528060005260406000206000915090505481565b601281565b60095481565b60405180807f4465706f736974286164647265737320686f6c6465722c75696e74323536207681526020017f616c75652c75696e74323536206e6f6e636529000000000000000000000000008152506033019050604051809103902081565b60008054905090565b6040805190810160405280600181526020017f310000000000000000000000000000000000000000000000000000000000000081525081565b6002602052816000526040600020602052806000526040600020600091509150505481565b6000600160008373ffffffffffffffffffffffffffffffffffffffff1673ffffffffffffffffffffffffffffffffffffffff168152602001908152602001600020549050919050565b60405180807f5769746864726177286164647265737320686f6c6465722c75696e743235362081526020017f76616c75652c75696e74323536206e6f6e6365290000000000000000000000008152506034019050604051809103902081565b600360009054906101000a900473ffffffffffffffffffffffffffffffffffffffff1673ffffffffffffffffffffffffffffffffffffffff163373ffffffffffffffffffffffffffffffffffffffff16141515610f58576040517f08c379a0000000000000000000000000000000000000000000000000000000008152600401610f4f90611fdc565b60405180910390fd5b600360009054906101000a900473ffffffffffffffffffffffffffffffffffffffff1673ffffffffffffffffffffffffffffffffffffffff163373ffffffffffffffffffffffffffffffffffffffff16141515610fea576040517f08c379a0000000000000000000000000000000000000000000000000000000008152600401610fe190611ffc565b60405180910390fd5b80600860006101000a81548173ffffffffffffffffffffffffffffffffffffffff021916908373ffffffffffffffffffffffffffffffffffffffff16021790555050565b600a6020528060005260406000206000915090505481565b6000600360009054906101000a900473ffffffffffffffffffffffffffffffffffffffff1673ffffffffffffffffffffffffffffffffffffffff163373ffffffffffffffffffffffffffffffffffffffff161415156110da576040517f08c379a00000000000000000000000000000000000000000000000000000000081526004016110d190611fdc565b60405180910390fd5b60006060600860009054906101000a900473ffffffffffffffffffffffffffffffffffffffff1673ffffffffffffffffffffffffffffffffffffffff1660405180807f7370697450726f66697473282900000000000000000000000000000000000000815250600d0190506040518091039020604051602401604051602081830303815290604052907bffffffffffffffffffffffffffffffffffffffffffffffffffffffff19166020820180517bffffffffffffffffffffffffffffffffffffffffffffffffffffffff83818316178352505050506040518082805190602001908083835b6020831015156111e557805182526020820191506020810190506020830392506111c0565b6001836020036101000a038019825116818451168082178552505050505050905001915050600060405180830381855af49150503d8060008114611245576040519150601f19603f3d011682016040523d82523d6000602084013e61124a565b606091505b509150915081151561125b57600080fd5b8080602001905161126f9190810190611d58565b9250505090565b6040805190810160405280600381526020017f504348000000000000000000000000000000000000000000000000000000000081525081565b600081600160003373ffffffffffffffffffffffffffffffffffffffff1673ffffffffffffffffffffffffffffffffffffffff16815260200190815260200160002054101515156112ff57600080fd5b81600160003373ffffffffffffffffffffffffffffffffffffffff1673ffffffffffffffffffffffffffffffffffffffff1681526020019081526020016000206000828254039250508190555081600160008573ffffffffffffffffffffffffffffffffffffffff1673ffffffffffffffffffffffffffffffffffffffff168152602001908152602001600020600082825401925050819055508273ffffffffffffffffffffffffffffffffffffffff163373ffffffffffffffffffffffffffffffffffffffff167fddf252ad1be2c89b69c2b068fc378daa952ba7f163c4a11628f55a4df523b3ef846040516113f6919061201c565b60405180910390a36001905092915050565b6000806060600860009054906101000a900473ffffffffffffffffffffffffffffffffffffffff1673ffffffffffffffffffffffffffffffffffffffff1660405180807f776974686472617728616464726573732c75696e743235362c75696e7432353681526020017f2c627974657333322c627974657333322c75696e743829000000000000000000815250603701905060405180910390208a8a8a8a8a8a6040516024016114bd96959493929190611f23565b604051602081830303815290604052907bffffffffffffffffffffffffffffffffffffffffffffffffffffffff19166020820180517bffffffffffffffffffffffffffffffffffffffffffffffffffffffff83818316178352505050506040518082805190602001908083835b60208310151561154f578051825260208201915060208101905060208303925061152a565b6001836020036101000a038019825116818451168082178552505050505050905001915050600060405180830381855af49150503d80600081146115af576040519150601f19603f3d011682016040523d82523d6000602084013e6115b4565b606091505b50915091508115156115c557600080fd5b808060200190516115d99190810190611d58565b925050509695505050505050565b6000806060600860009054906101000a900473ffffffffffffffffffffffffffffffffffffffff1673ffffffffffffffffffffffffffffffffffffffff1660405180807f6465706f73697428616464726573732c75696e743235362c75696e743235362c81526020017f627974657333322c627974657333322c75696e74382900000000000000000000815250603601905060405180910390208a8a8a8a8a8a60405160240161169c96959493929190611f23565b604051602081830303815290604052907bffffffffffffffffffffffffffffffffffffffffffffffffffffffff19166020820180517bffffffffffffffffffffffffffffffffffffffffffffffffffffffff83818316178352505050506040518082805190602001908083835b60208310151561172e5780518252602082019150602081019050602083039250611709565b6001836020036101000a038019825116818451168082178552505050505050905001915050600060405180830381855af49150503d806000811461178e576040519150601f19603f3d011682016040523d82523d6000602084013e611793565b606091505b50915091508115156117a457600080fd5b808060200190516117b89190810190611d58565b925050509695505050505050565b6000600360009054906101000a900473ffffffffffffffffffffffffffffffffffffffff1673ffffffffffffffffffffffffffffffffffffffff163373ffffffffffffffffffffffffffffffffffffffff1614151561185a576040517f08c379a000000000000000000000000000000000000000000000000000000000815260040161185190611fdc565b60405180910390fd5b60006060600860009054906101000a900473ffffffffffffffffffffffffffffffffffffffff1673ffffffffffffffffffffffffffffffffffffffff1660405180807f636865636b50726f666974732829000000000000000000000000000000000000815250600e0190506040518091039020604051602401604051602081830303815290604052907bffffffffffffffffffffffffffffffffffffffffffffffffffffffff19166020820180517bffffffffffffffffffffffffffffffffffffffffffffffffffffffff83818316178352505050506040518082805190602001908083835b6020831015156119655780518252602082019150602081019050602083039250611940565b6001836020036101000a038019825116818451168082178552505050505050905001915050600060405180830381855afa9150503d80600081146119c5576040519150601f19603f3d011682016040523d82523d6000602084013e6119ca565b606091505b50915091508115156119db57600080fd5b808060200190516119ef9190810190611d81565b9250505090565b6000600260008473ffffffffffffffffffffffffffffffffffffffff1673ffffffffffffffffffffffffffffffffffffffff16815260200190815260200160002060008373ffffffffffffffffffffffffffffffffffffffff1673ffffffffffffffffffffffffffffffffffffffff16815260200190815260200160002054905092915050565b600860009054906101000a900473ffffffffffffffffffffffffffffffffffffffff1681565b600360009054906101000a900473ffffffffffffffffffffffffffffffffffffffff1681565b6000611ad582356120bc565b905092915050565b6000611ae982516120ce565b905092915050565b6000611afd82356120da565b905092915050565b6000611b1182356120e4565b905092915050565b6000611b2582516120e4565b905092915050565b6000611b3982356120ee565b905092915050565b600060208284031215611b5357600080fd5b6000611b6184828501611ac9565b91505092915050565b60008060408385031215611b7d57600080fd5b6000611b8b85828601611ac9565b9250506020611b9c85828601611ac9565b9150509250929050565b600080600060608486031215611bbb57600080fd5b6000611bc986828701611ac9565b9350506020611bda86828701611ac9565b9250506040611beb86828701611b05565b9150509250925092565b600080600080600080600060e0888a031215611c1057600080fd5b6000611c1e8a828b01611ac9565b9750506020611c2f8a828b01611ac9565b9650506040611c408a828b01611b05565b9550506060611c518a828b01611b05565b9450506080611c628a828b01611af1565b93505060a0611c738a828b01611af1565b92505060c0611c848a828b01611b2d565b91505092959891949750929550565b60008060408385031215611ca657600080fd5b6000611cb485828601611ac9565b9250506020611cc585828601611b05565b9150509250929050565b60008060008060008060c08789031215611ce857600080fd5b6000611cf689828a01611ac9565b9650506020611d0789828a01611b05565b9550506040611d1889828a01611b05565b9450506060611d2989828a01611af1565b9350506080611d3a89828a01611af1565b92505060a0611d4b89828a01611b2d565b9150509295509295509295565b600060208284031215611d6a57600080fd5b6000611d7884828501611add565b91505092915050565b600060208284031215611d9357600080fd5b6000611da184828501611b19565b91505092915050565b611db38161205d565b82525050565b611dc28161206f565b82525050565b611dd18161207b565b82525050565b6000611de282612052565b808452611df68160208601602086016120fb565b611dff8161212e565b602085010191505092915050565b6000601f82527f526573747269637465642041636365737320746f2041646d696e204f6e6c79006020830152604082019050919050565b6000600a82527f41646d696e204f6e6c79000000000000000000000000000000000000000000006020830152604082019050919050565b611e84816120a5565b82525050565b611e93816120af565b82525050565b6000602082019050611eae6000830184611daa565b92915050565b600060e082019050611ec9600083018a611daa565b611ed66020830189611daa565b611ee36040830188611e7b565b611ef06060830187611e7b565b611efd6080830186611dc8565b611f0a60a0830185611dc8565b611f1760c0830184611e8a565b98975050505050505050565b600060c082019050611f386000830189611daa565b611f456020830188611e7b565b611f526040830187611e7b565b611f5f6060830186611dc8565b611f6c6080830185611dc8565b611f7960a0830184611e8a565b979650505050505050565b6000602082019050611f996000830184611db9565b92915050565b6000602082019050611fb46000830184611dc8565b92915050565b60006020820190508181036000830152611fd48184611dd7565b905092915050565b60006020820190508181036000830152611ff581611e0d565b9050919050565b6000602082019050818103600083015261201581611e44565b9050919050565b60006020820190506120316000830184611e7b565b92915050565b600060208201905061204c6000830184611e8a565b92915050565b600081519050919050565b600061206882612085565b9050919050565b60008115159050919050565b6000819050919050565b600073ffffffffffffffffffffffffffffffffffffffff82169050919050565b6000819050919050565b600060ff82169050919050565b60006120c782612085565b9050919050565b60008115159050919050565b6000819050919050565b6000819050919050565b600060ff82169050919050565b60005b838110156121195780820151818401526020810190506120fe565b83811115612128576000848401525b50505050565b6000601f19601f830116905091905056fea265627a7a72305820b883285be7af1d005185984c0a23dedac99fa5d41f7e0510a372de0dcfd09cfe6c6578706572696d656e74616cf50037",
  "source": "pragma solidity >=0.5.0;\npragma experimental ABIEncoderV2;\n\nimport \"./PouchToken.sol\";\n\n//  ** Inheritance of Pouch Token to Make Delegate Calls to implementation Contract. **\n\ncontract PouchDelegate is PouchToken {\n    constructor(uint256 _chainId) public {\n        DOMAIN_SEPARATOR = keccak256(\n            abi.encode(\n                keccak256(\n                    \"EIP712Domain(string name,string version,uint256 chainId,address verifyingContract)\"\n                ),\n                keccak256(bytes(name)),\n                keccak256(bytes(version)),\n                _chainId,\n                address(this)\n            )\n        );\n\n        admin = msg.sender;\n    }\n\n    // ** Internal Functions **\n\n    modifier adminOnly() {\n        require(msg.sender == admin, \"Restricted Access to Admin Only\");\n        _;\n    }\n\n    // ** Update Implementation Address **\n    function updateLogic(address _newImplemenationAddress) external adminOnly {\n        require(msg.sender == admin, \"Admin Only\");\n        ImplementationAddress = _newImplemenationAddress;\n    }\n\n    // ** Delegate calls **\n\n    // Deposit delegate call\n    function deposit(\n        address holder,\n        uint256 value,\n        uint256 nonce,\n        bytes32 r,\n        bytes32 s,\n        uint8 v\n    ) public returns (bool) {\n        (bool status, bytes memory returnedData) = ImplementationAddress\n            .delegatecall(\n            abi.encodeWithSelector(\n                bytes4(\n                    keccak256(\n                        \"deposit(address,uint256,uint256,bytes32,bytes32,uint8)\"\n                    )\n                ),\n                holder,\n                value,\n                nonce,\n                r,\n                s,\n                v\n            )\n        );\n        require(status);\n        return abi.decode(returnedData, (bool));\n    }\n\n    // Withdraw delegate call\n    function withdraw(\n        address holder,\n        uint256 value,\n        uint256 nonce,\n        bytes32 r,\n        bytes32 s,\n        uint8 v\n    ) public returns (bool) {\n        (bool status, bytes memory returnedData) = ImplementationAddress\n            .delegatecall(\n            abi.encodeWithSelector(\n                bytes4(\n                    keccak256(\n                        \"withdraw(address,uint256,uint256,bytes32,bytes32,uint8)\"\n                    )\n                ),\n                holder,\n                value,\n                nonce,\n                r,\n                s,\n                v\n            )\n        );\n        require(status);\n        return abi.decode(returnedData, (bool));\n    }\n\n    // Transact delegate call\n    function transact(\n        address holder,\n        address to,\n        uint256 value,\n        uint256 nonce,\n        bytes32 r,\n        bytes32 s,\n        uint8 v\n    ) public returns (bool) {\n        (bool status, bytes memory returnedData) = ImplementationAddress\n            .delegatecall(\n            abi.encodeWithSelector(\n                bytes4(\n                    keccak256(\n                        \"transact(address,address,uint256,uint256,bytes32,bytes32,uint8)\"\n                    )\n                ),\n                holder,\n                to,\n                value,\n                nonce,\n                r,\n                s,\n                v\n            )\n        );\n        require(status);\n        return abi.decode(returnedData, (bool));\n    }\n\n    // Check Profits delegate call\n    function checkProfits() public view adminOnly returns (uint256) {\n        (bool status, bytes memory returnedData) = ImplementationAddress\n            .staticcall(\n            abi.encodeWithSelector(bytes4(keccak256(\"checkProfits()\")))\n        );\n        require(status);\n        return abi.decode(returnedData, (uint256));\n    }\n\n    // Split Profits delegate call\n    function spitProfits() public adminOnly returns (bool) {\n        (bool status, bytes memory returnedData) = ImplementationAddress\n            .delegatecall(\n            abi.encodeWithSelector(bytes4(keccak256(\"spitProfits()\")))\n        );\n        require(status);\n        return abi.decode(returnedData, (bool));\n    }\n\n    /**\n     * @notice Delegates execution to an implementation contract\n     * @dev It returns to the external caller whatever the implementation returns or forwards reverts\n     */\n    function() external {\n        // delegate all other functions to current implementation\n        (bool status, ) = ImplementationAddress.delegatecall(msg.data);\n        require(status);\n\n    }\n\n}\n",
  "sourcePath": "/home/roheat/blockchain/projects/biconomy/boundless/contracts/PouchDelegate.sol",
  "compiler": {
    "name": "solc",
    "version": "0.5.0+commit.1d4f565a.Emscripten.clang"
  },
  "schemaVersion": "3.0.1",
  "updatedAt": "2020-02-19T19:36:17.451Z",
  "devdoc": {
    "methods": {}
  },
  "userdoc": {
    "methods": {}
  }
}